{
  "contractName": "SupplyChain",
  "abi": [
    {
      "inputs": [],
      "payable": false,
      "stateMutability": "nonpayable",
      "type": "constructor"
    },
    {
      "anonymous": false,
      "inputs": [
        {
          "indexed": false,
          "internalType": "uint256",
          "name": "id",
          "type": "uint256"
        },
        {
          "indexed": false,
          "internalType": "string",
          "name": "title",
          "type": "string"
        }
      ],
      "name": "CategoryAdded",
      "type": "event"
    },
    {
      "anonymous": false,
      "inputs": [
        {
          "indexed": false,
          "internalType": "uint256",
          "name": "id",
          "type": "uint256"
        },
        {
          "indexed": false,
          "internalType": "string",
          "name": "title",
          "type": "string"
        }
      ],
      "name": "CategoryUpdated",
      "type": "event"
    },
    {
      "anonymous": false,
      "inputs": [
        {
          "indexed": false,
          "internalType": "uint256",
          "name": "id",
          "type": "uint256"
        },
        {
          "indexed": false,
          "internalType": "string",
          "name": "name",
          "type": "string"
        }
      ],
      "name": "ProductAdded",
      "type": "event"
    },
    {
      "anonymous": false,
      "inputs": [
        {
          "indexed": false,
          "internalType": "uint256",
          "name": "id",
          "type": "uint256"
        },
        {
          "indexed": false,
          "internalType": "enum SupplyChain.STAGE",
          "name": "newStage",
          "type": "uint8"
        }
      ],
      "name": "ProductStageUpdated",
      "type": "event"
    },
    {
      "anonymous": false,
      "inputs": [
        {
          "indexed": false,
          "internalType": "uint256",
          "name": "id",
          "type": "uint256"
        },
        {
          "indexed": false,
          "internalType": "string",
          "name": "name",
          "type": "string"
        }
      ],
      "name": "ProductUpdated",
      "type": "event"
    },
    {
      "anonymous": false,
      "inputs": [
        {
          "indexed": false,
          "internalType": "uint256",
          "name": "id",
          "type": "uint256"
        },
        {
          "indexed": false,
          "internalType": "string",
          "name": "name",
          "type": "string"
        }
      ],
      "name": "RawMaterialAdded",
      "type": "event"
    },
    {
      "anonymous": false,
      "inputs": [
        {
          "indexed": false,
          "internalType": "uint256",
          "name": "id",
          "type": "uint256"
        },
        {
          "indexed": false,
          "internalType": "string",
          "name": "name",
          "type": "string"
        }
      ],
      "name": "RawMaterialUpdated",
      "type": "event"
    },
    {
      "anonymous": false,
      "inputs": [
        {
          "indexed": false,
          "internalType": "uint256",
          "name": "id",
          "type": "uint256"
        },
        {
          "indexed": false,
          "internalType": "uint256",
          "name": "senderId",
          "type": "uint256"
        },
        {
          "indexed": false,
          "internalType": "uint256",
          "name": "receiverId",
          "type": "uint256"
        },
        {
          "indexed": false,
          "internalType": "uint256",
          "name": "distributorId",
          "type": "uint256"
        },
        {
          "indexed": false,
          "internalType": "uint256",
          "name": "pickupTime",
          "type": "uint256"
        },
        {
          "indexed": false,
          "internalType": "uint256",
          "name": "distance",
          "type": "uint256"
        },
        {
          "indexed": false,
          "internalType": "uint256",
          "name": "price",
          "type": "uint256"
        },
        {
          "indexed": false,
          "internalType": "string",
          "name": "description",
          "type": "string"
        }
      ],
      "name": "ShipmentCreated",
      "type": "event"
    },
    {
      "anonymous": false,
      "inputs": [
        {
          "indexed": false,
          "internalType": "uint256",
          "name": "senderId",
          "type": "uint256"
        },
        {
          "indexed": false,
          "internalType": "uint256",
          "name": "receiverId",
          "type": "uint256"
        },
        {
          "indexed": false,
          "internalType": "uint256",
          "name": "deliveryTime",
          "type": "uint256"
        }
      ],
      "name": "ShipmentDelivered",
      "type": "event"
    },
    {
      "anonymous": false,
      "inputs": [
        {
          "indexed": false,
          "internalType": "uint256",
          "name": "senderId",
          "type": "uint256"
        },
        {
          "indexed": false,
          "internalType": "uint256",
          "name": "receiverId",
          "type": "uint256"
        },
        {
          "indexed": false,
          "internalType": "uint256",
          "name": "pickupTime",
          "type": "uint256"
        }
      ],
      "name": "ShipmentInTransit",
      "type": "event"
    },
    {
      "anonymous": false,
      "inputs": [
        {
          "indexed": false,
          "internalType": "uint256",
          "name": "senderId",
          "type": "uint256"
        },
        {
          "indexed": false,
          "internalType": "uint256",
          "name": "receiverId",
          "type": "uint256"
        },
        {
          "indexed": false,
          "internalType": "uint256",
          "name": "amount",
          "type": "uint256"
        }
      ],
      "name": "ShipmentPaid",
      "type": "event"
    },
    {
      "constant": true,
      "inputs": [],
      "name": "Owner",
      "outputs": [
        {
          "internalType": "address",
          "name": "",
          "type": "address"
        }
      ],
      "payable": false,
      "stateMutability": "view",
      "type": "function"
    },
    {
      "constant": true,
      "inputs": [
        {
          "internalType": "uint256",
          "name": "",
          "type": "uint256"
        }
      ],
      "name": "categories",
      "outputs": [
        {
          "internalType": "uint256",
          "name": "id",
          "type": "uint256"
        },
        {
          "internalType": "string",
          "name": "title",
          "type": "string"
        },
        {
          "internalType": "bool",
          "name": "isActive",
          "type": "bool"
        }
      ],
      "payable": false,
      "stateMutability": "view",
      "type": "function"
    },
    {
      "constant": true,
      "inputs": [],
      "name": "categoryCtr",
      "outputs": [
        {
          "internalType": "uint256",
          "name": "",
          "type": "uint256"
        }
      ],
      "payable": false,
      "stateMutability": "view",
      "type": "function"
    },
    {
      "constant": true,
      "inputs": [],
      "name": "productCtr",
      "outputs": [
        {
          "internalType": "uint256",
          "name": "",
          "type": "uint256"
        }
      ],
      "payable": false,
      "stateMutability": "view",
      "type": "function"
    },
    {
      "constant": true,
      "inputs": [
        {
          "internalType": "uint256",
          "name": "",
          "type": "uint256"
        },
        {
          "internalType": "uint256",
          "name": "",
          "type": "uint256"
        }
      ],
      "name": "productHistories",
      "outputs": [
        {
          "internalType": "uint256",
          "name": "timestamp",
          "type": "uint256"
        },
        {
          "internalType": "uint256",
          "name": "handlerId",
          "type": "uint256"
        },
        {
          "internalType": "enum SupplyChain.STAGE",
          "name": "stage",
          "type": "uint8"
        }
      ],
      "payable": false,
      "stateMutability": "view",
      "type": "function"
    },
    {
      "constant": true,
      "inputs": [
        {
          "internalType": "uint256",
          "name": "",
          "type": "uint256"
        }
      ],
      "name": "productStock",
      "outputs": [
        {
          "internalType": "uint256",
          "name": "id",
          "type": "uint256"
        },
        {
          "internalType": "string",
          "name": "name",
          "type": "string"
        },
        {
          "internalType": "string",
          "name": "description",
          "type": "string"
        },
        {
          "internalType": "uint256",
          "name": "price",
          "type": "uint256"
        },
        {
          "components": [
            {
              "internalType": "uint256",
              "name": "id",
              "type": "uint256"
            },
            {
              "internalType": "string",
              "name": "title",
              "type": "string"
            },
            {
              "internalType": "bool",
              "name": "isActive",
              "type": "bool"
            }
          ],
          "internalType": "struct SupplyChain.Category",
          "name": "category",
          "type": "tuple"
        },
        {
          "internalType": "uint256",
          "name": "manufacturerId",
          "type": "uint256"
        },
        {
          "internalType": "uint256",
          "name": "distributorId",
          "type": "uint256"
        },
        {
          "internalType": "string",
          "name": "productAddress",
          "type": "string"
        },
        {
          "internalType": "bool",
          "name": "isActive",
          "type": "bool"
        },
        {
          "internalType": "string",
          "name": "image",
          "type": "string"
        },
        {
          "internalType": "uint256",
          "name": "produitOriginID",
          "type": "uint256"
        },
        {
          "internalType": "enum SupplyChain.STAGE",
          "name": "stage",
          "type": "uint8"
        }
      ],
      "payable": false,
      "stateMutability": "view",
      "type": "function"
    },
    {
      "constant": true,
      "inputs": [
        {
          "internalType": "uint256",
          "name": "",
          "type": "uint256"
        }
      ],
      "name": "rms",
      "outputs": [
        {
          "internalType": "uint256",
          "name": "id",
          "type": "uint256"
        },
        {
          "internalType": "string",
          "name": "name",
          "type": "string"
        },
        {
          "internalType": "string",
          "name": "description",
          "type": "string"
        },
        {
          "internalType": "uint256",
          "name": "price",
          "type": "uint256"
        },
        {
          "internalType": "uint256",
          "name": "userId",
          "type": "uint256"
        },
        {
          "internalType": "string",
          "name": "image",
          "type": "string"
        },
        {
          "components": [
            {
              "internalType": "string",
              "name": "text",
              "type": "string"
            },
            {
              "internalType": "int256[2]",
              "name": "coordinate",
              "type": "int256[2]"
            }
          ],
          "internalType": "struct SupplyChain.Address",
          "name": "origin",
          "type": "tuple"
        }
      ],
      "payable": false,
      "stateMutability": "view",
      "type": "function"
    },
    {
      "constant": true,
      "inputs": [],
      "name": "rmsCtr",
      "outputs": [
        {
          "internalType": "uint256",
          "name": "",
          "type": "uint256"
        }
      ],
      "payable": false,
      "stateMutability": "view",
      "type": "function"
    },
    {
      "constant": true,
      "inputs": [],
      "name": "shipmentCount",
      "outputs": [
        {
          "internalType": "uint256",
          "name": "",
          "type": "uint256"
        }
      ],
      "payable": false,
      "stateMutability": "view",
      "type": "function"
    },
    {
      "constant": true,
      "inputs": [
        {
          "internalType": "uint256",
          "name": "",
          "type": "uint256"
        }
      ],
      "name": "shipments",
      "outputs": [
        {
          "internalType": "uint256",
          "name": "id",
          "type": "uint256"
        },
        {
          "internalType": "uint256",
          "name": "senderId",
          "type": "uint256"
        },
        {
          "internalType": "uint256",
          "name": "receiverId",
          "type": "uint256"
        },
        {
          "internalType": "uint256",
          "name": "distributorId",
          "type": "uint256"
        },
        {
          "internalType": "uint256",
          "name": "pickupTime",
          "type": "uint256"
        },
        {
          "internalType": "uint256",
          "name": "deliveryTime",
          "type": "uint256"
        },
        {
          "internalType": "uint256",
          "name": "distance",
          "type": "uint256"
        },
        {
          "internalType": "uint256",
          "name": "price",
          "type": "uint256"
        },
        {
          "internalType": "string",
          "name": "description",
          "type": "string"
        },
        {
          "internalType": "enum SupplyChain.ShipmentStatus",
          "name": "status",
          "type": "uint8"
        },
        {
          "internalType": "bool",
          "name": "isPaid",
          "type": "bool"
        }
      ],
      "payable": false,
      "stateMutability": "view",
      "type": "function"
    },
    {
      "constant": true,
      "inputs": [
        {
          "internalType": "uint256",
          "name": "",
          "type": "uint256"
        },
        {
          "internalType": "uint256",
          "name": "",
          "type": "uint256"
        }
      ],
      "name": "shipmentsByDistributor",
      "outputs": [
        {
          "internalType": "uint256",
          "name": "",
          "type": "uint256"
        }
      ],
      "payable": false,
      "stateMutability": "view",
      "type": "function"
    },
    {
      "constant": true,
      "inputs": [],
      "name": "userCount",
      "outputs": [
        {
          "internalType": "uint256",
          "name": "",
          "type": "uint256"
        }
      ],
      "payable": false,
      "stateMutability": "view",
      "type": "function"
    },
    {
      "constant": true,
      "inputs": [
        {
          "internalType": "uint256",
          "name": "",
          "type": "uint256"
        }
      ],
      "name": "users",
      "outputs": [
        {
          "internalType": "uint256",
          "name": "id",
          "type": "uint256"
        },
        {
          "internalType": "string",
          "name": "name",
          "type": "string"
        },
        {
          "internalType": "string",
          "name": "email",
          "type": "string"
        },
        {
          "internalType": "bytes32",
          "name": "passwordHash",
          "type": "bytes32"
        },
        {
          "internalType": "string",
          "name": "role",
          "type": "string"
        },
        {
          "internalType": "string",
          "name": "userAddress",
          "type": "string"
        }
      ],
      "payable": false,
      "stateMutability": "view",
      "type": "function"
    },
    {
      "constant": false,
      "inputs": [
        {
          "internalType": "string",
          "name": "_name",
          "type": "string"
        },
        {
          "internalType": "string",
          "name": "_description",
          "type": "string"
        },
        {
          "internalType": "uint256",
          "name": "_price",
          "type": "uint256"
        },
        {
          "internalType": "string",
          "name": "_image",
          "type": "string"
        },
        {
          "internalType": "string",
          "name": "_originText",
          "type": "string"
        },
        {
          "internalType": "int256",
          "name": "_latitude",
          "type": "int256"
        },
        {
          "internalType": "int256",
          "name": "_longitude",
          "type": "int256"
        },
        {
          "internalType": "uint256",
          "name": "_userid",
          "type": "uint256"
        }
      ],
      "name": "addRawMaterial",
      "outputs": [],
      "payable": false,
      "stateMutability": "nonpayable",
      "type": "function"
    },
    {
      "constant": false,
      "inputs": [
        {
          "internalType": "string",
          "name": "_name",
          "type": "string"
        },
        {
          "internalType": "string",
          "name": "_description",
          "type": "string"
        },
        {
          "internalType": "uint256[]",
          "name": "_rwIds",
          "type": "uint256[]"
        },
        {
          "internalType": "uint256",
          "name": "_price",
          "type": "uint256"
        },
        {
          "internalType": "uint256",
          "name": "_manufacturerId",
          "type": "uint256"
        },
        {
          "internalType": "uint256",
          "name": "_distributorId",
          "type": "uint256"
        },
        {
          "internalType": "uint256",
          "name": "_categoryId",
          "type": "uint256"
        },
        {
          "internalType": "string",
          "name": "_productAddress",
          "type": "string"
        },
        {
          "internalType": "string",
          "name": "_image",
          "type": "string"
        }
      ],
      "name": "addProduct",
      "outputs": [],
      "payable": false,
      "stateMutability": "nonpayable",
      "type": "function"
    },
    {
      "constant": false,
      "inputs": [
        {
          "internalType": "uint256",
          "name": "_originalProductId",
          "type": "uint256"
        },
        {
          "internalType": "string",
          "name": "_name",
          "type": "string"
        },
        {
          "internalType": "string",
          "name": "_description",
          "type": "string"
        },
        {
          "internalType": "uint256[]",
          "name": "_rwIds",
          "type": "uint256[]"
        },
        {
          "internalType": "uint256",
          "name": "_price",
          "type": "uint256"
        },
        {
          "internalType": "uint256",
          "name": "_manufacturerId",
          "type": "uint256"
        },
        {
          "internalType": "uint256",
          "name": "_distributorId",
          "type": "uint256"
        },
        {
          "internalType": "string",
          "name": "_productAddress",
          "type": "string"
        },
        {
          "internalType": "string",
          "name": "_image",
          "type": "string"
        }
      ],
      "name": "duplicateProduct",
      "outputs": [],
      "payable": false,
      "stateMutability": "nonpayable",
      "type": "function"
    },
    {
      "constant": false,
      "inputs": [
        {
          "internalType": "string",
          "name": "_title",
          "type": "string"
        }
      ],
      "name": "addCategory",
      "outputs": [],
      "payable": false,
      "stateMutability": "nonpayable",
      "type": "function"
    },
    {
      "constant": false,
      "inputs": [
        {
          "internalType": "string",
          "name": "_name",
          "type": "string"
        },
        {
          "internalType": "string",
          "name": "_email",
          "type": "string"
        },
        {
          "internalType": "string",
          "name": "_password",
          "type": "string"
        },
        {
          "internalType": "string",
          "name": "_role",
          "type": "string"
        },
        {
          "internalType": "string",
          "name": "_userAddress",
          "type": "string"
        }
      ],
      "name": "addUser",
      "outputs": [],
      "payable": false,
      "stateMutability": "nonpayable",
      "type": "function"
    },
    {
      "constant": true,
      "inputs": [
        {
          "internalType": "uint256",
          "name": "_productId",
          "type": "uint256"
        }
      ],
      "name": "getProductById",
      "outputs": [
        {
          "components": [
            {
              "internalType": "uint256",
              "name": "id",
              "type": "uint256"
            },
            {
              "internalType": "string",
              "name": "name",
              "type": "string"
            },
            {
              "internalType": "string",
              "name": "description",
              "type": "string"
            },
            {
              "internalType": "uint256[]",
              "name": "rwIds",
              "type": "uint256[]"
            },
            {
              "internalType": "uint256",
              "name": "price",
              "type": "uint256"
            },
            {
              "components": [
                {
                  "internalType": "uint256",
                  "name": "id",
                  "type": "uint256"
                },
                {
                  "internalType": "string",
                  "name": "title",
                  "type": "string"
                },
                {
                  "internalType": "bool",
                  "name": "isActive",
                  "type": "bool"
                }
              ],
              "internalType": "struct SupplyChain.Category",
              "name": "category",
              "type": "tuple"
            },
            {
              "internalType": "uint256",
              "name": "manufacturerId",
              "type": "uint256"
            },
            {
              "internalType": "uint256",
              "name": "distributorId",
              "type": "uint256"
            },
            {
              "internalType": "string",
              "name": "productAddress",
              "type": "string"
            },
            {
              "internalType": "bool",
              "name": "isActive",
              "type": "bool"
            },
            {
              "internalType": "string",
              "name": "image",
              "type": "string"
            },
            {
              "internalType": "uint256",
              "name": "produitOriginID",
              "type": "uint256"
            },
            {
              "internalType": "enum SupplyChain.STAGE",
              "name": "stage",
              "type": "uint8"
            }
          ],
          "internalType": "struct SupplyChain.Product",
          "name": "",
          "type": "tuple"
        }
      ],
      "payable": false,
      "stateMutability": "view",
      "type": "function"
    },
    {
      "constant": true,
      "inputs": [],
      "name": "getAllProducts",
      "outputs": [
        {
          "components": [
            {
              "internalType": "uint256",
              "name": "id",
              "type": "uint256"
            },
            {
              "internalType": "string",
              "name": "name",
              "type": "string"
            },
            {
              "internalType": "string",
              "name": "description",
              "type": "string"
            },
            {
              "internalType": "uint256[]",
              "name": "rwIds",
              "type": "uint256[]"
            },
            {
              "internalType": "uint256",
              "name": "price",
              "type": "uint256"
            },
            {
              "components": [
                {
                  "internalType": "uint256",
                  "name": "id",
                  "type": "uint256"
                },
                {
                  "internalType": "string",
                  "name": "title",
                  "type": "string"
                },
                {
                  "internalType": "bool",
                  "name": "isActive",
                  "type": "bool"
                }
              ],
              "internalType": "struct SupplyChain.Category",
              "name": "category",
              "type": "tuple"
            },
            {
              "internalType": "uint256",
              "name": "manufacturerId",
              "type": "uint256"
            },
            {
              "internalType": "uint256",
              "name": "distributorId",
              "type": "uint256"
            },
            {
              "internalType": "string",
              "name": "productAddress",
              "type": "string"
            },
            {
              "internalType": "bool",
              "name": "isActive",
              "type": "bool"
            },
            {
              "internalType": "string",
              "name": "image",
              "type": "string"
            },
            {
              "internalType": "uint256",
              "name": "produitOriginID",
              "type": "uint256"
            },
            {
              "internalType": "enum SupplyChain.STAGE",
              "name": "stage",
              "type": "uint8"
            }
          ],
          "internalType": "struct SupplyChain.Product[]",
          "name": "",
          "type": "tuple[]"
        }
      ],
      "payable": false,
      "stateMutability": "view",
      "type": "function"
    },
    {
      "constant": true,
      "inputs": [],
      "name": "getAllCategories",
      "outputs": [
        {
          "components": [
            {
              "internalType": "uint256",
              "name": "id",
              "type": "uint256"
            },
            {
              "internalType": "string",
              "name": "title",
              "type": "string"
            },
            {
              "internalType": "bool",
              "name": "isActive",
              "type": "bool"
            }
          ],
          "internalType": "struct SupplyChain.Category[]",
          "name": "",
          "type": "tuple[]"
        }
      ],
      "payable": false,
      "stateMutability": "view",
      "type": "function"
    },
    {
      "constant": true,
      "inputs": [
        {
          "internalType": "string",
          "name": "_role",
          "type": "string"
        }
      ],
      "name": "getUsersByRole",
      "outputs": [
        {
          "components": [
            {
              "internalType": "uint256",
              "name": "id",
              "type": "uint256"
            },
            {
              "internalType": "string",
              "name": "name",
              "type": "string"
            },
            {
              "internalType": "string",
              "name": "email",
              "type": "string"
            },
            {
              "internalType": "bytes32",
              "name": "passwordHash",
              "type": "bytes32"
            },
            {
              "internalType": "string",
              "name": "role",
              "type": "string"
            },
            {
              "internalType": "string",
              "name": "userAddress",
              "type": "string"
            }
          ],
          "internalType": "struct SupplyChain.User[]",
          "name": "",
          "type": "tuple[]"
        }
      ],
      "payable": false,
      "stateMutability": "view",
      "type": "function"
    },
    {
      "constant": false,
      "inputs": [
        {
          "internalType": "uint256",
          "name": "_productId",
          "type": "uint256"
        },
        {
          "internalType": "enum SupplyChain.STAGE",
          "name": "_newStage",
          "type": "uint8"
        }
      ],
      "name": "updateProductStage",
      "outputs": [],
      "payable": false,
      "stateMutability": "nonpayable",
      "type": "function"
    },
    {
      "constant": false,
      "inputs": [
        {
          "internalType": "uint256",
          "name": "_senderId",
          "type": "uint256"
        },
        {
          "internalType": "uint256",
          "name": "_receiverId",
          "type": "uint256"
        },
        {
          "internalType": "uint256",
          "name": "_distributorId",
          "type": "uint256"
        },
        {
          "internalType": "uint256",
          "name": "_pickupTime",
          "type": "uint256"
        },
        {
          "internalType": "uint256",
          "name": "_distance",
          "type": "uint256"
        },
        {
          "internalType": "uint256",
          "name": "_price",
          "type": "uint256"
        },
        {
          "internalType": "string",
          "name": "_description",
          "type": "string"
        }
      ],
      "name": "createShipment",
      "outputs": [],
      "payable": false,
      "stateMutability": "nonpayable",
      "type": "function"
    },
    {
      "constant": true,
      "inputs": [
        {
          "internalType": "uint256",
          "name": "distributorId",
          "type": "uint256"
        }
      ],
      "name": "getShipmentsByDistributor",
      "outputs": [
        {
          "components": [
            {
              "internalType": "uint256",
              "name": "id",
              "type": "uint256"
            },
            {
              "internalType": "uint256",
              "name": "senderId",
              "type": "uint256"
            },
            {
              "internalType": "uint256",
              "name": "receiverId",
              "type": "uint256"
            },
            {
              "internalType": "uint256",
              "name": "distributorId",
              "type": "uint256"
            },
            {
              "internalType": "uint256",
              "name": "pickupTime",
              "type": "uint256"
            },
            {
              "internalType": "uint256",
              "name": "deliveryTime",
              "type": "uint256"
            },
            {
              "internalType": "uint256",
              "name": "distance",
              "type": "uint256"
            },
            {
              "internalType": "uint256",
              "name": "price",
              "type": "uint256"
            },
            {
              "internalType": "string",
              "name": "description",
              "type": "string"
            },
            {
              "internalType": "enum SupplyChain.ShipmentStatus",
              "name": "status",
              "type": "uint8"
            },
            {
              "internalType": "bool",
              "name": "isPaid",
              "type": "bool"
            }
          ],
          "internalType": "struct SupplyChain.Shipment[]",
          "name": "",
          "type": "tuple[]"
        }
      ],
      "payable": false,
      "stateMutability": "view",
      "type": "function"
    },
    {
      "constant": false,
      "inputs": [
        {
          "internalType": "uint256",
          "name": "_shipmentIndex",
          "type": "uint256"
        }
      ],
      "name": "startShipment",
      "outputs": [],
      "payable": false,
      "stateMutability": "nonpayable",
      "type": "function"
    },
    {
      "constant": false,
      "inputs": [
        {
          "internalType": "uint256",
          "name": "_shipmentIndex",
          "type": "uint256"
        }
      ],
      "name": "completeShipment",
      "outputs": [],
      "payable": false,
      "stateMutability": "nonpayable",
      "type": "function"
    },
    {
      "constant": true,
      "inputs": [],
      "name": "getAllRawMaterials",
      "outputs": [
        {
          "components": [
            {
              "internalType": "uint256",
              "name": "id",
              "type": "uint256"
            },
            {
              "internalType": "string",
              "name": "name",
              "type": "string"
            },
            {
              "internalType": "string",
              "name": "description",
              "type": "string"
            },
            {
              "internalType": "uint256",
              "name": "price",
              "type": "uint256"
            },
            {
              "internalType": "uint256",
              "name": "userId",
              "type": "uint256"
            },
            {
              "internalType": "string",
              "name": "image",
              "type": "string"
            },
            {
              "components": [
                {
                  "internalType": "string",
                  "name": "text",
                  "type": "string"
                },
                {
                  "internalType": "int256[2]",
                  "name": "coordinate",
                  "type": "int256[2]"
                }
              ],
              "internalType": "struct SupplyChain.Address",
              "name": "origin",
              "type": "tuple"
            }
          ],
          "internalType": "struct SupplyChain.RW[]",
          "name": "",
          "type": "tuple[]"
        }
      ],
      "payable": false,
      "stateMutability": "view",
      "type": "function"
    },
    {
      "constant": true,
      "inputs": [],
      "name": "getAllUsers",
      "outputs": [
        {
          "components": [
            {
              "internalType": "uint256",
              "name": "id",
              "type": "uint256"
            },
            {
              "internalType": "string",
              "name": "name",
              "type": "string"
            },
            {
              "internalType": "string",
              "name": "email",
              "type": "string"
            },
            {
              "internalType": "bytes32",
              "name": "passwordHash",
              "type": "bytes32"
            },
            {
              "internalType": "string",
              "name": "role",
              "type": "string"
            },
            {
              "internalType": "string",
              "name": "userAddress",
              "type": "string"
            }
          ],
          "internalType": "struct SupplyChain.User[]",
          "name": "",
          "type": "tuple[]"
        }
      ],
      "payable": false,
      "stateMutability": "view",
      "type": "function"
    },
    {
      "constant": true,
      "inputs": [
        {
          "internalType": "uint256",
          "name": "_productId",
          "type": "uint256"
        }
      ],
      "name": "getProductHistory",
      "outputs": [
        {
          "components": [
            {
              "internalType": "uint256",
              "name": "timestamp",
              "type": "uint256"
            },
            {
              "internalType": "uint256",
              "name": "handlerId",
              "type": "uint256"
            },
            {
              "internalType": "enum SupplyChain.STAGE",
              "name": "stage",
              "type": "uint8"
            }
          ],
          "internalType": "struct SupplyChain.ProductHistory[]",
          "name": "",
          "type": "tuple[]"
        }
      ],
      "payable": false,
      "stateMutability": "view",
      "type": "function"
    }
  ],
  "bytecode": "0x60806040526000600155600060025560006003556000600455600060055534801561002957600080fd5b50600080546001600160a01b0319163317905561562e806200004c6000396000f3fe608060405234801561001057600080fd5b50600436106101da5760003560e01c8063aaea34aa11610104578063c6cdbe5e116100a2578063e2842d7911610071578063e2842d791461045a578063ece487c314610462578063f15456b514610475578063fac0992d14610488576101da565b8063c6cdbe5e14610413578063cde6572114610435578063dadd0a571461043d578063dd28639814610452576101da565b8063b4a99a4e116100de578063b4a99a4e14610398578063b8f76b13146103ad578063c08c1cec146103cd578063c0efbb82146103f3576101da565b8063aaea34aa1461036a578063b37a3d8214610372578063b41ee39114610385576101da565b80634b161d0d1161017c5780636edb26cc1161014b5780636edb26cc1461031a5780637f666acb1461032d578063a08d99101461034f578063aace20b714610362576101da565b80634b161d0d146102a957806357a096a1146102bc5780635eba8401146102dc5780636a13931d14610307576101da565b80632ac08a93116101b85780632ac08a93146102275780632e0dcbf714610251578063365b98b2146102645780633f70c2b414610289576101da565b806302ee3a52146101df57806307973ccf146101fd57806309abeffa14610212575b600080fd5b6101e761049d565b6040516101f49190614fa6565b60405180910390f35b610205610923565b6040516101f491906150db565b61022561022036600461422f565b610929565b005b61023a61023536600461422f565b6109ce565b6040516101f49b9a999897969594939291906153ee565b61022561025f366004613ecb565b610ac6565b61027761027236600461422f565b610b9a565b6040516101f496959493929190615153565b61029c61029736600461422f565b610dfa565b6040516101f491906150ca565b6102256102b7366004614287565b611241565b6102cf6102ca36600461422f565b611a33565b6040516101f49190614f95565b6102ef6102ea36600461422f565b611b0a565b6040516101f49c9b9a999897969594939291906151c8565b61022561031536600461424d565b611e4c565b610225610328366004613f07565b611fdd565b61034061033b36600461432a565b612437565b6040516101f493929190615321565b61022561035d36600461435a565b612479565b6102056125f7565b6102056125fd565b61022561038036600461403d565b612603565b61020561039336600461432a565b61275b565b6103a0612789565b6040516101f49190614f76565b6103c06103bb36600461422f565b612798565b6040516101f49190614fc8565b6103e06103db36600461422f565b612991565b6040516101f4979695949392919061529e565b610406610401366004613ecb565b612c4d565b6040516101f49190614fd9565b61042661042136600461422f565b61303d565b6040516101f493929190615124565b6102056130ed565b6104456130f3565b6040516101f49190614f84565b610205613245565b61040661324b565b610225610470366004614124565b61354d565b61022561048336600461422f565b6136c6565b6104906137d4565b6040516101f49190614fb7565b6060600060025490506060816040519080825280602002602001820160405280156104e257816020015b6104cf613b37565b8152602001906001900390816104c75790505b50905060015b82811161091b5760086000828152602001908152602001600020604051806101a001604052908160008201548152602001600182018054600181600116156101000203166002900480601f0160208091040260200160405190810160405280929190818152602001828054600181600116156101000203166002900480156105b15780601f10610586576101008083540402835291602001916105b1565b820191906000526020600020905b81548152906001019060200180831161059457829003601f168201915b5050509183525050600282810180546040805160206001841615610100026000190190931694909404601f810183900483028501830190915280845293810193908301828280156106435780601f1061061857610100808354040283529160200191610643565b820191906000526020600020905b81548152906001019060200180831161062657829003601f168201915b505050505081526020016003820180548060200260200160405190810160405280929190818152602001828054801561069b57602002820191906000526020600020905b815481526020019060010190808311610687575b50505050508152602001600482015481526020016005820160405180606001604052908160008201548152602001600182018054600181600116156101000203166002900480601f0160208091040260200160405190810160405280929190818152602001828054600181600116156101000203166002900480156107615780601f1061073657610100808354040283529160200191610761565b820191906000526020600020905b81548152906001019060200180831161074457829003601f168201915b505050918352505060029182015460ff1615156020918201529183526008840154838301526009840154604080850191909152600a8501805482516101006001831615026000190190911693909304601f8101859004850284018501909252818352606090940193919283018282801561081c5780601f106107f15761010080835404028352916020019161081c565b820191906000526020600020905b8154815290600101906020018083116107ff57829003601f168201915b5050509183525050600b82015460ff161515602080830191909152600c8301805460408051601f600260001960018616156101000201909416939093049283018590048502810185018252828152940193928301828280156108bf5780601f10610894576101008083540402835291602001916108bf565b820191906000526020600020905b8154815290600101906020018083116108a257829003601f168201915b5050509183525050600d8201546020820152600e82015460409091019060ff1660038111156108ea57fe5b60038111156108f557fe5b8152505082600183038151811061090857fe5b60209081029190910101526001016104e8565b509150505b90565b60035481565b6000818152600b6020526040812090600982015460ff16600281111561094b57fe5b146109715760405162461bcd60e51b81526004016109689061506a565b60405180910390fd5b60098101805460ff19166001908117909155810154600282015460048301546040517f8077e104eb77bbff08eed87855f32c33fc65de661cb18bf532291f6bce7494ea936109c29390929091615349565b60405180910390a15050565b600b602052806000526040600020600091509050806000015490806001015490806002015490806003015490806004015490806005015490806006015490806007015490806008018054600181600116156101000203166002900480601f016020809104026020016040519081016040528092919081815260200182805460018160011615610100020316600290048015610aaa5780601f10610a7f57610100808354040283529160200191610aaa565b820191906000526020600020905b815481529060010190602001808311610a8d57829003601f168201915b5050506009909301549192505060ff808216916101009004168b565b6000546001600160a01b03163314610af05760405162461bcd60e51b81526004016109689061507a565b6005805460019081019182905560408051606081018252838152602080820186815282840185905260009586526009825292909420815181559151805191949293610b419390850192910190613bb1565b50604091820151600291909101805460ff191691151591909117905560055490517f5bae3f75753ef0a1c0ea0f6c51d7b43a4b8d116572b8b7b5cb771f9ad32d4ae591610b8f918490615104565b60405180910390a150565b6006602090815260009182526040918290208054600180830180548651600293821615610100026000190190911692909204601f810186900486028301860190965285825291949293909290830182828015610c375780601f10610c0c57610100808354040283529160200191610c37565b820191906000526020600020905b815481529060010190602001808311610c1a57829003601f168201915b50505060028085018054604080516020601f6000196101006001871615020190941695909504928301859004850281018501909152818152959695945090925090830182828015610cc95780601f10610c9e57610100808354040283529160200191610cc9565b820191906000526020600020905b815481529060010190602001808311610cac57829003601f168201915b50505050600383015460048401805460408051602060026001851615610100026000190190941693909304601f81018490048402820184019092528181529596939593945090830182828015610d605780601f10610d3557610100808354040283529160200191610d60565b820191906000526020600020905b815481529060010190602001808311610d4357829003601f168201915b5050505060058301805460408051602060026001851615610100026000190190941693909304601f8101849004840282018401909252818152949594935090830182828015610df05780601f10610dc557610100808354040283529160200191610df0565b820191906000526020600020905b815481529060010190602001808311610dd357829003601f168201915b5050505050905086565b610e02613b37565b600082118015610e1457506002548211155b610e305760405162461bcd60e51b815260040161096890614ffa565b60086000838152602001908152602001600020604051806101a001604052908160008201548152602001600182018054600181600116156101000203166002900480601f016020809104026020016040519081016040528092919081815260200182805460018160011615610100020316600290048015610ef25780601f10610ec757610100808354040283529160200191610ef2565b820191906000526020600020905b815481529060010190602001808311610ed557829003601f168201915b5050509183525050600282810180546040805160206001841615610100026000190190931694909404601f81018390048302850183019091528084529381019390830182828015610f845780601f10610f5957610100808354040283529160200191610f84565b820191906000526020600020905b815481529060010190602001808311610f6757829003601f168201915b5050505050815260200160038201805480602002602001604051908101604052809291908181526020018280548015610fdc57602002820191906000526020600020905b815481526020019060010190808311610fc8575b50505050508152602001600482015481526020016005820160405180606001604052908160008201548152602001600182018054600181600116156101000203166002900480601f0160208091040260200160405190810160405280929190818152602001828054600181600116156101000203166002900480156110a25780601f10611077576101008083540402835291602001916110a2565b820191906000526020600020905b81548152906001019060200180831161108557829003601f168201915b505050918352505060029182015460ff1615156020918201529183526008840154838301526009840154604080850191909152600a8501805482516101006001831615026000190190911693909304601f8101859004850284018501909252818352606090940193919283018282801561115d5780601f106111325761010080835404028352916020019161115d565b820191906000526020600020905b81548152906001019060200180831161114057829003601f168201915b5050509183525050600b82015460ff161515602080830191909152600c8301805460408051601f600260001960018616156101000201909416939093049283018590048502810185018252828152940193928301828280156112005780601f106111d557610100808354040283529160200191611200565b820191906000526020600020905b8154815290600101906020018083116111e357829003601f168201915b5050509183525050600d8201546020820152600e82015460409091019060ff16600381111561122b57fe5b600381111561123657fe5b90525090505b919050565b6000546001600160a01b0316331461126b5760405162461bcd60e51b81526004016109689061507a565b60008911801561127d57506002548911155b6112995760405162461bcd60e51b81526004016109689061509a565b6112a1613b37565b600860008b8152602001908152602001600020604051806101a001604052908160008201548152602001600182018054600181600116156101000203166002900480601f0160208091040260200160405190810160405280929190818152602001828054600181600116156101000203166002900480156113635780601f1061133857610100808354040283529160200191611363565b820191906000526020600020905b81548152906001019060200180831161134657829003601f168201915b5050509183525050600282810180546040805160206001841615610100026000190190931694909404601f810183900483028501830190915280845293810193908301828280156113f55780601f106113ca576101008083540402835291602001916113f5565b820191906000526020600020905b8154815290600101906020018083116113d857829003601f168201915b505050505081526020016003820180548060200260200160405190810160405280929190818152602001828054801561144d57602002820191906000526020600020905b815481526020019060010190808311611439575b50505050508152602001600482015481526020016005820160405180606001604052908160008201548152602001600182018054600181600116156101000203166002900480601f0160208091040260200160405190810160405280929190818152602001828054600181600116156101000203166002900480156115135780601f106114e857610100808354040283529160200191611513565b820191906000526020600020905b8154815290600101906020018083116114f657829003601f168201915b505050918352505060029182015460ff1615156020918201529183526008840154838301526009840154604080850191909152600a8501805482516101006001831615026000190190911693909304601f810185900485028401850190925281835260609094019391928301828280156115ce5780601f106115a3576101008083540402835291602001916115ce565b820191906000526020600020905b8154815290600101906020018083116115b157829003601f168201915b5050509183525050600b82015460ff161515602080830191909152600c8301805460408051601f600260001960018616156101000201909416939093049283018590048502810185018252828152940193928301828280156116715780601f1061164657610100808354040283529160200191611671565b820191906000526020600020905b81548152906001019060200180831161165457829003601f168201915b5050509183525050600d8201546020820152600e82015460409091019060ff16600381111561169c57fe5b60038111156116a757fe5b905250905060005b87518110156117145760008882815181106116c657fe5b60200260200101511180156116f057506001548882815181106116e557fe5b602002602001015111155b61170c5760405162461bcd60e51b8152600401610968906150aa565b6001016116af565b5060028054600190810191829055604080516101a08101825283815260208082018e81528284018e9052606083018d9052608083018c905260a0878101519084015260c083018b905260e083018a905261010083018990526101208301859052610140830188905286516101608401526000610180840181905295865260088252929094208151815591518051919492936117b59390850192910190613bb1565b50604082015180516117d1916002840191602090910190613bb1565b50606082015180516117ed916003840191602090910190613c2f565b506080820151600482015560a0820151805160058301908155602080830151805161181e9260068701920190613bb1565b50604091909101516002909101805460ff191691151591909117905560c0820151600882015560e08201516009820155610100820151805161186a91600a840191602090910190613bb1565b50610120820151600b8201805460ff191691151591909117905561014082015180516118a091600c840191602090910190613bb1565b50610160820151600d820155610180820151600e8201805460ff191660018360038111156118ca57fe5b021790555060009150505b87518110156119eb5760008882815181106118ec57fe5b6020026020010151905060076000828152602001908152602001600020600001546000141561192d5760405162461bcd60e51b81526004016109689061504a565b60008181526007602090815260409182902060048101546002918201805485516001821615610100026000190190911693909304601f81018590048502840185019095528483526119e29491938c938c934293606493849392908301828280156119d85780601f106119ad576101008083540402835291602001916119d8565b820191906000526020600020905b8154815290600101906020018083116119bb57829003601f168201915b5050505050612479565b506001016118d5565b507f259101de1f87b04b9ee0332ce5e3cc508014004bf283424aead6cd8692f5cf986002548a604051611a1f929190615104565b60405180910390a150505050505050505050565b6060600082118015611a4757506002548211155b611a635760405162461bcd60e51b815260040161096890614ffa565b6000828152600a6020908152604080832080548251818502810185019093528083529193909284015b82821015611aff578382906000526020600020906003020160405180606001604052908160008201548152602001600182015481526020016002820160009054906101000a900460ff166003811115611ae157fe5b6003811115611aec57fe5b8152505081526020019060010190611a8c565b505050509050919050565b6008602090815260009182526040918290208054600180830180548651600293821615610100026000190190911692909204601f810186900486028301860190965285825291949293909290830182828015611ba75780601f10611b7c57610100808354040283529160200191611ba7565b820191906000526020600020905b815481529060010190602001808311611b8a57829003601f168201915b50505060028085018054604080516020601f6000196101006001871615020190941695909504928301859004850281018501909152818152959695945090925090830182828015611c395780601f10611c0e57610100808354040283529160200191611c39565b820191906000526020600020905b815481529060010190602001808311611c1c57829003601f168201915b5050505060048301546040805160608101825260058601805482526006870180548451602060026001841615610100026000190190931692909204601f8101839004830282018301909652858152979895979596509294919383860193830182828015611ce75780601f10611cbc57610100808354040283529160200191611ce7565b820191906000526020600020905b815481529060010190602001808311611cca57829003601f168201915b505050918352505060029182015460ff16151560209182015260088401546009850154600a8601805460408051601f600019600185161561010002019093169790970491820186900486028701860190528086529596929591949293909190830182828015611d975780601f10611d6c57610100808354040283529160200191611d97565b820191906000526020600020905b815481529060010190602001808311611d7a57829003601f168201915b50505050600b830154600c8401805460408051602060026101006001861615026000190190941693909304601f8101849004840282018401909252818152959660ff9094169593945090830182828015611e325780601f10611e0757610100808354040283529160200191611e32565b820191906000526020600020905b815481529060010190602001808311611e1557829003601f168201915b50505050600d830154600e9093015491929160ff1690508c565b6000546001600160a01b03163314611e765760405162461bcd60e51b81526004016109689061507a565b600082118015611e8857506002548211155b611ea45760405162461bcd60e51b81526004016109689061503a565b6000828152600860205260409020600e015460ff166003811115611ec457fe5b60ff16816003811115611ed357fe5b60ff1611611ef35760405162461bcd60e51b8152600401610968906150ba565b6000828152600860205260409020600e01805482919060ff19166001836003811115611f1b57fe5b0217905550600a60008381526020019081526020016000206040518060600160405280428152602001848152602001836003811115611f5657fe5b905281546001818101808555600094855260209485902084516003948502909101908155948401518583015560408401516002860180549296949193909260ff1916918490811115611fa457fe5b02179055505050507fdb1adf3543039f5d54bb67ebf175b8ef7ba88285d54355d6c564b2478877a44282826040516109c29291906150e9565b6000546001600160a01b031633146120075760405162461bcd60e51b81526004016109689061507a565b60005b875181101561206f57600088828151811061202157fe5b602002602001015111801561204b575060015488828151811061204057fe5b602002602001015111155b6120675760405162461bcd60e51b8152600401610968906150aa565b60010161200a565b5060008311801561208257506005548311155b61209e5760405162461bcd60e51b81526004016109689061505a565b600280546001908101808355604080516101a08101825291825260208083018e90528282018d905260608084018d9052608084018c90526000898152600983528390208351918201845280548252808601805485519781161561010002600019011697909704601f8101849004840287018401909452838652939560a0870195919493858401938301828280156121765780601f1061214b57610100808354040283529160200191612176565b820191906000526020600020905b81548152906001019060200180831161215957829003601f168201915b505050918352505060029182015460ff16151560209182015291835282820189905260408084018990526060840187905260016080850181905260a08501879052600060c0860181905260e090950185905291548452600883529092208351815583820151805191936121ef9390850192910190613bb1565b506040820151805161220b916002840191602090910190613bb1565b5060608201518051612227916003840191602090910190613c2f565b506080820151600482015560a082015180516005830190815560208083015180516122589260068701920190613bb1565b50604091909101516002909101805460ff191691151591909117905560c0820151600882015560e0820151600982015561010082015180516122a491600a840191602090910190613bb1565b50610120820151600b8201805460ff191691151591909117905561014082015180516122da91600c840191602090910190613bb1565b50610160820151600d820155610180820151600e8201805460ff1916600183600381111561230457fe5b021790555060009150505b87518110156123f057600088828151811061232657fe5b602002602001015190506007600082815260200190815260200160002060000154600014156123675760405162461bcd60e51b81526004016109689061504a565b60008181526007602090815260409182902060048101546002918201805485516001821615610100026000190190911693909304601f81018590048502840185019095528483526123e79491938c938c934293606493849392908301828280156119d85780601f106119ad576101008083540402835291602001916119d8565b5060010161230f565b507f259101de1f87b04b9ee0332ce5e3cc508014004bf283424aead6cd8692f5cf986002548a604051612424929190615104565b60405180910390a1505050505050505050565b600a602052816000526040600020818154811061245057fe5b600091825260209091206003909102018054600182015460029092015490935090915060ff1683565b600480546001908101808355604080516101608101825282815260208082018d81528284018d8152606084018d8152608085018d8152600060a0870181815260c088018f815260e089018f81526101008a018f81526101208b018590526101408b018590529b8452600b8952999092208851815595519a86019a909a559251600285015590516003840155519782019790975594516005860155945160068501559051600784015590518051919361253992600885019290910190613bb1565b5061012082015160098201805460ff1916600183600281111561255857fe5b02179055506101409190910151600990910180549115156101000261ff00199092169190911790556000858152600c60209081526040808320600480548254600181018455928652939094200191909155905490517f8d5f7648a8e0687a061ec7b8c781bda2dc47506edc1942aa2cc24cb29147cb5a916125e6918a908a908a908a908a908a908a90615371565b60405180910390a150505050505050565b60045481565b60025481565b60008551116126245760405162461bcd60e51b81526004016109689061500a565b60008451116126455760405162461bcd60e51b81526004016109689061508a565b60008351116126665760405162461bcd60e51b81526004016109689061502a565b60038054600101908190556040805160c08101825291825260208083018890528282018790529051606083019161269f91879101614f5e565b60408051601f1981840301815291815281516020928301208352828201869052918201849052600354600090815260068252919091208251815582820151805191926126f392600185019290910190613bb1565b506040820151805161270f916002840191602090910190613bb1565b506060820151600382015560808201518051612735916004840191602090910190613bb1565b5060a08201518051612751916005840191602090910190613bb1565b5050505050505050565b600c602052816000526040600020818154811061277457fe5b90600052602060002001600091509150505481565b6000546001600160a01b031681565b6000818152600c602090815260409182902054825181815281830281019092019092526060919082908280156127e857816020015b6127d5613c69565b8152602001906001900390816127cd5790505b50905060005b82811015612989576000858152600c602052604081208054600b9291908490811061281557fe5b90600052602060002001548152602001908152602001600020604051806101600160405290816000820154815260200160018201548152602001600282015481526020016003820154815260200160048201548152602001600582015481526020016006820154815260200160078201548152602001600882018054600181600116156101000203166002900480601f0160208091040260200160405190810160405280929190818152602001828054600181600116156101000203166002900480156129235780601f106128f857610100808354040283529160200191612923565b820191906000526020600020905b81548152906001019060200180831161290657829003601f168201915b5050509183525050600982015460209091019060ff16600281111561294457fe5b600281111561294f57fe5b815260099190910154610100900460ff161515602090910152825183908390811061297657fe5b60209081029190910101526001016127ee565b509392505050565b6007602090815260009182526040918290208054600180830180548651600293821615610100026000190190911692909204601f810186900486028301860190965285825291949293909290830182828015612a2e5780601f10612a0357610100808354040283529160200191612a2e565b820191906000526020600020905b815481529060010190602001808311612a1157829003601f168201915b50505060028085018054604080516020601f6000196101006001871615020190941695909504928301859004850281018501909152818152959695945090925090830182828015612ac05780601f10612a9557610100808354040283529160200191612ac0565b820191906000526020600020905b815481529060010190602001808311612aa357829003601f168201915b505050505090806003015490806004015490806005018054600181600116156101000203166002900480601f016020809104026020016040519081016040528092919081815260200182805460018160011615610100020316600290048015612b6a5780601f10612b3f57610100808354040283529160200191612b6a565b820191906000526020600020905b815481529060010190602001808311612b4d57829003601f168201915b50506040805160068701805460606020601f60026000196101006001871615020190941693909304928301819004028401810185529383018181529798979296509094508593509091849190840182828015612c075780601f10612bdc57610100808354040283529160200191612c07565b820191906000526020600020905b815481529060010190602001808311612bea57829003601f168201915b5050509183525050604080518082019182905260209092019190600184019060029082845b815481526020019060010190808311612c2c57505050505081525050905087565b600354606090600060015b828111612cd05784604051602001612c709190614f5e565b60408051601f198184030181528282528051602091820120600085815260068352929092209192612ca5926004019101614f6a565b604051602081830303815290604052805190602001201415612cc8576001909101905b600101612c58565b50606081604051908082528060200260200182016040528015612d0d57816020015b612cfa613cce565b815260200190600190039081612cf25790505b509050600060015b8481116130325786604051602001612d2d9190614f5e565b60408051601f198184030181528282528051602091820120600085815260068352929092209192612d62926004019101614f6a565b60405160208183030381529060405280519060200120141561302a57600660008281526020019081526020016000206040518060c001604052908160008201548152602001600182018054600181600116156101000203166002900480601f016020809104026020016040519081016040528092919081815260200182805460018160011615610100020316600290048015612e3f5780601f10612e1457610100808354040283529160200191612e3f565b820191906000526020600020905b815481529060010190602001808311612e2257829003601f168201915b5050509183525050600282810180546040805160206001841615610100026000190190931694909404601f81018390048302850183019091528084529381019390830182828015612ed15780601f10612ea657610100808354040283529160200191612ed1565b820191906000526020600020905b815481529060010190602001808311612eb457829003601f168201915b5050509183525050600382015460208083019190915260048301805460408051601f60026000196101006001871615020190941693909304928301859004850281018501825282815294019392830182828015612f6f5780601f10612f4457610100808354040283529160200191612f6f565b820191906000526020600020905b815481529060010190602001808311612f5257829003601f168201915b505050918352505060058201805460408051602060026001851615610100026000190190941693909304601f81018490048402820184019092528181529382019392918301828280156130035780601f10612fd857610100808354040283529160200191613003565b820191906000526020600020905b815481529060010190602001808311612fe657829003601f168201915b50505050508152505083838151811061301857fe5b60209081029190910101526001909101905b600101612d15565b509095945050505050565b6009602090815260009182526040918290208054600180830180548651600293821615610100026000190190911692909204601f8101869004860283018601909652858252919492939092908301828280156130da5780601f106130af576101008083540402835291602001916130da565b820191906000526020600020905b8154815290600101906020018083116130bd57829003601f168201915b5050506002909301549192505060ff1683565b60055481565b60606000600554905060608160405190808252806020026020018201604052801561313857816020015b613125613d07565b81526020019060019003908161311d5790505b50905060015b82811161091b576009600082815260200190815260200160002060405180606001604052908160008201548152602001600182018054600181600116156101000203166002900480601f0160208091040260200160405190810160405280929190818152602001828054600181600116156101000203166002900480156132065780601f106131db57610100808354040283529160200191613206565b820191906000526020600020905b8154815290600101906020018083116131e957829003601f168201915b50505091835250506002919091015460ff16151560209091015282518390600019840190811061323257fe5b602090810291909101015260010161313e565b60015481565b60606000600354905060608160405190808252806020026020018201604052801561329057816020015b61327d613cce565b8152602001906001900390816132755790505b50905060015b82811161091b57600660008281526020019081526020016000206040518060c001604052908160008201548152602001600182018054600181600116156101000203166002900480601f01602080910402602001604051908101604052809291908181526020018280546001816001161561010002031660029004801561335e5780601f106133335761010080835404028352916020019161335e565b820191906000526020600020905b81548152906001019060200180831161334157829003601f168201915b5050509183525050600282810180546040805160206001841615610100026000190190931694909404601f810183900483028501830190915280845293810193908301828280156133f05780601f106133c5576101008083540402835291602001916133f0565b820191906000526020600020905b8154815290600101906020018083116133d357829003601f168201915b5050509183525050600382015460208083019190915260048301805460408051601f6002600019610100600187161502019094169390930492830185900485028101850182528281529401939283018282801561348e5780601f106134635761010080835404028352916020019161348e565b820191906000526020600020905b81548152906001019060200180831161347157829003601f168201915b505050918352505060058201805460408051602060026001851615610100026000190190941693909304601f81018490048402820184019092528181529382019392918301828280156135225780601f106134f757610100808354040283529160200191613522565b820191906000526020600020905b81548152906001019060200180831161350557829003601f168201915b50505050508152505082600183038151811061353a57fe5b6020908102919091010152600101613296565b6000546001600160a01b031633146135775760405162461bcd60e51b81526004016109689061507a565b6001805481018082556040805160e08101825282815260208082018d81528284018d9052606083018c90526080830187905260a083018b9052835180850185528a8152845180860186528a81528084018a90528184015260c0840152600094855260078252929093208151815591518051919492936135fb93850192910190613bb1565b5060408201518051613617916002840191602090910190613bb1565b50606082015160038201556080820151600482015560a08201518051613647916005840191602090910190613bb1565b5060c082015180518051600684019161366591839160200190613bb1565b50602082015161367b9060018301906002613d2a565b5050509050507f397bf151e41293935c43045d8da74b84bd4801db62720fc9b2e2e18f02ea4b59600154896040516136b4929190615104565b60405180910390a15050505050505050565b6000818152600b602052604090206001600982015460ff1660028111156136e957fe5b146137065760405162461bcd60e51b81526004016109689061501a565b6009810154610100900460ff16156137305760405162461bcd60e51b815260040161096890614fea565b6009810180544260058401819055600260ff19909216821761ff001916610100179092556001830154908301546040517f1868f8790162b38347dd32c18f05255866c34a5e7208c84a9f70a84f49e8bd569361378d939291615349565b60405180910390a17f33ccddbe5348d6b36543339d8b286c5d9a93cdc778949804440521a0f9ab990b8160010154826002015483600701546040516109c293929190615349565b60606000600154905060608160405190808252806020026020018201604052801561381957816020015b613806613d57565b8152602001906001900390816137fe5790505b50905060015b82811161091b57600760008281526020019081526020016000206040518060e001604052908160008201548152602001600182018054600181600116156101000203166002900480601f0160208091040260200160405190810160405280929190818152602001828054600181600116156101000203166002900480156138e75780601f106138bc576101008083540402835291602001916138e7565b820191906000526020600020905b8154815290600101906020018083116138ca57829003601f168201915b5050509183525050600282810180546040805160206001841615610100026000190190931694909404601f810183900483028501830190915280845293810193908301828280156139795780601f1061394e57610100808354040283529160200191613979565b820191906000526020600020905b81548152906001019060200180831161395c57829003601f168201915b505050505081526020016003820154815260200160048201548152602001600582018054600181600116156101000203166002900480601f016020809104026020016040519081016040528092919081815260200182805460018160011615610100020316600290048015613a2f5780601f10613a0457610100808354040283529160200191613a2f565b820191906000526020600020905b815481529060010190602001808311613a1257829003601f168201915b50505091835250506040805160068401805460606020601f6002600019610100600187161502019094169390930492830181900481028501820186529484018281529490950194929391928492918491840182828015613ad05780601f10613aa557610100808354040283529160200191613ad0565b820191906000526020600020905b815481529060010190602001808311613ab357829003601f168201915b5050509183525050604080518082019182905260209092019190600184019060029082845b815481526020019060010190808311613af55750505050508152505081525050826001830381518110613b2457fe5b602090810291909101015260010161381f565b604051806101a001604052806000815260200160608152602001606081526020016060815260200160008152602001613b6e613d07565b8152602001600081526020016000815260200160608152602001600015158152602001606081526020016000815260200160006003811115613bac57fe5b905290565b828054600181600116156101000203166002900490600052602060002090601f016020900481019282601f10613bf257805160ff1916838001178555613c1f565b82800160010185558215613c1f579182015b82811115613c1f578251825591602001919060010190613c04565b50613c2b929150613d94565b5090565b828054828255906000526020600020908101928215613c1f5791602002820182811115613c1f578251825591602001919060010190613c04565b60405180610160016040528060008152602001600081526020016000815260200160008152602001600081526020016000815260200160008152602001600081526020016060815260200160006002811115613cc157fe5b8152600060209091015290565b6040518060c001604052806000815260200160608152602001606081526020016000801916815260200160608152602001606081525090565b604051806060016040528060008152602001606081526020016000151581525090565b8260028101928215613c1f5791602002820182811115613c1f578251825591602001919060010190613c04565b6040518060e00160405280600081526020016060815260200160608152602001600081526020016000815260200160608152602001613bac613dae565b61092091905b80821115613c2b5760008155600101613d9a565b604051806040016040528060608152602001613bac60405180604001604052806002906020820280388339509192915050565b600082601f830112613df257600080fd5b8135613e05613e00826154bf565b615499565b91508181835260208401935060208101905083856020840282011115613e2a57600080fd5b60005b83811015613e565781613e408882613e71565b8452506020928301929190910190600101613e2d565b5050505092915050565b8035613e6b816155ca565b92915050565b8035613e6b816155d7565b600082601f830112613e8d57600080fd5b8135613e9b613e00826154df565b91508082526020830160208301858383011115613eb757600080fd5b613ec2838284615571565b50505092915050565b600060208284031215613edd57600080fd5b81356001600160401b03811115613ef357600080fd5b613eff84828501613e7c565b949350505050565b60008060008060008060008060006101208a8c031215613f2657600080fd5b89356001600160401b03811115613f3c57600080fd5b613f488c828d01613e7c565b99505060208a01356001600160401b03811115613f6457600080fd5b613f708c828d01613e7c565b98505060408a01356001600160401b03811115613f8c57600080fd5b613f988c828d01613de1565b9750506060613fa98c828d01613e71565b9650506080613fba8c828d01613e71565b95505060a0613fcb8c828d01613e71565b94505060c0613fdc8c828d01613e71565b93505060e08a01356001600160401b03811115613ff857600080fd5b6140048c828d01613e7c565b9250506101008a01356001600160401b0381111561402157600080fd5b61402d8c828d01613e7c565b9150509295985092959850929598565b600080600080600060a0868803121561405557600080fd5b85356001600160401b0381111561406b57600080fd5b61407788828901613e7c565b95505060208601356001600160401b0381111561409357600080fd5b61409f88828901613e7c565b94505060408601356001600160401b038111156140bb57600080fd5b6140c788828901613e7c565b93505060608601356001600160401b038111156140e357600080fd5b6140ef88828901613e7c565b92505060808601356001600160401b0381111561410b57600080fd5b61411788828901613e7c565b9150509295509295909350565b600080600080600080600080610100898b03121561414157600080fd5b88356001600160401b0381111561415757600080fd5b6141638b828c01613e7c565b98505060208901356001600160401b0381111561417f57600080fd5b61418b8b828c01613e7c565b975050604061419c8b828c01613e71565b96505060608901356001600160401b038111156141b857600080fd5b6141c48b828c01613e7c565b95505060808901356001600160401b038111156141e057600080fd5b6141ec8b828c01613e7c565b94505060a06141fd8b828c01613e71565b93505060c061420e8b828c01613e71565b92505060e061421f8b828c01613e71565b9150509295985092959890939650565b60006020828403121561424157600080fd5b6000613eff8484613e71565b6000806040838503121561426057600080fd5b600061426c8585613e71565b925050602061427d85828601613e60565b9150509250929050565b60008060008060008060008060006101208a8c0312156142a657600080fd5b60006142b28c8c613e71565b99505060208a01356001600160401b038111156142ce57600080fd5b6142da8c828d01613e7c565b98505060408a01356001600160401b038111156142f657600080fd5b6143028c828d01613e7c565b97505060608a01356001600160401b0381111561431e57600080fd5b613fa98c828d01613de1565b6000806040838503121561433d57600080fd5b60006143498585613e71565b925050602061427d85828601613e71565b600080600080600080600060e0888a03121561437557600080fd5b60006143818a8a613e71565b97505060206143928a828b01613e71565b96505060406143a38a828b01613e71565b95505060606143b48a828b01613e71565b94505060806143c58a828b01613e71565b93505060a06143d68a828b01613e71565b92505060c08801356001600160401b038111156143f257600080fd5b6143fe8a828b01613e7c565b91505092959891949750929550565b6000614419838361477d565b505060200190565b600061442d8383614b9d565b9392505050565b60006144408383614bde565b505060600190565b600061442d8383614c1b565b600061442d8383614d48565b600061442d8383614df1565b600061442d8383614ed1565b6144818161552b565b82525050565b61449081615518565b61449a818461123c565b92506144a582610920565b8060005b838110156144d35781516144bd878261440d565b96506144c883615506565b9250506001016144a9565b505050505050565b60006144e68261551e565b6144f08185615522565b93508360208202850161450285615506565b8060005b8581101561453c578484038952815161451f8582614421565b945061452a83615506565b60209a909a0199925050600101614506565b5091979650505050505050565b60006145548261551e565b61455e8185615522565b935061456983615506565b8060005b838110156145975781516145818882614434565b975061458c83615506565b92505060010161456d565b509495945050505050565b60006145ad8261551e565b6145b78185615522565b9350836020820285016145c985615506565b8060005b8581101561453c57848403895281516145e68582614448565b94506145f183615506565b60209a909a01999250506001016145cd565b600061460e8261551e565b6146188185615522565b93508360208202850161462a85615506565b8060005b8581101561453c57848403895281516146478582614454565b945061465283615506565b60209a909a019992505060010161462e565b600061466f8261551e565b6146798185615522565b93508360208202850161468b85615506565b8060005b8581101561453c57848403895281516146a88582614460565b94506146b383615506565b60209a909a019992505060010161468f565b60006146d08261551e565b6146da8185615522565b9350836020820285016146ec85615506565b8060005b8581101561453c5784840389528151614709858261446c565b945061471483615506565b60209a909a01999250506001016146f0565b60006147318261551e565b61473b8185615522565b935061474683615506565b8060005b8381101561459757815161475e888261440d565b975061476983615506565b92505060010161474a565b61448181615536565b61448181610920565b6144818161555b565b61448181615566565b60006147a38261551e565b6147ad8185615522565b93506147bd81856020860161557d565b6147c6816155a9565b9093019392505050565b60006147db8261551e565b6147e5818561123c565b93506147f581856020860161557d565b9290920192915050565b60008154600181166000811461481c576001811461483f5761487e565b607f600283041661482d818761123c565b60ff198416815295508501925061487e565b6002820461484d818761123c565b95506148588561550c565b60005b828110156148775781548882015260019091019060200161485b565b5050850192505b505092915050565b6000614893601683615522565b7529b434b836b2b73a1030b63932b0b23c903830b4b21760511b815260200192915050565b60006148c5601283615522565b71141c9bd91d5a5d081a5b995e1a5cdd185b9d60721b815260200192915050565b60006148f3601483615522565b734e616d652063616e6e6f7420626520656d70747960601b815260200192915050565b6000614923601883615522565b7f536869706d656e74206e6f7420696e207472616e7369742e0000000000000000815260200192915050565b600061495c601883615522565b7f50617373776f72642063616e6e6f7420626520656d7074790000000000000000815260200192915050565b6000614995601783615522565b7f50726f6475637420646f6573206e6f742065786973742e000000000000000000815260200192915050565b60006149ce601883615522565b7f496e76616c696420726177206d6174657269616c2049442e0000000000000000815260200192915050565b6000614a07601383615522565b72125b9d985b1a590818d85d1959dbdc9e481251606a1b815260200192915050565b6000614a36601583615522565b7429b434b836b2b73a103737ba103832b73234b7339760591b815260200192915050565b6000614a67602783615522565b7f4f6e6c7920746865206f776e65722063616e20706572666f726d20746869732081526630b1ba34b7b71760c91b602082015260400192915050565b6000614ab0601583615522565b74456d61696c2063616e6e6f7420626520656d70747960581b815260200192915050565b6000614ae1601b83615522565b7f50726f64756974206f726967696e616c20696e6578697374616e740000000000815260200192915050565b6000614b1a601783615522565b7f496e76616c696420726177206d6174657269616c204944000000000000000000815260200192915050565b6000614b53600e83615522565b6d24b73b30b634b21039ba30b3b29760911b815260200192915050565b8051606080845260009190840190614b888282614798565b91505060208301516129896020860182614487565b80516000906060840190614bb1858261477d565b5060208301518482036020860152614bc98282614798565b91505060408301516129896040860182614774565b80516060830190614bef848261477d565b506020820151614c02602085018261477d565b506040820151614c156040850182614786565b50505050565b80516000906101a0840190614c30858261477d565b5060208301518482036020860152614c488282614798565b91505060408301518482036040860152614c628282614798565b91505060608301518482036060860152614c7c8282614726565b9150506080830151614c91608086018261477d565b5060a083015184820360a0860152614ca98282614b9d565b91505060c0830151614cbe60c086018261477d565b5060e0830151614cd160e086018261477d565b50610100830151848203610100860152614ceb8282614798565b915050610120830151614d02610120860182614774565b50610140830151848203610140860152614d1c8282614798565b915050610160830151614d3361016086018261477d565b50610180830151612989610180860182614786565b805160009060e0840190614d5c858261477d565b5060208301518482036020860152614d748282614798565b91505060408301518482036040860152614d8e8282614798565b9150506060830151614da3606086018261477d565b506080830151614db6608086018261477d565b5060a083015184820360a0860152614dce8282614798565b91505060c083015184820360c0860152614de88282614b70565b95945050505050565b8051600090610160840190614e06858261477d565b506020830151614e19602086018261477d565b506040830151614e2c604086018261477d565b506060830151614e3f606086018261477d565b506080830151614e52608086018261477d565b5060a0830151614e6560a086018261477d565b5060c0830151614e7860c086018261477d565b5060e0830151614e8b60e086018261477d565b50610100830151848203610100860152614ea58282614798565b915050610120830151614ebc61012086018261478f565b50610140830151612989610140860182614774565b805160009060c0840190614ee5858261477d565b5060208301518482036020860152614efd8282614798565b91505060408301518482036040860152614f178282614798565b9150506060830151614f2c606086018261477d565b5060808301518482036080860152614f448282614798565b91505060a083015184820360a0860152614de88282614798565b600061442d82846147d0565b600061442d82846147ff565b60208101613e6b8284614478565b6020808252810161442d81846144db565b6020808252810161442d8184614549565b6020808252810161442d81846145a2565b6020808252810161442d8184614603565b6020808252810161442d8184614664565b6020808252810161442d81846146c5565b60208082528101613e6b81614886565b60208082528101613e6b816148b8565b60208082528101613e6b816148e6565b60208082528101613e6b81614916565b60208082528101613e6b8161494f565b60208082528101613e6b81614988565b60208082528101613e6b816149c1565b60208082528101613e6b816149fa565b60208082528101613e6b81614a29565b60208082528101613e6b81614a5a565b60208082528101613e6b81614aa3565b60208082528101613e6b81614ad4565b60208082528101613e6b81614b0d565b60208082528101613e6b81614b46565b6020808252810161442d8184614c1b565b60208101613e6b828461477d565b604081016150f7828561477d565b61442d6020830184614786565b60408101615112828561477d565b8181036020830152613eff8184614798565b60608101615132828661477d565b81810360208301526151448185614798565b9050613eff6040830184614774565b60c08101615161828961477d565b81810360208301526151738188614798565b905081810360408301526151878187614798565b9050615196606083018661477d565b81810360808301526151a88185614798565b905081810360a08301526151bc8184614798565b98975050505050505050565b61018081016151d7828f61477d565b81810360208301526151e9818e614798565b905081810360408301526151fd818d614798565b905061520c606083018c61477d565b818103608083015261521e818b614b9d565b905061522d60a083018a61477d565b61523a60c083018961477d565b81810360e083015261524c8188614798565b905061525c610100830187614774565b81810361012083015261526f8186614798565b905061527f61014083018561477d565b61528d610160830184614786565b9d9c50505050505050505050505050565b60e081016152ac828a61477d565b81810360208301526152be8189614798565b905081810360408301526152d28188614798565b90506152e1606083018761477d565b6152ee608083018661477d565b81810360a08301526153008185614798565b905081810360c08301526153148184614b70565b9998505050505050505050565b6060810161532f828661477d565b61533c602083018561477d565b613eff6040830184614786565b60608101615357828661477d565b615364602083018561477d565b613eff604083018461477d565b6101008101615380828b61477d565b61538d602083018a61477d565b61539a604083018961477d565b6153a7606083018861477d565b6153b4608083018761477d565b6153c160a083018661477d565b6153ce60c083018561477d565b81810360e08301526153e08184614798565b9a9950505050505050505050565b61016081016153fd828e61477d565b61540a602083018d61477d565b615417604083018c61477d565b615424606083018b61477d565b615431608083018a61477d565b61543e60a083018961477d565b61544b60c083018861477d565b61545860e083018761477d565b81810361010083015261546b8186614798565b905061547b61012083018561478f565b615489610140830184614774565b9c9b505050505050505050505050565b6040518181016001600160401b03811182821017156154b757600080fd5b604052919050565b60006001600160401b038211156154d557600080fd5b5060209081020190565b60006001600160401b038211156154f557600080fd5b506020601f91909101601f19160190565b60200190565b60009081526020902090565b50600290565b5190565b90815260200190565b6000613e6b8261554f565b151590565b8061123c816155b3565b8061123c816155c0565b6001600160a01b031690565b6000613e6b8261553b565b6000613e6b82615545565b82818337506000910152565b60005b83811015615598578181015183820152602001615580565b83811115614c155750506000910152565b601f01601f191690565b600481106155bd57fe5b50565b600381106155bd57fe5b600481106155bd57600080fd5b6155e081610920565b81146155bd57600080fdfea365627a7a7231582042c9ca40df19df06542613cfb4509a70916a3a5961cd3800b2203ec81e4f76426c6578706572696d656e74616cf564736f6c63430005100040",
  "source": "// SPDX-License-Identifier: MIT\r\npragma solidity >=0.4.22 <0.9.0;\r\npragma experimental ABIEncoderV2;\r\n\r\ncontract SupplyChain {\r\n    address public Owner;\r\n\r\n    struct Address {\r\n        string text;                \r\n        int256[2] coordinate;     \r\n    }\r\n\r\n    struct Category {\r\n        uint256 id;\r\n        string title;\r\n        bool isActive;\r\n    }\r\n\r\n    constructor() public {\r\n        Owner = msg.sender;\r\n    }\r\n\r\n    modifier onlyByOwner() {\r\n        require(msg.sender == Owner, \"Only the owner can perform this action.\");\r\n        _;\r\n    }\r\n\r\n    enum STAGE {\r\n        Manufacture,\r\n        Distribution,\r\n        Retail,\r\n        Sold\r\n    }\r\n\r\n    enum ShipmentStatus {\r\n        PENDING,\r\n        IN_TRANSIT,\r\n        DELIVERED\r\n    }\r\n\r\n    uint256 public rmsCtr = 0;\r\n    uint256 public productCtr = 0;\r\n    uint256 public userCount = 0;\r\n    uint256 public shipmentCount = 0;\r\n    uint256 public categoryCtr = 0;\r\n\r\n    struct Product {\r\n        uint256 id;\r\n        string name;\r\n        string description;\r\n        uint256[] rwIds;\r\n        uint256 price; \r\n        Category category;\r\n        uint256 manufacturerId;\r\n        uint256 distributorId;\r\n        string productAddress;  // Renomm pour viter conflit avec le type address\r\n        bool isActive;\r\n        string image;\r\n        uint256 produitOriginID;\r\n        STAGE stage;\r\n    }\r\n\r\n    struct RW {\r\n        uint256 id;\r\n        string name;\r\n        string description;\r\n        uint256 price;\r\n        uint256 userId;\r\n        string image;\r\n        Address origin; \r\n    }\r\n\r\n    struct User {\r\n        uint256 id;\r\n        string name;\r\n        string email;\r\n        bytes32 passwordHash;\r\n        string role;\r\n        string userAddress;\r\n    }\r\n\r\n    struct ProductHistory {\r\n        uint256 timestamp;\r\n        uint256 handlerId;\r\n        STAGE stage;\r\n    }\r\n\r\n    struct Shipment {\r\n        uint256 id;\r\n        uint256 senderId;\r\n        uint256 receiverId;\r\n        uint256 distributorId;\r\n        uint256 pickupTime;\r\n        uint256 deliveryTime;\r\n        uint256 distance;\r\n        uint256 price;\r\n        string description;\r\n        ShipmentStatus status;\r\n        bool isPaid;\r\n    }\r\n\r\n    mapping(uint256 => User) public users;\r\n    mapping(uint256 => RW) public rms;\r\n    mapping(uint256 => Product) public productStock;\r\n    mapping(uint256 => Category) public categories;\r\n    mapping(uint256 => ProductHistory[]) public productHistories;\r\n    mapping(uint256 => Shipment) public shipments;\r\n    mapping(uint256 => uint256[]) public shipmentsByDistributor; // New mapping to store shipment IDs by distributor\r\n\r\n    // Events\r\n    event RawMaterialAdded(uint256 id, string name);\r\n    event ProductAdded(uint256 id, string name);\r\n    event ProductStageUpdated(uint256 id, STAGE newStage);\r\n    event ShipmentCreated(\r\n        uint256 id,\r\n        uint256 senderId,\r\n        uint256 receiverId,\r\n        uint256 distributorId,\r\n        uint256 pickupTime,\r\n        uint256 distance,\r\n        uint256 price,\r\n        string description\r\n    );\r\n    event ShipmentInTransit(\r\n        uint256 senderId,\r\n        uint256 receiverId,\r\n        uint256 pickupTime\r\n    );\r\n    event ShipmentDelivered(\r\n        uint256 senderId,\r\n        uint256 receiverId,\r\n        uint256 deliveryTime\r\n    );\r\n    event ShipmentPaid(uint256 senderId, uint256 receiverId, uint256 amount);\r\n    event CategoryAdded(uint256 id, string title);\r\n    event RawMaterialUpdated(uint256 id, string name);\r\n    event ProductUpdated(uint256 id, string name);\r\n    event CategoryUpdated(uint256 id, string title);\r\n\r\n    // Add a raw material\r\n    function addRawMaterial(\r\n        string memory _name,\r\n        string memory _description,\r\n        uint256 _price,\r\n        string memory _image,\r\n        string memory _originText, // Texte de l'adresse\r\n        int256 _latitude, // Latitude\r\n        int256 _longitude, // Longitude\r\n        uint256 _userid\r\n    ) public onlyByOwner {\r\n        rmsCtr++;\r\n        rms[rmsCtr] = RW({\r\n            id: rmsCtr,\r\n            name: _name,\r\n            description: _description,\r\n            price: _price,\r\n            userId: _userid,\r\n            image: _image,\r\n            origin: Address({\r\n                text: _originText,\r\n                coordinate: [_latitude, _longitude] // Remplissage des coordonnes\r\n            })\r\n        });\r\n        emit RawMaterialAdded(rmsCtr, _name);\r\n    }\r\n\r\n    function addProduct(\r\n    string memory _name,\r\n    string memory _description,\r\n    uint256[] memory _rwIds,\r\n    uint256 _price,\r\n    uint256 _manufacturerId,\r\n     uint256 _distributorId,\r\n    uint256 _categoryId,\r\n    string memory _productAddress,\r\n    string memory _image\r\n) public onlyByOwner {\r\n    // Vrification des IDs de matires premires\r\n    for (uint256 i = 0; i < _rwIds.length; i++) {\r\n        require(_rwIds[i] > 0 && _rwIds[i] <= rmsCtr, \"Invalid raw material ID\");\r\n    }\r\n\r\n    // Vrification de la validit de la catgorie\r\n    require(_categoryId > 0 && _categoryId <= categoryCtr, \"Invalid category ID\");\r\n\r\n    // Incrmentation du compteur de produits\r\n    productCtr++;\r\n\r\n    // Cration du produit\r\n    productStock[productCtr] = Product({\r\n        id: productCtr,\r\n        name: _name,\r\n        description: _description,\r\n        rwIds: _rwIds,\r\n        price: _price,\r\n        category: categories[_categoryId],\r\n        manufacturerId: _manufacturerId,\r\n        distributorId: _distributorId,\r\n        productAddress: _productAddress,\r\n        produitOriginID: 0,\r\n        stage: STAGE.Manufacture,\r\n        isActive: true,\r\n        image: _image\r\n    });\r\n    for (uint256 i = 0; i < _rwIds.length; i++) {\r\n            uint256 rwId = _rwIds[i];\r\n            require(rms[rwId].id != 0, \"Invalid raw material ID.\");\r\n            createShipment(\r\n                rms[rwId].userId,\r\n                _manufacturerId,\r\n                _distributorId,\r\n                block.timestamp,\r\n                100,\r\n                100,\r\n                rms[rwId].description\r\n            );\r\n        }\r\n\r\n    // mettre l'vnement\r\n    emit ProductAdded(productCtr, _name);\r\n}\r\nfunction duplicateProduct(\r\n    uint256 _originalProductId,\r\n    string memory _name,\r\n    string memory _description,\r\n    uint256[] memory _rwIds,\r\n    uint256 _price,\r\n    uint256 _manufacturerId,\r\n     uint256 _distributorId,\r\n    string memory _productAddress,\r\n    string memory _image\r\n) public onlyByOwner {\r\n    // Vrifier si le produit original existe\r\n    require(\r\n        _originalProductId > 0 && _originalProductId <= productCtr,\r\n        \"Produit original inexistant\"\r\n    );\r\n\r\n    // Rcuprer le produit original\r\n    Product memory originalProduct = productStock[_originalProductId];\r\n\r\n    // Vrification des IDs de matires premires\r\n    for (uint256 i = 0; i < _rwIds.length; i++) {\r\n        require(_rwIds[i] > 0 && _rwIds[i] <= rmsCtr, \"Invalid raw material ID\");\r\n    }\r\n\r\n    // Incrmenter le compteur de produits\r\n    productCtr++;\r\n\r\n    // Crer un nouveau produit bas sur le produit original\r\n    productStock[productCtr] = Product({\r\n        id: productCtr,\r\n        name: _name, \r\n        description: _description,\r\n        rwIds: _rwIds,\r\n        price: _price,\r\n        category: originalProduct.category,\r\n        manufacturerId: _manufacturerId,\r\n        distributorId: _distributorId,\r\n        productAddress: _productAddress,\r\n        produitOriginID: originalProduct.id,\r\n        stage: STAGE.Manufacture,\r\n        isActive: true,\r\n        image: _image\r\n    });\r\n    for (uint256 i = 0; i < _rwIds.length; i++) {\r\n            uint256 rwId = _rwIds[i];\r\n            require(rms[rwId].id != 0, \"Invalid raw material ID.\");\r\n            createShipment(\r\n                rms[rwId].userId,\r\n                _manufacturerId,\r\n                _distributorId,\r\n                block.timestamp,\r\n                100,\r\n                100,\r\n                rms[rwId].description\r\n            );\r\n        }\r\n\r\n    // mettre un vnement pour signaler la cration du nouveau produit\r\n    emit ProductAdded(productCtr, _name);\r\n}\r\n\r\n    // Ajouter une catgorie\r\n    function addCategory(string memory _title) public onlyByOwner {\r\n        categoryCtr++;\r\n        categories[categoryCtr] = Category({\r\n            id: categoryCtr,\r\n            title: _title,\r\n            isActive: true\r\n        });\r\n        emit CategoryAdded(categoryCtr, _title);\r\n    }\r\n\r\n    // Ajouter un utilisateur\r\n    function addUser(\r\n        string memory _name,\r\n        string memory _email,\r\n        string memory _password,\r\n        string memory _role,\r\n        string memory _userAddress\r\n    ) public {\r\n        require(bytes(_name).length > 0, \"Name cannot be empty\");\r\n        require(bytes(_email).length > 0, \"Email cannot be empty\");\r\n        require(bytes(_password).length > 0, \"Password cannot be empty\");\r\n        userCount++;\r\n        users[userCount] = User({\r\n            id: userCount,\r\n            name: _name,\r\n            email: _email,\r\n            passwordHash: keccak256(abi.encodePacked(_password)),\r\n            role: _role,\r\n            userAddress: _userAddress\r\n        });\r\n    }\r\n\r\n   \r\n\r\n    // Obtenir un produit par ID\r\n    function getProductById(\r\n        uint256 _productId\r\n    ) public view returns (Product memory) {\r\n        require(\r\n            _productId > 0 && _productId <= productCtr,\r\n            \"Produit inexistant\"\r\n        );\r\n        return productStock[_productId];\r\n    }\r\n\r\n    // Obtenir tous les produits\r\n    function getAllProducts() public view returns (Product[] memory) {\r\n        uint256 count = productCtr; // Nombre total de produits\r\n        Product[] memory allProducts = new Product[](count);\r\n\r\n        for (uint256 i = 1; i <= count; i++) {\r\n            allProducts[i - 1] = productStock[i];\r\n        }\r\n\r\n        return allProducts;\r\n    }\r\n\r\n    // Obtenir toutes les catgories\r\n    function getAllCategories() public view returns (Category[] memory) {\r\n        uint256 count = categoryCtr; // Nombre total de catgories\r\n        // Crer un tableau dynamique avec le nombre total de catgories\r\n        Category[] memory allCategories = new Category[](count);\r\n\r\n        // Remplir le tableau allCategories avec les catgories\r\n        for (uint256 i = 1; i <= count; i++) {\r\n            allCategories[i - 1] = categories[i]; // Assurez-vous que 'categories' commence  1\r\n        }\r\n\r\n        return allCategories;\r\n    }\r\n\r\n    // Obtenir les utilisateurs par rle\r\n    function getUsersByRole(\r\n        string memory _role\r\n    ) public view returns (User[] memory) {\r\n        uint256 count = userCount; // Nombre total d'utilisateurs\r\n        uint256 userCountByRole = 0;\r\n\r\n        // Compter le nombre d'utilisateurs avec le rle spcifi\r\n        for (uint256 i = 1; i <= count; i++) {\r\n            if (\r\n                keccak256(abi.encodePacked(users[i].role)) ==\r\n                keccak256(abi.encodePacked(_role))\r\n            ) {\r\n                userCountByRole++;\r\n            }\r\n        }\r\n\r\n        // Crer un tableau dynamique avec le nombre d'utilisateurs avec ce rle\r\n        User[] memory usersWithRole = new User[](userCountByRole);\r\n        uint256 index = 0;\r\n\r\n        // Ajouter les utilisateurs avec le rle spcifi\r\n        for (uint256 i = 1; i <= count; i++) {\r\n            if (\r\n                keccak256(abi.encodePacked(users[i].role)) ==\r\n                keccak256(abi.encodePacked(_role))\r\n            ) {\r\n                usersWithRole[index] = users[i];\r\n                index++;\r\n            }\r\n        }\r\n\r\n        return usersWithRole;\r\n    }\r\n\r\n    // Mettre  jour le stade d'un produit\r\n    function updateProductStage(\r\n        uint256 _productId,\r\n        STAGE _newStage\r\n    ) public onlyByOwner {\r\n        require(\r\n            _productId > 0 && _productId <= productCtr,\r\n            \"Product does not exist.\"\r\n        );\r\n        require(\r\n            uint8(_newStage) > uint8(productStock[_productId].stage),\r\n            \"Invalid stage.\"\r\n        );\r\n\r\n        productStock[_productId].stage = _newStage;\r\n\r\n        productHistories[_productId].push(\r\n            ProductHistory({\r\n                timestamp: block.timestamp,\r\n                handlerId: _productId,\r\n                stage: _newStage\r\n            })\r\n        );\r\n\r\n        emit ProductStageUpdated(_productId, _newStage);\r\n    }\r\n\r\n    // Create Shipment\r\n    function createShipment(\r\n        uint256 _senderId,\r\n        uint256 _receiverId,\r\n        uint256 _distributorId,\r\n        uint256 _pickupTime,\r\n        uint256 _distance,\r\n        uint256 _price,\r\n        string memory _description\r\n    ) public {\r\n        shipmentCount++;\r\n        shipments[shipmentCount] = Shipment({\r\n            id: shipmentCount,\r\n            senderId: _senderId,\r\n            receiverId: _receiverId,\r\n            distributorId: _distributorId,\r\n            pickupTime: _pickupTime,\r\n            deliveryTime: 0,\r\n            distance: _distance,\r\n            price: _price,\r\n            description: _description,\r\n            status: ShipmentStatus.PENDING,\r\n            isPaid: false\r\n        });\r\n\r\n        shipmentsByDistributor[_distributorId].push(shipmentCount); // Add the shipment ID to the distributor's list\r\n\r\n        emit ShipmentCreated(\r\n            shipmentCount,\r\n            _senderId,\r\n            _receiverId,\r\n            _distributorId,\r\n            _pickupTime,\r\n            _distance,\r\n            _price,\r\n            _description\r\n        );\r\n    }\r\n\r\n    // Get shipments by distributor\r\n    function getShipmentsByDistributor(\r\n        uint256 distributorId\r\n    ) public view returns (Shipment[] memory) {\r\n        uint256 count = shipmentsByDistributor[distributorId].length;\r\n\r\n        // Create an array to store the result\r\n        Shipment[] memory result = new Shipment[](count);\r\n\r\n        // Populate the result array with shipments\r\n        for (uint256 i = 0; i < count; i++) {\r\n            result[i] = shipments[shipmentsByDistributor[distributorId][i]];\r\n        }\r\n\r\n        return result;\r\n    }\r\n\r\n    // Start Shipment\r\n    function startShipment(uint256 _shipmentIndex) public {\r\n        Shipment storage shipment = shipments[_shipmentIndex];\r\n        require(\r\n            shipment.status == ShipmentStatus.PENDING,\r\n            \"Shipment not pending.\"\r\n        );\r\n        shipment.status = ShipmentStatus.IN_TRANSIT;\r\n\r\n        emit ShipmentInTransit(\r\n            shipment.senderId,\r\n            shipment.receiverId,\r\n            shipment.pickupTime\r\n        );\r\n    }\r\n\r\n    // Complete Shipment\r\n    function completeShipment(uint256 _shipmentIndex) public {\r\n        Shipment storage shipment = shipments[_shipmentIndex];\r\n        require(\r\n            shipment.status == ShipmentStatus.IN_TRANSIT,\r\n            \"Shipment not in transit.\"\r\n        );\r\n        require(!shipment.isPaid, \"Shipment already paid.\");\r\n\r\n        shipment.status = ShipmentStatus.DELIVERED;\r\n        shipment.deliveryTime = block.timestamp;\r\n        shipment.isPaid = true;\r\n\r\n        emit ShipmentDelivered(\r\n            shipment.senderId,\r\n            shipment.receiverId,\r\n            shipment.deliveryTime\r\n        );\r\n        emit ShipmentPaid(\r\n            shipment.senderId,\r\n            shipment.receiverId,\r\n            shipment.price\r\n        );\r\n    }\r\n\r\n    function getAllRawMaterials() public view returns (RW[] memory) {\r\n        uint256 count = rmsCtr; // Nombre total de matires premires\r\n        // Crer un tableau dynamique avec le nombre total de matires premires\r\n        RW[] memory allRawMaterials = new RW[](count);\r\n        for (uint256 i = 1; i <= count; i++) {\r\n            allRawMaterials[i - 1] = rms[i];\r\n        }\r\n        return allRawMaterials;\r\n    }\r\n    // Obtenir tous les utilisateurs\r\n    function getAllUsers() public view returns (User[] memory) {\r\n        uint256 count = userCount; // Nombre total d'utilisateurs\r\n        User[] memory allUsers = new User[](count);\r\n\r\n        // Remplir le tableau avec tous les utilisateurs\r\n        for (uint256 i = 1; i <= count; i++) {\r\n            allUsers[i - 1] = users[i]; // Assurez-vous que 'users' commence  1\r\n        }\r\n\r\n        return allUsers;\r\n    }\r\n    function getProductHistory(\r\n        uint256 _productId\r\n    ) public view returns (ProductHistory[] memory) {\r\n        // Vrification que l'ID du produit est valide\r\n        require(\r\n            _productId > 0 && _productId <= productCtr,\r\n            \"Produit inexistant\"\r\n        );\r\n\r\n        // Retourne l'historique du produit\r\n        return productHistories[_productId];\r\n    }\r\n}\r\n",
  "sourcePath": "C:\\Users\\J.P.M\\Desktop\\supplychain\\contracts\\SupplyChain.sol",
  "compiler": {
    "name": "solc",
    "version": "0.5.16+commit.9c3226ce.Emscripten.clang"
  },
  "schemaVersion": "3.4.16",
  "updatedAt": "2024-12-17T12:38:45.052Z",
  "devdoc": {
    "methods": {}
  },
  "userdoc": {
    "methods": {}
  }
}