{
  "contractName": "SupplyChain",
  "abi": [
    {
      "inputs": [],
      "payable": false,
      "stateMutability": "nonpayable",
      "type": "constructor"
    },
    {
      "anonymous": false,
      "inputs": [
        {
          "indexed": false,
          "internalType": "uint256",
          "name": "id",
          "type": "uint256"
        },
        {
          "indexed": false,
          "internalType": "string",
          "name": "name",
          "type": "string"
        }
      ],
      "name": "ProductAdded",
      "type": "event"
    },
    {
      "anonymous": false,
      "inputs": [
        {
          "indexed": false,
          "internalType": "uint256",
          "name": "id",
          "type": "uint256"
        },
        {
          "indexed": false,
          "internalType": "enum SupplyChain.STAGE",
          "name": "newStage",
          "type": "uint8"
        }
      ],
      "name": "ProductStageUpdated",
      "type": "event"
    },
    {
      "anonymous": false,
      "inputs": [
        {
          "indexed": false,
          "internalType": "uint256",
          "name": "id",
          "type": "uint256"
        },
        {
          "indexed": false,
          "internalType": "string",
          "name": "name",
          "type": "string"
        }
      ],
      "name": "RawMaterialAdded",
      "type": "event"
    },
    {
      "constant": true,
      "inputs": [],
      "name": "Owner",
      "outputs": [
        {
          "internalType": "address",
          "name": "",
          "type": "address"
        }
      ],
      "payable": false,
      "stateMutability": "view",
      "type": "function"
    },
    {
      "constant": true,
      "inputs": [],
      "name": "productCtr",
      "outputs": [
        {
          "internalType": "uint256",
          "name": "",
          "type": "uint256"
        }
      ],
      "payable": false,
      "stateMutability": "view",
      "type": "function"
    },
    {
      "constant": true,
      "inputs": [
        {
          "internalType": "uint256",
          "name": "",
          "type": "uint256"
        },
        {
          "internalType": "uint256",
          "name": "",
          "type": "uint256"
        }
      ],
      "name": "productHistories",
      "outputs": [
        {
          "internalType": "uint256",
          "name": "timestamp",
          "type": "uint256"
        },
        {
          "internalType": "uint256",
          "name": "handlerId",
          "type": "uint256"
        },
        {
          "internalType": "enum SupplyChain.STAGE",
          "name": "stage",
          "type": "uint8"
        }
      ],
      "payable": false,
      "stateMutability": "view",
      "type": "function"
    },
    {
      "constant": true,
      "inputs": [
        {
          "internalType": "uint256",
          "name": "",
          "type": "uint256"
        }
      ],
      "name": "productStock",
      "outputs": [
        {
          "internalType": "uint256",
          "name": "id",
          "type": "uint256"
        },
        {
          "internalType": "string",
          "name": "name",
          "type": "string"
        },
        {
          "internalType": "string",
          "name": "description",
          "type": "string"
        },
        {
          "internalType": "uint256",
          "name": "manufacturerId",
          "type": "uint256"
        },
        {
          "internalType": "uint256",
          "name": "distributorId",
          "type": "uint256"
        },
        {
          "internalType": "uint256",
          "name": "retailerId",
          "type": "uint256"
        },
        {
          "internalType": "uint256",
          "name": "currentHandlerId",
          "type": "uint256"
        },
        {
          "internalType": "enum SupplyChain.STAGE",
          "name": "stage",
          "type": "uint8"
        }
      ],
      "payable": false,
      "stateMutability": "view",
      "type": "function"
    },
    {
      "constant": true,
      "inputs": [
        {
          "internalType": "uint256",
          "name": "",
          "type": "uint256"
        }
      ],
      "name": "rms",
      "outputs": [
        {
          "internalType": "uint256",
          "name": "id",
          "type": "uint256"
        },
        {
          "internalType": "string",
          "name": "name",
          "type": "string"
        },
        {
          "internalType": "string",
          "name": "description",
          "type": "string"
        },
        {
          "internalType": "uint256",
          "name": "price",
          "type": "uint256"
        },
        {
          "internalType": "uint256",
          "name": "userId",
          "type": "uint256"
        },
        {
          "internalType": "string",
          "name": "image",
          "type": "string"
        },
        {
          "internalType": "string",
          "name": "origin",
          "type": "string"
        }
      ],
      "payable": false,
      "stateMutability": "view",
      "type": "function"
    },
    {
      "constant": true,
      "inputs": [],
      "name": "rmsCtr",
      "outputs": [
        {
          "internalType": "uint256",
          "name": "",
          "type": "uint256"
        }
      ],
      "payable": false,
      "stateMutability": "view",
      "type": "function"
    },
    {
      "constant": true,
      "inputs": [],
      "name": "userCount",
      "outputs": [
        {
          "internalType": "uint256",
          "name": "",
          "type": "uint256"
        }
      ],
      "payable": false,
      "stateMutability": "view",
      "type": "function"
    },
    {
      "constant": true,
      "inputs": [
        {
          "internalType": "uint256",
          "name": "",
          "type": "uint256"
        }
      ],
      "name": "users",
      "outputs": [
        {
          "internalType": "uint256",
          "name": "id",
          "type": "uint256"
        },
        {
          "internalType": "string",
          "name": "name",
          "type": "string"
        },
        {
          "internalType": "string",
          "name": "email",
          "type": "string"
        },
        {
          "internalType": "bytes32",
          "name": "passwordHash",
          "type": "bytes32"
        },
        {
          "internalType": "string",
          "name": "role",
          "type": "string"
        }
      ],
      "payable": false,
      "stateMutability": "view",
      "type": "function"
    },
    {
      "constant": false,
      "inputs": [
        {
          "internalType": "string",
          "name": "_name",
          "type": "string"
        },
        {
          "internalType": "string",
          "name": "_description",
          "type": "string"
        },
        {
          "internalType": "uint256",
          "name": "_price",
          "type": "uint256"
        },
        {
          "internalType": "string",
          "name": "_image",
          "type": "string"
        },
        {
          "internalType": "string",
          "name": "_origin",
          "type": "string"
        }
      ],
      "name": "addRawMaterial",
      "outputs": [],
      "payable": false,
      "stateMutability": "nonpayable",
      "type": "function"
    },
    {
      "constant": false,
      "inputs": [
        {
          "internalType": "string",
          "name": "_name",
          "type": "string"
        },
        {
          "internalType": "string",
          "name": "_email",
          "type": "string"
        },
        {
          "internalType": "string",
          "name": "_password",
          "type": "string"
        },
        {
          "internalType": "string",
          "name": "_role",
          "type": "string"
        }
      ],
      "name": "addUser",
      "outputs": [],
      "payable": false,
      "stateMutability": "nonpayable",
      "type": "function"
    },
    {
      "constant": true,
      "inputs": [
        {
          "internalType": "string",
          "name": "_role",
          "type": "string"
        }
      ],
      "name": "getUsersByRole",
      "outputs": [
        {
          "components": [
            {
              "internalType": "uint256",
              "name": "id",
              "type": "uint256"
            },
            {
              "internalType": "string",
              "name": "name",
              "type": "string"
            },
            {
              "internalType": "string",
              "name": "email",
              "type": "string"
            },
            {
              "internalType": "bytes32",
              "name": "passwordHash",
              "type": "bytes32"
            },
            {
              "internalType": "string",
              "name": "role",
              "type": "string"
            }
          ],
          "internalType": "struct SupplyChain.User[]",
          "name": "",
          "type": "tuple[]"
        }
      ],
      "payable": false,
      "stateMutability": "view",
      "type": "function"
    },
    {
      "constant": false,
      "inputs": [
        {
          "internalType": "string",
          "name": "_name",
          "type": "string"
        },
        {
          "internalType": "string",
          "name": "_description",
          "type": "string"
        },
        {
          "internalType": "uint256[]",
          "name": "_rwIds",
          "type": "uint256[]"
        },
        {
          "internalType": "uint256",
          "name": "_manufacturerId",
          "type": "uint256"
        }
      ],
      "name": "addProduct",
      "outputs": [],
      "payable": false,
      "stateMutability": "nonpayable",
      "type": "function"
    },
    {
      "constant": false,
      "inputs": [
        {
          "internalType": "uint256",
          "name": "_productId",
          "type": "uint256"
        },
        {
          "internalType": "enum SupplyChain.STAGE",
          "name": "_newStage",
          "type": "uint8"
        }
      ],
      "name": "updateProductStage",
      "outputs": [],
      "payable": false,
      "stateMutability": "nonpayable",
      "type": "function"
    },
    {
      "constant": true,
      "inputs": [
        {
          "internalType": "uint256",
          "name": "_productId",
          "type": "uint256"
        }
      ],
      "name": "getProductHistory",
      "outputs": [
        {
          "components": [
            {
              "internalType": "uint256",
              "name": "timestamp",
              "type": "uint256"
            },
            {
              "internalType": "uint256",
              "name": "handlerId",
              "type": "uint256"
            },
            {
              "internalType": "enum SupplyChain.STAGE",
              "name": "stage",
              "type": "uint8"
            }
          ],
          "internalType": "struct SupplyChain.ProductHistory[]",
          "name": "",
          "type": "tuple[]"
        }
      ],
      "payable": false,
      "stateMutability": "view",
      "type": "function"
    }
  ],
  "bytecode": "0x608060405260006001556000600255600060035534801561001f57600080fd5b50336000806101000a81548173ffffffffffffffffffffffffffffffffffffffff021916908373ffffffffffffffffffffffffffffffffffffffff1602179055506126b28061006f6000396000f3fe608060405234801561001057600080fd5b50600436106100ea5760003560e01c80637f666acb1161008c578063b4a99a4e11610066578063b4a99a4e14610268578063c08c1cec14610286578063c0efbb82146102bc578063dd286398146102ec576100ea565b80637f666acb146101fc5780638bd0115d1461022e578063aaea34aa1461024a576100ea565b8063564f2cd3116100c8578063564f2cd31461015d57806357a096a1146101795780635eba8401146101a95780636a13931d146101e0576100ea565b806301cda3ac146100ef57806307973ccf1461010b578063365b98b214610129575b600080fd5b61010960048036036101049190810190611968565b61030a565b005b6101136104c0565b6040516101209190612208565b60405180910390f35b610143600480360361013e9190810190611b02565b6104c6565b60405161015495949392919061227c565b60405180910390f35b610177600480360361017291908101906118bd565b6106c4565b005b610193600480360361018e9190810190611b02565b61091f565b6040516101a09190612104565b60405180910390f35b6101c360048036036101be9190810190611b02565b610a23565b6040516101d798979695949392919061236f565b60405180910390f35b6101fa60048036036101f59190810190611b2b565b610ba8565b005b61021660048036036102119190810190611b67565b610e01565b604051610225939291906123fb565b60405180910390f35b61024860048036036102439190810190611a2b565b610e52565b005b610252610fdf565b60405161025f9190612208565b60405180910390f35b610270610fe5565b60405161027d91906120e9565b60405180910390f35b6102a0600480360361029b9190810190611b02565b61100a565b6040516102b397969594939291906122e4565b60405180910390f35b6102d660048036036102d1919081019061187c565b6112ac565b6040516102e39190612126565b60405180910390f35b6102f4611651565b6040516103019190612208565b60405180910390f35b600084511161034e576040517f08c379a000000000000000000000000000000000000000000000000000000000815260040161034590612188565b60405180910390fd5b6000835111610392576040517f08c379a0000000000000000000000000000000000000000000000000000000008152600401610389906121c8565b60405180910390fd5b60008251116103d6576040517f08c379a00000000000000000000000000000000000000000000000000000000081526004016103cd906121a8565b60405180910390fd5b6003600081548092919060010191905055506040518060a0016040528060035481526020018581526020018481526020018360405160200161041891906120bb565b60405160208183030381529060405280519060200120815260200182815250600460006003548152602001908152602001600020600082015181600001556020820151816001019080519060200190610472929190611657565b50604082015181600201908051906020019061048f929190611657565b506060820151816003015560808201518160040190805190602001906104b6929190611657565b5090505050505050565b60035481565b6004602052806000526040600020600091509050806000015490806001018054600181600116156101000203166002900480601f0160208091040260200160405190810160405280929190818152602001828054600181600116156101000203166002900480156105785780601f1061054d57610100808354040283529160200191610578565b820191906000526020600020905b81548152906001019060200180831161055b57829003601f168201915b505050505090806002018054600181600116156101000203166002900480601f0160208091040260200160405190810160405280929190818152602001828054600181600116156101000203166002900480156106165780601f106105eb57610100808354040283529160200191610616565b820191906000526020600020905b8154815290600101906020018083116105f957829003601f168201915b505050505090806003015490806004018054600181600116156101000203166002900480601f0160208091040260200160405190810160405280929190818152602001828054600181600116156101000203166002900480156106ba5780601f1061068f576101008083540402835291602001916106ba565b820191906000526020600020905b81548152906001019060200180831161069d57829003601f168201915b5050505050905085565b6000809054906101000a900473ffffffffffffffffffffffffffffffffffffffff1673ffffffffffffffffffffffffffffffffffffffff163373ffffffffffffffffffffffffffffffffffffffff161461071d57600080fd5b60008090505b82518110156107b057600083828151811061073a57fe5b6020026020010151118015610764575060015483828151811061075957fe5b602002602001015111155b6107a3576040517f08c379a000000000000000000000000000000000000000000000000000000000815260040161079a906121e8565b60405180910390fd5b8080600101915050610723565b50600260008154809291906001019190505550604051806101200160405280600254815260200185815260200184815260200183815260200182815260200160008152602001600081526020018281526020016000600381111561081057fe5b81525060066000600254815260200190815260200160002060008201518160000155602082015181600101908051906020019061084e929190611657565b50604082015181600201908051906020019061086b929190611657565b5060608201518160030190805190602001906108889291906116d7565b506080820151816004015560a0820151816005015560c0820151816006015560e082015181600701556101008201518160080160006101000a81548160ff021916908360038111156108d657fe5b02179055509050507f259101de1f87b04b9ee0332ce5e3cc508014004bf283424aead6cd8692f5cf986002548560405161091192919061224c565b60405180910390a150505050565b606060008211801561093357506002548211155b610972576040517f08c379a000000000000000000000000000000000000000000000000000000000815260040161096990612168565b60405180910390fd5b60076000838152602001908152602001600020805480602002602001604051908101604052809291908181526020016000905b82821015610a18578382906000526020600020906003020160405180606001604052908160008201548152602001600182015481526020016002820160009054906101000a900460ff1660038111156109fa57fe5b6003811115610a0557fe5b81525050815260200190600101906109a5565b505050509050919050565b6006602052806000526040600020600091509050806000015490806001018054600181600116156101000203166002900480601f016020809104026020016040519081016040528092919081815260200182805460018160011615610100020316600290048015610ad55780601f10610aaa57610100808354040283529160200191610ad5565b820191906000526020600020905b815481529060010190602001808311610ab857829003601f168201915b505050505090806002018054600181600116156101000203166002900480601f016020809104026020016040519081016040528092919081815260200182805460018160011615610100020316600290048015610b735780601f10610b4857610100808354040283529160200191610b73565b820191906000526020600020905b815481529060010190602001808311610b5657829003601f168201915b5050505050908060040154908060050154908060060154908060070154908060080160009054906101000a900460ff16905088565b6000809054906101000a900473ffffffffffffffffffffffffffffffffffffffff1673ffffffffffffffffffffffffffffffffffffffff163373ffffffffffffffffffffffffffffffffffffffff1614610c0157600080fd5b600082118015610c1357506002548211155b610c52576040517f08c379a0000000000000000000000000000000000000000000000000000000008152600401610c4990612168565b60405180910390fd5b6006600083815260200190815260200160002060080160009054906101000a900460ff166003811115610c8157fe5b60ff16816003811115610c9057fe5b60ff1611610cd3576040517f08c379a0000000000000000000000000000000000000000000000000000000008152600401610cca90612148565b60405180910390fd5b806006600084815260200190815260200160002060080160006101000a81548160ff02191690836003811115610d0557fe5b021790555060076000838152602001908152602001600020604051806060016040528042815260200160066000868152602001908152602001600020600701548152602001836003811115610d5657fe5b81525090806001815401808255809150509060018203906000526020600020906003020160009091929091909150600082015181600001556020820151816001015560408201518160020160006101000a81548160ff02191690836003811115610dbc57fe5b02179055505050507fdb1adf3543039f5d54bb67ebf175b8ef7ba88285d54355d6c564b2478877a4428282604051610df5929190612223565b60405180910390a15050565b60076020528160005260406000208181548110610e1a57fe5b9060005260206000209060030201600091509150508060000154908060010154908060020160009054906101000a900460ff16905083565b6000809054906101000a900473ffffffffffffffffffffffffffffffffffffffff1673ffffffffffffffffffffffffffffffffffffffff163373ffffffffffffffffffffffffffffffffffffffff1614610eab57600080fd5b6001600081548092919060010191905055506040518060e0016040528060015481526020018681526020018581526020018481526020016000815260200183815260200182815250600560006001548152602001908152602001600020600082015181600001556020820151816001019080519060200190610f2e929190611657565b506040820151816002019080519060200190610f4b929190611657565b50606082015181600301556080820151816004015560a0820151816005019080519060200190610f7c929190611657565b5060c0820151816006019080519060200190610f99929190611657565b509050507f397bf151e41293935c43045d8da74b84bd4801db62720fc9b2e2e18f02ea4b5960015486604051610fd092919061224c565b60405180910390a15050505050565b60025481565b6000809054906101000a900473ffffffffffffffffffffffffffffffffffffffff1681565b6005602052806000526040600020600091509050806000015490806001018054600181600116156101000203166002900480601f0160208091040260200160405190810160405280929190818152602001828054600181600116156101000203166002900480156110bc5780601f10611091576101008083540402835291602001916110bc565b820191906000526020600020905b81548152906001019060200180831161109f57829003601f168201915b505050505090806002018054600181600116156101000203166002900480601f01602080910402602001604051908101604052809291908181526020018280546001816001161561010002031660029004801561115a5780601f1061112f5761010080835404028352916020019161115a565b820191906000526020600020905b81548152906001019060200180831161113d57829003601f168201915b505050505090806003015490806004015490806005018054600181600116156101000203166002900480601f0160208091040260200160405190810160405280929190818152602001828054600181600116156101000203166002900480156112045780601f106111d957610100808354040283529160200191611204565b820191906000526020600020905b8154815290600101906020018083116111e757829003601f168201915b505050505090806006018054600181600116156101000203166002900480601f0160208091040260200160405190810160405280929190818152602001828054600181600116156101000203166002900480156112a25780601f10611277576101008083540402835291602001916112a2565b820191906000526020600020905b81548152906001019060200180831161128557829003601f168201915b5050505050905087565b606060008090506000600190505b600354811161134257836040516020016112d491906120bb565b604051602081830303815290604052805190602001206004600083815260200190815260200160002060040160405160200161131091906120d2565b6040516020818303038152906040528051906020012014156113355781806001019250505b80806001019150506112ba565b5060608160405190808252806020026020018201604052801561137f57816020015b61136c611724565b8152602001906001900390816113645790505b50905060008090506000600190505b600354811161164557856040516020016113a891906120bb565b60405160208183030381529060405280519060200120600460008381526020019081526020016000206004016040516020016113e491906120d2565b60405160208183030381529060405280519060200120141561163857600460008281526020019081526020016000206040518060a001604052908160008201548152602001600182018054600181600116156101000203166002900480601f0160208091040260200160405190810160405280929190818152602001828054600181600116156101000203166002900480156114c15780601f10611496576101008083540402835291602001916114c1565b820191906000526020600020905b8154815290600101906020018083116114a457829003601f168201915b50505050508152602001600282018054600181600116156101000203166002900480601f0160208091040260200160405190810160405280929190818152602001828054600181600116156101000203166002900480156115635780601f1061153857610100808354040283529160200191611563565b820191906000526020600020905b81548152906001019060200180831161154657829003601f168201915b5050505050815260200160038201548152602001600482018054600181600116156101000203166002900480601f01602080910402602001604051908101604052809291908181526020018280546001816001161561010002031660029004801561160f5780601f106115e45761010080835404028352916020019161160f565b820191906000526020600020905b8154815290600101906020018083116115f257829003601f168201915b50505050508152505083838151811061162457fe5b602002602001018190525081806001019250505b808060010191505061138e565b50819350505050919050565b60015481565b828054600181600116156101000203166002900490600052602060002090601f016020900481019282601f1061169857805160ff19168380011785556116c6565b828001600101855582156116c6579182015b828111156116c55782518255916020019190600101906116aa565b5b5090506116d39190611756565b5090565b828054828255906000526020600020908101928215611713579160200282015b828111156117125782518255916020019190600101906116f7565b5b5090506117209190611756565b5090565b6040518060a0016040528060008152602001606081526020016060815260200160008019168152602001606081525090565b61177891905b8082111561177457600081600090555060010161175c565b5090565b90565b600082601f83011261178c57600080fd5b813561179f61179a8261245f565b612432565b915081818352602084019350602081019050838560208402820111156117c457600080fd5b60005b838110156117f457816117da8882611867565b8452602084019350602083019250506001810190506117c7565b5050505092915050565b60008135905061180d81612648565b92915050565b600082601f83011261182457600080fd5b813561183761183282612487565b612432565b9150808252602083016020830185838301111561185357600080fd5b61185e8382846125e8565b50505092915050565b60008135905061187681612658565b92915050565b60006020828403121561188e57600080fd5b600082013567ffffffffffffffff8111156118a857600080fd5b6118b484828501611813565b91505092915050565b600080600080608085870312156118d357600080fd5b600085013567ffffffffffffffff8111156118ed57600080fd5b6118f987828801611813565b945050602085013567ffffffffffffffff81111561191657600080fd5b61192287828801611813565b935050604085013567ffffffffffffffff81111561193f57600080fd5b61194b8782880161177b565b925050606061195c87828801611867565b91505092959194509250565b6000806000806080858703121561197e57600080fd5b600085013567ffffffffffffffff81111561199857600080fd5b6119a487828801611813565b945050602085013567ffffffffffffffff8111156119c157600080fd5b6119cd87828801611813565b935050604085013567ffffffffffffffff8111156119ea57600080fd5b6119f687828801611813565b925050606085013567ffffffffffffffff811115611a1357600080fd5b611a1f87828801611813565b91505092959194509250565b600080600080600060a08688031215611a4357600080fd5b600086013567ffffffffffffffff811115611a5d57600080fd5b611a6988828901611813565b955050602086013567ffffffffffffffff811115611a8657600080fd5b611a9288828901611813565b9450506040611aa388828901611867565b935050606086013567ffffffffffffffff811115611ac057600080fd5b611acc88828901611813565b925050608086013567ffffffffffffffff811115611ae957600080fd5b611af588828901611813565b9150509295509295909350565b600060208284031215611b1457600080fd5b6000611b2284828501611867565b91505092915050565b60008060408385031215611b3e57600080fd5b6000611b4c85828601611867565b9250506020611b5d858286016117fe565b9150509250929050565b60008060408385031215611b7a57600080fd5b6000611b8885828601611867565b9250506020611b9985828601611867565b9150509250929050565b6000611baf8383611fd7565b60608301905092915050565b6000611bc78383612019565b905092915050565b611bd88161257d565b82525050565b6000611be9826124e8565b611bf3818561252e565b9350611bfe836124b3565b8060005b83811015611c2f578151611c168882611ba3565b9750611c2183612514565b925050600181019050611c02565b5085935050505092915050565b6000611c47826124f3565b611c51818561253f565b935083602082028501611c63856124c3565b8060005b85811015611c9f5784840389528151611c808582611bbb565b9450611c8b83612521565b925060208a01995050600181019050611c67565b50829750879550505050505092915050565b611cba8161258f565b82525050565b611cc98161258f565b82525050565b611cd8816125d6565b82525050565b611ce7816125d6565b82525050565b6000611cf882612509565b611d028185612561565b9350611d128185602086016125f7565b611d1b8161262a565b840191505092915050565b6000611d3182612509565b611d3b8185612572565b9350611d4b8185602086016125f7565b80840191505092915050565b6000611d62826124fe565b611d6c8185612550565b9350611d7c8185602086016125f7565b611d858161262a565b840191505092915050565b6000611d9b826124fe565b611da58185612561565b9350611db58185602086016125f7565b611dbe8161262a565b840191505092915050565b600081546001811660008114611de65760018114611e0b57611e4f565b607f6002830416611df78187612572565b955060ff1983168652808601935050611e4f565b60028204611e198187612572565b9550611e24856124d3565b60005b82811015611e4657815481890152600182019150602081019050611e27565b82880195505050505b505092915050565b6000611e64600e83612561565b91507f537461646520696e76616c6964650000000000000000000000000000000000006000830152602082019050919050565b6000611ea4601283612561565b91507f50726f6475697420696e6578697374616e7400000000000000000000000000006000830152602082019050919050565b6000611ee4601483612561565b91507f4e616d652063616e6e6f7420626520656d7074790000000000000000000000006000830152602082019050919050565b6000611f24601883612561565b91507f50617373776f72642063616e6e6f7420626520656d70747900000000000000006000830152602082019050919050565b6000611f64601583612561565b91507f456d61696c2063616e6e6f7420626520656d70747900000000000000000000006000830152602082019050919050565b6000611fa4601783612561565b91507f496e76616c696420726177206d6174657269616c2049440000000000000000006000830152602082019050919050565b606082016000820151611fed600085018261209d565b506020820151612000602085018261209d565b5060408201516120136040850182611ccf565b50505050565b600060a083016000830151612031600086018261209d565b50602083015184820360208601526120498282611d57565b915050604083015184820360408601526120638282611d57565b91505060608301516120786060860182611cb1565b50608083015184820360808601526120908282611d57565b9150508091505092915050565b6120a6816125cc565b82525050565b6120b5816125cc565b82525050565b60006120c78284611d26565b915081905092915050565b60006120de8284611dc9565b915081905092915050565b60006020820190506120fe6000830184611bcf565b92915050565b6000602082019050818103600083015261211e8184611bde565b905092915050565b600060208201905081810360008301526121408184611c3c565b905092915050565b6000602082019050818103600083015261216181611e57565b9050919050565b6000602082019050818103600083015261218181611e97565b9050919050565b600060208201905081810360008301526121a181611ed7565b9050919050565b600060208201905081810360008301526121c181611f17565b9050919050565b600060208201905081810360008301526121e181611f57565b9050919050565b6000602082019050818103600083015261220181611f97565b9050919050565b600060208201905061221d60008301846120ac565b92915050565b600060408201905061223860008301856120ac565b6122456020830184611cde565b9392505050565b600060408201905061226160008301856120ac565b81810360208301526122738184611ced565b90509392505050565b600060a08201905061229160008301886120ac565b81810360208301526122a38187611d90565b905081810360408301526122b78186611d90565b90506122c66060830185611cc0565b81810360808301526122d88184611d90565b90509695505050505050565b600060e0820190506122f9600083018a6120ac565b818103602083015261230b8189611d90565b9050818103604083015261231f8188611d90565b905061232e60608301876120ac565b61233b60808301866120ac565b81810360a083015261234d8185611d90565b905081810360c08301526123618184611d90565b905098975050505050505050565b600061010082019050612385600083018b6120ac565b8181036020830152612397818a611d90565b905081810360408301526123ab8189611d90565b90506123ba60608301886120ac565b6123c760808301876120ac565b6123d460a08301866120ac565b6123e160c08301856120ac565b6123ee60e0830184611cde565b9998505050505050505050565b600060608201905061241060008301866120ac565b61241d60208301856120ac565b61242a6040830184611cde565b949350505050565b6000604051905081810181811067ffffffffffffffff8211171561245557600080fd5b8060405250919050565b600067ffffffffffffffff82111561247657600080fd5b602082029050602081019050919050565b600067ffffffffffffffff82111561249e57600080fd5b601f19601f8301169050602081019050919050565b6000819050602082019050919050565b6000819050602082019050919050565b60008190508160005260206000209050919050565b600081519050919050565b600081519050919050565b600081519050919050565b600081519050919050565b6000602082019050919050565b6000602082019050919050565b600082825260208201905092915050565b600082825260208201905092915050565b600082825260208201905092915050565b600082825260208201905092915050565b600081905092915050565b6000612588826125ac565b9050919050565b6000819050919050565b60008190506125a78261263b565b919050565b600073ffffffffffffffffffffffffffffffffffffffff82169050919050565b6000819050919050565b60006125e182612599565b9050919050565b82818337600083830152505050565b60005b838110156126155780820151818401526020810190506125fa565b83811115612624576000848401525b50505050565b6000601f19601f8301169050919050565b6004811061264557fe5b50565b6004811061265557600080fd5b50565b612661816125cc565b811461266c57600080fd5b5056fea365627a7a7231582043ba5596c073df681a62763b47a56e12fb6208b178d0ad456a07c370821ad1116c6578706572696d656e74616cf564736f6c63430005100040",
  "source": "// SPDX-License-Identifier: MIT\r\npragma solidity >=0.4.22 <0.9.0;\r\npragma experimental ABIEncoderV2;\r\n\r\ncontract SupplyChain {\r\n    // Propritaire du contrat\r\n    address public Owner;\r\n\r\n    constructor() public {\r\n        Owner = msg.sender;\r\n    }\r\n\r\n    modifier onlyByOwner() {\r\n        require(msg.sender == Owner);\r\n        _;\r\n    }\r\n\r\n    enum STAGE {\r\n        Manufacture,\r\n        Distribution,\r\n        Retail,\r\n        Sold\r\n    }\r\n\r\n    uint256 public rmsCtr = 0;\r\n    uint256 public productCtr = 0;\r\n    uint256 public userCount = 0;\r\n\r\n    struct RW {\r\n        uint256 id;\r\n        string name;\r\n        string description;\r\n        uint256 price;\r\n        uint256 userId;\r\n        string image;\r\n        string origin;\r\n    }\r\n\r\n    struct Product {\r\n        uint256 id;\r\n        string name;\r\n        string description;\r\n        uint256[] rwIds;\r\n        uint256 manufacturerId;\r\n        uint256 distributorId;\r\n        uint256 retailerId;\r\n        uint256 currentHandlerId;\r\n        STAGE stage;\r\n    }\r\n\r\n    struct User {\r\n        uint256 id;\r\n        string name;\r\n        string email;\r\n        bytes32 passwordHash; // Stockage scuris avec un hash\r\n        string role; // Role de l'utilisateur comme une chane de caractres\r\n    }\r\n\r\n    struct ProductHistory {\r\n        uint256 timestamp;\r\n        uint256 handlerId;\r\n        STAGE stage;\r\n    }\r\n\r\n    mapping(uint256 => User) public users;\r\n    mapping(uint256 => RW) public rms;\r\n    mapping(uint256 => Product) public productStock;\r\n    mapping(uint256 => ProductHistory[]) public productHistories;\r\n\r\n    // vnements\r\n    event RawMaterialAdded(uint256 id, string name);\r\n    event ProductAdded(uint256 id, string name);\r\n    event ProductStageUpdated(uint256 id, STAGE newStage);\r\n\r\n    // Ajouter une matire premire\r\n    function addRawMaterial(\r\n        string memory _name,\r\n        string memory _description,\r\n        uint256 _price,\r\n        string memory _image,\r\n        string memory _origin\r\n    ) public onlyByOwner {\r\n        rmsCtr++;\r\n        rms[rmsCtr] = RW({\r\n            id: rmsCtr,\r\n            name: _name,\r\n            description: _description,\r\n            price: _price,\r\n            userId: 0,\r\n            image: _image,\r\n            origin: _origin\r\n        });\r\n        emit RawMaterialAdded(rmsCtr, _name);\r\n    }\r\n\r\n    // Ajouter un utilisateur\r\n    function addUser(\r\n        string memory _name,\r\n        string memory _email,\r\n        string memory _password,\r\n        string memory _role\r\n    ) public {\r\n        require(bytes(_name).length > 0, \"Name cannot be empty\");\r\n        require(bytes(_email).length > 0, \"Email cannot be empty\");\r\n        require(bytes(_password).length > 0, \"Password cannot be empty\");\r\n\r\n        userCount++;\r\n        users[userCount] = User({\r\n            id: userCount,\r\n            name: _name,\r\n            email: _email,\r\n            passwordHash: keccak256(abi.encodePacked(_password)),\r\n            role: _role\r\n        });\r\n    }\r\n\r\n    // Obtenir les utilisateurs par rle\r\n    function getUsersByRole(string memory _role) public view returns (User[] memory) {\r\n        uint256 count = 0;\r\n        for (uint256 i = 1; i <= userCount; i++) {\r\n            if (\r\n                keccak256(abi.encodePacked(users[i].role)) == keccak256(abi.encodePacked(_role))\r\n            ) {\r\n                count++;\r\n            }\r\n        }\r\n\r\n        User[] memory filteredUsers = new User[](count);\r\n        uint256 index = 0;\r\n        for (uint256 i = 1; i <= userCount; i++) {\r\n            if (\r\n                keccak256(abi.encodePacked(users[i].role)) == keccak256(abi.encodePacked(_role))\r\n            ) {\r\n                filteredUsers[index] = users[i];\r\n                index++;\r\n            }\r\n        }\r\n        return filteredUsers;\r\n    }\r\n\r\n    // Ajouter un produit\r\n    function addProduct(\r\n        string memory _name,\r\n        string memory _description,\r\n        uint256[] memory _rwIds,\r\n        uint256 _manufacturerId\r\n    ) public onlyByOwner {\r\n        for (uint256 i = 0; i < _rwIds.length; i++) {\r\n            require(_rwIds[i] > 0 && _rwIds[i] <= rmsCtr, \"Invalid raw material ID\");\r\n        }\r\n\r\n        productCtr++;\r\n        productStock[productCtr] = Product({\r\n            id: productCtr,\r\n            name: _name,\r\n            description: _description,\r\n            rwIds: _rwIds,\r\n            manufacturerId: _manufacturerId,\r\n            distributorId: 0,\r\n            retailerId: 0,\r\n            currentHandlerId: _manufacturerId,\r\n            stage: STAGE.Manufacture\r\n        });\r\n\r\n        emit ProductAdded(productCtr, _name);\r\n    }\r\n\r\n    // Mettre  jour le stade d'un produit\r\n    function updateProductStage(uint256 _productId, STAGE _newStage) public onlyByOwner {\r\n        require(_productId > 0 && _productId <= productCtr, \"Produit inexistant\");\r\n        require(\r\n            uint8(_newStage) > uint8(productStock[_productId].stage),\r\n            \"Stade invalide\"\r\n        );\r\n        productStock[_productId].stage = _newStage;\r\n\r\n        productHistories[_productId].push(\r\n            ProductHistory({\r\n                timestamp: block.timestamp,\r\n                handlerId: productStock[_productId].currentHandlerId,\r\n                stage: _newStage\r\n            })\r\n        );\r\n\r\n        emit ProductStageUpdated(_productId, _newStage);\r\n    }\r\n\r\n    // Obtenir l'historique d'un produit\r\n    function getProductHistory(uint256 _productId) public view returns (ProductHistory[] memory) {\r\n        require(_productId > 0 && _productId <= productCtr, \"Produit inexistant\");\r\n        return productHistories[_productId];\r\n    }\r\n}\r\n",
  "sourcePath": "C:\\Users\\J.P.M\\Desktop\\supplychain\\contracts\\SupplyChain.sol",
  "compiler": {
    "name": "solc",
    "version": "0.5.16+commit.9c3226ce.Emscripten.clang"
  },
  "schemaVersion": "3.4.16",
  "updatedAt": "2024-12-04T10:58:45.864Z",
  "networkType": "ethereum",
  "devdoc": {
    "methods": {}
  },
  "userdoc": {
    "methods": {}
  }
}