{
  "contractName": "SupplyChain",
  "abi": [
    {
      "inputs": [],
      "payable": false,
      "stateMutability": "nonpayable",
      "type": "constructor"
    },
    {
      "anonymous": false,
      "inputs": [
        {
          "indexed": false,
          "internalType": "uint256",
          "name": "id",
          "type": "uint256"
        },
        {
          "indexed": false,
          "internalType": "string",
          "name": "title",
          "type": "string"
        }
      ],
      "name": "CategoryAdded",
      "type": "event"
    },
    {
      "anonymous": false,
      "inputs": [
        {
          "indexed": false,
          "internalType": "uint256",
          "name": "id",
          "type": "uint256"
        },
        {
          "indexed": false,
          "internalType": "string",
          "name": "title",
          "type": "string"
        }
      ],
      "name": "CategoryUpdated",
      "type": "event"
    },
    {
      "anonymous": false,
      "inputs": [
        {
          "indexed": false,
          "internalType": "uint256",
          "name": "id",
          "type": "uint256"
        },
        {
          "indexed": false,
          "internalType": "string",
          "name": "name",
          "type": "string"
        }
      ],
      "name": "ProductAdded",
      "type": "event"
    },
    {
      "anonymous": false,
      "inputs": [
        {
          "indexed": false,
          "internalType": "uint256",
          "name": "id",
          "type": "uint256"
        },
        {
          "indexed": false,
          "internalType": "enum SupplyChain.STAGE",
          "name": "newStage",
          "type": "uint8"
        }
      ],
      "name": "ProductStageUpdated",
      "type": "event"
    },
    {
      "anonymous": false,
      "inputs": [
        {
          "indexed": false,
          "internalType": "uint256",
          "name": "id",
          "type": "uint256"
        },
        {
          "indexed": false,
          "internalType": "string",
          "name": "name",
          "type": "string"
        }
      ],
      "name": "ProductUpdated",
      "type": "event"
    },
    {
      "anonymous": false,
      "inputs": [
        {
          "indexed": false,
          "internalType": "uint256",
          "name": "id",
          "type": "uint256"
        },
        {
          "indexed": false,
          "internalType": "string",
          "name": "name",
          "type": "string"
        }
      ],
      "name": "RawMaterialAdded",
      "type": "event"
    },
    {
      "anonymous": false,
      "inputs": [
        {
          "indexed": false,
          "internalType": "uint256",
          "name": "id",
          "type": "uint256"
        },
        {
          "indexed": false,
          "internalType": "string",
          "name": "name",
          "type": "string"
        }
      ],
      "name": "RawMaterialUpdated",
      "type": "event"
    },
    {
      "constant": true,
      "inputs": [],
      "name": "Owner",
      "outputs": [
        {
          "internalType": "address",
          "name": "",
          "type": "address"
        }
      ],
      "payable": false,
      "stateMutability": "view",
      "type": "function"
    },
    {
      "constant": true,
      "inputs": [
        {
          "internalType": "uint256",
          "name": "",
          "type": "uint256"
        }
      ],
      "name": "categories",
      "outputs": [
        {
          "internalType": "uint256",
          "name": "id",
          "type": "uint256"
        },
        {
          "internalType": "string",
          "name": "title",
          "type": "string"
        },
        {
          "internalType": "bool",
          "name": "isActive",
          "type": "bool"
        }
      ],
      "payable": false,
      "stateMutability": "view",
      "type": "function"
    },
    {
      "constant": true,
      "inputs": [],
      "name": "categoryCtr",
      "outputs": [
        {
          "internalType": "uint256",
          "name": "",
          "type": "uint256"
        }
      ],
      "payable": false,
      "stateMutability": "view",
      "type": "function"
    },
    {
      "constant": true,
      "inputs": [],
      "name": "productCtr",
      "outputs": [
        {
          "internalType": "uint256",
          "name": "",
          "type": "uint256"
        }
      ],
      "payable": false,
      "stateMutability": "view",
      "type": "function"
    },
    {
      "constant": true,
      "inputs": [
        {
          "internalType": "uint256",
          "name": "",
          "type": "uint256"
        },
        {
          "internalType": "uint256",
          "name": "",
          "type": "uint256"
        }
      ],
      "name": "productHistories",
      "outputs": [
        {
          "internalType": "uint256",
          "name": "timestamp",
          "type": "uint256"
        },
        {
          "internalType": "uint256",
          "name": "handlerId",
          "type": "uint256"
        },
        {
          "internalType": "enum SupplyChain.STAGE",
          "name": "stage",
          "type": "uint8"
        }
      ],
      "payable": false,
      "stateMutability": "view",
      "type": "function"
    },
    {
      "constant": true,
      "inputs": [
        {
          "internalType": "uint256",
          "name": "",
          "type": "uint256"
        }
      ],
      "name": "productStock",
      "outputs": [
        {
          "internalType": "uint256",
          "name": "id",
          "type": "uint256"
        },
        {
          "internalType": "string",
          "name": "name",
          "type": "string"
        },
        {
          "internalType": "string",
          "name": "description",
          "type": "string"
        },
        {
          "components": [
            {
              "internalType": "uint256",
              "name": "id",
              "type": "uint256"
            },
            {
              "internalType": "string",
              "name": "title",
              "type": "string"
            },
            {
              "internalType": "bool",
              "name": "isActive",
              "type": "bool"
            }
          ],
          "internalType": "struct SupplyChain.Category",
          "name": "category",
          "type": "tuple"
        },
        {
          "internalType": "uint256",
          "name": "manufacturerId",
          "type": "uint256"
        },
        {
          "internalType": "uint256",
          "name": "distributorId",
          "type": "uint256"
        },
        {
          "internalType": "uint256",
          "name": "retailerId",
          "type": "uint256"
        },
        {
          "internalType": "bool",
          "name": "isActive",
          "type": "bool"
        },
        {
          "internalType": "string",
          "name": "image",
          "type": "string"
        },
        {
          "internalType": "uint256",
          "name": "currentHandlerId",
          "type": "uint256"
        },
        {
          "internalType": "enum SupplyChain.STAGE",
          "name": "stage",
          "type": "uint8"
        }
      ],
      "payable": false,
      "stateMutability": "view",
      "type": "function"
    },
    {
      "constant": true,
      "inputs": [
        {
          "internalType": "uint256",
          "name": "",
          "type": "uint256"
        }
      ],
      "name": "rms",
      "outputs": [
        {
          "internalType": "uint256",
          "name": "id",
          "type": "uint256"
        },
        {
          "internalType": "string",
          "name": "name",
          "type": "string"
        },
        {
          "internalType": "string",
          "name": "description",
          "type": "string"
        },
        {
          "internalType": "uint256",
          "name": "price",
          "type": "uint256"
        },
        {
          "internalType": "uint256",
          "name": "userId",
          "type": "uint256"
        },
        {
          "internalType": "string",
          "name": "image",
          "type": "string"
        },
        {
          "components": [
            {
              "internalType": "string",
              "name": "text",
              "type": "string"
            },
            {
              "internalType": "int256[2]",
              "name": "coordinate",
              "type": "int256[2]"
            }
          ],
          "internalType": "struct SupplyChain.Address",
          "name": "origin",
          "type": "tuple"
        }
      ],
      "payable": false,
      "stateMutability": "view",
      "type": "function"
    },
    {
      "constant": true,
      "inputs": [],
      "name": "rmsCtr",
      "outputs": [
        {
          "internalType": "uint256",
          "name": "",
          "type": "uint256"
        }
      ],
      "payable": false,
      "stateMutability": "view",
      "type": "function"
    },
    {
      "constant": true,
      "inputs": [],
      "name": "userCount",
      "outputs": [
        {
          "internalType": "uint256",
          "name": "",
          "type": "uint256"
        }
      ],
      "payable": false,
      "stateMutability": "view",
      "type": "function"
    },
    {
      "constant": true,
      "inputs": [
        {
          "internalType": "uint256",
          "name": "",
          "type": "uint256"
        }
      ],
      "name": "users",
      "outputs": [
        {
          "internalType": "uint256",
          "name": "id",
          "type": "uint256"
        },
        {
          "internalType": "string",
          "name": "name",
          "type": "string"
        },
        {
          "internalType": "string",
          "name": "email",
          "type": "string"
        },
        {
          "internalType": "bytes32",
          "name": "passwordHash",
          "type": "bytes32"
        },
        {
          "internalType": "string",
          "name": "role",
          "type": "string"
        }
      ],
      "payable": false,
      "stateMutability": "view",
      "type": "function"
    },
    {
      "constant": false,
      "inputs": [
        {
          "internalType": "string",
          "name": "_name",
          "type": "string"
        },
        {
          "internalType": "string",
          "name": "_description",
          "type": "string"
        },
        {
          "internalType": "uint256",
          "name": "_price",
          "type": "uint256"
        },
        {
          "internalType": "string",
          "name": "_image",
          "type": "string"
        },
        {
          "internalType": "string",
          "name": "_originText",
          "type": "string"
        },
        {
          "internalType": "int256",
          "name": "_latitude",
          "type": "int256"
        },
        {
          "internalType": "int256",
          "name": "_longitude",
          "type": "int256"
        }
      ],
      "name": "addRawMaterial",
      "outputs": [],
      "payable": false,
      "stateMutability": "nonpayable",
      "type": "function"
    },
    {
      "constant": false,
      "inputs": [
        {
          "internalType": "string",
          "name": "_title",
          "type": "string"
        }
      ],
      "name": "addCategory",
      "outputs": [],
      "payable": false,
      "stateMutability": "nonpayable",
      "type": "function"
    },
    {
      "constant": false,
      "inputs": [
        {
          "internalType": "string",
          "name": "_name",
          "type": "string"
        },
        {
          "internalType": "string",
          "name": "_description",
          "type": "string"
        },
        {
          "internalType": "uint256[]",
          "name": "_rwIds",
          "type": "uint256[]"
        },
        {
          "internalType": "uint256",
          "name": "_manufacturerId",
          "type": "uint256"
        },
        {
          "internalType": "uint256",
          "name": "_categoryId",
          "type": "uint256"
        },
        {
          "internalType": "string",
          "name": "_image",
          "type": "string"
        }
      ],
      "name": "addProduct",
      "outputs": [],
      "payable": false,
      "stateMutability": "nonpayable",
      "type": "function"
    },
    {
      "constant": true,
      "inputs": [
        {
          "internalType": "uint256",
          "name": "_productId",
          "type": "uint256"
        }
      ],
      "name": "getProductById",
      "outputs": [
        {
          "components": [
            {
              "internalType": "uint256",
              "name": "id",
              "type": "uint256"
            },
            {
              "internalType": "string",
              "name": "name",
              "type": "string"
            },
            {
              "internalType": "string",
              "name": "description",
              "type": "string"
            },
            {
              "internalType": "uint256[]",
              "name": "rwIds",
              "type": "uint256[]"
            },
            {
              "components": [
                {
                  "internalType": "uint256",
                  "name": "id",
                  "type": "uint256"
                },
                {
                  "internalType": "string",
                  "name": "title",
                  "type": "string"
                },
                {
                  "internalType": "bool",
                  "name": "isActive",
                  "type": "bool"
                }
              ],
              "internalType": "struct SupplyChain.Category",
              "name": "category",
              "type": "tuple"
            },
            {
              "internalType": "uint256",
              "name": "manufacturerId",
              "type": "uint256"
            },
            {
              "internalType": "uint256",
              "name": "distributorId",
              "type": "uint256"
            },
            {
              "internalType": "uint256",
              "name": "retailerId",
              "type": "uint256"
            },
            {
              "internalType": "bool",
              "name": "isActive",
              "type": "bool"
            },
            {
              "internalType": "string",
              "name": "image",
              "type": "string"
            },
            {
              "internalType": "uint256",
              "name": "currentHandlerId",
              "type": "uint256"
            },
            {
              "internalType": "enum SupplyChain.STAGE",
              "name": "stage",
              "type": "uint8"
            }
          ],
          "internalType": "struct SupplyChain.Product",
          "name": "",
          "type": "tuple"
        }
      ],
      "payable": false,
      "stateMutability": "view",
      "type": "function"
    },
    {
      "constant": true,
      "inputs": [
        {
          "internalType": "uint256",
          "name": "_categoryId",
          "type": "uint256"
        }
      ],
      "name": "getCategoryById",
      "outputs": [
        {
          "components": [
            {
              "internalType": "uint256",
              "name": "id",
              "type": "uint256"
            },
            {
              "internalType": "string",
              "name": "title",
              "type": "string"
            },
            {
              "internalType": "bool",
              "name": "isActive",
              "type": "bool"
            }
          ],
          "internalType": "struct SupplyChain.Category",
          "name": "",
          "type": "tuple"
        }
      ],
      "payable": false,
      "stateMutability": "view",
      "type": "function"
    },
    {
      "constant": true,
      "inputs": [
        {
          "internalType": "uint256",
          "name": "_rawMaterialId",
          "type": "uint256"
        }
      ],
      "name": "getRawMaterialById",
      "outputs": [
        {
          "components": [
            {
              "internalType": "uint256",
              "name": "id",
              "type": "uint256"
            },
            {
              "internalType": "string",
              "name": "name",
              "type": "string"
            },
            {
              "internalType": "string",
              "name": "description",
              "type": "string"
            },
            {
              "internalType": "uint256",
              "name": "price",
              "type": "uint256"
            },
            {
              "internalType": "uint256",
              "name": "userId",
              "type": "uint256"
            },
            {
              "internalType": "string",
              "name": "image",
              "type": "string"
            },
            {
              "components": [
                {
                  "internalType": "string",
                  "name": "text",
                  "type": "string"
                },
                {
                  "internalType": "int256[2]",
                  "name": "coordinate",
                  "type": "int256[2]"
                }
              ],
              "internalType": "struct SupplyChain.Address",
              "name": "origin",
              "type": "tuple"
            }
          ],
          "internalType": "struct SupplyChain.RW",
          "name": "",
          "type": "tuple"
        }
      ],
      "payable": false,
      "stateMutability": "view",
      "type": "function"
    },
    {
      "constant": false,
      "inputs": [
        {
          "internalType": "uint256",
          "name": "_productId",
          "type": "uint256"
        },
        {
          "internalType": "string",
          "name": "_name",
          "type": "string"
        },
        {
          "internalType": "string",
          "name": "_description",
          "type": "string"
        },
        {
          "internalType": "uint256[]",
          "name": "_rwIds",
          "type": "uint256[]"
        },
        {
          "internalType": "uint256",
          "name": "_categoryId",
          "type": "uint256"
        },
        {
          "internalType": "string",
          "name": "_image",
          "type": "string"
        }
      ],
      "name": "editProduct",
      "outputs": [],
      "payable": false,
      "stateMutability": "nonpayable",
      "type": "function"
    },
    {
      "constant": false,
      "inputs": [
        {
          "internalType": "uint256",
          "name": "_categoryId",
          "type": "uint256"
        },
        {
          "internalType": "string",
          "name": "_title",
          "type": "string"
        }
      ],
      "name": "editCategory",
      "outputs": [],
      "payable": false,
      "stateMutability": "nonpayable",
      "type": "function"
    },
    {
      "constant": false,
      "inputs": [
        {
          "internalType": "uint256",
          "name": "_rawMaterialId",
          "type": "uint256"
        },
        {
          "internalType": "string",
          "name": "_name",
          "type": "string"
        },
        {
          "internalType": "string",
          "name": "_description",
          "type": "string"
        },
        {
          "internalType": "uint256",
          "name": "_price",
          "type": "uint256"
        },
        {
          "internalType": "string",
          "name": "_image",
          "type": "string"
        },
        {
          "internalType": "string",
          "name": "_originText",
          "type": "string"
        },
        {
          "internalType": "int256",
          "name": "_latitude",
          "type": "int256"
        },
        {
          "internalType": "int256",
          "name": "_longitude",
          "type": "int256"
        }
      ],
      "name": "editRawMaterial",
      "outputs": [],
      "payable": false,
      "stateMutability": "nonpayable",
      "type": "function"
    },
    {
      "constant": false,
      "inputs": [
        {
          "internalType": "uint256",
          "name": "_productId",
          "type": "uint256"
        },
        {
          "internalType": "enum SupplyChain.STAGE",
          "name": "_newStage",
          "type": "uint8"
        }
      ],
      "name": "updateProductStage",
      "outputs": [],
      "payable": false,
      "stateMutability": "nonpayable",
      "type": "function"
    },
    {
      "constant": true,
      "inputs": [],
      "name": "getAllRawMaterials",
      "outputs": [
        {
          "components": [
            {
              "internalType": "uint256",
              "name": "id",
              "type": "uint256"
            },
            {
              "internalType": "string",
              "name": "name",
              "type": "string"
            },
            {
              "internalType": "string",
              "name": "description",
              "type": "string"
            },
            {
              "internalType": "uint256",
              "name": "price",
              "type": "uint256"
            },
            {
              "internalType": "uint256",
              "name": "userId",
              "type": "uint256"
            },
            {
              "internalType": "string",
              "name": "image",
              "type": "string"
            },
            {
              "components": [
                {
                  "internalType": "string",
                  "name": "text",
                  "type": "string"
                },
                {
                  "internalType": "int256[2]",
                  "name": "coordinate",
                  "type": "int256[2]"
                }
              ],
              "internalType": "struct SupplyChain.Address",
              "name": "origin",
              "type": "tuple"
            }
          ],
          "internalType": "struct SupplyChain.RW[]",
          "name": "",
          "type": "tuple[]"
        }
      ],
      "payable": false,
      "stateMutability": "view",
      "type": "function"
    }
  ],
  "bytecode": "0x6080604052600060015560006002556000600355600060045534801561002457600080fd5b50336000806101000a81548173ffffffffffffffffffffffffffffffffffffffff021916908373ffffffffffffffffffffffffffffffffffffffff16021790555061447c806100746000396000f3fe608060405234801561001057600080fd5b50600436106101375760003560e01c806360e93f3c116100b8578063b4a99a4e1161007c578063b4a99a4e1461036c578063c08c1cec1461038a578063c6cdbe5e146103c0578063cde65721146103f2578063dd28639814610410578063fac0992d1461042e57610137565b806360e93f3c146102b45780636a13931d146102e45780637f666acb146103005780639596780514610332578063aaea34aa1461034e57610137565b8063365b98b2116100ff578063365b98b2146101ca57806338e11ebc146101fe5780633f70c2b41461021a5780635614791c1461024a5780635eba84011461027a57610137565b806307973ccf1461013c57806309f5feb11461015a578063118f8ab7146101765780631358042f146101925780632e0dcbf7146101ae575b600080fd5b61014461044c565b6040516101519190613f1f565b60405180910390f35b610174600480360361016f91908101906132f3565b610452565b005b610190600480360361018b91908101906133dc565b61074d565b005b6101ac60048036036101a79190810190613053565b610941565b005b6101c860048036036101c39190810190613012565b610db0565b005b6101e460048036036101df919081019061323a565b610f0e565b6040516101f5959493929190613fd1565b60405180910390f35b6102186004803603610213919081019061329f565b61110c565b005b610234600480360361022f919081019061323a565b61125a565b6040516102419190613edb565b60405180910390f35b610264600480360361025f919081019061323a565b61166c565b6040516102719190613efd565b60405180910390f35b610294600480360361028f919081019061323a565b6119e9565b6040516102ab9b9a99989796959493929190614039565b60405180910390f35b6102ce60048036036102c9919081019061323a565b611cf6565b6040516102db9190613eb9565b60405180910390f35b6102fe60048036036102f99190810190613263565b611e3b565b005b61031a600480360361031591908101906134ee565b6120ca565b6040516103299392919061418b565b60405180910390f35b61034c6004803603610347919081019061313c565b61211b565b005b61035661232b565b6040516103639190613f1f565b60405180910390f35b610374612331565b6040516103819190613d9c565b60405180910390f35b6103a4600480360361039f919081019061323a565b612356565b6040516103b79796959493929190614100565b60405180910390f35b6103da60048036036103d5919081019061323a565b612651565b6040516103e993929190613f93565b60405180910390f35b6103fa612720565b6040516104079190613f1f565b60405180910390f35b610418612726565b6040516104259190613f1f565b60405180910390f35b61043661272c565b6040516104439190613db7565b60405180910390f35b60035481565b6000809054906101000a900473ffffffffffffffffffffffffffffffffffffffff1673ffffffffffffffffffffffffffffffffffffffff163373ffffffffffffffffffffffffffffffffffffffff16146104e1576040517f08c379a00000000000000000000000000000000000000000000000000000000081526004016104d890613e19565b60405180910390fd5b6000861180156104f357506002548611155b610532576040517f08c379a000000000000000000000000000000000000000000000000000000000815260040161052990613df9565b60405180910390fd5b60008211801561054457506004548211155b610583576040517f08c379a000000000000000000000000000000000000000000000000000000000815260040161057a90613e39565b60405180910390fd5b600060076000888152602001908152602001600020905060008090505b845181101561062d5760008582815181106105b757fe5b60200260200101511180156105e157506001548582815181106105d657fe5b602002602001015111155b610620576040517f08c379a000000000000000000000000000000000000000000000000000000000815260040161061790613e99565b60405180910390fd5b80806001019150506105a0565b5085816001019080519060200190610646929190612acf565b508481600201908051906020019061065f929190612acf565b5083816003019080519060200190610678929190612b4f565b50600860008481526020019081526020016000208160040160008201548160000155600182018160010190805460018160011615610100020316600290046106c1929190612b9c565b506002820160009054906101000a900460ff168160020160006101000a81548160ff0219169083151502179055509050508181600b01908051906020019061070a929190612acf565b507fdad7092ee1ca215307c34b5dd865bb1f9be7e1f0110d230eaefd78fa4742903e878760405161073c929190613f63565b60405180910390a150505050505050565b6000809054906101000a900473ffffffffffffffffffffffffffffffffffffffff1673ffffffffffffffffffffffffffffffffffffffff163373ffffffffffffffffffffffffffffffffffffffff16146107dc576040517f08c379a00000000000000000000000000000000000000000000000000000000081526004016107d390613e19565b60405180910390fd5b6000881180156107ee57506001548811155b61082d576040517f08c379a000000000000000000000000000000000000000000000000000000000815260040161082490613e59565b60405180910390fd5b6000600660008a815260200190815260200160002090508781600101908051906020019061085c929190612acf565b5086816002019080519060200190610875929190612acf565b5085816003018190555084816005019080519060200190610897929190612acf565b5060405180604001604052808581526020016040518060400160405280868152602001858152508152508160060160008201518160000190805190602001906108e1929190612c23565b506020820151816001019060026108f9929190612ca3565b509050507faeaaa6645fea1d5401f4a7ec78a0a35313a18589249cce19849116598a2406e4898960405161092e929190613f63565b60405180910390a1505050505050505050565b6000809054906101000a900473ffffffffffffffffffffffffffffffffffffffff1673ffffffffffffffffffffffffffffffffffffffff163373ffffffffffffffffffffffffffffffffffffffff16146109d0576040517f08c379a00000000000000000000000000000000000000000000000000000000081526004016109c790613e19565b60405180910390fd5b60008090505b8451811015610a635760008582815181106109ed57fe5b6020026020010151118015610a175750600154858281518110610a0c57fe5b602002602001015111155b610a56576040517f08c379a0000000000000000000000000000000000000000000000000000000008152600401610a4d90613e99565b60405180910390fd5b80806001019150506109d6565b50600082118015610a7657506004548211155b610ab5576040517f08c379a0000000000000000000000000000000000000000000000000000000008152600401610aac90613e79565b60405180910390fd5b60026000815480929190600101919050555060405180610180016040528060025481526020018781526020018681526020018581526020016008600085815260200190815260200160002060405180606001604052908160008201548152602001600182018054600181600116156101000203166002900480601f016020809104026020016040519081016040528092919081815260200182805460018160011615610100020316600290048015610bae5780601f10610b8357610100808354040283529160200191610bae565b820191906000526020600020905b815481529060010190602001808311610b9157829003601f168201915b505050505081526020016002820160009054906101000a900460ff1615151515815250508152602001848152602001600081526020016000815260200160011515815260200182815260200184815260200160006003811115610c0d57fe5b815250600760006002548152602001908152602001600020600082015181600001556020820151816001019080519060200190610c4b929190612c23565b506040820151816002019080519060200190610c68929190612c23565b506060820151816003019080519060200190610c85929190612ce3565b50608082015181600401600082015181600001556020820151816001019080519060200190610cb5929190612c23565b5060408201518160020160006101000a81548160ff021916908315150217905550505060a0820151816007015560c0820151816008015560e0820151816009015561010082015181600a0160006101000a81548160ff02191690831515021790555061012082015181600b019080519060200190610d34929190612c23565b5061014082015181600c015561016082015181600d0160006101000a81548160ff02191690836003811115610d6557fe5b02179055509050507f259101de1f87b04b9ee0332ce5e3cc508014004bf283424aead6cd8692f5cf9860025487604051610da0929190613f63565b60405180910390a1505050505050565b6000809054906101000a900473ffffffffffffffffffffffffffffffffffffffff1673ffffffffffffffffffffffffffffffffffffffff163373ffffffffffffffffffffffffffffffffffffffff1614610e3f576040517f08c379a0000000000000000000000000000000000000000000000000000000008152600401610e3690613e19565b60405180910390fd5b6004600081548092919060010191905055506040518060600160405280600454815260200182815260200160011515815250600860006004548152602001908152602001600020600082015181600001556020820151816001019080519060200190610eac929190612c23565b5060408201518160020160006101000a81548160ff0219169083151502179055509050507f5bae3f75753ef0a1c0ea0f6c51d7b43a4b8d116572b8b7b5cb771f9ad32d4ae560045482604051610f03929190613f63565b60405180910390a150565b6005602052806000526040600020600091509050806000015490806001018054600181600116156101000203166002900480601f016020809104026020016040519081016040528092919081815260200182805460018160011615610100020316600290048015610fc05780601f10610f9557610100808354040283529160200191610fc0565b820191906000526020600020905b815481529060010190602001808311610fa357829003601f168201915b505050505090806002018054600181600116156101000203166002900480601f01602080910402602001604051908101604052809291908181526020018280546001816001161561010002031660029004801561105e5780601f106110335761010080835404028352916020019161105e565b820191906000526020600020905b81548152906001019060200180831161104157829003601f168201915b505050505090806003015490806004018054600181600116156101000203166002900480601f0160208091040260200160405190810160405280929190818152602001828054600181600116156101000203166002900480156111025780601f106110d757610100808354040283529160200191611102565b820191906000526020600020905b8154815290600101906020018083116110e557829003601f168201915b5050505050905085565b6000809054906101000a900473ffffffffffffffffffffffffffffffffffffffff1673ffffffffffffffffffffffffffffffffffffffff163373ffffffffffffffffffffffffffffffffffffffff161461119b576040517f08c379a000000000000000000000000000000000000000000000000000000000815260040161119290613e19565b60405180910390fd5b6000821180156111ad57506004548211155b6111ec576040517f08c379a00000000000000000000000000000000000000000000000000000000081526004016111e390613e39565b60405180910390fd5b60006008600084815260200190815260200160002090508181600101908051906020019061121b929190612acf565b507f5bdd46fc25129a7ae160f84298da28664e8970f8874a02f19537b0313d8f8dc7838360405161124d929190613f63565b60405180910390a1505050565b611262612d30565b60008211801561127457506002548211155b6112b3576040517f08c379a00000000000000000000000000000000000000000000000000000000081526004016112aa90613df9565b60405180910390fd5b600760008381526020019081526020016000206040518061018001604052908160008201548152602001600182018054600181600116156101000203166002900480601f0160208091040260200160405190810160405280929190818152602001828054600181600116156101000203166002900480156113755780601f1061134a57610100808354040283529160200191611375565b820191906000526020600020905b81548152906001019060200180831161135857829003601f168201915b50505050508152602001600282018054600181600116156101000203166002900480601f0160208091040260200160405190810160405280929190818152602001828054600181600116156101000203166002900480156114175780601f106113ec57610100808354040283529160200191611417565b820191906000526020600020905b8154815290600101906020018083116113fa57829003601f168201915b505050505081526020016003820180548060200260200160405190810160405280929190818152602001828054801561146f57602002820191906000526020600020905b81548152602001906001019080831161145b575b505050505081526020016004820160405180606001604052908160008201548152602001600182018054600181600116156101000203166002900480601f01602080910402602001604051908101604052809291908181526020018280546001816001161561010002031660029004801561152b5780601f106115005761010080835404028352916020019161152b565b820191906000526020600020905b81548152906001019060200180831161150e57829003601f168201915b505050505081526020016002820160009054906101000a900460ff1615151515815250508152602001600782015481526020016008820154815260200160098201548152602001600a820160009054906101000a900460ff16151515158152602001600b82018054600181600116156101000203166002900480601f0160208091040260200160405190810160405280929190818152602001828054600181600116156101000203166002900480156116255780601f106115fa57610100808354040283529160200191611625565b820191906000526020600020905b81548152906001019060200180831161160857829003601f168201915b50505050508152602001600c8201548152602001600d820160009054906101000a900460ff16600381111561165657fe5b600381111561166157fe5b815250509050919050565b611674612da4565b60008211801561168657506001548211155b6116c5576040517f08c379a00000000000000000000000000000000000000000000000000000000081526004016116bc90613e59565b60405180910390fd5b600660008381526020019081526020016000206040518060e001604052908160008201548152602001600182018054600181600116156101000203166002900480601f0160208091040260200160405190810160405280929190818152602001828054600181600116156101000203166002900480156117865780601f1061175b57610100808354040283529160200191611786565b820191906000526020600020905b81548152906001019060200180831161176957829003601f168201915b50505050508152602001600282018054600181600116156101000203166002900480601f0160208091040260200160405190810160405280929190818152602001828054600181600116156101000203166002900480156118285780601f106117fd57610100808354040283529160200191611828565b820191906000526020600020905b81548152906001019060200180831161180b57829003601f168201915b505050505081526020016003820154815260200160048201548152602001600582018054600181600116156101000203166002900480601f0160208091040260200160405190810160405280929190818152602001828054600181600116156101000203166002900480156118de5780601f106118b3576101008083540402835291602001916118de565b820191906000526020600020905b8154815290600101906020018083116118c157829003601f168201915b5050505050815260200160068201604051806040016040529081600082018054600181600116156101000203166002900480601f0160208091040260200160405190810160405280929190818152602001828054600181600116156101000203166002900480156119905780601f1061196557610100808354040283529160200191611990565b820191906000526020600020905b81548152906001019060200180831161197357829003601f168201915b50505050508152602001600182016002806020026040519081016040528092919082600280156119d5576020028201915b8154815260200190600101908083116119c1575b505050505081525050815250509050919050565b6007602052806000526040600020600091509050806000015490806001018054600181600116156101000203166002900480601f016020809104026020016040519081016040528092919081815260200182805460018160011615610100020316600290048015611a9b5780601f10611a7057610100808354040283529160200191611a9b565b820191906000526020600020905b815481529060010190602001808311611a7e57829003601f168201915b505050505090806002018054600181600116156101000203166002900480601f016020809104026020016040519081016040528092919081815260200182805460018160011615610100020316600290048015611b395780601f10611b0e57610100808354040283529160200191611b39565b820191906000526020600020905b815481529060010190602001808311611b1c57829003601f168201915b5050505050908060040160405180606001604052908160008201548152602001600182018054600181600116156101000203166002900480601f016020809104026020016040519081016040528092919081815260200182805460018160011615610100020316600290048015611bf15780601f10611bc657610100808354040283529160200191611bf1565b820191906000526020600020905b815481529060010190602001808311611bd457829003601f168201915b505050505081526020016002820160009054906101000a900460ff1615151515815250509080600701549080600801549080600901549080600a0160009054906101000a900460ff169080600b018054600181600116156101000203166002900480601f016020809104026020016040519081016040528092919081815260200182805460018160011615610100020316600290048015611cd35780601f10611ca857610100808354040283529160200191611cd3565b820191906000526020600020905b815481529060010190602001808311611cb657829003601f168201915b50505050509080600c01549080600d0160009054906101000a900460ff1690508b565b611cfe612de7565b600082118015611d1057506004548211155b611d4f576040517f08c379a0000000000000000000000000000000000000000000000000000000008152600401611d4690613e39565b60405180910390fd5b6008600083815260200190815260200160002060405180606001604052908160008201548152602001600182018054600181600116156101000203166002900480601f016020809104026020016040519081016040528092919081815260200182805460018160011615610100020316600290048015611e105780601f10611de557610100808354040283529160200191611e10565b820191906000526020600020905b815481529060010190602001808311611df357829003601f168201915b505050505081526020016002820160009054906101000a900460ff1615151515815250509050919050565b6000809054906101000a900473ffffffffffffffffffffffffffffffffffffffff1673ffffffffffffffffffffffffffffffffffffffff163373ffffffffffffffffffffffffffffffffffffffff1614611eca576040517f08c379a0000000000000000000000000000000000000000000000000000000008152600401611ec190613e19565b60405180910390fd5b600082118015611edc57506002548211155b611f1b576040517f08c379a0000000000000000000000000000000000000000000000000000000008152600401611f1290613df9565b60405180910390fd5b60076000838152602001908152602001600020600d0160009054906101000a900460ff166003811115611f4a57fe5b60ff16816003811115611f5957fe5b60ff1611611f9c576040517f08c379a0000000000000000000000000000000000000000000000000000000008152600401611f9390613dd9565b60405180910390fd5b8060076000848152602001908152602001600020600d0160006101000a81548160ff02191690836003811115611fce57fe5b021790555060096000838152602001908152602001600020604051806060016040528042815260200160076000868152602001908152602001600020600c0154815260200183600381111561201f57fe5b81525090806001815401808255809150509060018203906000526020600020906003020160009091929091909150600082015181600001556020820151816001015560408201518160020160006101000a81548160ff0219169083600381111561208557fe5b02179055505050507fdb1adf3543039f5d54bb67ebf175b8ef7ba88285d54355d6c564b2478877a44282826040516120be929190613f3a565b60405180910390a15050565b600960205281600052604060002081815481106120e357fe5b9060005260206000209060030201600091509150508060000154908060010154908060020160009054906101000a900460ff16905083565b6000809054906101000a900473ffffffffffffffffffffffffffffffffffffffff1673ffffffffffffffffffffffffffffffffffffffff163373ffffffffffffffffffffffffffffffffffffffff16146121aa576040517f08c379a00000000000000000000000000000000000000000000000000000000081526004016121a190613e19565b60405180910390fd5b6001600081548092919060010191905055506040518060e001604052806001548152602001888152602001878152602001868152602001600081526020018581526020016040518060400160405280868152602001604051806040016040528087815260200186815250815250815250600660006001548152602001908152602001600020600082015181600001556020820151816001019080519060200190612255929190612c23565b506040820151816002019080519060200190612272929190612c23565b50606082015181600301556080820151816004015560a08201518160050190805190602001906122a3929190612c23565b5060c08201518160060160008201518160000190805190602001906122c9929190612c23565b506020820151816001019060026122e1929190612ca3565b5050509050507f397bf151e41293935c43045d8da74b84bd4801db62720fc9b2e2e18f02ea4b596001548860405161231a929190613f63565b60405180910390a150505050505050565b60025481565b6000809054906101000a900473ffffffffffffffffffffffffffffffffffffffff1681565b6006602052806000526040600020600091509050806000015490806001018054600181600116156101000203166002900480601f0160208091040260200160405190810160405280929190818152602001828054600181600116156101000203166002900480156124085780601f106123dd57610100808354040283529160200191612408565b820191906000526020600020905b8154815290600101906020018083116123eb57829003601f168201915b505050505090806002018054600181600116156101000203166002900480601f0160208091040260200160405190810160405280929190818152602001828054600181600116156101000203166002900480156124a65780601f1061247b576101008083540402835291602001916124a6565b820191906000526020600020905b81548152906001019060200180831161248957829003601f168201915b505050505090806003015490806004015490806005018054600181600116156101000203166002900480601f0160208091040260200160405190810160405280929190818152602001828054600181600116156101000203166002900480156125505780601f1061252557610100808354040283529160200191612550565b820191906000526020600020905b81548152906001019060200180831161253357829003601f168201915b50505050509080600601604051806040016040529081600082018054600181600116156101000203166002900480601f0160208091040260200160405190810160405280929190818152602001828054600181600116156101000203166002900480156125fe5780601f106125d3576101008083540402835291602001916125fe565b820191906000526020600020905b8154815290600101906020018083116125e157829003601f168201915b5050505050815260200160018201600280602002604051908101604052809291908260028015612643576020028201915b81548152602001906001019080831161262f575b505050505081525050905087565b6008602052806000526040600020600091509050806000015490806001018054600181600116156101000203166002900480601f0160208091040260200160405190810160405280929190818152602001828054600181600116156101000203166002900480156127035780601f106126d857610100808354040283529160200191612703565b820191906000526020600020905b8154815290600101906020018083116126e657829003601f168201915b5050505050908060020160009054906101000a900460ff16905083565b60045481565b60015481565b60606000600154905060608160405190808252806020026020018201604052801561277157816020015b61275e612e0a565b8152602001906001900390816127565790505b5090506000600190505b828111612ac657600660008281526020019081526020016000206040518060e001604052908160008201548152602001600182018054600181600116156101000203166002900480601f0160208091040260200160405190810160405280929190818152602001828054600181600116156101000203166002900480156128435780601f1061281857610100808354040283529160200191612843565b820191906000526020600020905b81548152906001019060200180831161282657829003601f168201915b50505050508152602001600282018054600181600116156101000203166002900480601f0160208091040260200160405190810160405280929190818152602001828054600181600116156101000203166002900480156128e55780601f106128ba576101008083540402835291602001916128e5565b820191906000526020600020905b8154815290600101906020018083116128c857829003601f168201915b505050505081526020016003820154815260200160048201548152602001600582018054600181600116156101000203166002900480601f01602080910402602001604051908101604052809291908181526020018280546001816001161561010002031660029004801561299b5780601f106129705761010080835404028352916020019161299b565b820191906000526020600020905b81548152906001019060200180831161297e57829003601f168201915b5050505050815260200160068201604051806040016040529081600082018054600181600116156101000203166002900480601f016020809104026020016040519081016040528092919081815260200182805460018160011615610100020316600290048015612a4d5780601f10612a2257610100808354040283529160200191612a4d565b820191906000526020600020905b815481529060010190602001808311612a3057829003601f168201915b5050505050815260200160018201600280602002604051908101604052809291908260028015612a92576020028201915b815481526020019060010190808311612a7e575b50505050508152505081525050826001830381518110612aae57fe5b6020026020010181905250808060010191505061277b565b50809250505090565b828054600181600116156101000203166002900490600052602060002090601f016020900481019282601f10612b1057805160ff1916838001178555612b3e565b82800160010185558215612b3e579182015b82811115612b3d578251825591602001919060010190612b22565b5b509050612b4b9190612e4d565b5090565b828054828255906000526020600020908101928215612b8b579160200282015b82811115612b8a578251825591602001919060010190612b6f565b5b509050612b989190612e4d565b5090565b828054600181600116156101000203166002900490600052602060002090601f016020900481019282601f10612bd55780548555612c12565b82800160010185558215612c1257600052602060002091601f016020900482015b82811115612c11578254825591600101919060010190612bf6565b5b509050612c1f9190612e4d565b5090565b828054600181600116156101000203166002900490600052602060002090601f016020900481019282601f10612c6457805160ff1916838001178555612c92565b82800160010185558215612c92579182015b82811115612c91578251825591602001919060010190612c76565b5b509050612c9f9190612e4d565b5090565b8260028101928215612cd2579160200282015b82811115612cd1578251825591602001919060010190612cb6565b5b509050612cdf9190612e72565b5090565b828054828255906000526020600020908101928215612d1f579160200282015b82811115612d1e578251825591602001919060010190612d03565b5b509050612d2c9190612e4d565b5090565b60405180610180016040528060008152602001606081526020016060815260200160608152602001612d60612e97565b8152602001600081526020016000815260200160008152602001600015158152602001606081526020016000815260200160006003811115612d9e57fe5b81525090565b6040518060e00160405280600081526020016060815260200160608152602001600081526020016000815260200160608152602001612de1612eba565b81525090565b604051806060016040528060008152602001606081526020016000151581525090565b6040518060e00160405280600081526020016060815260200160608152602001600081526020016000815260200160608152602001612e47612eba565b81525090565b612e6f91905b80821115612e6b576000816000905550600101612e53565b5090565b90565b612e9491905b80821115612e90576000816000905550600101612e78565b5090565b90565b604051806060016040528060008152602001606081526020016000151581525090565b604051806040016040528060608152602001612ed4612eda565b81525090565b6040518060400160405280600290602082028038833980820191505090505090565b600082601f830112612f0d57600080fd5b8135612f20612f1b826141ef565b6141c2565b91508181835260208401935060208101905083856020840282011115612f4557600080fd5b60005b83811015612f755781612f5b8882612ffd565b845260208401935060208301925050600181019050612f48565b5050505092915050565b600081359050612f8e816143fb565b92915050565b600081359050612fa38161440b565b92915050565b600082601f830112612fba57600080fd5b8135612fcd612fc882614217565b6141c2565b91508082526020830160208301858383011115612fe957600080fd5b612ff483828461439b565b50505092915050565b60008135905061300c81614422565b92915050565b60006020828403121561302457600080fd5b600082013567ffffffffffffffff81111561303e57600080fd5b61304a84828501612fa9565b91505092915050565b60008060008060008060c0878903121561306c57600080fd5b600087013567ffffffffffffffff81111561308657600080fd5b61309289828a01612fa9565b965050602087013567ffffffffffffffff8111156130af57600080fd5b6130bb89828a01612fa9565b955050604087013567ffffffffffffffff8111156130d857600080fd5b6130e489828a01612efc565b94505060606130f589828a01612ffd565b935050608061310689828a01612ffd565b92505060a087013567ffffffffffffffff81111561312357600080fd5b61312f89828a01612fa9565b9150509295509295509295565b600080600080600080600060e0888a03121561315757600080fd5b600088013567ffffffffffffffff81111561317157600080fd5b61317d8a828b01612fa9565b975050602088013567ffffffffffffffff81111561319a57600080fd5b6131a68a828b01612fa9565b96505060406131b78a828b01612ffd565b955050606088013567ffffffffffffffff8111156131d457600080fd5b6131e08a828b01612fa9565b945050608088013567ffffffffffffffff8111156131fd57600080fd5b6132098a828b01612fa9565b93505060a061321a8a828b01612f94565b92505060c061322b8a828b01612f94565b91505092959891949750929550565b60006020828403121561324c57600080fd5b600061325a84828501612ffd565b91505092915050565b6000806040838503121561327657600080fd5b600061328485828601612ffd565b925050602061329585828601612f7f565b9150509250929050565b600080604083850312156132b257600080fd5b60006132c085828601612ffd565b925050602083013567ffffffffffffffff8111156132dd57600080fd5b6132e985828601612fa9565b9150509250929050565b60008060008060008060c0878903121561330c57600080fd5b600061331a89828a01612ffd565b965050602087013567ffffffffffffffff81111561333757600080fd5b61334389828a01612fa9565b955050604087013567ffffffffffffffff81111561336057600080fd5b61336c89828a01612fa9565b945050606087013567ffffffffffffffff81111561338957600080fd5b61339589828a01612efc565b93505060806133a689828a01612ffd565b92505060a087013567ffffffffffffffff8111156133c357600080fd5b6133cf89828a01612fa9565b9150509295509295509295565b600080600080600080600080610100898b0312156133f957600080fd5b60006134078b828c01612ffd565b985050602089013567ffffffffffffffff81111561342457600080fd5b6134308b828c01612fa9565b975050604089013567ffffffffffffffff81111561344d57600080fd5b6134598b828c01612fa9565b965050606061346a8b828c01612ffd565b955050608089013567ffffffffffffffff81111561348757600080fd5b6134938b828c01612fa9565b94505060a089013567ffffffffffffffff8111156134b057600080fd5b6134bc8b828c01612fa9565b93505060c06134cd8b828c01612f94565b92505060e06134de8b828c01612f94565b9150509295985092959890939650565b6000806040838503121561350157600080fd5b600061350f85828601612ffd565b925050602061352085828601612ffd565b9150509250929050565b600061353683836136f2565b60208301905092915050565b600061354e8383613ccd565b905092915050565b60006135628383613d7e565b60208301905092915050565b6135778161431a565b82525050565b6135868161426d565b61359081846142cb565b925061359b82614243565b8060005b838110156135cc5781516135b3878261352a565b96506135be836142a4565b92505060018101905061359f565b505050505050565b60006135df82614278565b6135e981856142d6565b9350836020820285016135fb8561424d565b8060005b8581101561363757848403895281516136188582613542565b9450613623836142b1565b925060208a019950506001810190506135ff565b50829750879550505050505092915050565b600061365482614283565b61365e81856142e7565b93506136698361425d565b8060005b8381101561369a5781516136818882613556565b975061368c836142be565b92505060018101905061366d565b5085935050505092915050565b6136b08161432c565b82525050565b6136bf8161432c565b82525050565b6136ce81614338565b82525050565b6136dd81614389565b82525050565b6136ec81614389565b82525050565b6136fb81614355565b82525050565b600061370c82614299565b6137168185614309565b93506137268185602086016143aa565b61372f816143dd565b840191505092915050565b60006137458261428e565b61374f81856142f8565b935061375f8185602086016143aa565b613768816143dd565b840191505092915050565b600061377e8261428e565b6137888185614309565b93506137988185602086016143aa565b6137a1816143dd565b840191505092915050565b60006137b9600e83614309565b91507f537461646520696e76616c6964650000000000000000000000000000000000006000830152602082019050919050565b60006137f9601283614309565b91507f50726f6475697420696e6578697374616e7400000000000000000000000000006000830152602082019050919050565b6000613839602683614309565b91507f4f6e6c7920746865206f776e65722063616e20706572666f726d20746869732060008301527f616374696f6e00000000000000000000000000000000000000000000000000006020830152604082019050919050565b600061389f601683614309565b91507f436174c3a9676f72696520696e6578697374616e7465000000000000000000006000830152602082019050919050565b60006138df601e83614309565b91507f4d617469c3a87265207072656d69c3a8726520696e6578697374616e746500006000830152602082019050919050565b600061391f601383614309565b91507f496e76616c69642063617465676f7279204944000000000000000000000000006000830152602082019050919050565b600061395f601783614309565b91507f496e76616c696420726177206d6174657269616c2049440000000000000000006000830152602082019050919050565b600060608301600083015184820360008601526139af828261373a565b91505060208301516139c4602086018261357d565b508091505092915050565b600060608301600083015184820360008601526139ec828261373a565b9150506020830151613a01602086018261357d565b508091505092915050565b6000606083016000830151613a246000860182613d7e565b5060208301518482036020860152613a3c828261373a565b9150506040830151613a5160408601826136a7565b508091505092915050565b6000606083016000830151613a746000860182613d7e565b5060208301518482036020860152613a8c828261373a565b9150506040830151613aa160408601826136a7565b508091505092915050565b6000606083016000830151613ac46000860182613d7e565b5060208301518482036020860152613adc828261373a565b9150506040830151613af160408601826136a7565b508091505092915050565b600061018083016000830151613b156000860182613d7e565b5060208301518482036020860152613b2d828261373a565b91505060408301518482036040860152613b47828261373a565b91505060608301518482036060860152613b618282613649565b91505060808301518482036080860152613b7b8282613a5c565b91505060a0830151613b9060a0860182613d7e565b5060c0830151613ba360c0860182613d7e565b5060e0830151613bb660e0860182613d7e565b50610100830151613bcb6101008601826136a7565b50610120830151848203610120860152613be5828261373a565b915050610140830151613bfc610140860182613d7e565b50610160830151613c116101608601826136d4565b508091505092915050565b600060e083016000830151613c346000860182613d7e565b5060208301518482036020860152613c4c828261373a565b91505060408301518482036040860152613c66828261373a565b9150506060830151613c7b6060860182613d7e565b506080830151613c8e6080860182613d7e565b5060a083015184820360a0860152613ca6828261373a565b91505060c083015184820360c0860152613cc08282613992565b9150508091505092915050565b600060e083016000830151613ce56000860182613d7e565b5060208301518482036020860152613cfd828261373a565b91505060408301518482036040860152613d17828261373a565b9150506060830151613d2c6060860182613d7e565b506080830151613d3f6080860182613d7e565b5060a083015184820360a0860152613d57828261373a565b91505060c083015184820360c0860152613d718282613992565b9150508091505092915050565b613d878161437f565b82525050565b613d968161437f565b82525050565b6000602082019050613db1600083018461356e565b92915050565b60006020820190508181036000830152613dd181846135d4565b905092915050565b60006020820190508181036000830152613df2816137ac565b9050919050565b60006020820190508181036000830152613e12816137ec565b9050919050565b60006020820190508181036000830152613e328161382c565b9050919050565b60006020820190508181036000830152613e5281613892565b9050919050565b60006020820190508181036000830152613e72816138d2565b9050919050565b60006020820190508181036000830152613e9281613912565b9050919050565b60006020820190508181036000830152613eb281613952565b9050919050565b60006020820190508181036000830152613ed38184613a0c565b905092915050565b60006020820190508181036000830152613ef58184613afc565b905092915050565b60006020820190508181036000830152613f178184613c1c565b905092915050565b6000602082019050613f346000830184613d8d565b92915050565b6000604082019050613f4f6000830185613d8d565b613f5c60208301846136e3565b9392505050565b6000604082019050613f786000830185613d8d565b8181036020830152613f8a8184613701565b90509392505050565b6000606082019050613fa86000830186613d8d565b8181036020830152613fba8185613773565b9050613fc960408301846136b6565b949350505050565b600060a082019050613fe66000830188613d8d565b8181036020830152613ff88187613773565b9050818103604083015261400c8186613773565b905061401b60608301856136c5565b818103608083015261402d8184613773565b90509695505050505050565b60006101608201905061404f600083018e613d8d565b8181036020830152614061818d613773565b90508181036040830152614075818c613773565b90508181036060830152614089818b613aac565b9050614098608083018a613d8d565b6140a560a0830189613d8d565b6140b260c0830188613d8d565b6140bf60e08301876136b6565b8181036101008301526140d28186613773565b90506140e2610120830185613d8d565b6140f06101408301846136e3565b9c9b505050505050505050505050565b600060e082019050614115600083018a613d8d565b81810360208301526141278189613773565b9050818103604083015261413b8188613773565b905061414a6060830187613d8d565b6141576080830186613d8d565b81810360a08301526141698185613773565b905081810360c083015261417d81846139cf565b905098975050505050505050565b60006060820190506141a06000830186613d8d565b6141ad6020830185613d8d565b6141ba60408301846136e3565b949350505050565b6000604051905081810181811067ffffffffffffffff821117156141e557600080fd5b8060405250919050565b600067ffffffffffffffff82111561420657600080fd5b602082029050602081019050919050565b600067ffffffffffffffff82111561422e57600080fd5b601f19601f8301169050602081019050919050565b6000819050919050565b6000819050602082019050919050565b6000819050602082019050919050565b600060029050919050565b600081519050919050565b600081519050919050565b600081519050919050565b600081519050919050565b6000602082019050919050565b6000602082019050919050565b6000602082019050919050565b600081905092915050565b600082825260208201905092915050565b600082825260208201905092915050565b600082825260208201905092915050565b600082825260208201905092915050565b60006143258261435f565b9050919050565b60008115159050919050565b6000819050919050565b6000819050614350826143ee565b919050565b6000819050919050565b600073ffffffffffffffffffffffffffffffffffffffff82169050919050565b6000819050919050565b600061439482614342565b9050919050565b82818337600083830152505050565b60005b838110156143c85780820151818401526020810190506143ad565b838111156143d7576000848401525b50505050565b6000601f19601f8301169050919050565b600481106143f857fe5b50565b6004811061440857600080fd5b50565b61441481614355565b811461441f57600080fd5b50565b61442b8161437f565b811461443657600080fd5b5056fea365627a7a723158205fd564baebcae8c8716e50782ed956fd76c78ab7d7e18eb1c3c7ebfc890930926c6578706572696d656e74616cf564736f6c63430005100040",
  "source": "// SPDX-License-Identifier: MIT\r\npragma solidity >=0.4.22 <0.9.0;\r\npragma experimental ABIEncoderV2;\r\n\r\ncontract SupplyChain {\r\n    // Propritaire du contrat\r\n    address public Owner;\r\n\r\n    struct Address {\r\n        string text;                // Adresse sous forme de texte\r\n        int256[2] coordinate;      // Tableau de coordonnes [latitude, longitude]\r\n    }\r\n\r\n    struct Category {\r\n        uint256 id;\r\n        string title;\r\n        bool isActive;\r\n    }\r\n\r\n    constructor() public {\r\n        Owner = msg.sender;\r\n    }\r\n\r\n    modifier onlyByOwner() {\r\n        require(msg.sender == Owner, \"Only the owner can perform this action\");\r\n        _;\r\n    }\r\n\r\n    enum STAGE {\r\n        Manufacture,\r\n        Distribution,\r\n        Retail,\r\n        Sold\r\n    }\r\n\r\n    uint256 public rmsCtr = 0;\r\n    uint256 public productCtr = 0;\r\n    uint256 public userCount = 0;\r\n    uint256 public categoryCtr = 0;\r\n\r\n    struct Product {\r\n        uint256 id;\r\n        string name;\r\n        string description;\r\n        uint256[] rwIds;\r\n        Category category;\r\n        uint256 manufacturerId;\r\n        uint256 distributorId;\r\n        uint256 retailerId;\r\n        bool isActive;\r\n        string image;\r\n        uint256 currentHandlerId;\r\n        STAGE stage;\r\n    }\r\n\r\n    struct RW {\r\n        uint256 id;\r\n        string name;\r\n        string description;\r\n        uint256 price;\r\n        uint256 userId;\r\n        string image;\r\n        Address origin; // Utilisation de la structure Address\r\n    }\r\n\r\n    struct User {\r\n        uint256 id;\r\n        string name;\r\n        string email;\r\n        bytes32 passwordHash; // Stockage scuris avec un hash\r\n        string role; // Role de l'utilisateur comme une chane de caractres\r\n    }\r\n\r\n    struct ProductHistory {\r\n        uint256 timestamp;\r\n        uint256 handlerId;\r\n        STAGE stage;\r\n    }\r\n\r\n    mapping(uint256 => User) public users;\r\n    mapping(uint256 => RW) public rms;\r\n    mapping(uint256 => Product) public productStock;\r\n    mapping(uint256 => Category) public categories;\r\n    mapping(uint256 => ProductHistory[]) public productHistories;\r\n\r\n    // vnements\r\n    event RawMaterialAdded(uint256 id, string name);\r\n    event ProductAdded(uint256 id, string name);\r\n    event ProductStageUpdated(uint256 id, STAGE newStage);\r\n    event CategoryAdded(uint256 id, string title);\r\n    event RawMaterialUpdated(uint256 id, string name);\r\n    event ProductUpdated(uint256 id, string name);\r\n    event CategoryUpdated(uint256 id, string title);\r\n\r\n    // Ajouter une matire premire\r\n    function addRawMaterial(\r\n        string memory _name,\r\n        string memory _description,\r\n        uint256 _price,\r\n        string memory _image,\r\n        string memory _originText, // Texte de l'adresse\r\n        int256 _latitude,          // Latitude\r\n        int256 _longitude          // Longitude\r\n    ) public onlyByOwner {\r\n        rmsCtr++;\r\n        rms[rmsCtr] = RW({\r\n            id: rmsCtr,\r\n            name: _name,\r\n            description: _description,\r\n            price: _price,\r\n            userId: 0,\r\n            image: _image,\r\n            origin: Address({\r\n                text: _originText,\r\n                coordinate: [_latitude, _longitude] // Remplissage des coordonnes\r\n            })\r\n        });\r\n        emit RawMaterialAdded(rmsCtr, _name);\r\n    }\r\n\r\n    // Ajouter une catgorie\r\n    function addCategory(string memory _title) public onlyByOwner {\r\n        categoryCtr++;\r\n        categories[categoryCtr] = Category({\r\n            id: categoryCtr,\r\n            title: _title,\r\n            isActive: true\r\n        });\r\n        emit CategoryAdded(categoryCtr, _title);\r\n    }\r\n\r\n    // Ajouter un produit\r\nfunction addProduct(\r\n    string memory _name,\r\n    string memory _description,\r\n    uint256[] memory _rwIds,\r\n    uint256 _manufacturerId,\r\n    uint256 _categoryId,\r\n    string memory _image\r\n) public onlyByOwner {\r\n    // Vrification des IDs de matires premires\r\n    for (uint256 i = 0; i < _rwIds.length; i++) {\r\n        require(_rwIds[i] > 0 && _rwIds[i] <= rmsCtr, \"Invalid raw material ID\");\r\n    }\r\n\r\n    // Vrification de la validit de la catgorie\r\n    require(_categoryId > 0 && _categoryId <= categoryCtr, \"Invalid category ID\");\r\n\r\n    // Incrmentation du compteur de produits\r\n    productCtr++;\r\n\r\n    // Cration du produit\r\n    productStock[productCtr] = Product({\r\n        id: productCtr,\r\n        name: _name,\r\n        description: _description,\r\n        rwIds: _rwIds,\r\n        category: categories[_categoryId],\r\n        manufacturerId: _manufacturerId,\r\n        distributorId: 0,\r\n        retailerId: 0,\r\n        currentHandlerId: _manufacturerId,\r\n        stage: STAGE.Manufacture,  // Le stade initial est la fabrication\r\n        isActive: true,\r\n        image: _image\r\n    });\r\n\r\n    // mettre l'vnement\r\n    emit ProductAdded(productCtr, _name);\r\n}\r\n\r\n\r\n    // Obtenir un produit par ID\r\n    function getProductById(uint256 _productId) public view returns (Product memory) {\r\n        require(_productId > 0 && _productId <= productCtr, \"Produit inexistant\");\r\n        return productStock[_productId];\r\n    }\r\n\r\n    // Obtenir une catgorie par ID\r\n    function getCategoryById(uint256 _categoryId) public view returns (Category memory) {\r\n        require(_categoryId > 0 && _categoryId <= categoryCtr, \"Catgorie inexistante\");\r\n        return categories[_categoryId];\r\n    }\r\n\r\n    // Obtenir une matire premire par ID\r\n    function getRawMaterialById(uint256 _rawMaterialId) public view returns (RW memory) {\r\n        require(_rawMaterialId > 0 && _rawMaterialId <= rmsCtr, \"Matire premire inexistante\");\r\n        return rms[_rawMaterialId];\r\n    }\r\n\r\n    // Editer un produit\r\n    function editProduct(\r\n        uint256 _productId,\r\n        string memory _name,\r\n        string memory _description,\r\n        uint256[] memory _rwIds,\r\n        uint256 _categoryId,\r\n        string memory _image\r\n    ) public onlyByOwner {\r\n        require(_productId > 0 && _productId <= productCtr, \"Produit inexistant\");\r\n        require(_categoryId > 0 && _categoryId <= categoryCtr, \"Catgorie inexistante\");\r\n\r\n        Product storage product = productStock[_productId];\r\n\r\n        for (uint256 i = 0; i < _rwIds.length; i++) {\r\n            require(_rwIds[i] > 0 && _rwIds[i] <= rmsCtr, \"Invalid raw material ID\");\r\n        }\r\n\r\n        product.name = _name;\r\n        product.description = _description;\r\n        product.rwIds = _rwIds;\r\n        product.category = categories[_categoryId];\r\n        product.image = _image;\r\n\r\n        emit ProductUpdated(_productId, _name);\r\n    }\r\n\r\n    // Editer une catgorie\r\n    function editCategory(uint256 _categoryId, string memory _title) public onlyByOwner {\r\n        require(_categoryId > 0 && _categoryId <= categoryCtr, \"Catgorie inexistante\");\r\n\r\n        Category storage category = categories[_categoryId];\r\n        category.title = _title;\r\n\r\n        emit CategoryUpdated(_categoryId, _title);\r\n    }\r\n\r\n    // Editer une matire premire\r\n    function editRawMaterial(\r\n        uint256 _rawMaterialId,\r\n        string memory _name,\r\n        string memory _description,\r\n        uint256 _price,\r\n        string memory _image,\r\n        string memory _originText, // Texte de l'adresse\r\n        int256 _latitude,          // Latitude\r\n        int256 _longitude          // Longitude\r\n    ) public onlyByOwner {\r\n        require(_rawMaterialId > 0 && _rawMaterialId <= rmsCtr, \"Matire premire inexistante\");\r\n\r\n        RW storage rawMaterial = rms[_rawMaterialId];\r\n\r\n        rawMaterial.name = _name;\r\n        rawMaterial.description = _description;\r\n        rawMaterial.price = _price;\r\n        rawMaterial.image = _image;\r\n        rawMaterial.origin = Address({\r\n            text: _originText,\r\n            coordinate: [_latitude, _longitude] // Remplissage des coordonnes\r\n        });\r\n\r\n        emit RawMaterialUpdated(_rawMaterialId, _name);\r\n    }\r\n\r\n    // Mettre  jour le stade d'un produit\r\n    function updateProductStage(uint256 _productId, STAGE _newStage) public onlyByOwner {\r\n        require(_productId > 0 && _productId <= productCtr, \"Produit inexistant\");\r\n        require(\r\n            uint8(_newStage) > uint8(productStock[_productId].stage),\r\n            \"Stade invalide\"\r\n        );\r\n        productStock[_productId].stage = _newStage;\r\n\r\n        productHistories[_productId].push(\r\n            ProductHistory({\r\n                timestamp: block.timestamp,\r\n                handlerId: productStock[_productId].currentHandlerId,\r\n                stage: _newStage\r\n            })\r\n        );\r\n\r\n        emit ProductStageUpdated(_productId, _newStage);\r\n    }\r\n\r\n    // Fonction pour obtenir toutes les matires premires\r\n    function getAllRawMaterials() public view returns (RW[] memory) {\r\n        uint256 count = rmsCtr; // Nombre total de matires premires\r\n\r\n        // Crer un tableau dynamique avec le nombre total de matires premires\r\n        RW[] memory allRawMaterials = new RW[](count);\r\n        for (uint256 i = 1; i <= count; i++) {\r\n            allRawMaterials[i - 1] = rms[i];\r\n        }\r\n\r\n        return allRawMaterials;\r\n    }\r\n}\r\n",
  "sourcePath": "C:\\Users\\J.P.M\\Desktop\\supplychain\\contracts\\SupplyChain.sol",
  "compiler": {
    "name": "solc",
    "version": "0.5.16+commit.9c3226ce.Emscripten.clang"
  },
  "schemaVersion": "3.4.16",
  "updatedAt": "2024-12-05T23:56:01.576Z",
  "devdoc": {
    "methods": {}
  },
  "userdoc": {
    "methods": {}
  }
}