{
  "contractName": "SupplyChain",
  "abi": [
    {
      "inputs": [],
      "payable": false,
      "stateMutability": "nonpayable",
      "type": "constructor"
    },
    {
      "anonymous": false,
      "inputs": [
        {
          "indexed": false,
          "internalType": "uint256",
          "name": "id",
          "type": "uint256"
        },
        {
          "indexed": false,
          "internalType": "string",
          "name": "name",
          "type": "string"
        }
      ],
      "name": "ProductAdded",
      "type": "event"
    },
    {
      "anonymous": false,
      "inputs": [
        {
          "indexed": false,
          "internalType": "uint256",
          "name": "id",
          "type": "uint256"
        },
        {
          "indexed": false,
          "internalType": "string",
          "name": "name",
          "type": "string"
        },
        {
          "indexed": false,
          "internalType": "string",
          "name": "description",
          "type": "string"
        },
        {
          "indexed": false,
          "internalType": "uint256",
          "name": "manufacturerId",
          "type": "uint256"
        }
      ],
      "name": "ProductCreated",
      "type": "event"
    },
    {
      "anonymous": false,
      "inputs": [
        {
          "indexed": false,
          "internalType": "uint256",
          "name": "id",
          "type": "uint256"
        },
        {
          "indexed": false,
          "internalType": "enum SupplyChain.STAGE",
          "name": "newStage",
          "type": "uint8"
        }
      ],
      "name": "ProductStageUpdated",
      "type": "event"
    },
    {
      "anonymous": false,
      "inputs": [
        {
          "indexed": false,
          "internalType": "uint256",
          "name": "id",
          "type": "uint256"
        },
        {
          "indexed": false,
          "internalType": "string",
          "name": "name",
          "type": "string"
        }
      ],
      "name": "RawMaterialAdded",
      "type": "event"
    },
    {
      "anonymous": false,
      "inputs": [
        {
          "indexed": false,
          "internalType": "uint256",
          "name": "senderId",
          "type": "uint256"
        },
        {
          "indexed": false,
          "internalType": "uint256",
          "name": "receiverId",
          "type": "uint256"
        },
        {
          "indexed": false,
          "internalType": "uint256",
          "name": "distributorId",
          "type": "uint256"
        },
        {
          "indexed": false,
          "internalType": "uint256",
          "name": "pickupTime",
          "type": "uint256"
        },
        {
          "indexed": false,
          "internalType": "uint256",
          "name": "distance",
          "type": "uint256"
        },
        {
          "indexed": false,
          "internalType": "uint256",
          "name": "price",
          "type": "uint256"
        }
      ],
      "name": "ShipmentCreated",
      "type": "event"
    },
    {
      "anonymous": false,
      "inputs": [
        {
          "indexed": false,
          "internalType": "uint256",
          "name": "senderId",
          "type": "uint256"
        },
        {
          "indexed": false,
          "internalType": "uint256",
          "name": "receiverId",
          "type": "uint256"
        },
        {
          "indexed": false,
          "internalType": "uint256",
          "name": "deliveryTime",
          "type": "uint256"
        }
      ],
      "name": "ShipmentDelivered",
      "type": "event"
    },
    {
      "anonymous": false,
      "inputs": [
        {
          "indexed": false,
          "internalType": "uint256",
          "name": "senderId",
          "type": "uint256"
        },
        {
          "indexed": false,
          "internalType": "uint256",
          "name": "receiverId",
          "type": "uint256"
        },
        {
          "indexed": false,
          "internalType": "uint256",
          "name": "pickupTime",
          "type": "uint256"
        }
      ],
      "name": "ShipmentInTransit",
      "type": "event"
    },
    {
      "anonymous": false,
      "inputs": [
        {
          "indexed": false,
          "internalType": "uint256",
          "name": "senderId",
          "type": "uint256"
        },
        {
          "indexed": false,
          "internalType": "uint256",
          "name": "receiverId",
          "type": "uint256"
        },
        {
          "indexed": false,
          "internalType": "uint256",
          "name": "amount",
          "type": "uint256"
        }
      ],
      "name": "ShipmentPaid",
      "type": "event"
    },
    {
      "constant": true,
      "inputs": [],
      "name": "Owner",
      "outputs": [
        {
          "internalType": "address",
          "name": "",
          "type": "address"
        }
      ],
      "payable": false,
      "stateMutability": "view",
      "type": "function"
    },
    {
      "constant": true,
      "inputs": [],
      "name": "productCtr",
      "outputs": [
        {
          "internalType": "uint256",
          "name": "",
          "type": "uint256"
        }
      ],
      "payable": false,
      "stateMutability": "view",
      "type": "function"
    },
    {
      "constant": true,
      "inputs": [
        {
          "internalType": "uint256",
          "name": "",
          "type": "uint256"
        },
        {
          "internalType": "uint256",
          "name": "",
          "type": "uint256"
        }
      ],
      "name": "productHistories",
      "outputs": [
        {
          "internalType": "uint256",
          "name": "timestamp",
          "type": "uint256"
        },
        {
          "internalType": "uint256",
          "name": "handlerId",
          "type": "uint256"
        },
        {
          "internalType": "enum SupplyChain.STAGE",
          "name": "stage",
          "type": "uint8"
        }
      ],
      "payable": false,
      "stateMutability": "view",
      "type": "function"
    },
    {
      "constant": true,
      "inputs": [
        {
          "internalType": "uint256",
          "name": "",
          "type": "uint256"
        }
      ],
      "name": "productStock",
      "outputs": [
        {
          "internalType": "uint256",
          "name": "id",
          "type": "uint256"
        },
        {
          "internalType": "string",
          "name": "name",
          "type": "string"
        },
        {
          "internalType": "string",
          "name": "description",
          "type": "string"
        },
        {
          "internalType": "uint256",
          "name": "manufacturerId",
          "type": "uint256"
        },
        {
          "internalType": "uint256",
          "name": "distributorId",
          "type": "uint256"
        },
        {
          "internalType": "uint256",
          "name": "currentHandlerId",
          "type": "uint256"
        },
        {
          "internalType": "enum SupplyChain.STAGE",
          "name": "stage",
          "type": "uint8"
        }
      ],
      "payable": false,
      "stateMutability": "view",
      "type": "function"
    },
    {
      "constant": true,
      "inputs": [
        {
          "internalType": "uint256",
          "name": "",
          "type": "uint256"
        }
      ],
      "name": "rms",
      "outputs": [
        {
          "internalType": "uint256",
          "name": "id",
          "type": "uint256"
        },
        {
          "internalType": "string",
          "name": "name",
          "type": "string"
        },
        {
          "internalType": "string",
          "name": "description",
          "type": "string"
        },
        {
          "internalType": "uint256",
          "name": "price",
          "type": "uint256"
        },
        {
          "internalType": "uint256",
          "name": "userId",
          "type": "uint256"
        },
        {
          "internalType": "string",
          "name": "image",
          "type": "string"
        },
        {
          "internalType": "string",
          "name": "origin",
          "type": "string"
        }
      ],
      "payable": false,
      "stateMutability": "view",
      "type": "function"
    },
    {
      "constant": true,
      "inputs": [],
      "name": "rmsCtr",
      "outputs": [
        {
          "internalType": "uint256",
          "name": "",
          "type": "uint256"
        }
      ],
      "payable": false,
      "stateMutability": "view",
      "type": "function"
    },
    {
      "constant": true,
      "inputs": [],
      "name": "shipmentCount",
      "outputs": [
        {
          "internalType": "uint256",
          "name": "",
          "type": "uint256"
        }
      ],
      "payable": false,
      "stateMutability": "view",
      "type": "function"
    },
    {
      "constant": true,
      "inputs": [
        {
          "internalType": "address",
          "name": "",
          "type": "address"
        },
        {
          "internalType": "uint256",
          "name": "",
          "type": "uint256"
        }
      ],
      "name": "shipments",
      "outputs": [
        {
          "internalType": "uint256",
          "name": "senderId",
          "type": "uint256"
        },
        {
          "internalType": "uint256",
          "name": "receiverId",
          "type": "uint256"
        },
        {
          "internalType": "uint256",
          "name": "distributorId",
          "type": "uint256"
        },
        {
          "internalType": "uint256",
          "name": "pickupTime",
          "type": "uint256"
        },
        {
          "internalType": "uint256",
          "name": "deliveryTime",
          "type": "uint256"
        },
        {
          "internalType": "uint256",
          "name": "distance",
          "type": "uint256"
        },
        {
          "internalType": "uint256",
          "name": "price",
          "type": "uint256"
        },
        {
          "internalType": "enum SupplyChain.ShipmentStatus",
          "name": "status",
          "type": "uint8"
        },
        {
          "internalType": "bool",
          "name": "isPaid",
          "type": "bool"
        }
      ],
      "payable": false,
      "stateMutability": "view",
      "type": "function"
    },
    {
      "constant": true,
      "inputs": [],
      "name": "userCount",
      "outputs": [
        {
          "internalType": "uint256",
          "name": "",
          "type": "uint256"
        }
      ],
      "payable": false,
      "stateMutability": "view",
      "type": "function"
    },
    {
      "constant": true,
      "inputs": [
        {
          "internalType": "uint256",
          "name": "",
          "type": "uint256"
        }
      ],
      "name": "users",
      "outputs": [
        {
          "internalType": "uint256",
          "name": "id",
          "type": "uint256"
        },
        {
          "internalType": "string",
          "name": "name",
          "type": "string"
        },
        {
          "internalType": "string",
          "name": "email",
          "type": "string"
        },
        {
          "internalType": "bytes32",
          "name": "passwordHash",
          "type": "bytes32"
        },
        {
          "internalType": "string",
          "name": "role",
          "type": "string"
        },
        {
          "internalType": "string",
          "name": "userAddress",
          "type": "string"
        }
      ],
      "payable": false,
      "stateMutability": "view",
      "type": "function"
    },
    {
      "constant": false,
      "inputs": [
        {
          "internalType": "string",
          "name": "_name",
          "type": "string"
        },
        {
          "internalType": "string",
          "name": "_description",
          "type": "string"
        },
        {
          "internalType": "uint256",
          "name": "_price",
          "type": "uint256"
        },
        {
          "internalType": "string",
          "name": "_image",
          "type": "string"
        },
        {
          "internalType": "string",
          "name": "_origin",
          "type": "string"
        }
      ],
      "name": "addRawMaterial",
      "outputs": [],
      "payable": false,
      "stateMutability": "nonpayable",
      "type": "function"
    },
    {
      "constant": false,
      "inputs": [
        {
          "internalType": "string",
          "name": "_name",
          "type": "string"
        },
        {
          "internalType": "string",
          "name": "_email",
          "type": "string"
        },
        {
          "internalType": "string",
          "name": "_password",
          "type": "string"
        },
        {
          "internalType": "string",
          "name": "_role",
          "type": "string"
        },
        {
          "internalType": "string",
          "name": "_userAddress",
          "type": "string"
        }
      ],
      "name": "addUser",
      "outputs": [],
      "payable": false,
      "stateMutability": "nonpayable",
      "type": "function"
    },
    {
      "constant": false,
      "inputs": [
        {
          "internalType": "string",
          "name": "_name",
          "type": "string"
        },
        {
          "internalType": "string",
          "name": "_description",
          "type": "string"
        },
        {
          "internalType": "uint256[]",
          "name": "_rwIds",
          "type": "uint256[]"
        },
        {
          "internalType": "uint256",
          "name": "_manufacturerId",
          "type": "uint256"
        },
        {
          "internalType": "uint256",
          "name": "_distributorId",
          "type": "uint256"
        },
        {
          "internalType": "uint256",
          "name": "_price",
          "type": "uint256"
        }
      ],
      "name": "createProduct",
      "outputs": [],
      "payable": false,
      "stateMutability": "nonpayable",
      "type": "function"
    },
    {
      "constant": false,
      "inputs": [
        {
          "internalType": "uint256",
          "name": "_shipmentIndex",
          "type": "uint256"
        }
      ],
      "name": "startShipment",
      "outputs": [],
      "payable": false,
      "stateMutability": "nonpayable",
      "type": "function"
    },
    {
      "constant": false,
      "inputs": [
        {
          "internalType": "uint256",
          "name": "_shipmentIndex",
          "type": "uint256"
        }
      ],
      "name": "completeShipment",
      "outputs": [],
      "payable": false,
      "stateMutability": "nonpayable",
      "type": "function"
    },
    {
      "constant": true,
      "inputs": [
        {
          "internalType": "string",
          "name": "_role",
          "type": "string"
        }
      ],
      "name": "getUsersByRole",
      "outputs": [
        {
          "components": [
            {
              "internalType": "uint256",
              "name": "id",
              "type": "uint256"
            },
            {
              "internalType": "string",
              "name": "name",
              "type": "string"
            },
            {
              "internalType": "string",
              "name": "email",
              "type": "string"
            },
            {
              "internalType": "bytes32",
              "name": "passwordHash",
              "type": "bytes32"
            },
            {
              "internalType": "string",
              "name": "role",
              "type": "string"
            },
            {
              "internalType": "string",
              "name": "userAddress",
              "type": "string"
            }
          ],
          "internalType": "struct SupplyChain.User[]",
          "name": "",
          "type": "tuple[]"
        }
      ],
      "payable": false,
      "stateMutability": "view",
      "type": "function"
    },
    {
      "constant": true,
      "inputs": [
        {
          "internalType": "uint256",
          "name": "_productId",
          "type": "uint256"
        }
      ],
      "name": "getProductHistory",
      "outputs": [
        {
          "components": [
            {
              "internalType": "uint256",
              "name": "timestamp",
              "type": "uint256"
            },
            {
              "internalType": "uint256",
              "name": "handlerId",
              "type": "uint256"
            },
            {
              "internalType": "enum SupplyChain.STAGE",
              "name": "stage",
              "type": "uint8"
            }
          ],
          "internalType": "struct SupplyChain.ProductHistory[]",
          "name": "",
          "type": "tuple[]"
        }
      ],
      "payable": false,
      "stateMutability": "view",
      "type": "function"
    }
  ],
  "bytecode": "0x6080604052600060015560006002556000600355600060045534801561002457600080fd5b50336000806101000a81548173ffffffffffffffffffffffffffffffffffffffff021916908373ffffffffffffffffffffffffffffffffffffffff1602179055506131cc806100746000396000f3fe608060405234801561001057600080fd5b506004361061010b5760003560e01c80638bd0115d116100a2578063b4a99a4e11610071578063b4a99a4e146102df578063c08c1cec146102fd578063c0efbb8214610333578063dd28639814610363578063f15456b5146103815761010b565b80638bd0115d1461026b578063aace20b714610287578063aaea34aa146102a5578063b37a3d82146102c35761010b565b806357a096a1116100de57806357a096a1146101b75780635eba8401146101e75780636222f8e61461021d5780637f666acb146102395761010b565b806307973ccf1461011057806309abeffa1461012e578063365b98b21461014a5780635667e02f1461017f575b600080fd5b61011861039d565b6040516101259190612b88565b60405180910390f35b6101486004803603610143919081019061225a565b6103a3565b005b610164600480360361015f919081019061225a565b6104da565b60405161017696959493929190612c26565b60405180910390f35b61019960048036036101949190810190611f46565b610776565b6040516101ae99989796959493929190612e7a565b60405180910390f35b6101d160048036036101cc919081019061225a565b6107f8565b6040516101de91906129e4565b60405180910390f35b61020160048036036101fc919081019061225a565b6108ab565b6040516102149796959493929190612d2e565b60405180910390f35b61023760048036036102329190810190611fc3565b610a2a565b005b610253600480360361024e9190810190612283565b610e6e565b60405161026293929190612dab565b60405180910390f35b61028560048036036102809190810190612183565b610ebf565b005b61028f611082565b60405161029c9190612b88565b60405180910390f35b6102ad611088565b6040516102ba9190612b88565b60405180910390f35b6102dd60048036036102d89190810190612094565b61108e565b005b6102e7611268565b6040516102f491906129c9565b60405180910390f35b6103176004803603610312919081019061225a565b61128d565b60405161032a9796959493929190612ca3565b60405180910390f35b61034d60048036036103489190810190611f82565b61152f565b60405161035a9190612a06565b60405180910390f35b61036b611976565b6040516103789190612b88565b60405180910390f35b61039b6004803603610396919081019061225a565b61197c565b005b60035481565b6000600960003373ffffffffffffffffffffffffffffffffffffffff1673ffffffffffffffffffffffffffffffffffffffff16815260200190815260200160002082815481106103ef57fe5b906000526020600020906008020190506000600281111561040c57fe5b8160070160009054906101000a900460ff16600281111561042957fe5b14610469576040517f08c379a000000000000000000000000000000000000000000000000000000000815260040161046090612b08565b60405180910390fd5b60018160070160006101000a81548160ff0219169083600281111561048a57fe5b02179055507f8077e104eb77bbff08eed87855f32c33fc65de661cb18bf532291f6bce7494ea8160000154826001015483600301546040516104ce93929190612de2565b60405180910390a15050565b6005602052806000526040600020600091509050806000015490806001018054600181600116156101000203166002900480601f01602080910402602001604051908101604052809291908181526020018280546001816001161561010002031660029004801561058c5780601f106105615761010080835404028352916020019161058c565b820191906000526020600020905b81548152906001019060200180831161056f57829003601f168201915b505050505090806002018054600181600116156101000203166002900480601f01602080910402602001604051908101604052809291908181526020018280546001816001161561010002031660029004801561062a5780601f106105ff5761010080835404028352916020019161062a565b820191906000526020600020905b81548152906001019060200180831161060d57829003601f168201915b505050505090806003015490806004018054600181600116156101000203166002900480601f0160208091040260200160405190810160405280929190818152602001828054600181600116156101000203166002900480156106ce5780601f106106a3576101008083540402835291602001916106ce565b820191906000526020600020905b8154815290600101906020018083116106b157829003601f168201915b505050505090806005018054600181600116156101000203166002900480601f01602080910402602001604051908101604052809291908181526020018280546001816001161561010002031660029004801561076c5780601f106107415761010080835404028352916020019161076c565b820191906000526020600020905b81548152906001019060200180831161074f57829003601f168201915b5050505050905086565b6009602052816000526040600020818154811061078f57fe5b9060005260206000209060080201600091509150508060000154908060010154908060020154908060030154908060040154908060050154908060060154908060070160009054906101000a900460ff16908060070160019054906101000a900460ff16905089565b606060086000838152602001908152602001600020805480602002602001604051908101604052809291908181526020016000905b828210156108a0578382906000526020600020906003020160405180606001604052908160008201548152602001600182015481526020016002820160009054906101000a900460ff16600381111561088257fe5b600381111561088d57fe5b815250508152602001906001019061082d565b505050509050919050565b6007602052806000526040600020600091509050806000015490806001018054600181600116156101000203166002900480601f01602080910402602001604051908101604052809291908181526020018280546001816001161561010002031660029004801561095d5780601f106109325761010080835404028352916020019161095d565b820191906000526020600020905b81548152906001019060200180831161094057829003601f168201915b505050505090806002018054600181600116156101000203166002900480601f0160208091040260200160405190810160405280929190818152602001828054600181600116156101000203166002900480156109fb5780601f106109d0576101008083540402835291602001916109fb565b820191906000526020600020905b8154815290600101906020018083116109de57829003601f168201915b5050505050908060040154908060050154908060060154908060070160009054906101000a900460ff16905087565b6000809054906101000a900473ffffffffffffffffffffffffffffffffffffffff1673ffffffffffffffffffffffffffffffffffffffff163373ffffffffffffffffffffffffffffffffffffffff1614610ab9576040517f08c379a0000000000000000000000000000000000000000000000000000000008152600401610ab090612b28565b60405180910390fd5b600060056000858152602001908152602001600020600001541415610b13576040517f08c379a0000000000000000000000000000000000000000000000000000000008152600401610b0a90612aa8565b60405180910390fd5b600060056000848152602001908152602001600020600001541415610b6d576040517f08c379a0000000000000000000000000000000000000000000000000000000008152600401610b6490612ae8565b60405180910390fd5b6000845111610bb1576040517f08c379a0000000000000000000000000000000000000000000000000000000008152600401610ba890612a68565b60405180910390fd5b600260008154809291906001019190505550604051806101000160405280600254815260200187815260200186815260200185815260200184815260200183815260200184815260200160006003811115610c0857fe5b815250600760006002548152602001908152602001600020600082015181600001556020820151816001019080519060200190610c46929190611d1a565b506040820151816002019080519060200190610c63929190611d1a565b506060820151816003019080519060200190610c80929190611d9a565b506080820151816004015560a0820151816005015560c0820151816006015560e08201518160070160006101000a81548160ff02191690836003811115610cc357fe5b021790555090505060008090505b8451811015610d7f576000858281518110610ce857fe5b60200260200101519050600060066000838152602001908152602001600020600001541415610d4c576040517f08c379a0000000000000000000000000000000000000000000000000000000008152600401610d4390612a88565b60405180910390fd5b610d716006600083815260200190815260200160002060040154868642606488611b72565b508080600101915050610cd1565b50600860006002548152602001908152602001600020604051806060016040528042815260200185815260200160006003811115610db957fe5b81525090806001815401808255809150509060018203906000526020600020906003020160009091929091909150600082015181600001556020820151816001015560408201518160020160006101000a81548160ff02191690836003811115610e1f57fe5b02179055505050507fdc0293f45084abb7ce038fc35b8dae40e71d5b4f9ab40cab90bf1ea6032935f7600254878786604051610e5e9493929190612bd3565b60405180910390a1505050505050565b60086020528160005260406000208181548110610e8757fe5b9060005260206000209060030201600091509150508060000154908060010154908060020160009054906101000a900460ff16905083565b6000809054906101000a900473ffffffffffffffffffffffffffffffffffffffff1673ffffffffffffffffffffffffffffffffffffffff163373ffffffffffffffffffffffffffffffffffffffff1614610f4e576040517f08c379a0000000000000000000000000000000000000000000000000000000008152600401610f4590612b28565b60405180910390fd5b6001600081548092919060010191905055506040518060e0016040528060015481526020018681526020018581526020018481526020016000815260200183815260200182815250600660006001548152602001908152602001600020600082015181600001556020820151816001019080519060200190610fd1929190611d1a565b506040820151816002019080519060200190610fee929190611d1a565b50606082015181600301556080820151816004015560a082015181600501908051906020019061101f929190611d1a565b5060c082015181600601908051906020019061103c929190611d1a565b509050507f397bf151e41293935c43045d8da74b84bd4801db62720fc9b2e2e18f02ea4b5960015486604051611073929190612ba3565b60405180910390a15050505050565b60045481565b60025481565b60008551116110d2576040517f08c379a00000000000000000000000000000000000000000000000000000000081526004016110c990612b68565b60405180910390fd5b6000845111611116576040517f08c379a000000000000000000000000000000000000000000000000000000000815260040161110d90612b48565b60405180910390fd5b600083511161115a576040517f08c379a000000000000000000000000000000000000000000000000000000000815260040161115190612ac8565b60405180910390fd5b6003600081548092919060010191905055506040518060c0016040528060035481526020018681526020018581526020018460405160200161119c919061299b565b604051602081830303815290604052805190602001208152602001838152602001828152506005600060035481526020019081526020016000206000820151816000015560208201518160010190805190602001906111fc929190611d1a565b506040820151816002019080519060200190611219929190611d1a565b50606082015181600301556080820151816004019080519060200190611240929190611d1a565b5060a082015181600501908051906020019061125d929190611d1a565b509050505050505050565b6000809054906101000a900473ffffffffffffffffffffffffffffffffffffffff1681565b6006602052806000526040600020600091509050806000015490806001018054600181600116156101000203166002900480601f01602080910402602001604051908101604052809291908181526020018280546001816001161561010002031660029004801561133f5780601f106113145761010080835404028352916020019161133f565b820191906000526020600020905b81548152906001019060200180831161132257829003601f168201915b505050505090806002018054600181600116156101000203166002900480601f0160208091040260200160405190810160405280929190818152602001828054600181600116156101000203166002900480156113dd5780601f106113b2576101008083540402835291602001916113dd565b820191906000526020600020905b8154815290600101906020018083116113c057829003601f168201915b505050505090806003015490806004015490806005018054600181600116156101000203166002900480601f0160208091040260200160405190810160405280929190818152602001828054600181600116156101000203166002900480156114875780601f1061145c57610100808354040283529160200191611487565b820191906000526020600020905b81548152906001019060200180831161146a57829003601f168201915b505050505090806006018054600181600116156101000203166002900480601f0160208091040260200160405190810160405280929190818152602001828054600181600116156101000203166002900480156115255780601f106114fa57610100808354040283529160200191611525565b820191906000526020600020905b81548152906001019060200180831161150857829003601f168201915b5050505050905087565b606060008090506000600190505b60035481116115c55783604051602001611557919061299b565b604051602081830303815290604052805190602001206005600083815260200190815260200160002060040160405160200161159391906129b2565b6040516020818303038152906040528051906020012014156115b85781806001019250505b808060010191505061153d565b5060608160405190808252806020026020018201604052801561160257816020015b6115ef611de7565b8152602001906001900390816115e75790505b50905060008090506000600190505b600354811161196a578560405160200161162b919061299b565b604051602081830303815290604052805190602001206005600083815260200190815260200160002060040160405160200161166791906129b2565b60405160208183030381529060405280519060200120141561195d57600560008281526020019081526020016000206040518060c001604052908160008201548152602001600182018054600181600116156101000203166002900480601f0160208091040260200160405190810160405280929190818152602001828054600181600116156101000203166002900480156117445780601f1061171957610100808354040283529160200191611744565b820191906000526020600020905b81548152906001019060200180831161172757829003601f168201915b50505050508152602001600282018054600181600116156101000203166002900480601f0160208091040260200160405190810160405280929190818152602001828054600181600116156101000203166002900480156117e65780601f106117bb576101008083540402835291602001916117e6565b820191906000526020600020905b8154815290600101906020018083116117c957829003601f168201915b5050505050815260200160038201548152602001600482018054600181600116156101000203166002900480601f0160208091040260200160405190810160405280929190818152602001828054600181600116156101000203166002900480156118925780601f1061186757610100808354040283529160200191611892565b820191906000526020600020905b81548152906001019060200180831161187557829003601f168201915b50505050508152602001600582018054600181600116156101000203166002900480601f0160208091040260200160405190810160405280929190818152602001828054600181600116156101000203166002900480156119345780601f1061190957610100808354040283529160200191611934565b820191906000526020600020905b81548152906001019060200180831161191757829003601f168201915b50505050508152505083838151811061194957fe5b602002602001018190525081806001019250505b8080600101915050611611565b50819350505050919050565b60015481565b6000600960003373ffffffffffffffffffffffffffffffffffffffff1673ffffffffffffffffffffffffffffffffffffffff16815260200190815260200160002082815481106119c857fe5b90600052602060002090600802019050600160028111156119e557fe5b8160070160009054906101000a900460ff166002811115611a0257fe5b14611a42576040517f08c379a0000000000000000000000000000000000000000000000000000000008152600401611a3990612a48565b60405180910390fd5b8060070160019054906101000a900460ff1615611a94576040517f08c379a0000000000000000000000000000000000000000000000000000000008152600401611a8b90612a28565b60405180910390fd5b60028160070160006101000a81548160ff02191690836002811115611ab557fe5b021790555042816004018190555060018160070160016101000a81548160ff0219169083151502179055507f1868f8790162b38347dd32c18f05255866c34a5e7208c84a9f70a84f49e8bd56816000015482600101548360040154604051611b1f93929190612de2565b60405180910390a17f33ccddbe5348d6b36543339d8b286c5d9a93cdc778949804440521a0f9ab990b816000015482600101548360060154604051611b6693929190612de2565b60405180910390a15050565b600960003373ffffffffffffffffffffffffffffffffffffffff1673ffffffffffffffffffffffffffffffffffffffff1681526020019081526020016000206040518061012001604052808881526020018781526020018681526020018581526020016000815260200184815260200183815260200160006002811115611bf557fe5b81526020016000151581525090806001815401808255809150509060018203906000526020600020906008020160009091929091909150600082015181600001556020820151816001015560408201518160020155606082015181600301556080820151816004015560a0820151816005015560c0820151816006015560e08201518160070160006101000a81548160ff02191690836002811115611c9657fe5b02179055506101008201518160070160016101000a81548160ff0219169083151502179055505050506004600081548092919060010191905055507f2ad7719a4d1e17368aeefee3d788d7652266163f86ec8844823220367352d391868686868686604051611d0a96959493929190612e19565b60405180910390a1505050505050565b828054600181600116156101000203166002900490600052602060002090601f016020900481019282601f10611d5b57805160ff1916838001178555611d89565b82800160010185558215611d89579182015b82811115611d88578251825591602001919060010190611d6d565b5b509050611d969190611e20565b5090565b828054828255906000526020600020908101928215611dd6579160200282015b82811115611dd5578251825591602001919060010190611dba565b5b509050611de39190611e20565b5090565b6040518060c001604052806000815260200160608152602001606081526020016000801916815260200160608152602001606081525090565b611e4291905b80821115611e3e576000816000905550600101611e26565b5090565b90565b600081359050611e548161315b565b92915050565b600082601f830112611e6b57600080fd5b8135611e7e611e7982612f34565b612f07565b91508181835260208401935060208101905083856020840282011115611ea357600080fd5b60005b83811015611ed35781611eb98882611f31565b845260208401935060208301925050600181019050611ea6565b5050505092915050565b600082601f830112611eee57600080fd5b8135611f01611efc82612f5c565b612f07565b91508082526020830160208301858383011115611f1d57600080fd5b611f288382846130ee565b50505092915050565b600081359050611f4081613172565b92915050565b60008060408385031215611f5957600080fd5b6000611f6785828601611e45565b9250506020611f7885828601611f31565b9150509250929050565b600060208284031215611f9457600080fd5b600082013567ffffffffffffffff811115611fae57600080fd5b611fba84828501611edd565b91505092915050565b60008060008060008060c08789031215611fdc57600080fd5b600087013567ffffffffffffffff811115611ff657600080fd5b61200289828a01611edd565b965050602087013567ffffffffffffffff81111561201f57600080fd5b61202b89828a01611edd565b955050604087013567ffffffffffffffff81111561204857600080fd5b61205489828a01611e5a565b945050606061206589828a01611f31565b935050608061207689828a01611f31565b92505060a061208789828a01611f31565b9150509295509295509295565b600080600080600060a086880312156120ac57600080fd5b600086013567ffffffffffffffff8111156120c657600080fd5b6120d288828901611edd565b955050602086013567ffffffffffffffff8111156120ef57600080fd5b6120fb88828901611edd565b945050604086013567ffffffffffffffff81111561211857600080fd5b61212488828901611edd565b935050606086013567ffffffffffffffff81111561214157600080fd5b61214d88828901611edd565b925050608086013567ffffffffffffffff81111561216a57600080fd5b61217688828901611edd565b9150509295509295909350565b600080600080600060a0868803121561219b57600080fd5b600086013567ffffffffffffffff8111156121b557600080fd5b6121c188828901611edd565b955050602086013567ffffffffffffffff8111156121de57600080fd5b6121ea88828901611edd565b94505060406121fb88828901611f31565b935050606086013567ffffffffffffffff81111561221857600080fd5b61222488828901611edd565b925050608086013567ffffffffffffffff81111561224157600080fd5b61224d88828901611edd565b9150509295509295909350565b60006020828403121561226c57600080fd5b600061227a84828501611f31565b91505092915050565b6000806040838503121561229657600080fd5b60006122a485828601611f31565b92505060206122b585828601611f31565b9150509250929050565b60006122cb838361289d565b60608301905092915050565b60006122e383836128df565b905092915050565b6122f481613052565b82525050565b600061230582612fbd565b61230f8185613003565b935061231a83612f88565b8060005b8381101561234b57815161233288826122bf565b975061233d83612fe9565b92505060018101905061231e565b5085935050505092915050565b600061236382612fc8565b61236d8185613014565b93508360208202850161237f85612f98565b8060005b858110156123bb578484038952815161239c85826122d7565b94506123a783612ff6565b925060208a01995050600181019050612383565b50829750879550505050505092915050565b6123d681613064565b82525050565b6123e581613070565b82525050565b6123f481613070565b82525050565b612403816130ca565b82525050565b612412816130ca565b82525050565b612421816130dc565b82525050565b600061243282612fde565b61243c8185613036565b935061244c8185602086016130fd565b61245581613130565b840191505092915050565b600061246b82612fde565b6124758185613047565b93506124858185602086016130fd565b80840191505092915050565b600061249c82612fd3565b6124a68185613025565b93506124b68185602086016130fd565b6124bf81613130565b840191505092915050565b60006124d582612fd3565b6124df8185613036565b93506124ef8185602086016130fd565b6124f881613130565b840191505092915050565b600081546001811660008114612520576001811461254557612589565b607f60028304166125318187613047565b955060ff1983168652808601935050612589565b600282046125538187613047565b955061255e85612fa8565b60005b8281101561258057815481890152600182019150602081019050612561565b82880195505050505b505092915050565b600061259e601683613036565b91507f536869706d656e7420616c726561647920706169642e000000000000000000006000830152602082019050919050565b60006125de601883613036565b91507f536869706d656e74206e6f7420696e207472616e7369742e00000000000000006000830152602082019050919050565b600061261e602383613036565b91507f50726f64756374206d75737420636f6e7461696e20726177206d61746572696160008301527f6c732e00000000000000000000000000000000000000000000000000000000006020830152604082019050919050565b6000612684601883613036565b91507f496e76616c696420726177206d6174657269616c2049442e00000000000000006000830152602082019050919050565b60006126c4601c83613036565b91507f4d616e75666163747572657220646f6573206e6f742065786973742e000000006000830152602082019050919050565b6000612704601983613036565b91507f50617373776f72642063616e6e6f7420626520656d7074792e000000000000006000830152602082019050919050565b6000612744601b83613036565b91507f4469737472696275746f7220646f6573206e6f742065786973742e00000000006000830152602082019050919050565b6000612784601583613036565b91507f536869706d656e74206e6f742070656e64696e672e00000000000000000000006000830152602082019050919050565b60006127c4602783613036565b91507f4f6e6c7920746865206f776e65722063616e20706572666f726d20746869732060008301527f616374696f6e2e000000000000000000000000000000000000000000000000006020830152604082019050919050565b600061282a601683613036565b91507f456d61696c2063616e6e6f7420626520656d7074792e000000000000000000006000830152602082019050919050565b600061286a601583613036565b91507f4e616d652063616e6e6f7420626520656d7074792e00000000000000000000006000830152602082019050919050565b6060820160008201516128b3600085018261297d565b5060208201516128c6602085018261297d565b5060408201516128d960408501826123fa565b50505050565b600060c0830160008301516128f7600086018261297d565b506020830151848203602086015261290f8282612491565b915050604083015184820360408601526129298282612491565b915050606083015161293e60608601826123dc565b50608083015184820360808601526129568282612491565b91505060a083015184820360a08601526129708282612491565b9150508091505092915050565b612986816130c0565b82525050565b612995816130c0565b82525050565b60006129a78284612460565b915081905092915050565b60006129be8284612503565b915081905092915050565b60006020820190506129de60008301846122eb565b92915050565b600060208201905081810360008301526129fe81846122fa565b905092915050565b60006020820190508181036000830152612a208184612358565b905092915050565b60006020820190508181036000830152612a4181612591565b9050919050565b60006020820190508181036000830152612a61816125d1565b9050919050565b60006020820190508181036000830152612a8181612611565b9050919050565b60006020820190508181036000830152612aa181612677565b9050919050565b60006020820190508181036000830152612ac1816126b7565b9050919050565b60006020820190508181036000830152612ae1816126f7565b9050919050565b60006020820190508181036000830152612b0181612737565b9050919050565b60006020820190508181036000830152612b2181612777565b9050919050565b60006020820190508181036000830152612b41816127b7565b9050919050565b60006020820190508181036000830152612b618161281d565b9050919050565b60006020820190508181036000830152612b818161285d565b9050919050565b6000602082019050612b9d600083018461298c565b92915050565b6000604082019050612bb8600083018561298c565b8181036020830152612bca8184612427565b90509392505050565b6000608082019050612be8600083018761298c565b8181036020830152612bfa8186612427565b90508181036040830152612c0e8185612427565b9050612c1d606083018461298c565b95945050505050565b600060c082019050612c3b600083018961298c565b8181036020830152612c4d81886124ca565b90508181036040830152612c6181876124ca565b9050612c7060608301866123eb565b8181036080830152612c8281856124ca565b905081810360a0830152612c9681846124ca565b9050979650505050505050565b600060e082019050612cb8600083018a61298c565b8181036020830152612cca81896124ca565b90508181036040830152612cde81886124ca565b9050612ced606083018761298c565b612cfa608083018661298c565b81810360a0830152612d0c81856124ca565b905081810360c0830152612d2081846124ca565b905098975050505050505050565b600060e082019050612d43600083018a61298c565b8181036020830152612d5581896124ca565b90508181036040830152612d6981886124ca565b9050612d78606083018761298c565b612d85608083018661298c565b612d9260a083018561298c565b612d9f60c0830184612409565b98975050505050505050565b6000606082019050612dc0600083018661298c565b612dcd602083018561298c565b612dda6040830184612409565b949350505050565b6000606082019050612df7600083018661298c565b612e04602083018561298c565b612e11604083018461298c565b949350505050565b600060c082019050612e2e600083018961298c565b612e3b602083018861298c565b612e48604083018761298c565b612e55606083018661298c565b612e62608083018561298c565b612e6f60a083018461298c565b979650505050505050565b600061012082019050612e90600083018c61298c565b612e9d602083018b61298c565b612eaa604083018a61298c565b612eb7606083018961298c565b612ec4608083018861298c565b612ed160a083018761298c565b612ede60c083018661298c565b612eeb60e0830185612418565b612ef96101008301846123cd565b9a9950505050505050505050565b6000604051905081810181811067ffffffffffffffff82111715612f2a57600080fd5b8060405250919050565b600067ffffffffffffffff821115612f4b57600080fd5b602082029050602081019050919050565b600067ffffffffffffffff821115612f7357600080fd5b601f19601f8301169050602081019050919050565b6000819050602082019050919050565b6000819050602082019050919050565b60008190508160005260206000209050919050565b600081519050919050565b600081519050919050565b600081519050919050565b600081519050919050565b6000602082019050919050565b6000602082019050919050565b600082825260208201905092915050565b600082825260208201905092915050565b600082825260208201905092915050565b600082825260208201905092915050565b600081905092915050565b600061305d826130a0565b9050919050565b60008115159050919050565b6000819050919050565b600081905061308882613141565b919050565b600081905061309b8261314e565b919050565b600073ffffffffffffffffffffffffffffffffffffffff82169050919050565b6000819050919050565b60006130d58261307a565b9050919050565b60006130e78261308d565b9050919050565b82818337600083830152505050565b60005b8381101561311b578082015181840152602081019050613100565b8381111561312a576000848401525b50505050565b6000601f19601f8301169050919050565b6004811061314b57fe5b50565b6003811061315857fe5b50565b61316481613052565b811461316f57600080fd5b50565b61317b816130c0565b811461318657600080fd5b5056fea365627a7a723158208284da86133cc82cf6930e1c6e6938fc689060e4d928c5f6a57602dffc751cbd6c6578706572696d656e74616cf564736f6c63430005100040",
  "source": "// SPDX-License-Identifier: MIT\r\npragma solidity >=0.4.22 <0.9.0;\r\npragma experimental ABIEncoderV2;\r\ncontract SupplyChain {\r\n    address public Owner;\r\n\r\n    constructor() public {\r\n        Owner = msg.sender;\r\n    }\r\n\r\n    modifier onlyByOwner() {\r\n        require(msg.sender == Owner, \"Only the owner can perform this action.\");\r\n        _;\r\n    }\r\n\r\n    enum STAGE {\r\n        Manufacture,\r\n        Distribution,\r\n        Retail,\r\n        Sold\r\n    }\r\n\r\n    enum ShipmentStatus {\r\n        PENDING,\r\n        IN_TRANSIT,\r\n        DELIVERED\r\n    }\r\n\r\n    uint256 public rmsCtr = 0;\r\n    uint256 public productCtr = 0;\r\n    uint256 public userCount = 0;\r\n    uint256 public shipmentCount = 0;\r\n\r\n    struct RW {\r\n        uint256 id;\r\n        string name;\r\n        string description;\r\n        uint256 price;\r\n        uint256 userId;\r\n        string image;\r\n        string origin;\r\n    }\r\n\r\n    struct Product {\r\n        uint256 id;\r\n        string name;\r\n        string description;\r\n        uint256[] rwIds;\r\n        uint256 manufacturerId;\r\n        uint256 distributorId;\r\n        uint256 currentHandlerId;\r\n        STAGE stage;\r\n    }\r\n\r\n    struct User {\r\n        uint256 id;\r\n        string name;\r\n        string email;\r\n        bytes32 passwordHash; // Secure storage with a hash\r\n        string role;\r\n        string userAddress;\r\n    }\r\n\r\n    struct ProductHistory {\r\n        uint256 timestamp;\r\n        uint256 handlerId;\r\n        STAGE stage;\r\n    }\r\n\r\n    struct Shipment {\r\n        uint256 senderId;\r\n        uint256 receiverId;\r\n        uint256 distributorId;\r\n        uint256 pickupTime;\r\n        uint256 deliveryTime;\r\n        uint256 distance;\r\n        uint256 price;\r\n        ShipmentStatus status;\r\n        bool isPaid;\r\n    }\r\n\r\n    mapping(uint256 => User) public users;\r\n    mapping(uint256 => RW) public rms;\r\n    mapping(uint256 => Product) public productStock;\r\n    mapping(uint256 => ProductHistory[]) public productHistories;\r\n    mapping(address => Shipment[]) public shipments;\r\n\r\n    // Events\r\n    event RawMaterialAdded(uint256 id, string name);\r\n    event ProductAdded(uint256 id, string name);\r\n    event ProductStageUpdated(uint256 id, STAGE newStage);\r\n    event ProductCreated(\r\n        uint256 id,\r\n        string name,\r\n        string description,\r\n        uint256 manufacturerId\r\n    );\r\n    event ShipmentCreated(\r\n        uint256 senderId,\r\n        uint256 receiverId,\r\n        uint256 distributorId,\r\n        uint256 pickupTime,\r\n        uint256 distance,\r\n        uint256 price\r\n    );\r\n    event ShipmentInTransit(\r\n        uint256 senderId,\r\n        uint256 receiverId,\r\n        uint256 pickupTime\r\n    );\r\n    event ShipmentDelivered(\r\n        uint256 senderId,\r\n        uint256 receiverId,\r\n        uint256 deliveryTime\r\n    );\r\n    event ShipmentPaid(uint256 senderId, uint256 receiverId, uint256 amount);\r\n\r\n    // Add a raw material\r\n    function addRawMaterial(\r\n        string memory _name,\r\n        string memory _description,\r\n        uint256 _price,\r\n        string memory _image,\r\n        string memory _origin\r\n    ) public onlyByOwner {\r\n        rmsCtr++;\r\n        rms[rmsCtr] = RW({\r\n            id: rmsCtr,\r\n            name: _name,\r\n            description: _description,\r\n            price: _price,\r\n            userId: 0,\r\n            image: _image,\r\n            origin: _origin\r\n        });\r\n        emit RawMaterialAdded(rmsCtr, _name);\r\n    }\r\n\r\n    // Add a user\r\n    function addUser(\r\n        string memory _name,\r\n        string memory _email,\r\n        string memory _password,\r\n        string memory _role,\r\n        string memory _userAddress\r\n    ) public {\r\n        require(bytes(_name).length > 0, \"Name cannot be empty.\");\r\n        require(bytes(_email).length > 0, \"Email cannot be empty.\");\r\n        require(bytes(_password).length > 0, \"Password cannot be empty.\");\r\n\r\n        userCount++;\r\n        users[userCount] = User({\r\n            id: userCount,\r\n            name: _name,\r\n            email: _email,\r\n            passwordHash: keccak256(abi.encodePacked(_password)),\r\n            role: _role,\r\n            userAddress: _userAddress\r\n        });\r\n    }\r\n\r\n    // Create a product and trigger shipments for the raw materials used\r\n    function createProduct(\r\n        string memory _name,\r\n        string memory _description,\r\n        uint256[] memory _rwIds,\r\n        uint256 _manufacturerId,\r\n        uint256 _distributorId,\r\n        uint256 _price\r\n    ) public onlyByOwner {\r\n        require(users[_manufacturerId].id != 0, \"Manufacturer does not exist.\");\r\n        require(users[_distributorId].id != 0, \"Distributor does not exist.\");\r\n        require(_rwIds.length > 0, \"Product must contain raw materials.\");\r\n\r\n        productCtr++;\r\n        productStock[productCtr] = Product({\r\n            id: productCtr,\r\n            name: _name,\r\n            description: _description,\r\n            rwIds: _rwIds,\r\n            manufacturerId: _manufacturerId,\r\n            distributorId: _distributorId,\r\n            currentHandlerId: _manufacturerId,\r\n            stage: STAGE.Manufacture\r\n        });\r\n\r\n        for (uint256 i = 0; i < _rwIds.length; i++) {\r\n            uint256 rwId = _rwIds[i];\r\n            require(rms[rwId].id != 0, \"Invalid raw material ID.\");\r\n            createShipment(\r\n                rms[rwId].userId,\r\n                _manufacturerId,\r\n                _distributorId,\r\n                block.timestamp,\r\n                100,\r\n                _price\r\n            );\r\n        }\r\n\r\n        productHistories[productCtr].push(\r\n            ProductHistory({\r\n                timestamp: block.timestamp,\r\n                handlerId: _manufacturerId,\r\n                stage: STAGE.Manufacture\r\n            })\r\n        );\r\n\r\n        emit ProductCreated(productCtr, _name, _description, _manufacturerId);\r\n    }\r\n\r\n    // Create Shipment\r\n    function createShipment(\r\n        uint256 _senderId,\r\n        uint256 _receiverId,\r\n        uint256 _distributorId,\r\n        uint256 _pickupTime,\r\n        uint256 _distance,\r\n        uint256 _price\r\n    ) internal {\r\n        shipments[msg.sender].push(\r\n            Shipment({\r\n                senderId: _senderId,\r\n                receiverId: _receiverId,\r\n                distributorId: _distributorId,\r\n                pickupTime: _pickupTime,\r\n                deliveryTime: 0,\r\n                distance: _distance,\r\n                price: _price,\r\n                status: ShipmentStatus.PENDING,\r\n                isPaid: false\r\n            })\r\n        );\r\n        shipmentCount++;\r\n\r\n        emit ShipmentCreated(\r\n            _senderId,\r\n            _receiverId,\r\n            _distributorId,\r\n            _pickupTime,\r\n            _distance,\r\n            _price\r\n        );\r\n    }\r\n\r\n    // Start Shipment\r\n    function startShipment(uint256 _shipmentIndex) public {\r\n        Shipment storage shipment = shipments[msg.sender][_shipmentIndex];\r\n        require(\r\n            shipment.status == ShipmentStatus.PENDING,\r\n            \"Shipment not pending.\"\r\n        );\r\n        shipment.status = ShipmentStatus.IN_TRANSIT;\r\n\r\n        emit ShipmentInTransit(\r\n            shipment.senderId,\r\n            shipment.receiverId,\r\n            shipment.pickupTime\r\n        );\r\n    }\r\n\r\n    // Complete Shipment\r\n    function completeShipment(uint256 _shipmentIndex) public {\r\n        Shipment storage shipment = shipments[msg.sender][_shipmentIndex];\r\n        require(\r\n            shipment.status == ShipmentStatus.IN_TRANSIT,\r\n            \"Shipment not in transit.\"\r\n        );\r\n        require(!shipment.isPaid, \"Shipment already paid.\");\r\n\r\n        shipment.status = ShipmentStatus.DELIVERED;\r\n        shipment.deliveryTime = block.timestamp;\r\n        shipment.isPaid = true;\r\n\r\n        emit ShipmentDelivered(\r\n            shipment.senderId,\r\n            shipment.receiverId,\r\n            shipment.deliveryTime\r\n        );\r\n        emit ShipmentPaid(\r\n            shipment.senderId,\r\n            shipment.receiverId,\r\n            shipment.price\r\n        );\r\n    }\r\n    // Get users by role\r\n    function getUsersByRole(\r\n        string memory _role\r\n    ) public view returns (User[] memory) {\r\n        uint256 count = 0;\r\n\r\n        // Count users with the specified role\r\n        for (uint256 i = 1; i <= userCount; i++) {\r\n            if (\r\n                keccak256(abi.encodePacked(users[i].role)) ==\r\n                keccak256(abi.encodePacked(_role))\r\n            ) {\r\n                count++;\r\n            }\r\n        }\r\n\r\n        // Create a dynamic array of users with the role\r\n        User[] memory result = new User[](count);\r\n        uint256 index = 0;\r\n\r\n        for (uint256 i = 1; i <= userCount; i++) {\r\n            if (\r\n                keccak256(abi.encodePacked(users[i].role)) ==\r\n                keccak256(abi.encodePacked(_role))\r\n            ) {\r\n                result[index] = users[i];\r\n                index++;\r\n            }\r\n        }\r\n        return result;\r\n    }\r\n\r\n    // Get product history\r\n    function getProductHistory(\r\n        uint256 _productId\r\n    ) public view returns (ProductHistory[] memory) {\r\n        return productHistories[_productId];\r\n    }\r\n}\r\n",
  "sourcePath": "C:\\Users\\hp\\Desktop\\S5\\Projet pour matiere au choix\\Supply_Chain\\contracts\\SupplyChain.sol",
  "compiler": {
    "name": "solc",
    "version": "0.5.16+commit.9c3226ce.Emscripten.clang"
  },
  "schemaVersion": "3.4.16",
  "updatedAt": "2024-12-05T12:22:17.070Z",
  "networkType": "ethereum",
  "devdoc": {
    "methods": {}
  },
  "userdoc": {
    "methods": {}
  }
}