{
  "contractName": "SupplyChain",
  "abi": [
    {
      "inputs": [],
      "payable": false,
      "stateMutability": "nonpayable",
      "type": "constructor"
    },
    {
      "anonymous": false,
      "inputs": [
        {
          "indexed": false,
          "internalType": "uint256",
          "name": "id",
          "type": "uint256"
        },
        {
          "indexed": false,
          "internalType": "string",
          "name": "name",
          "type": "string"
        }
      ],
      "name": "ProductAdded",
      "type": "event"
    },
    {
      "anonymous": false,
      "inputs": [
        {
          "indexed": false,
          "internalType": "uint256",
          "name": "id",
          "type": "uint256"
        },
        {
          "indexed": false,
          "internalType": "string",
          "name": "name",
          "type": "string"
        },
        {
          "indexed": false,
          "internalType": "string",
          "name": "description",
          "type": "string"
        },
        {
          "indexed": false,
          "internalType": "uint256",
          "name": "manufacturerId",
          "type": "uint256"
        }
      ],
      "name": "ProductCreated",
      "type": "event"
    },
    {
      "anonymous": false,
      "inputs": [
        {
          "indexed": false,
          "internalType": "uint256",
          "name": "id",
          "type": "uint256"
        },
        {
          "indexed": false,
          "internalType": "enum SupplyChain.STAGE",
          "name": "newStage",
          "type": "uint8"
        }
      ],
      "name": "ProductStageUpdated",
      "type": "event"
    },
    {
      "anonymous": false,
      "inputs": [
        {
          "indexed": false,
          "internalType": "uint256",
          "name": "id",
          "type": "uint256"
        },
        {
          "indexed": false,
          "internalType": "string",
          "name": "name",
          "type": "string"
        }
      ],
      "name": "RawMaterialAdded",
      "type": "event"
    },
    {
      "anonymous": false,
      "inputs": [
        {
          "indexed": false,
          "internalType": "uint256",
          "name": "id",
          "type": "uint256"
        },
        {
          "indexed": false,
          "internalType": "uint256",
          "name": "senderId",
          "type": "uint256"
        },
        {
          "indexed": false,
          "internalType": "uint256",
          "name": "receiverId",
          "type": "uint256"
        },
        {
          "indexed": false,
          "internalType": "uint256",
          "name": "distributorId",
          "type": "uint256"
        },
        {
          "indexed": false,
          "internalType": "uint256",
          "name": "pickupTime",
          "type": "uint256"
        },
        {
          "indexed": false,
          "internalType": "uint256",
          "name": "distance",
          "type": "uint256"
        },
        {
          "indexed": false,
          "internalType": "uint256",
          "name": "price",
          "type": "uint256"
        },
        {
          "indexed": false,
          "internalType": "string",
          "name": "description",
          "type": "string"
        }
      ],
      "name": "ShipmentCreated",
      "type": "event"
    },
    {
      "anonymous": false,
      "inputs": [
        {
          "indexed": false,
          "internalType": "uint256",
          "name": "senderId",
          "type": "uint256"
        },
        {
          "indexed": false,
          "internalType": "uint256",
          "name": "receiverId",
          "type": "uint256"
        },
        {
          "indexed": false,
          "internalType": "uint256",
          "name": "deliveryTime",
          "type": "uint256"
        }
      ],
      "name": "ShipmentDelivered",
      "type": "event"
    },
    {
      "anonymous": false,
      "inputs": [
        {
          "indexed": false,
          "internalType": "uint256",
          "name": "senderId",
          "type": "uint256"
        },
        {
          "indexed": false,
          "internalType": "uint256",
          "name": "receiverId",
          "type": "uint256"
        },
        {
          "indexed": false,
          "internalType": "uint256",
          "name": "pickupTime",
          "type": "uint256"
        }
      ],
      "name": "ShipmentInTransit",
      "type": "event"
    },
    {
      "anonymous": false,
      "inputs": [
        {
          "indexed": false,
          "internalType": "uint256",
          "name": "senderId",
          "type": "uint256"
        },
        {
          "indexed": false,
          "internalType": "uint256",
          "name": "receiverId",
          "type": "uint256"
        },
        {
          "indexed": false,
          "internalType": "uint256",
          "name": "amount",
          "type": "uint256"
        }
      ],
      "name": "ShipmentPaid",
      "type": "event"
    },
    {
      "constant": true,
      "inputs": [],
      "name": "Owner",
      "outputs": [
        {
          "internalType": "address",
          "name": "",
          "type": "address"
        }
      ],
      "payable": false,
      "stateMutability": "view",
      "type": "function"
    },
    {
      "constant": true,
      "inputs": [],
      "name": "productCtr",
      "outputs": [
        {
          "internalType": "uint256",
          "name": "",
          "type": "uint256"
        }
      ],
      "payable": false,
      "stateMutability": "view",
      "type": "function"
    },
    {
      "constant": true,
      "inputs": [
        {
          "internalType": "uint256",
          "name": "",
          "type": "uint256"
        },
        {
          "internalType": "uint256",
          "name": "",
          "type": "uint256"
        }
      ],
      "name": "productHistories",
      "outputs": [
        {
          "internalType": "uint256",
          "name": "timestamp",
          "type": "uint256"
        },
        {
          "internalType": "uint256",
          "name": "handlerId",
          "type": "uint256"
        },
        {
          "internalType": "enum SupplyChain.STAGE",
          "name": "stage",
          "type": "uint8"
        }
      ],
      "payable": false,
      "stateMutability": "view",
      "type": "function"
    },
    {
      "constant": true,
      "inputs": [
        {
          "internalType": "uint256",
          "name": "",
          "type": "uint256"
        }
      ],
      "name": "productStock",
      "outputs": [
        {
          "internalType": "uint256",
          "name": "id",
          "type": "uint256"
        },
        {
          "internalType": "string",
          "name": "name",
          "type": "string"
        },
        {
          "internalType": "string",
          "name": "description",
          "type": "string"
        },
        {
          "internalType": "uint256",
          "name": "manufacturerId",
          "type": "uint256"
        },
        {
          "internalType": "uint256",
          "name": "distributorId",
          "type": "uint256"
        },
        {
          "internalType": "uint256",
          "name": "currentHandlerId",
          "type": "uint256"
        },
        {
          "internalType": "enum SupplyChain.STAGE",
          "name": "stage",
          "type": "uint8"
        }
      ],
      "payable": false,
      "stateMutability": "view",
      "type": "function"
    },
    {
      "constant": true,
      "inputs": [
        {
          "internalType": "uint256",
          "name": "",
          "type": "uint256"
        }
      ],
      "name": "rms",
      "outputs": [
        {
          "internalType": "uint256",
          "name": "id",
          "type": "uint256"
        },
        {
          "internalType": "string",
          "name": "name",
          "type": "string"
        },
        {
          "internalType": "string",
          "name": "description",
          "type": "string"
        },
        {
          "internalType": "uint256",
          "name": "price",
          "type": "uint256"
        },
        {
          "internalType": "uint256",
          "name": "userId",
          "type": "uint256"
        },
        {
          "internalType": "string",
          "name": "image",
          "type": "string"
        },
        {
          "internalType": "string",
          "name": "origin",
          "type": "string"
        }
      ],
      "payable": false,
      "stateMutability": "view",
      "type": "function"
    },
    {
      "constant": true,
      "inputs": [],
      "name": "rmsCtr",
      "outputs": [
        {
          "internalType": "uint256",
          "name": "",
          "type": "uint256"
        }
      ],
      "payable": false,
      "stateMutability": "view",
      "type": "function"
    },
    {
      "constant": true,
      "inputs": [],
      "name": "shipmentCount",
      "outputs": [
        {
          "internalType": "uint256",
          "name": "",
          "type": "uint256"
        }
      ],
      "payable": false,
      "stateMutability": "view",
      "type": "function"
    },
    {
      "constant": true,
      "inputs": [
        {
          "internalType": "uint256",
          "name": "",
          "type": "uint256"
        }
      ],
      "name": "shipments",
      "outputs": [
        {
          "internalType": "uint256",
          "name": "id",
          "type": "uint256"
        },
        {
          "internalType": "uint256",
          "name": "senderId",
          "type": "uint256"
        },
        {
          "internalType": "uint256",
          "name": "receiverId",
          "type": "uint256"
        },
        {
          "internalType": "uint256",
          "name": "distributorId",
          "type": "uint256"
        },
        {
          "internalType": "uint256",
          "name": "pickupTime",
          "type": "uint256"
        },
        {
          "internalType": "uint256",
          "name": "deliveryTime",
          "type": "uint256"
        },
        {
          "internalType": "uint256",
          "name": "distance",
          "type": "uint256"
        },
        {
          "internalType": "uint256",
          "name": "price",
          "type": "uint256"
        },
        {
          "internalType": "string",
          "name": "description",
          "type": "string"
        },
        {
          "internalType": "enum SupplyChain.ShipmentStatus",
          "name": "status",
          "type": "uint8"
        },
        {
          "internalType": "bool",
          "name": "isPaid",
          "type": "bool"
        }
      ],
      "payable": false,
      "stateMutability": "view",
      "type": "function"
    },
    {
      "constant": true,
      "inputs": [
        {
          "internalType": "uint256",
          "name": "",
          "type": "uint256"
        },
        {
          "internalType": "uint256",
          "name": "",
          "type": "uint256"
        }
      ],
      "name": "shipmentsByDistributor",
      "outputs": [
        {
          "internalType": "uint256",
          "name": "",
          "type": "uint256"
        }
      ],
      "payable": false,
      "stateMutability": "view",
      "type": "function"
    },
    {
      "constant": true,
      "inputs": [],
      "name": "userCount",
      "outputs": [
        {
          "internalType": "uint256",
          "name": "",
          "type": "uint256"
        }
      ],
      "payable": false,
      "stateMutability": "view",
      "type": "function"
    },
    {
      "constant": true,
      "inputs": [
        {
          "internalType": "uint256",
          "name": "",
          "type": "uint256"
        }
      ],
      "name": "users",
      "outputs": [
        {
          "internalType": "uint256",
          "name": "id",
          "type": "uint256"
        },
        {
          "internalType": "string",
          "name": "name",
          "type": "string"
        },
        {
          "internalType": "string",
          "name": "email",
          "type": "string"
        },
        {
          "internalType": "bytes32",
          "name": "passwordHash",
          "type": "bytes32"
        },
        {
          "internalType": "string",
          "name": "role",
          "type": "string"
        },
        {
          "internalType": "string",
          "name": "userAddress",
          "type": "string"
        }
      ],
      "payable": false,
      "stateMutability": "view",
      "type": "function"
    },
    {
      "constant": false,
      "inputs": [
        {
          "internalType": "string",
          "name": "_name",
          "type": "string"
        },
        {
          "internalType": "string",
          "name": "_description",
          "type": "string"
        },
        {
          "internalType": "uint256",
          "name": "_price",
          "type": "uint256"
        },
        {
          "internalType": "string",
          "name": "_image",
          "type": "string"
        },
        {
          "internalType": "string",
          "name": "_origin",
          "type": "string"
        }
      ],
      "name": "addRawMaterial",
      "outputs": [],
      "payable": false,
      "stateMutability": "nonpayable",
      "type": "function"
    },
    {
      "constant": false,
      "inputs": [
        {
          "internalType": "string",
          "name": "_name",
          "type": "string"
        },
        {
          "internalType": "string",
          "name": "_email",
          "type": "string"
        },
        {
          "internalType": "string",
          "name": "_password",
          "type": "string"
        },
        {
          "internalType": "string",
          "name": "_role",
          "type": "string"
        },
        {
          "internalType": "string",
          "name": "_userAddress",
          "type": "string"
        }
      ],
      "name": "addUser",
      "outputs": [],
      "payable": false,
      "stateMutability": "nonpayable",
      "type": "function"
    },
    {
      "constant": false,
      "inputs": [
        {
          "internalType": "string",
          "name": "_name",
          "type": "string"
        },
        {
          "internalType": "string",
          "name": "_description",
          "type": "string"
        },
        {
          "internalType": "uint256[]",
          "name": "_rwIds",
          "type": "uint256[]"
        },
        {
          "internalType": "uint256",
          "name": "_manufacturerId",
          "type": "uint256"
        },
        {
          "internalType": "uint256",
          "name": "_distributorId",
          "type": "uint256"
        },
        {
          "internalType": "uint256",
          "name": "_price",
          "type": "uint256"
        }
      ],
      "name": "createProduct",
      "outputs": [],
      "payable": false,
      "stateMutability": "nonpayable",
      "type": "function"
    },
    {
      "constant": false,
      "inputs": [
        {
          "internalType": "uint256",
          "name": "_senderId",
          "type": "uint256"
        },
        {
          "internalType": "uint256",
          "name": "_receiverId",
          "type": "uint256"
        },
        {
          "internalType": "uint256",
          "name": "_distributorId",
          "type": "uint256"
        },
        {
          "internalType": "uint256",
          "name": "_pickupTime",
          "type": "uint256"
        },
        {
          "internalType": "uint256",
          "name": "_distance",
          "type": "uint256"
        },
        {
          "internalType": "uint256",
          "name": "_price",
          "type": "uint256"
        },
        {
          "internalType": "string",
          "name": "_description",
          "type": "string"
        }
      ],
      "name": "createShipment",
      "outputs": [],
      "payable": false,
      "stateMutability": "nonpayable",
      "type": "function"
    },
    {
      "constant": true,
      "inputs": [
        {
          "internalType": "uint256",
          "name": "distributorId",
          "type": "uint256"
        }
      ],
      "name": "getShipmentsByDistributor",
      "outputs": [
        {
          "components": [
            {
              "internalType": "uint256",
              "name": "id",
              "type": "uint256"
            },
            {
              "internalType": "uint256",
              "name": "senderId",
              "type": "uint256"
            },
            {
              "internalType": "uint256",
              "name": "receiverId",
              "type": "uint256"
            },
            {
              "internalType": "uint256",
              "name": "distributorId",
              "type": "uint256"
            },
            {
              "internalType": "uint256",
              "name": "pickupTime",
              "type": "uint256"
            },
            {
              "internalType": "uint256",
              "name": "deliveryTime",
              "type": "uint256"
            },
            {
              "internalType": "uint256",
              "name": "distance",
              "type": "uint256"
            },
            {
              "internalType": "uint256",
              "name": "price",
              "type": "uint256"
            },
            {
              "internalType": "string",
              "name": "description",
              "type": "string"
            },
            {
              "internalType": "enum SupplyChain.ShipmentStatus",
              "name": "status",
              "type": "uint8"
            },
            {
              "internalType": "bool",
              "name": "isPaid",
              "type": "bool"
            }
          ],
          "internalType": "struct SupplyChain.Shipment[]",
          "name": "",
          "type": "tuple[]"
        }
      ],
      "payable": false,
      "stateMutability": "view",
      "type": "function"
    },
    {
      "constant": false,
      "inputs": [
        {
          "internalType": "uint256",
          "name": "_shipmentIndex",
          "type": "uint256"
        }
      ],
      "name": "startShipment",
      "outputs": [],
      "payable": false,
      "stateMutability": "nonpayable",
      "type": "function"
    },
    {
      "constant": false,
      "inputs": [
        {
          "internalType": "uint256",
          "name": "_shipmentIndex",
          "type": "uint256"
        }
      ],
      "name": "completeShipment",
      "outputs": [],
      "payable": false,
      "stateMutability": "nonpayable",
      "type": "function"
    }
  ],
  "bytecode": "0x6080604052600060015560006002556000600355600060045534801561002457600080fd5b50336000806101000a81548173ffffffffffffffffffffffffffffffffffffffff021916908373ffffffffffffffffffffffffffffffffffffffff160217905550612ea9806100746000396000f3fe608060405234801561001057600080fd5b50600436106101165760003560e01c8063aace20b7116100a2578063b4a99a4e11610071578063b4a99a4e14610308578063b8f76b1314610326578063c08c1cec14610356578063dd2863981461038c578063f15456b5146103aa57610116565b8063aace20b714610280578063aaea34aa1461029e578063b37a3d82146102bc578063b41ee391146102d857610116565b80635eba8401116100e95780635eba8401146101c45780636222f8e6146101fa5780637f666acb146102165780638bd0115d14610248578063a08d99101461026457610116565b806307973ccf1461011b57806309abeffa146101395780632ac08a9314610155578063365b98b21461018f575b600080fd5b6101236103c6565b6040516101309190612881565b60405180910390f35b610153600480360361014e9190810190611fcb565b6103cc565b005b61016f600480360361016a9190810190611fcb565b6104be565b6040516101869b9a99989796959493929190612b97565b60405180910390f35b6101a960048036036101a49190810190611fcb565b6105ca565b6040516101bb9695949392919061291f565b60405180910390f35b6101de60048036036101d99190810190611fcb565b610866565b6040516101f19796959493929190612a27565b60405180910390f35b610214600480360361020f9190810190611d34565b6109e5565b005b610230600480360361022b9190810190611ff4565b610e5f565b60405161023f93929190612aa4565b60405180910390f35b610262600480360361025d9190810190611ef4565b610eb0565b005b61027e60048036036102799190810190612030565b611073565b005b610288611243565b6040516102959190612881565b60405180910390f35b6102a6611249565b6040516102b39190612881565b60405180910390f35b6102d660048036036102d19190810190611e05565b61124f565b005b6102f260048036036102ed9190810190611ff4565b611429565b6040516102ff9190612881565b60405180910390f35b610310611457565b60405161031d91906126e4565b60405180910390f35b610340600480360361033b9190810190611fcb565b61147c565b60405161034d91906126ff565b60405180910390f35b610370600480360361036b9190810190611fcb565b611696565b604051610383979695949392919061299c565b60405180910390f35b610394611938565b6040516103a19190612881565b60405180910390f35b6103c460048036036103bf9190810190611fcb565b61193e565b005b60035481565b6000600960008381526020019081526020016000209050600060028111156103f057fe5b8160090160009054906101000a900460ff16600281111561040d57fe5b1461044d576040517f08c379a000000000000000000000000000000000000000000000000000000000815260040161044490612801565b60405180910390fd5b60018160090160006101000a81548160ff0219169083600281111561046e57fe5b02179055507f8077e104eb77bbff08eed87855f32c33fc65de661cb18bf532291f6bce7494ea8160010154826002015483600401546040516104b293929190612adb565b60405180910390a15050565b6009602052806000526040600020600091509050806000015490806001015490806002015490806003015490806004015490806005015490806006015490806007015490806008018054600181600116156101000203166002900480601f01602080910402602001604051908101604052809291908181526020018280546001816001161561010002031660029004801561059a5780601f1061056f5761010080835404028352916020019161059a565b820191906000526020600020905b81548152906001019060200180831161057d57829003601f168201915b5050505050908060090160009054906101000a900460ff16908060090160019054906101000a900460ff1690508b565b6005602052806000526040600020600091509050806000015490806001018054600181600116156101000203166002900480601f01602080910402602001604051908101604052809291908181526020018280546001816001161561010002031660029004801561067c5780601f106106515761010080835404028352916020019161067c565b820191906000526020600020905b81548152906001019060200180831161065f57829003601f168201915b505050505090806002018054600181600116156101000203166002900480601f01602080910402602001604051908101604052809291908181526020018280546001816001161561010002031660029004801561071a5780601f106106ef5761010080835404028352916020019161071a565b820191906000526020600020905b8154815290600101906020018083116106fd57829003601f168201915b505050505090806003015490806004018054600181600116156101000203166002900480601f0160208091040260200160405190810160405280929190818152602001828054600181600116156101000203166002900480156107be5780601f10610793576101008083540402835291602001916107be565b820191906000526020600020905b8154815290600101906020018083116107a157829003601f168201915b505050505090806005018054600181600116156101000203166002900480601f01602080910402602001604051908101604052809291908181526020018280546001816001161561010002031660029004801561085c5780601f106108315761010080835404028352916020019161085c565b820191906000526020600020905b81548152906001019060200180831161083f57829003601f168201915b5050505050905086565b6007602052806000526040600020600091509050806000015490806001018054600181600116156101000203166002900480601f0160208091040260200160405190810160405280929190818152602001828054600181600116156101000203166002900480156109185780601f106108ed57610100808354040283529160200191610918565b820191906000526020600020905b8154815290600101906020018083116108fb57829003601f168201915b505050505090806002018054600181600116156101000203166002900480601f0160208091040260200160405190810160405280929190818152602001828054600181600116156101000203166002900480156109b65780601f1061098b576101008083540402835291602001916109b6565b820191906000526020600020905b81548152906001019060200180831161099957829003601f168201915b5050505050908060040154908060050154908060060154908060070160009054906101000a900460ff16905087565b6000809054906101000a900473ffffffffffffffffffffffffffffffffffffffff1673ffffffffffffffffffffffffffffffffffffffff163373ffffffffffffffffffffffffffffffffffffffff1614610a74576040517f08c379a0000000000000000000000000000000000000000000000000000000008152600401610a6b90612821565b60405180910390fd5b600060056000858152602001908152602001600020600001541415610ace576040517f08c379a0000000000000000000000000000000000000000000000000000000008152600401610ac5906127a1565b60405180910390fd5b600060056000848152602001908152602001600020600001541415610b28576040517f08c379a0000000000000000000000000000000000000000000000000000000008152600401610b1f906127e1565b60405180910390fd5b6000845111610b6c576040517f08c379a0000000000000000000000000000000000000000000000000000000008152600401610b6390612761565b60405180910390fd5b600260008154809291906001019190505550604051806101000160405280600254815260200187815260200186815260200185815260200184815260200183815260200184815260200160006003811115610bc357fe5b815250600760006002548152602001908152602001600020600082015181600001556020820151816001019080519060200190610c01929190611aef565b506040820151816002019080519060200190610c1e929190611aef565b506060820151816003019080519060200190610c3b929190611b6f565b506080820151816004015560a0820151816005015560c0820151816006015560e08201518160070160006101000a81548160ff02191690836003811115610c7e57fe5b021790555090505060008090505b8451811015610d70576000858281518110610ca357fe5b60200260200101519050600060066000838152602001908152602001600020600001541415610d07576040517f08c379a0000000000000000000000000000000000000000000000000000000008152600401610cfe90612781565b60405180910390fd5b610d6260066000838152602001908152602001600020600401548686426064886040518060400160405280600181526020017f2000000000000000000000000000000000000000000000000000000000000000815250611073565b508080600101915050610c8c565b50600860006002548152602001908152602001600020604051806060016040528042815260200185815260200160006003811115610daa57fe5b81525090806001815401808255809150509060018203906000526020600020906003020160009091929091909150600082015181600001556020820151816001015560408201518160020160006101000a81548160ff02191690836003811115610e1057fe5b02179055505050507fdc0293f45084abb7ce038fc35b8dae40e71d5b4f9ab40cab90bf1ea6032935f7600254878786604051610e4f94939291906128cc565b60405180910390a1505050505050565b60086020528160005260406000208181548110610e7857fe5b9060005260206000209060030201600091509150508060000154908060010154908060020160009054906101000a900460ff16905083565b6000809054906101000a900473ffffffffffffffffffffffffffffffffffffffff1673ffffffffffffffffffffffffffffffffffffffff163373ffffffffffffffffffffffffffffffffffffffff1614610f3f576040517f08c379a0000000000000000000000000000000000000000000000000000000008152600401610f3690612821565b60405180910390fd5b6001600081548092919060010191905055506040518060e0016040528060015481526020018681526020018581526020018481526020016000815260200183815260200182815250600660006001548152602001908152602001600020600082015181600001556020820151816001019080519060200190610fc2929190611aef565b506040820151816002019080519060200190610fdf929190611aef565b50606082015181600301556080820151816004015560a0820151816005019080519060200190611010929190611aef565b5060c082015181600601908051906020019061102d929190611aef565b509050507f397bf151e41293935c43045d8da74b84bd4801db62720fc9b2e2e18f02ea4b596001548660405161106492919061289c565b60405180910390a15050505050565b600460008154809291906001019190505550604051806101600160405280600454815260200188815260200187815260200186815260200185815260200160008152602001848152602001838152602001828152602001600060028111156110d757fe5b815260200160001515815250600960006004548152602001908152602001600020600082015181600001556020820151816001015560408201518160020155606082015181600301556080820151816004015560a0820151816005015560c0820151816006015560e08201518160070155610100820151816008019080519060200190611165929190611aef565b506101208201518160090160006101000a81548160ff0219169083600281111561118b57fe5b02179055506101408201518160090160016101000a81548160ff021916908315150217905550905050600a600086815260200190815260200160002060045490806001815401808255809150509060018203906000526020600020016000909192909190915055507f8d5f7648a8e0687a061ec7b8c781bda2dc47506edc1942aa2cc24cb29147cb5a60045488888888888888604051611232989796959493929190612b12565b60405180910390a150505050505050565b60045481565b60025481565b6000855111611293576040517f08c379a000000000000000000000000000000000000000000000000000000000815260040161128a90612861565b60405180910390fd5b60008451116112d7576040517f08c379a00000000000000000000000000000000000000000000000000000000081526004016112ce90612841565b60405180910390fd5b600083511161131b576040517f08c379a0000000000000000000000000000000000000000000000000000000008152600401611312906127c1565b60405180910390fd5b6003600081548092919060010191905055506040518060c0016040528060035481526020018681526020018581526020018460405160200161135d91906126cd565b604051602081830303815290604052805190602001208152602001838152602001828152506005600060035481526020019081526020016000206000820151816000015560208201518160010190805190602001906113bd929190611aef565b5060408201518160020190805190602001906113da929190611aef565b50606082015181600301556080820151816004019080519060200190611401929190611aef565b5060a082015181600501908051906020019061141e929190611aef565b509050505050505050565b600a602052816000526040600020818154811061144257fe5b90600052602060002001600091509150505481565b6000809054906101000a900473ffffffffffffffffffffffffffffffffffffffff1681565b60606000600a60008481526020019081526020016000208054905090506060816040519080825280602002602001820160405280156114d557816020015b6114c2611bbc565b8152602001906001900390816114ba5790505b50905060008090505b8281101561168b5760096000600a6000888152602001908152602001600020838154811061150857fe5b90600052602060002001548152602001908152602001600020604051806101600160405290816000820154815260200160018201548152602001600282015481526020016003820154815260200160048201548152602001600582015481526020016006820154815260200160078201548152602001600882018054600181600116156101000203166002900480601f0160208091040260200160405190810160405280929190818152602001828054600181600116156101000203166002900480156116165780601f106115eb57610100808354040283529160200191611616565b820191906000526020600020905b8154815290600101906020018083116115f957829003601f168201915b505050505081526020016009820160009054906101000a900460ff16600281111561163d57fe5b600281111561164857fe5b81526020016009820160019054906101000a900460ff16151515158152505082828151811061167357fe5b602002602001018190525080806001019150506114de565b508092505050919050565b6006602052806000526040600020600091509050806000015490806001018054600181600116156101000203166002900480601f0160208091040260200160405190810160405280929190818152602001828054600181600116156101000203166002900480156117485780601f1061171d57610100808354040283529160200191611748565b820191906000526020600020905b81548152906001019060200180831161172b57829003601f168201915b505050505090806002018054600181600116156101000203166002900480601f0160208091040260200160405190810160405280929190818152602001828054600181600116156101000203166002900480156117e65780601f106117bb576101008083540402835291602001916117e6565b820191906000526020600020905b8154815290600101906020018083116117c957829003601f168201915b505050505090806003015490806004015490806005018054600181600116156101000203166002900480601f0160208091040260200160405190810160405280929190818152602001828054600181600116156101000203166002900480156118905780601f1061186557610100808354040283529160200191611890565b820191906000526020600020905b81548152906001019060200180831161187357829003601f168201915b505050505090806006018054600181600116156101000203166002900480601f01602080910402602001604051908101604052809291908181526020018280546001816001161561010002031660029004801561192e5780601f106119035761010080835404028352916020019161192e565b820191906000526020600020905b81548152906001019060200180831161191157829003601f168201915b5050505050905087565b60015481565b60006009600083815260200190815260200160002090506001600281111561196257fe5b8160090160009054906101000a900460ff16600281111561197f57fe5b146119bf576040517f08c379a00000000000000000000000000000000000000000000000000000000081526004016119b690612741565b60405180910390fd5b8060090160019054906101000a900460ff1615611a11576040517f08c379a0000000000000000000000000000000000000000000000000000000008152600401611a0890612721565b60405180910390fd5b60028160090160006101000a81548160ff02191690836002811115611a3257fe5b021790555042816005018190555060018160090160016101000a81548160ff0219169083151502179055507f1868f8790162b38347dd32c18f05255866c34a5e7208c84a9f70a84f49e8bd56816001015482600201548360050154604051611a9c93929190612adb565b60405180910390a17f33ccddbe5348d6b36543339d8b286c5d9a93cdc778949804440521a0f9ab990b816001015482600201548360070154604051611ae393929190612adb565b60405180910390a15050565b828054600181600116156101000203166002900490600052602060002090601f016020900481019282601f10611b3057805160ff1916838001178555611b5e565b82800160010185558215611b5e579182015b82811115611b5d578251825591602001919060010190611b42565b5b509050611b6b9190611c23565b5090565b828054828255906000526020600020908101928215611bab579160200282015b82811115611baa578251825591602001919060010190611b8f565b5b509050611bb89190611c23565b5090565b60405180610160016040528060008152602001600081526020016000815260200160008152602001600081526020016000815260200160008152602001600081526020016060815260200160006002811115611c1457fe5b81526020016000151581525090565b611c4591905b80821115611c41576000816000905550600101611c29565b5090565b90565b600082601f830112611c5957600080fd5b8135611c6c611c6782612c76565b612c49565b91508181835260208401935060208101905083856020840282011115611c9157600080fd5b60005b83811015611cc15781611ca78882611d1f565b845260208401935060208301925050600181019050611c94565b5050505092915050565b600082601f830112611cdc57600080fd5b8135611cef611cea82612c9e565b612c49565b91508082526020830160208301858383011115611d0b57600080fd5b611d16838284612de2565b50505092915050565b600081359050611d2e81612e4f565b92915050565b60008060008060008060c08789031215611d4d57600080fd5b600087013567ffffffffffffffff811115611d6757600080fd5b611d7389828a01611ccb565b965050602087013567ffffffffffffffff811115611d9057600080fd5b611d9c89828a01611ccb565b955050604087013567ffffffffffffffff811115611db957600080fd5b611dc589828a01611c48565b9450506060611dd689828a01611d1f565b9350506080611de789828a01611d1f565b92505060a0611df889828a01611d1f565b9150509295509295509295565b600080600080600060a08688031215611e1d57600080fd5b600086013567ffffffffffffffff811115611e3757600080fd5b611e4388828901611ccb565b955050602086013567ffffffffffffffff811115611e6057600080fd5b611e6c88828901611ccb565b945050604086013567ffffffffffffffff811115611e8957600080fd5b611e9588828901611ccb565b935050606086013567ffffffffffffffff811115611eb257600080fd5b611ebe88828901611ccb565b925050608086013567ffffffffffffffff811115611edb57600080fd5b611ee788828901611ccb565b9150509295509295909350565b600080600080600060a08688031215611f0c57600080fd5b600086013567ffffffffffffffff811115611f2657600080fd5b611f3288828901611ccb565b955050602086013567ffffffffffffffff811115611f4f57600080fd5b611f5b88828901611ccb565b9450506040611f6c88828901611d1f565b935050606086013567ffffffffffffffff811115611f8957600080fd5b611f9588828901611ccb565b925050608086013567ffffffffffffffff811115611fb257600080fd5b611fbe88828901611ccb565b9150509295509295909350565b600060208284031215611fdd57600080fd5b6000611feb84828501611d1f565b91505092915050565b6000806040838503121561200757600080fd5b600061201585828601611d1f565b925050602061202685828601611d1f565b9150509250929050565b600080600080600080600060e0888a03121561204b57600080fd5b60006120598a828b01611d1f565b975050602061206a8a828b01611d1f565b965050604061207b8a828b01611d1f565b955050606061208c8a828b01611d1f565b945050608061209d8a828b01611d1f565b93505060a06120ae8a828b01611d1f565b92505060c088013567ffffffffffffffff8111156120cb57600080fd5b6120d78a828b01611ccb565b91505092959891949750929550565b60006120f283836125c0565b905092915050565b61210381612d46565b82525050565b600061211482612cda565b61211e8185612d08565b93508360208202850161213085612cca565b8060005b8581101561216c578484038952815161214d85826120e6565b945061215883612cfb565b925060208a01995050600181019050612134565b50829750879550505050505092915050565b61218781612d58565b82525050565b61219681612d58565b82525050565b6121a581612d64565b82525050565b6121b481612dbe565b82525050565b6121c381612dd0565b82525050565b6121d281612dd0565b82525050565b60006121e382612cf0565b6121ed8185612d2a565b93506121fd818560208601612df1565b61220681612e24565b840191505092915050565b600061221c82612cf0565b6122268185612d3b565b9350612236818560208601612df1565b80840191505092915050565b600061224d82612ce5565b6122578185612d19565b9350612267818560208601612df1565b61227081612e24565b840191505092915050565b600061228682612ce5565b6122908185612d2a565b93506122a0818560208601612df1565b6122a981612e24565b840191505092915050565b60006122c1601683612d2a565b91507f536869706d656e7420616c726561647920706169642e000000000000000000006000830152602082019050919050565b6000612301601883612d2a565b91507f536869706d656e74206e6f7420696e207472616e7369742e00000000000000006000830152602082019050919050565b6000612341602383612d2a565b91507f50726f64756374206d75737420636f6e7461696e20726177206d61746572696160008301527f6c732e00000000000000000000000000000000000000000000000000000000006020830152604082019050919050565b60006123a7601883612d2a565b91507f496e76616c696420726177206d6174657269616c2049442e00000000000000006000830152602082019050919050565b60006123e7601c83612d2a565b91507f4d616e75666163747572657220646f6573206e6f742065786973742e000000006000830152602082019050919050565b6000612427601983612d2a565b91507f50617373776f72642063616e6e6f7420626520656d7074792e000000000000006000830152602082019050919050565b6000612467601b83612d2a565b91507f4469737472696275746f7220646f6573206e6f742065786973742e00000000006000830152602082019050919050565b60006124a7601583612d2a565b91507f536869706d656e74206e6f742070656e64696e672e00000000000000000000006000830152602082019050919050565b60006124e7602783612d2a565b91507f4f6e6c7920746865206f776e65722063616e20706572666f726d20746869732060008301527f616374696f6e2e000000000000000000000000000000000000000000000000006020830152604082019050919050565b600061254d601683612d2a565b91507f456d61696c2063616e6e6f7420626520656d7074792e000000000000000000006000830152602082019050919050565b600061258d601583612d2a565b91507f4e616d652063616e6e6f7420626520656d7074792e00000000000000000000006000830152602082019050919050565b6000610160830160008301516125d960008601826126af565b5060208301516125ec60208601826126af565b5060408301516125ff60408601826126af565b50606083015161261260608601826126af565b50608083015161262560808601826126af565b5060a083015161263860a08601826126af565b5060c083015161264b60c08601826126af565b5060e083015161265e60e08601826126af565b506101008301518482036101008601526126788282612242565b91505061012083015161268f6101208601826121ba565b506101408301516126a461014086018261217e565b508091505092915050565b6126b881612db4565b82525050565b6126c781612db4565b82525050565b60006126d98284612211565b915081905092915050565b60006020820190506126f960008301846120fa565b92915050565b600060208201905081810360008301526127198184612109565b905092915050565b6000602082019050818103600083015261273a816122b4565b9050919050565b6000602082019050818103600083015261275a816122f4565b9050919050565b6000602082019050818103600083015261277a81612334565b9050919050565b6000602082019050818103600083015261279a8161239a565b9050919050565b600060208201905081810360008301526127ba816123da565b9050919050565b600060208201905081810360008301526127da8161241a565b9050919050565b600060208201905081810360008301526127fa8161245a565b9050919050565b6000602082019050818103600083015261281a8161249a565b9050919050565b6000602082019050818103600083015261283a816124da565b9050919050565b6000602082019050818103600083015261285a81612540565b9050919050565b6000602082019050818103600083015261287a81612580565b9050919050565b600060208201905061289660008301846126be565b92915050565b60006040820190506128b160008301856126be565b81810360208301526128c381846121d8565b90509392505050565b60006080820190506128e160008301876126be565b81810360208301526128f381866121d8565b9050818103604083015261290781856121d8565b905061291660608301846126be565b95945050505050565b600060c08201905061293460008301896126be565b8181036020830152612946818861227b565b9050818103604083015261295a818761227b565b9050612969606083018661219c565b818103608083015261297b818561227b565b905081810360a083015261298f818461227b565b9050979650505050505050565b600060e0820190506129b1600083018a6126be565b81810360208301526129c3818961227b565b905081810360408301526129d7818861227b565b90506129e660608301876126be565b6129f360808301866126be565b81810360a0830152612a05818561227b565b905081810360c0830152612a19818461227b565b905098975050505050505050565b600060e082019050612a3c600083018a6126be565b8181036020830152612a4e818961227b565b90508181036040830152612a62818861227b565b9050612a7160608301876126be565b612a7e60808301866126be565b612a8b60a08301856126be565b612a9860c08301846121ab565b98975050505050505050565b6000606082019050612ab960008301866126be565b612ac660208301856126be565b612ad360408301846121ab565b949350505050565b6000606082019050612af060008301866126be565b612afd60208301856126be565b612b0a60408301846126be565b949350505050565b600061010082019050612b28600083018b6126be565b612b35602083018a6126be565b612b4260408301896126be565b612b4f60608301886126be565b612b5c60808301876126be565b612b6960a08301866126be565b612b7660c08301856126be565b81810360e0830152612b8881846121d8565b90509998505050505050505050565b600061016082019050612bad600083018e6126be565b612bba602083018d6126be565b612bc7604083018c6126be565b612bd4606083018b6126be565b612be1608083018a6126be565b612bee60a08301896126be565b612bfb60c08301886126be565b612c0860e08301876126be565b818103610100830152612c1b818661227b565b9050612c2b6101208301856121c9565b612c3961014083018461218d565b9c9b505050505050505050505050565b6000604051905081810181811067ffffffffffffffff82111715612c6c57600080fd5b8060405250919050565b600067ffffffffffffffff821115612c8d57600080fd5b602082029050602081019050919050565b600067ffffffffffffffff821115612cb557600080fd5b601f19601f8301169050602081019050919050565b6000819050602082019050919050565b600081519050919050565b600081519050919050565b600081519050919050565b6000602082019050919050565b600082825260208201905092915050565b600082825260208201905092915050565b600082825260208201905092915050565b600081905092915050565b6000612d5182612d94565b9050919050565b60008115159050919050565b6000819050919050565b6000819050612d7c82612e35565b919050565b6000819050612d8f82612e42565b919050565b600073ffffffffffffffffffffffffffffffffffffffff82169050919050565b6000819050919050565b6000612dc982612d6e565b9050919050565b6000612ddb82612d81565b9050919050565b82818337600083830152505050565b60005b83811015612e0f578082015181840152602081019050612df4565b83811115612e1e576000848401525b50505050565b6000601f19601f8301169050919050565b60048110612e3f57fe5b50565b60038110612e4c57fe5b50565b612e5881612db4565b8114612e6357600080fd5b5056fea365627a7a72315820cf424aa58a6ed504abeeb1d5656f71b05801096a41ab931c20ffb0ff9baca31a6c6578706572696d656e74616cf564736f6c63430005100040",
  "source": "// SPDX-License-Identifier: MIT\r\npragma solidity >=0.4.22 <0.9.0;\r\npragma experimental ABIEncoderV2;\r\n\r\ncontract SupplyChain {\r\n    address public Owner;\r\n\r\n    constructor() public {\r\n        Owner = msg.sender;\r\n    }\r\n\r\n    modifier onlyByOwner() {\r\n        require(msg.sender == Owner, \"Only the owner can perform this action.\");\r\n        _;\r\n    }\r\n\r\n    enum STAGE {\r\n        Manufacture,\r\n        Distribution,\r\n        Retail,\r\n        Sold\r\n    }\r\n\r\n    enum ShipmentStatus {\r\n        PENDING,\r\n        IN_TRANSIT,\r\n        DELIVERED\r\n    }\r\n\r\n    uint256 public rmsCtr = 0;\r\n    uint256 public productCtr = 0;\r\n    uint256 public userCount = 0;\r\n    uint256 public shipmentCount = 0;\r\n\r\n    struct RW {\r\n        uint256 id;\r\n        string name;\r\n        string description;\r\n        uint256 price;\r\n        uint256 userId;\r\n        string image;\r\n        string origin;\r\n    }\r\n\r\n    struct Product {\r\n        uint256 id;\r\n        string name;\r\n        string description;\r\n        uint256[] rwIds;\r\n        uint256 manufacturerId;\r\n        uint256 distributorId;\r\n        uint256 currentHandlerId;\r\n        STAGE stage;\r\n    }\r\n\r\n    struct User {\r\n        uint256 id;\r\n        string name;\r\n        string email;\r\n        bytes32 passwordHash; \r\n        string role;\r\n        string userAddress;\r\n    }\r\n\r\n    struct ProductHistory {\r\n        uint256 timestamp;\r\n        uint256 handlerId;\r\n        STAGE stage;\r\n    }\r\n\r\n    struct Shipment {\r\n        uint256 id;\r\n        uint256 senderId;\r\n        uint256 receiverId;\r\n        uint256 distributorId;\r\n        uint256 pickupTime;\r\n        uint256 deliveryTime;\r\n        uint256 distance;\r\n        uint256 price;\r\n        string description;\r\n        ShipmentStatus status;\r\n        bool isPaid;\r\n    }\r\n\r\n    mapping(uint256 => User) public users;\r\n    mapping(uint256 => RW) public rms;\r\n    mapping(uint256 => Product) public productStock;\r\n    mapping(uint256 => ProductHistory[]) public productHistories;\r\n    mapping(uint256 => Shipment) public shipments;\r\n    mapping(uint256 => uint256[]) public shipmentsByDistributor; // New mapping to store shipment IDs by distributor\r\n\r\n    // Events\r\n    event RawMaterialAdded(uint256 id, string name);\r\n    event ProductAdded(uint256 id, string name);\r\n    event ProductStageUpdated(uint256 id, STAGE newStage);\r\n    event ProductCreated(\r\n        uint256 id,\r\n        string name,\r\n        string description,\r\n        uint256 manufacturerId\r\n    );\r\n    event ShipmentCreated(\r\n        uint256 id,\r\n        uint256 senderId,\r\n        uint256 receiverId,\r\n        uint256 distributorId,\r\n        uint256 pickupTime,\r\n        uint256 distance,\r\n        uint256 price,\r\n        string description\r\n    );\r\n    event ShipmentInTransit(\r\n        uint256 senderId,\r\n        uint256 receiverId,\r\n        uint256 pickupTime\r\n    );\r\n    event ShipmentDelivered(\r\n        uint256 senderId,\r\n        uint256 receiverId,\r\n        uint256 deliveryTime\r\n    );\r\n    event ShipmentPaid(uint256 senderId, uint256 receiverId, uint256 amount);\r\n\r\n    // Add a raw material\r\n    function addRawMaterial(\r\n        string memory _name,\r\n        string memory _description,\r\n        uint256 _price,\r\n        string memory _image,\r\n        string memory _origin\r\n    ) public onlyByOwner {\r\n        rmsCtr++;\r\n        rms[rmsCtr] = RW({\r\n            id: rmsCtr,\r\n            name: _name,\r\n            description: _description,\r\n            price: _price,\r\n            userId: 0,\r\n            image: _image,\r\n            origin: _origin\r\n        });\r\n        emit RawMaterialAdded(rmsCtr, _name);\r\n    }\r\n\r\n    // Add a user\r\n    function addUser(\r\n        string memory _name,\r\n        string memory _email,\r\n        string memory _password,\r\n        string memory _role,\r\n        string memory _userAddress\r\n    ) public {\r\n        require(bytes(_name).length > 0, \"Name cannot be empty.\");\r\n        require(bytes(_email).length > 0, \"Email cannot be empty.\");\r\n        require(bytes(_password).length > 0, \"Password cannot be empty.\");\r\n\r\n        userCount++;\r\n        users[userCount] = User({\r\n            id: userCount,\r\n            name: _name,\r\n            email: _email,\r\n            passwordHash: keccak256(abi.encodePacked(_password)),\r\n            role: _role,\r\n            userAddress: _userAddress\r\n        });\r\n    }\r\n\r\n    // Create a product and trigger shipments for the raw materials used\r\n    function createProduct(\r\n        string memory _name,\r\n        string memory _description,\r\n        uint256[] memory _rwIds,\r\n        uint256 _manufacturerId,\r\n        uint256 _distributorId,\r\n        uint256 _price\r\n    ) public onlyByOwner {\r\n        require(users[_manufacturerId].id != 0, \"Manufacturer does not exist.\");\r\n        require(users[_distributorId].id != 0, \"Distributor does not exist.\");\r\n        require(_rwIds.length > 0, \"Product must contain raw materials.\");\r\n\r\n        productCtr++;\r\n        productStock[productCtr] = Product({\r\n            id: productCtr,\r\n            name: _name,\r\n            description: _description,\r\n            rwIds: _rwIds,\r\n            manufacturerId: _manufacturerId,\r\n            distributorId: _distributorId,\r\n            currentHandlerId: _manufacturerId,\r\n            stage: STAGE.Manufacture\r\n        });\r\n\r\n        for (uint256 i = 0; i < _rwIds.length; i++) {\r\n            uint256 rwId = _rwIds[i];\r\n            require(rms[rwId].id != 0, \"Invalid raw material ID.\");\r\n            createShipment(\r\n                rms[rwId].userId,\r\n                _manufacturerId,\r\n                _distributorId,\r\n                block.timestamp,\r\n                100,\r\n                _price,\r\n                \" \"\r\n            );\r\n        }\r\n\r\n        productHistories[productCtr].push(\r\n            ProductHistory({\r\n                timestamp: block.timestamp,\r\n                handlerId: _manufacturerId,\r\n                stage: STAGE.Manufacture\r\n            })\r\n        );\r\n\r\n        emit ProductCreated(productCtr, _name, _description, _manufacturerId);\r\n    }\r\n\r\n    // Create Shipment\r\n    function createShipment(\r\n        uint256 _senderId,\r\n        uint256 _receiverId,\r\n        uint256 _distributorId,\r\n        uint256 _pickupTime,\r\n        uint256 _distance,\r\n        uint256 _price,\r\n        string memory _description\r\n    ) public {\r\n        shipmentCount++;\r\n        shipments[shipmentCount] = Shipment({\r\n            id: shipmentCount,\r\n            senderId: _senderId,\r\n            receiverId: _receiverId,\r\n            distributorId: _distributorId,\r\n            pickupTime: _pickupTime,\r\n            deliveryTime: 0,\r\n            distance: _distance,\r\n            price: _price,\r\n            description: _description,\r\n            status: ShipmentStatus.PENDING,\r\n            isPaid: false\r\n        });\r\n\r\n        shipmentsByDistributor[_distributorId].push(shipmentCount); // Add the shipment ID to the distributor's list\r\n\r\n        emit ShipmentCreated(\r\n            shipmentCount,\r\n            _senderId,\r\n            _receiverId,\r\n            _distributorId,\r\n            _pickupTime,\r\n            _distance,\r\n            _price,\r\n            _description\r\n        );\r\n    }\r\n\r\n    // Get shipments by distributor\r\n    function getShipmentsByDistributor(uint256 distributorId) public view returns (Shipment[] memory) {\r\n        uint256 count = shipmentsByDistributor[distributorId].length;\r\n        \r\n        // Create an array to store the result\r\n        Shipment[] memory result = new Shipment[](count);\r\n\r\n        // Populate the result array with shipments\r\n        for (uint256 i = 0; i < count; i++) {\r\n            result[i] = shipments[shipmentsByDistributor[distributorId][i]];\r\n        }\r\n\r\n        return result;\r\n    }\r\n\r\n    // Start Shipment\r\n    function startShipment(uint256 _shipmentIndex) public {\r\n        Shipment storage shipment = shipments[_shipmentIndex];\r\n        require(\r\n            shipment.status == ShipmentStatus.PENDING,\r\n            \"Shipment not pending.\"\r\n        );\r\n        shipment.status = ShipmentStatus.IN_TRANSIT;\r\n\r\n        emit ShipmentInTransit(\r\n            shipment.senderId,\r\n            shipment.receiverId,\r\n            shipment.pickupTime\r\n        );\r\n    }\r\n\r\n    // Complete Shipment\r\n    function completeShipment(uint256 _shipmentIndex) public {\r\n        Shipment storage shipment = shipments[_shipmentIndex];\r\n        require(\r\n            shipment.status == ShipmentStatus.IN_TRANSIT,\r\n            \"Shipment not in transit.\"\r\n        );\r\n        require(!shipment.isPaid, \"Shipment already paid.\");\r\n\r\n        shipment.status = ShipmentStatus.DELIVERED;\r\n        shipment.deliveryTime = block.timestamp;\r\n        shipment.isPaid = true;\r\n\r\n        emit ShipmentDelivered(\r\n            shipment.senderId,\r\n            shipment.receiverId,\r\n            shipment.deliveryTime\r\n        );\r\n        emit ShipmentPaid(\r\n            shipment.senderId,\r\n            shipment.receiverId,\r\n            shipment.price\r\n        );\r\n    }\r\n}\r\n",
  "sourcePath": "C:\\Users\\hp\\Desktop\\S5\\Projet pour matiere au choix\\Supply_Chain\\contracts\\SupplyChain.sol",
  "compiler": {
    "name": "solc",
    "version": "0.5.16+commit.9c3226ce.Emscripten.clang"
  },
  "schemaVersion": "3.4.16",
  "updatedAt": "2024-12-07T21:15:20.223Z",
  "networkType": "ethereum",
  "devdoc": {
    "methods": {}
  },
  "userdoc": {
    "methods": {}
  }
}