{
  "contractName": "SupplyChain",
  "abi": [
    {
      "inputs": [],
      "payable": false,
      "stateMutability": "nonpayable",
      "type": "constructor"
    },
    {
      "anonymous": false,
      "inputs": [
        {
          "indexed": false,
          "internalType": "uint256",
          "name": "id",
          "type": "uint256"
        },
        {
          "indexed": false,
          "internalType": "string",
          "name": "title",
          "type": "string"
        }
      ],
      "name": "CategoryAdded",
      "type": "event"
    },
    {
      "anonymous": false,
      "inputs": [
        {
          "indexed": false,
          "internalType": "uint256",
          "name": "id",
          "type": "uint256"
        },
        {
          "indexed": false,
          "internalType": "string",
          "name": "title",
          "type": "string"
        }
      ],
      "name": "CategoryUpdated",
      "type": "event"
    },
    {
      "anonymous": false,
      "inputs": [
        {
          "indexed": false,
          "internalType": "uint256",
          "name": "id",
          "type": "uint256"
        },
        {
          "indexed": false,
          "internalType": "string",
          "name": "name",
          "type": "string"
        }
      ],
      "name": "ProductAdded",
      "type": "event"
    },
    {
      "anonymous": false,
      "inputs": [
        {
          "indexed": false,
          "internalType": "uint256",
          "name": "id",
          "type": "uint256"
        },
        {
          "indexed": false,
          "internalType": "enum SupplyChain.STAGE",
          "name": "newStage",
          "type": "uint8"
        }
      ],
      "name": "ProductStageUpdated",
      "type": "event"
    },
    {
      "anonymous": false,
      "inputs": [
        {
          "indexed": false,
          "internalType": "uint256",
          "name": "id",
          "type": "uint256"
        },
        {
          "indexed": false,
          "internalType": "string",
          "name": "name",
          "type": "string"
        }
      ],
      "name": "ProductUpdated",
      "type": "event"
    },
    {
      "anonymous": false,
      "inputs": [
        {
          "indexed": false,
          "internalType": "uint256",
          "name": "id",
          "type": "uint256"
        },
        {
          "indexed": false,
          "internalType": "string",
          "name": "name",
          "type": "string"
        }
      ],
      "name": "RawMaterialAdded",
      "type": "event"
    },
    {
      "anonymous": false,
      "inputs": [
        {
          "indexed": false,
          "internalType": "uint256",
          "name": "id",
          "type": "uint256"
        },
        {
          "indexed": false,
          "internalType": "string",
          "name": "name",
          "type": "string"
        }
      ],
      "name": "RawMaterialUpdated",
      "type": "event"
    },
    {
      "constant": true,
      "inputs": [],
      "name": "Owner",
      "outputs": [
        {
          "internalType": "address",
          "name": "",
          "type": "address"
        }
      ],
      "payable": false,
      "stateMutability": "view",
      "type": "function"
    },
    {
      "constant": true,
      "inputs": [
        {
          "internalType": "uint256",
          "name": "",
          "type": "uint256"
        }
      ],
      "name": "categories",
      "outputs": [
        {
          "internalType": "uint256",
          "name": "id",
          "type": "uint256"
        },
        {
          "internalType": "string",
          "name": "title",
          "type": "string"
        },
        {
          "internalType": "bool",
          "name": "isActive",
          "type": "bool"
        }
      ],
      "payable": false,
      "stateMutability": "view",
      "type": "function"
    },
    {
      "constant": true,
      "inputs": [],
      "name": "categoryCtr",
      "outputs": [
        {
          "internalType": "uint256",
          "name": "",
          "type": "uint256"
        }
      ],
      "payable": false,
      "stateMutability": "view",
      "type": "function"
    },
    {
      "constant": true,
      "inputs": [],
      "name": "productCtr",
      "outputs": [
        {
          "internalType": "uint256",
          "name": "",
          "type": "uint256"
        }
      ],
      "payable": false,
      "stateMutability": "view",
      "type": "function"
    },
    {
      "constant": true,
      "inputs": [
        {
          "internalType": "uint256",
          "name": "",
          "type": "uint256"
        },
        {
          "internalType": "uint256",
          "name": "",
          "type": "uint256"
        }
      ],
      "name": "productHistories",
      "outputs": [
        {
          "internalType": "uint256",
          "name": "timestamp",
          "type": "uint256"
        },
        {
          "internalType": "uint256",
          "name": "handlerId",
          "type": "uint256"
        },
        {
          "internalType": "enum SupplyChain.STAGE",
          "name": "stage",
          "type": "uint8"
        }
      ],
      "payable": false,
      "stateMutability": "view",
      "type": "function"
    },
    {
      "constant": true,
      "inputs": [
        {
          "internalType": "uint256",
          "name": "",
          "type": "uint256"
        }
      ],
      "name": "productStock",
      "outputs": [
        {
          "internalType": "uint256",
          "name": "id",
          "type": "uint256"
        },
        {
          "internalType": "string",
          "name": "name",
          "type": "string"
        },
        {
          "internalType": "string",
          "name": "description",
          "type": "string"
        },
        {
          "internalType": "uint256",
          "name": "price",
          "type": "uint256"
        },
        {
          "components": [
            {
              "internalType": "uint256",
              "name": "id",
              "type": "uint256"
            },
            {
              "internalType": "string",
              "name": "title",
              "type": "string"
            },
            {
              "internalType": "bool",
              "name": "isActive",
              "type": "bool"
            }
          ],
          "internalType": "struct SupplyChain.Category",
          "name": "category",
          "type": "tuple"
        },
        {
          "internalType": "uint256",
          "name": "manufacturerId",
          "type": "uint256"
        },
        {
          "internalType": "uint256",
          "name": "distributorId",
          "type": "uint256"
        },
        {
          "internalType": "string",
          "name": "productAddress",
          "type": "string"
        },
        {
          "internalType": "bool",
          "name": "isActive",
          "type": "bool"
        },
        {
          "internalType": "string",
          "name": "image",
          "type": "string"
        },
        {
          "internalType": "uint256",
          "name": "produitOriginID",
          "type": "uint256"
        },
        {
          "internalType": "enum SupplyChain.STAGE",
          "name": "stage",
          "type": "uint8"
        }
      ],
      "payable": false,
      "stateMutability": "view",
      "type": "function"
    },
    {
      "constant": true,
      "inputs": [
        {
          "internalType": "uint256",
          "name": "",
          "type": "uint256"
        }
      ],
      "name": "rms",
      "outputs": [
        {
          "internalType": "uint256",
          "name": "id",
          "type": "uint256"
        },
        {
          "internalType": "string",
          "name": "name",
          "type": "string"
        },
        {
          "internalType": "string",
          "name": "description",
          "type": "string"
        },
        {
          "internalType": "uint256",
          "name": "price",
          "type": "uint256"
        },
        {
          "internalType": "uint256",
          "name": "userId",
          "type": "uint256"
        },
        {
          "internalType": "string",
          "name": "image",
          "type": "string"
        },
        {
          "components": [
            {
              "internalType": "string",
              "name": "text",
              "type": "string"
            },
            {
              "internalType": "int256[2]",
              "name": "coordinate",
              "type": "int256[2]"
            }
          ],
          "internalType": "struct SupplyChain.Address",
          "name": "origin",
          "type": "tuple"
        }
      ],
      "payable": false,
      "stateMutability": "view",
      "type": "function"
    },
    {
      "constant": true,
      "inputs": [],
      "name": "rmsCtr",
      "outputs": [
        {
          "internalType": "uint256",
          "name": "",
          "type": "uint256"
        }
      ],
      "payable": false,
      "stateMutability": "view",
      "type": "function"
    },
    {
      "constant": true,
      "inputs": [],
      "name": "userCount",
      "outputs": [
        {
          "internalType": "uint256",
          "name": "",
          "type": "uint256"
        }
      ],
      "payable": false,
      "stateMutability": "view",
      "type": "function"
    },
    {
      "constant": true,
      "inputs": [
        {
          "internalType": "uint256",
          "name": "",
          "type": "uint256"
        }
      ],
      "name": "users",
      "outputs": [
        {
          "internalType": "uint256",
          "name": "id",
          "type": "uint256"
        },
        {
          "internalType": "string",
          "name": "name",
          "type": "string"
        },
        {
          "internalType": "string",
          "name": "email",
          "type": "string"
        },
        {
          "internalType": "bytes32",
          "name": "passwordHash",
          "type": "bytes32"
        },
        {
          "internalType": "string",
          "name": "role",
          "type": "string"
        },
        {
          "internalType": "string",
          "name": "location",
          "type": "string"
        }
      ],
      "payable": false,
      "stateMutability": "view",
      "type": "function"
    },
    {
      "constant": false,
      "inputs": [
        {
          "internalType": "string",
          "name": "_name",
          "type": "string"
        },
        {
          "internalType": "string",
          "name": "_description",
          "type": "string"
        },
        {
          "internalType": "uint256",
          "name": "_price",
          "type": "uint256"
        },
        {
          "internalType": "string",
          "name": "_image",
          "type": "string"
        },
        {
          "internalType": "string",
          "name": "_originText",
          "type": "string"
        },
        {
          "internalType": "int256",
          "name": "_latitude",
          "type": "int256"
        },
        {
          "internalType": "int256",
          "name": "_longitude",
          "type": "int256"
        }
      ],
      "name": "addRawMaterial",
      "outputs": [],
      "payable": false,
      "stateMutability": "nonpayable",
      "type": "function"
    },
    {
      "constant": false,
      "inputs": [
        {
          "internalType": "string",
          "name": "_name",
          "type": "string"
        },
        {
          "internalType": "string",
          "name": "_description",
          "type": "string"
        },
        {
          "internalType": "uint256[]",
          "name": "_rwIds",
          "type": "uint256[]"
        },
        {
          "internalType": "uint256",
          "name": "_price",
          "type": "uint256"
        },
        {
          "internalType": "uint256",
          "name": "_manufacturerId",
          "type": "uint256"
        },
        {
          "internalType": "uint256",
          "name": "_categoryId",
          "type": "uint256"
        },
        {
          "internalType": "string",
          "name": "_productAddress",
          "type": "string"
        },
        {
          "internalType": "string",
          "name": "_image",
          "type": "string"
        }
      ],
      "name": "addProduct",
      "outputs": [],
      "payable": false,
      "stateMutability": "nonpayable",
      "type": "function"
    },
    {
      "constant": false,
      "inputs": [
        {
          "internalType": "uint256",
          "name": "_originalProductId",
          "type": "uint256"
        },
        {
          "internalType": "string",
          "name": "_name",
          "type": "string"
        },
        {
          "internalType": "string",
          "name": "_description",
          "type": "string"
        },
        {
          "internalType": "uint256[]",
          "name": "_rwIds",
          "type": "uint256[]"
        },
        {
          "internalType": "uint256",
          "name": "_price",
          "type": "uint256"
        },
        {
          "internalType": "uint256",
          "name": "_manufacturerId",
          "type": "uint256"
        },
        {
          "internalType": "string",
          "name": "_productAddress",
          "type": "string"
        },
        {
          "internalType": "string",
          "name": "_image",
          "type": "string"
        }
      ],
      "name": "duplicateProduct",
      "outputs": [],
      "payable": false,
      "stateMutability": "nonpayable",
      "type": "function"
    },
    {
      "constant": false,
      "inputs": [
        {
          "internalType": "string",
          "name": "_title",
          "type": "string"
        }
      ],
      "name": "addCategory",
      "outputs": [],
      "payable": false,
      "stateMutability": "nonpayable",
      "type": "function"
    },
    {
      "constant": false,
      "inputs": [
        {
          "internalType": "string",
          "name": "_name",
          "type": "string"
        },
        {
          "internalType": "string",
          "name": "_email",
          "type": "string"
        },
        {
          "internalType": "string",
          "name": "_password",
          "type": "string"
        },
        {
          "internalType": "string",
          "name": "_role",
          "type": "string"
        },
        {
          "internalType": "string",
          "name": "_location",
          "type": "string"
        }
      ],
      "name": "addUser",
      "outputs": [],
      "payable": false,
      "stateMutability": "nonpayable",
      "type": "function"
    },
    {
      "constant": true,
      "inputs": [
        {
          "internalType": "uint256",
          "name": "_productId",
          "type": "uint256"
        }
      ],
      "name": "getProductById",
      "outputs": [
        {
          "components": [
            {
              "internalType": "uint256",
              "name": "id",
              "type": "uint256"
            },
            {
              "internalType": "string",
              "name": "name",
              "type": "string"
            },
            {
              "internalType": "string",
              "name": "description",
              "type": "string"
            },
            {
              "internalType": "uint256[]",
              "name": "rwIds",
              "type": "uint256[]"
            },
            {
              "internalType": "uint256",
              "name": "price",
              "type": "uint256"
            },
            {
              "components": [
                {
                  "internalType": "uint256",
                  "name": "id",
                  "type": "uint256"
                },
                {
                  "internalType": "string",
                  "name": "title",
                  "type": "string"
                },
                {
                  "internalType": "bool",
                  "name": "isActive",
                  "type": "bool"
                }
              ],
              "internalType": "struct SupplyChain.Category",
              "name": "category",
              "type": "tuple"
            },
            {
              "internalType": "uint256",
              "name": "manufacturerId",
              "type": "uint256"
            },
            {
              "internalType": "uint256",
              "name": "distributorId",
              "type": "uint256"
            },
            {
              "internalType": "string",
              "name": "productAddress",
              "type": "string"
            },
            {
              "internalType": "bool",
              "name": "isActive",
              "type": "bool"
            },
            {
              "internalType": "string",
              "name": "image",
              "type": "string"
            },
            {
              "internalType": "uint256",
              "name": "produitOriginID",
              "type": "uint256"
            },
            {
              "internalType": "enum SupplyChain.STAGE",
              "name": "stage",
              "type": "uint8"
            }
          ],
          "internalType": "struct SupplyChain.Product",
          "name": "",
          "type": "tuple"
        }
      ],
      "payable": false,
      "stateMutability": "view",
      "type": "function"
    },
    {
      "constant": true,
      "inputs": [],
      "name": "getAllProducts",
      "outputs": [
        {
          "components": [
            {
              "internalType": "uint256",
              "name": "id",
              "type": "uint256"
            },
            {
              "internalType": "string",
              "name": "name",
              "type": "string"
            },
            {
              "internalType": "string",
              "name": "description",
              "type": "string"
            },
            {
              "internalType": "uint256[]",
              "name": "rwIds",
              "type": "uint256[]"
            },
            {
              "internalType": "uint256",
              "name": "price",
              "type": "uint256"
            },
            {
              "components": [
                {
                  "internalType": "uint256",
                  "name": "id",
                  "type": "uint256"
                },
                {
                  "internalType": "string",
                  "name": "title",
                  "type": "string"
                },
                {
                  "internalType": "bool",
                  "name": "isActive",
                  "type": "bool"
                }
              ],
              "internalType": "struct SupplyChain.Category",
              "name": "category",
              "type": "tuple"
            },
            {
              "internalType": "uint256",
              "name": "manufacturerId",
              "type": "uint256"
            },
            {
              "internalType": "uint256",
              "name": "distributorId",
              "type": "uint256"
            },
            {
              "internalType": "string",
              "name": "productAddress",
              "type": "string"
            },
            {
              "internalType": "bool",
              "name": "isActive",
              "type": "bool"
            },
            {
              "internalType": "string",
              "name": "image",
              "type": "string"
            },
            {
              "internalType": "uint256",
              "name": "produitOriginID",
              "type": "uint256"
            },
            {
              "internalType": "enum SupplyChain.STAGE",
              "name": "stage",
              "type": "uint8"
            }
          ],
          "internalType": "struct SupplyChain.Product[]",
          "name": "",
          "type": "tuple[]"
        }
      ],
      "payable": false,
      "stateMutability": "view",
      "type": "function"
    },
    {
      "constant": true,
      "inputs": [],
      "name": "getAllCategories",
      "outputs": [
        {
          "components": [
            {
              "internalType": "uint256",
              "name": "id",
              "type": "uint256"
            },
            {
              "internalType": "string",
              "name": "title",
              "type": "string"
            },
            {
              "internalType": "bool",
              "name": "isActive",
              "type": "bool"
            }
          ],
          "internalType": "struct SupplyChain.Category[]",
          "name": "",
          "type": "tuple[]"
        }
      ],
      "payable": false,
      "stateMutability": "view",
      "type": "function"
    },
    {
      "constant": true,
      "inputs": [
        {
          "internalType": "string",
          "name": "_role",
          "type": "string"
        }
      ],
      "name": "getUsersByRole",
      "outputs": [
        {
          "components": [
            {
              "internalType": "uint256",
              "name": "id",
              "type": "uint256"
            },
            {
              "internalType": "string",
              "name": "name",
              "type": "string"
            },
            {
              "internalType": "string",
              "name": "email",
              "type": "string"
            },
            {
              "internalType": "bytes32",
              "name": "passwordHash",
              "type": "bytes32"
            },
            {
              "internalType": "string",
              "name": "role",
              "type": "string"
            },
            {
              "internalType": "string",
              "name": "location",
              "type": "string"
            }
          ],
          "internalType": "struct SupplyChain.User[]",
          "name": "",
          "type": "tuple[]"
        }
      ],
      "payable": false,
      "stateMutability": "view",
      "type": "function"
    },
    {
      "constant": false,
      "inputs": [
        {
          "internalType": "uint256",
          "name": "_productId",
          "type": "uint256"
        },
        {
          "internalType": "enum SupplyChain.STAGE",
          "name": "_newStage",
          "type": "uint8"
        }
      ],
      "name": "updateProductStage",
      "outputs": [],
      "payable": false,
      "stateMutability": "nonpayable",
      "type": "function"
    },
    {
      "constant": true,
      "inputs": [],
      "name": "getAllRawMaterials",
      "outputs": [
        {
          "components": [
            {
              "internalType": "uint256",
              "name": "id",
              "type": "uint256"
            },
            {
              "internalType": "string",
              "name": "name",
              "type": "string"
            },
            {
              "internalType": "string",
              "name": "description",
              "type": "string"
            },
            {
              "internalType": "uint256",
              "name": "price",
              "type": "uint256"
            },
            {
              "internalType": "uint256",
              "name": "userId",
              "type": "uint256"
            },
            {
              "internalType": "string",
              "name": "image",
              "type": "string"
            },
            {
              "components": [
                {
                  "internalType": "string",
                  "name": "text",
                  "type": "string"
                },
                {
                  "internalType": "int256[2]",
                  "name": "coordinate",
                  "type": "int256[2]"
                }
              ],
              "internalType": "struct SupplyChain.Address",
              "name": "origin",
              "type": "tuple"
            }
          ],
          "internalType": "struct SupplyChain.RW[]",
          "name": "",
          "type": "tuple[]"
        }
      ],
      "payable": false,
      "stateMutability": "view",
      "type": "function"
    },
    {
      "constant": true,
      "inputs": [],
      "name": "getAllUsers",
      "outputs": [
        {
          "components": [
            {
              "internalType": "uint256",
              "name": "id",
              "type": "uint256"
            },
            {
              "internalType": "string",
              "name": "name",
              "type": "string"
            },
            {
              "internalType": "string",
              "name": "email",
              "type": "string"
            },
            {
              "internalType": "bytes32",
              "name": "passwordHash",
              "type": "bytes32"
            },
            {
              "internalType": "string",
              "name": "role",
              "type": "string"
            },
            {
              "internalType": "string",
              "name": "location",
              "type": "string"
            }
          ],
          "internalType": "struct SupplyChain.User[]",
          "name": "",
          "type": "tuple[]"
        }
      ],
      "payable": false,
      "stateMutability": "view",
      "type": "function"
    },
    {
      "constant": true,
      "inputs": [
        {
          "internalType": "uint256",
          "name": "_productId",
          "type": "uint256"
        }
      ],
      "name": "getProductHistory",
      "outputs": [
        {
          "components": [
            {
              "internalType": "uint256",
              "name": "timestamp",
              "type": "uint256"
            },
            {
              "internalType": "uint256",
              "name": "handlerId",
              "type": "uint256"
            },
            {
              "internalType": "enum SupplyChain.STAGE",
              "name": "stage",
              "type": "uint8"
            }
          ],
          "internalType": "struct SupplyChain.ProductHistory[]",
          "name": "",
          "type": "tuple[]"
        }
      ],
      "payable": false,
      "stateMutability": "view",
      "type": "function"
    }
  ],
  "bytecode": "0x6080604052600060015560006002556000600355600060045534801561002457600080fd5b50336000806101000a81548173ffffffffffffffffffffffffffffffffffffffff021916908373ffffffffffffffffffffffffffffffffffffffff160217905550615a1f80620000756000396000f3fe608060405234801561001057600080fd5b506004361061014d5760003560e01c8063a85c8249116100c3578063c6cdbe5e1161007c578063c6cdbe5e146103da578063cde657211461040c578063dadd0a571461042a578063dd28639814610448578063e2842d7914610466578063fac0992d146104845761014d565b8063a85c824914610300578063aaea34aa1461031c578063b37a3d821461033a578063b4a99a4e14610356578063c08c1cec14610374578063c0efbb82146103aa5761014d565b80633f70c2b4116101155780633f70c2b4146101fb57806357a096a11461022b5780635eba84011461025b5780636a13931d146102965780637f666acb146102b257806395967805146102e45761014d565b806302ee3a521461015257806307973ccf146101705780632524883f1461018e5780632e0dcbf7146101aa578063365b98b2146101c6575b600080fd5b61015a6104a2565b60405161016791906151eb565b60405180910390f35b61017861097c565b6040516101859190615393565b60405180910390f35b6101a860048036036101a391908101906142f0565b610982565b005b6101c460048036036101bf9190810190613f33565b611199565b005b6101e060048036036101db919081019061428b565b6112f7565b6040516101f296959493929190615445565b60405180910390f35b6102156004803603610210919081019061428b565b611593565b6040516102229190615371565b60405180910390f35b6102456004803603610240919081019061428b565b611a47565b60405161025291906151c9565b60405180910390f35b6102756004803603610270919081019061428b565b611b4b565b60405161028d9c9b9a999897969594939291906154c2565b60405180910390f35b6102b060048036036102ab91908101906142b4565b611ef6565b005b6102cc60048036036102c7919081019061441a565b612185565b6040516102db9392919061562a565b60405180910390f35b6102fe60048036036102f9919081019061418d565b6121d6565b005b61031a60048036036103159190810190613f74565b6123e6565b005b61032461287b565b6040516103319190615393565b60405180910390f35b610354600480360361034f919081019061409e565b612881565b005b61035e612a5b565b60405161036b919061518c565b60405180910390f35b61038e6004803603610389919081019061428b565b612a80565b6040516103a1979695949392919061559f565b60405180910390f35b6103c460048036036103bf9190810190613f33565b612d7b565b6040516103d1919061522f565b60405180910390f35b6103f460048036036103ef919081019061428b565b6131c6565b60405161040393929190615407565b60405180910390f35b610414613295565b6040516104219190615393565b60405180910390f35b61043261329b565b60405161043f91906151a7565b60405180910390f35b610450613406565b60405161045d9190615393565b60405180910390f35b61046e61340c565b60405161047b919061522f565b60405180910390f35b61048c61374c565b604051610499919061520d565b60405180910390f35b6060600060025490506060816040519080825280602002602001820160405280156104e757816020015b6104d4613aef565b8152602001906001900390816104cc5790505b5090506000600190505b8281116109735760076000828152602001908152602001600020604051806101a001604052908160008201548152602001600182018054600181600116156101000203166002900480601f0160208091040260200160405190810160405280929190818152602001828054600181600116156101000203166002900480156105ba5780601f1061058f576101008083540402835291602001916105ba565b820191906000526020600020905b81548152906001019060200180831161059d57829003601f168201915b50505050508152602001600282018054600181600116156101000203166002900480601f01602080910402602001604051908101604052809291908181526020018280546001816001161561010002031660029004801561065c5780601f106106315761010080835404028352916020019161065c565b820191906000526020600020905b81548152906001019060200180831161063f57829003601f168201915b50505050508152602001600382018054806020026020016040519081016040528092919081815260200182805480156106b457602002820191906000526020600020905b8154815260200190600101908083116106a0575b50505050508152602001600482015481526020016005820160405180606001604052908160008201548152602001600182018054600181600116156101000203166002900480601f01602080910402602001604051908101604052809291908181526020018280546001816001161561010002031660029004801561077a5780601f1061074f5761010080835404028352916020019161077a565b820191906000526020600020905b81548152906001019060200180831161075d57829003601f168201915b505050505081526020016002820160009054906101000a900460ff16151515158152505081526020016008820154815260200160098201548152602001600a82018054600181600116156101000203166002900480601f01602080910402602001604051908101604052809291908181526020018280546001816001161561010002031660029004801561084f5780601f106108245761010080835404028352916020019161084f565b820191906000526020600020905b81548152906001019060200180831161083257829003601f168201915b50505050508152602001600b820160009054906101000a900460ff16151515158152602001600c82018054600181600116156101000203166002900480601f01602080910402602001604051908101604052809291908181526020018280546001816001161561010002031660029004801561090c5780601f106108e15761010080835404028352916020019161090c565b820191906000526020600020905b8154815290600101906020018083116108ef57829003601f168201915b50505050508152602001600d8201548152602001600e820160009054906101000a900460ff16600381111561093d57fe5b600381111561094857fe5b8152505082600183038151811061095b57fe5b602002602001018190525080806001019150506104f1565b50809250505090565b60035481565b6000809054906101000a900473ffffffffffffffffffffffffffffffffffffffff1673ffffffffffffffffffffffffffffffffffffffff163373ffffffffffffffffffffffffffffffffffffffff1614610a11576040517f08c379a0000000000000000000000000000000000000000000000000000000008152600401610a08906152b1565b60405180910390fd5b600088118015610a2357506002548811155b610a62576040517f08c379a0000000000000000000000000000000000000000000000000000000008152600401610a5990615331565b60405180910390fd5b610a6a613b6a565b600760008a8152602001908152602001600020604051806101a001604052908160008201548152602001600182018054600181600116156101000203166002900480601f016020809104026020016040519081016040528092919081815260200182805460018160011615610100020316600290048015610b2c5780601f10610b0157610100808354040283529160200191610b2c565b820191906000526020600020905b815481529060010190602001808311610b0f57829003601f168201915b50505050508152602001600282018054600181600116156101000203166002900480601f016020809104026020016040519081016040528092919081815260200182805460018160011615610100020316600290048015610bce5780601f10610ba357610100808354040283529160200191610bce565b820191906000526020600020905b815481529060010190602001808311610bb157829003601f168201915b5050505050815260200160038201805480602002602001604051908101604052809291908181526020018280548015610c2657602002820191906000526020600020905b815481526020019060010190808311610c12575b50505050508152602001600482015481526020016005820160405180606001604052908160008201548152602001600182018054600181600116156101000203166002900480601f016020809104026020016040519081016040528092919081815260200182805460018160011615610100020316600290048015610cec5780601f10610cc157610100808354040283529160200191610cec565b820191906000526020600020905b815481529060010190602001808311610ccf57829003601f168201915b505050505081526020016002820160009054906101000a900460ff16151515158152505081526020016008820154815260200160098201548152602001600a82018054600181600116156101000203166002900480601f016020809104026020016040519081016040528092919081815260200182805460018160011615610100020316600290048015610dc15780601f10610d9657610100808354040283529160200191610dc1565b820191906000526020600020905b815481529060010190602001808311610da457829003601f168201915b50505050508152602001600b820160009054906101000a900460ff16151515158152602001600c82018054600181600116156101000203166002900480601f016020809104026020016040519081016040528092919081815260200182805460018160011615610100020316600290048015610e7e5780601f10610e5357610100808354040283529160200191610e7e565b820191906000526020600020905b815481529060010190602001808311610e6157829003601f168201915b50505050508152602001600d8201548152602001600e820160009054906101000a900460ff166003811115610eaf57fe5b6003811115610eba57fe5b81525050905060008090505b8651811015610f53576000878281518110610edd57fe5b6020026020010151118015610f075750600154878281518110610efc57fe5b602002602001015111155b610f46576040517f08c379a0000000000000000000000000000000000000000000000000000000008152600401610f3d90615351565b60405180910390fd5b8080600101915050610ec6565b50600260008154809291906001019190505550604051806101a0016040528060025481526020018981526020018881526020018781526020018681526020018260a001518152602001858152602001600081526020018481526020016001151581526020018381526020018260000151815260200160006003811115610fd557fe5b815250600760006002548152602001908152602001600020600082015181600001556020820151816001019080519060200190611013929190613be5565b506040820151816002019080519060200190611030929190613be5565b50606082015181600301908051906020019061104d929190613c65565b506080820151816004015560a082015181600501600082015181600001556020820151816001019080519060200190611087929190613be5565b5060408201518160020160006101000a81548160ff021916908315150217905550505060c0820151816008015560e0820151816009015561010082015181600a0190805190602001906110db929190613be5565b5061012082015181600b0160006101000a81548160ff02191690831515021790555061014082015181600c01908051906020019061111a929190613be5565b5061016082015181600d015561018082015181600e0160006101000a81548160ff0219169083600381111561114b57fe5b02179055509050507f259101de1f87b04b9ee0332ce5e3cc508014004bf283424aead6cd8692f5cf98600254896040516111869291906153d7565b60405180910390a1505050505050505050565b6000809054906101000a900473ffffffffffffffffffffffffffffffffffffffff1673ffffffffffffffffffffffffffffffffffffffff163373ffffffffffffffffffffffffffffffffffffffff1614611228576040517f08c379a000000000000000000000000000000000000000000000000000000000815260040161121f906152b1565b60405180910390fd5b6004600081548092919060010191905055506040518060600160405280600454815260200182815260200160011515815250600860006004548152602001908152602001600020600082015181600001556020820151816001019080519060200190611295929190613be5565b5060408201518160020160006101000a81548160ff0219169083151502179055509050507f5bae3f75753ef0a1c0ea0f6c51d7b43a4b8d116572b8b7b5cb771f9ad32d4ae5600454826040516112ec9291906153d7565b60405180910390a150565b6005602052806000526040600020600091509050806000015490806001018054600181600116156101000203166002900480601f0160208091040260200160405190810160405280929190818152602001828054600181600116156101000203166002900480156113a95780601f1061137e576101008083540402835291602001916113a9565b820191906000526020600020905b81548152906001019060200180831161138c57829003601f168201915b505050505090806002018054600181600116156101000203166002900480601f0160208091040260200160405190810160405280929190818152602001828054600181600116156101000203166002900480156114475780601f1061141c57610100808354040283529160200191611447565b820191906000526020600020905b81548152906001019060200180831161142a57829003601f168201915b505050505090806003015490806004018054600181600116156101000203166002900480601f0160208091040260200160405190810160405280929190818152602001828054600181600116156101000203166002900480156114eb5780601f106114c0576101008083540402835291602001916114eb565b820191906000526020600020905b8154815290600101906020018083116114ce57829003601f168201915b505050505090806005018054600181600116156101000203166002900480601f0160208091040260200160405190810160405280929190818152602001828054600181600116156101000203166002900480156115895780601f1061155e57610100808354040283529160200191611589565b820191906000526020600020905b81548152906001019060200180831161156c57829003601f168201915b5050505050905086565b61159b613b6a565b6000821180156115ad57506002548211155b6115ec576040517f08c379a00000000000000000000000000000000000000000000000000000000081526004016115e390615271565b60405180910390fd5b60076000838152602001908152602001600020604051806101a001604052908160008201548152602001600182018054600181600116156101000203166002900480601f0160208091040260200160405190810160405280929190818152602001828054600181600116156101000203166002900480156116ae5780601f10611683576101008083540402835291602001916116ae565b820191906000526020600020905b81548152906001019060200180831161169157829003601f168201915b50505050508152602001600282018054600181600116156101000203166002900480601f0160208091040260200160405190810160405280929190818152602001828054600181600116156101000203166002900480156117505780601f1061172557610100808354040283529160200191611750565b820191906000526020600020905b81548152906001019060200180831161173357829003601f168201915b50505050508152602001600382018054806020026020016040519081016040528092919081815260200182805480156117a857602002820191906000526020600020905b815481526020019060010190808311611794575b50505050508152602001600482015481526020016005820160405180606001604052908160008201548152602001600182018054600181600116156101000203166002900480601f01602080910402602001604051908101604052809291908181526020018280546001816001161561010002031660029004801561186e5780601f106118435761010080835404028352916020019161186e565b820191906000526020600020905b81548152906001019060200180831161185157829003601f168201915b505050505081526020016002820160009054906101000a900460ff16151515158152505081526020016008820154815260200160098201548152602001600a82018054600181600116156101000203166002900480601f0160208091040260200160405190810160405280929190818152602001828054600181600116156101000203166002900480156119435780601f1061191857610100808354040283529160200191611943565b820191906000526020600020905b81548152906001019060200180831161192657829003601f168201915b50505050508152602001600b820160009054906101000a900460ff16151515158152602001600c82018054600181600116156101000203166002900480601f016020809104026020016040519081016040528092919081815260200182805460018160011615610100020316600290048015611a005780601f106119d557610100808354040283529160200191611a00565b820191906000526020600020905b8154815290600101906020018083116119e357829003601f168201915b50505050508152602001600d8201548152602001600e820160009054906101000a900460ff166003811115611a3157fe5b6003811115611a3c57fe5b815250509050919050565b6060600082118015611a5b57506002548211155b611a9a576040517f08c379a0000000000000000000000000000000000000000000000000000000008152600401611a9190615271565b60405180910390fd5b60096000838152602001908152602001600020805480602002602001604051908101604052809291908181526020016000905b82821015611b40578382906000526020600020906003020160405180606001604052908160008201548152602001600182015481526020016002820160009054906101000a900460ff166003811115611b2257fe5b6003811115611b2d57fe5b8152505081526020019060010190611acd565b505050509050919050565b6007602052806000526040600020600091509050806000015490806001018054600181600116156101000203166002900480601f016020809104026020016040519081016040528092919081815260200182805460018160011615610100020316600290048015611bfd5780601f10611bd257610100808354040283529160200191611bfd565b820191906000526020600020905b815481529060010190602001808311611be057829003601f168201915b505050505090806002018054600181600116156101000203166002900480601f016020809104026020016040519081016040528092919081815260200182805460018160011615610100020316600290048015611c9b5780601f10611c7057610100808354040283529160200191611c9b565b820191906000526020600020905b815481529060010190602001808311611c7e57829003601f168201915b5050505050908060040154908060050160405180606001604052908160008201548152602001600182018054600181600116156101000203166002900480601f016020809104026020016040519081016040528092919081815260200182805460018160011615610100020316600290048015611d595780601f10611d2e57610100808354040283529160200191611d59565b820191906000526020600020905b815481529060010190602001808311611d3c57829003601f168201915b505050505081526020016002820160009054906101000a900460ff1615151515815250509080600801549080600901549080600a018054600181600116156101000203166002900480601f016020809104026020016040519081016040528092919081815260200182805460018160011615610100020316600290048015611e225780601f10611df757610100808354040283529160200191611e22565b820191906000526020600020905b815481529060010190602001808311611e0557829003601f168201915b50505050509080600b0160009054906101000a900460ff169080600c018054600181600116156101000203166002900480601f016020809104026020016040519081016040528092919081815260200182805460018160011615610100020316600290048015611ed35780601f10611ea857610100808354040283529160200191611ed3565b820191906000526020600020905b815481529060010190602001808311611eb657829003601f168201915b50505050509080600d01549080600e0160009054906101000a900460ff1690508c565b6000809054906101000a900473ffffffffffffffffffffffffffffffffffffffff1673ffffffffffffffffffffffffffffffffffffffff163373ffffffffffffffffffffffffffffffffffffffff1614611f85576040517f08c379a0000000000000000000000000000000000000000000000000000000008152600401611f7c906152b1565b60405180910390fd5b600082118015611f9757506002548211155b611fd6576040517f08c379a0000000000000000000000000000000000000000000000000000000008152600401611fcd90615271565b60405180910390fd5b60076000838152602001908152602001600020600e0160009054906101000a900460ff16600381111561200557fe5b60ff1681600381111561201457fe5b60ff1611612057576040517f08c379a000000000000000000000000000000000000000000000000000000000815260040161204e90615251565b60405180910390fd5b8060076000848152602001908152602001600020600e0160006101000a81548160ff0219169083600381111561208957fe5b0217905550600960008381526020019081526020016000206040518060600160405280428152602001600760008681526020019081526020016000206008015481526020018360038111156120da57fe5b81525090806001815401808255809150509060018203906000526020600020906003020160009091929091909150600082015181600001556020820151816001015560408201518160020160006101000a81548160ff0219169083600381111561214057fe5b02179055505050507fdb1adf3543039f5d54bb67ebf175b8ef7ba88285d54355d6c564b2478877a44282826040516121799291906153ae565b60405180910390a15050565b6009602052816000526040600020818154811061219e57fe5b9060005260206000209060030201600091509150508060000154908060010154908060020160009054906101000a900460ff16905083565b6000809054906101000a900473ffffffffffffffffffffffffffffffffffffffff1673ffffffffffffffffffffffffffffffffffffffff163373ffffffffffffffffffffffffffffffffffffffff1614612265576040517f08c379a000000000000000000000000000000000000000000000000000000000815260040161225c906152b1565b60405180910390fd5b6001600081548092919060010191905055506040518060e001604052806001548152602001888152602001878152602001868152602001600081526020018581526020016040518060400160405280868152602001604051806040016040528087815260200186815250815250815250600660006001548152602001908152602001600020600082015181600001556020820151816001019080519060200190612310929190613be5565b50604082015181600201908051906020019061232d929190613be5565b50606082015181600301556080820151816004015560a082015181600501908051906020019061235e929190613be5565b5060c0820151816006016000820151816000019080519060200190612384929190613be5565b5060208201518160010190600261239c929190613cb2565b5050509050507f397bf151e41293935c43045d8da74b84bd4801db62720fc9b2e2e18f02ea4b59600154886040516123d59291906153d7565b60405180910390a150505050505050565b6000809054906101000a900473ffffffffffffffffffffffffffffffffffffffff1673ffffffffffffffffffffffffffffffffffffffff163373ffffffffffffffffffffffffffffffffffffffff1614612475576040517f08c379a000000000000000000000000000000000000000000000000000000000815260040161246c906152b1565b60405180910390fd5b60008090505b865181101561250857600087828151811061249257fe5b60200260200101511180156124bc57506001548782815181106124b157fe5b602002602001015111155b6124fb576040517f08c379a00000000000000000000000000000000000000000000000000000000081526004016124f290615351565b60405180910390fd5b808060010191505061247b565b5060008311801561251b57506004548311155b61255a576040517f08c379a0000000000000000000000000000000000000000000000000000000008152600401612551906152f1565b60405180910390fd5b600260008154809291906001019190505550604051806101a0016040528060025481526020018981526020018881526020018781526020018681526020016008600086815260200190815260200160002060405180606001604052908160008201548152602001600182018054600181600116156101000203166002900480601f0160208091040260200160405190810160405280929190818152602001828054600181600116156101000203166002900480156126595780601f1061262e57610100808354040283529160200191612659565b820191906000526020600020905b81548152906001019060200180831161263c57829003601f168201915b505050505081526020016002820160009054906101000a900460ff16151515158152505081526020018581526020016000815260200183815260200160011515815260200182815260200160008152602001600060038111156126b857fe5b8152506007600060025481526020019081526020016000206000820151816000015560208201518160010190805190602001906126f6929190613be5565b506040820151816002019080519060200190612713929190613be5565b506060820151816003019080519060200190612730929190613c65565b506080820151816004015560a08201518160050160008201518160000155602082015181600101908051906020019061276a929190613be5565b5060408201518160020160006101000a81548160ff021916908315150217905550505060c0820151816008015560e0820151816009015561010082015181600a0190805190602001906127be929190613be5565b5061012082015181600b0160006101000a81548160ff02191690831515021790555061014082015181600c0190805190602001906127fd929190613be5565b5061016082015181600d015561018082015181600e0160006101000a81548160ff0219169083600381111561282e57fe5b02179055509050507f259101de1f87b04b9ee0332ce5e3cc508014004bf283424aead6cd8692f5cf98600254896040516128699291906153d7565b60405180910390a15050505050505050565b60025481565b60008551116128c5576040517f08c379a00000000000000000000000000000000000000000000000000000000081526004016128bc90615291565b60405180910390fd5b6000845111612909576040517f08c379a000000000000000000000000000000000000000000000000000000000815260040161290090615311565b60405180910390fd5b600083511161294d576040517f08c379a0000000000000000000000000000000000000000000000000000000008152600401612944906152d1565b60405180910390fd5b6003600081548092919060010191905055506040518060c0016040528060035481526020018681526020018581526020018460405160200161298f919061515e565b604051602081830303815290604052805190602001208152602001838152602001828152506005600060035481526020019081526020016000206000820151816000015560208201518160010190805190602001906129ef929190613be5565b506040820151816002019080519060200190612a0c929190613be5565b50606082015181600301556080820151816004019080519060200190612a33929190613be5565b5060a0820151816005019080519060200190612a50929190613be5565b509050505050505050565b6000809054906101000a900473ffffffffffffffffffffffffffffffffffffffff1681565b6006602052806000526040600020600091509050806000015490806001018054600181600116156101000203166002900480601f016020809104026020016040519081016040528092919081815260200182805460018160011615610100020316600290048015612b325780601f10612b0757610100808354040283529160200191612b32565b820191906000526020600020905b815481529060010190602001808311612b1557829003601f168201915b505050505090806002018054600181600116156101000203166002900480601f016020809104026020016040519081016040528092919081815260200182805460018160011615610100020316600290048015612bd05780601f10612ba557610100808354040283529160200191612bd0565b820191906000526020600020905b815481529060010190602001808311612bb357829003601f168201915b505050505090806003015490806004015490806005018054600181600116156101000203166002900480601f016020809104026020016040519081016040528092919081815260200182805460018160011615610100020316600290048015612c7a5780601f10612c4f57610100808354040283529160200191612c7a565b820191906000526020600020905b815481529060010190602001808311612c5d57829003601f168201915b50505050509080600601604051806040016040529081600082018054600181600116156101000203166002900480601f016020809104026020016040519081016040528092919081815260200182805460018160011615610100020316600290048015612d285780601f10612cfd57610100808354040283529160200191612d28565b820191906000526020600020905b815481529060010190602001808311612d0b57829003601f168201915b5050505050815260200160018201600280602002604051908101604052809291908260028015612d6d576020028201915b815481526020019060010190808311612d59575b505050505081525050905087565b60606000600354905060008090506000600190505b828111612e165784604051602001612da8919061515e565b6040516020818303038152906040528051906020012060056000838152602001908152602001600020600401604051602001612de49190615175565b604051602081830303815290604052805190602001201415612e095781806001019250505b8080600101915050612d90565b50606081604051908082528060200260200182016040528015612e5357816020015b612e40613cf2565b815260200190600190039081612e385790505b50905060008090506000600190505b8481116131b95786604051602001612e7a919061515e565b6040516020818303038152906040528051906020012060056000838152602001908152602001600020600401604051602001612eb69190615175565b6040516020818303038152906040528051906020012014156131ac57600560008281526020019081526020016000206040518060c001604052908160008201548152602001600182018054600181600116156101000203166002900480601f016020809104026020016040519081016040528092919081815260200182805460018160011615610100020316600290048015612f935780601f10612f6857610100808354040283529160200191612f93565b820191906000526020600020905b815481529060010190602001808311612f7657829003601f168201915b50505050508152602001600282018054600181600116156101000203166002900480601f0160208091040260200160405190810160405280929190818152602001828054600181600116156101000203166002900480156130355780601f1061300a57610100808354040283529160200191613035565b820191906000526020600020905b81548152906001019060200180831161301857829003601f168201915b5050505050815260200160038201548152602001600482018054600181600116156101000203166002900480601f0160208091040260200160405190810160405280929190818152602001828054600181600116156101000203166002900480156130e15780601f106130b6576101008083540402835291602001916130e1565b820191906000526020600020905b8154815290600101906020018083116130c457829003601f168201915b50505050508152602001600582018054600181600116156101000203166002900480601f0160208091040260200160405190810160405280929190818152602001828054600181600116156101000203166002900480156131835780601f1061315857610100808354040283529160200191613183565b820191906000526020600020905b81548152906001019060200180831161316657829003601f168201915b50505050508152505083838151811061319857fe5b602002602001018190525081806001019250505b8080600101915050612e62565b5081945050505050919050565b6008602052806000526040600020600091509050806000015490806001018054600181600116156101000203166002900480601f0160208091040260200160405190810160405280929190818152602001828054600181600116156101000203166002900480156132785780601f1061324d57610100808354040283529160200191613278565b820191906000526020600020905b81548152906001019060200180831161325b57829003601f168201915b5050505050908060020160009054906101000a900460ff16905083565b60045481565b6060600060045490506060816040519080825280602002602001820160405280156132e057816020015b6132cd613d2b565b8152602001906001900390816132c55790505b5090506000600190505b8281116133fd576008600082815260200190815260200160002060405180606001604052908160008201548152602001600182018054600181600116156101000203166002900480601f0160208091040260200160405190810160405280929190818152602001828054600181600116156101000203166002900480156133b25780601f10613387576101008083540402835291602001916133b2565b820191906000526020600020905b81548152906001019060200180831161339557829003601f168201915b505050505081526020016002820160009054906101000a900460ff1615151515815250508260018303815181106133e557fe5b602002602001018190525080806001019150506132ea565b50809250505090565b60015481565b60606000600354905060608160405190808252806020026020018201604052801561345157816020015b61343e613cf2565b8152602001906001900390816134365790505b5090506000600190505b82811161374357600560008281526020019081526020016000206040518060c001604052908160008201548152602001600182018054600181600116156101000203166002900480601f0160208091040260200160405190810160405280929190818152602001828054600181600116156101000203166002900480156135235780601f106134f857610100808354040283529160200191613523565b820191906000526020600020905b81548152906001019060200180831161350657829003601f168201915b50505050508152602001600282018054600181600116156101000203166002900480601f0160208091040260200160405190810160405280929190818152602001828054600181600116156101000203166002900480156135c55780601f1061359a576101008083540402835291602001916135c5565b820191906000526020600020905b8154815290600101906020018083116135a857829003601f168201915b5050505050815260200160038201548152602001600482018054600181600116156101000203166002900480601f0160208091040260200160405190810160405280929190818152602001828054600181600116156101000203166002900480156136715780601f1061364657610100808354040283529160200191613671565b820191906000526020600020905b81548152906001019060200180831161365457829003601f168201915b50505050508152602001600582018054600181600116156101000203166002900480601f0160208091040260200160405190810160405280929190818152602001828054600181600116156101000203166002900480156137135780601f106136e857610100808354040283529160200191613713565b820191906000526020600020905b8154815290600101906020018083116136f657829003601f168201915b50505050508152505082600183038151811061372b57fe5b6020026020010181905250808060010191505061345b565b50809250505090565b60606000600154905060608160405190808252806020026020018201604052801561379157816020015b61377e613d4e565b8152602001906001900390816137765790505b5090506000600190505b828111613ae657600660008281526020019081526020016000206040518060e001604052908160008201548152602001600182018054600181600116156101000203166002900480601f0160208091040260200160405190810160405280929190818152602001828054600181600116156101000203166002900480156138635780601f1061383857610100808354040283529160200191613863565b820191906000526020600020905b81548152906001019060200180831161384657829003601f168201915b50505050508152602001600282018054600181600116156101000203166002900480601f0160208091040260200160405190810160405280929190818152602001828054600181600116156101000203166002900480156139055780601f106138da57610100808354040283529160200191613905565b820191906000526020600020905b8154815290600101906020018083116138e857829003601f168201915b505050505081526020016003820154815260200160048201548152602001600582018054600181600116156101000203166002900480601f0160208091040260200160405190810160405280929190818152602001828054600181600116156101000203166002900480156139bb5780601f10613990576101008083540402835291602001916139bb565b820191906000526020600020905b81548152906001019060200180831161399e57829003601f168201915b5050505050815260200160068201604051806040016040529081600082018054600181600116156101000203166002900480601f016020809104026020016040519081016040528092919081815260200182805460018160011615610100020316600290048015613a6d5780601f10613a4257610100808354040283529160200191613a6d565b820191906000526020600020905b815481529060010190602001808311613a5057829003601f168201915b5050505050815260200160018201600280602002604051908101604052809291908260028015613ab2576020028201915b815481526020019060010190808311613a9e575b50505050508152505081525050826001830381518110613ace57fe5b6020026020010181905250808060010191505061379b565b50809250505090565b604051806101a001604052806000815260200160608152602001606081526020016060815260200160008152602001613b26613d2b565b8152602001600081526020016000815260200160608152602001600015158152602001606081526020016000815260200160006003811115613b6457fe5b81525090565b604051806101a001604052806000815260200160608152602001606081526020016060815260200160008152602001613ba1613d2b565b8152602001600081526020016000815260200160608152602001600015158152602001606081526020016000815260200160006003811115613bdf57fe5b81525090565b828054600181600116156101000203166002900490600052602060002090601f016020900481019282601f10613c2657805160ff1916838001178555613c54565b82800160010185558215613c54579182015b82811115613c53578251825591602001919060010190613c38565b5b509050613c619190613d91565b5090565b828054828255906000526020600020908101928215613ca1579160200282015b82811115613ca0578251825591602001919060010190613c85565b5b509050613cae9190613d91565b5090565b8260028101928215613ce1579160200282015b82811115613ce0578251825591602001919060010190613cc5565b5b509050613cee9190613db6565b5090565b6040518060c001604052806000815260200160608152602001606081526020016000801916815260200160608152602001606081525090565b604051806060016040528060008152602001606081526020016000151581525090565b6040518060e00160405280600081526020016060815260200160608152602001600081526020016000815260200160608152602001613d8b613ddb565b81525090565b613db391905b80821115613daf576000816000905550600101613d97565b5090565b90565b613dd891905b80821115613dd4576000816000905550600101613dbc565b5090565b90565b604051806040016040528060608152602001613df5613dfb565b81525090565b6040518060400160405280600290602082028038833980820191505090505090565b600082601f830112613e2e57600080fd5b8135613e41613e3c8261568e565b615661565b91508181835260208401935060208101905083856020840282011115613e6657600080fd5b60005b83811015613e965781613e7c8882613f1e565b845260208401935060208301925050600181019050613e69565b5050505092915050565b600081359050613eaf8161599e565b92915050565b600081359050613ec4816159ae565b92915050565b600082601f830112613edb57600080fd5b8135613eee613ee9826156b6565b615661565b91508082526020830160208301858383011115613f0a57600080fd5b613f1583828461593e565b50505092915050565b600081359050613f2d816159c5565b92915050565b600060208284031215613f4557600080fd5b600082013567ffffffffffffffff811115613f5f57600080fd5b613f6b84828501613eca565b91505092915050565b600080600080600080600080610100898b031215613f9157600080fd5b600089013567ffffffffffffffff811115613fab57600080fd5b613fb78b828c01613eca565b985050602089013567ffffffffffffffff811115613fd457600080fd5b613fe08b828c01613eca565b975050604089013567ffffffffffffffff811115613ffd57600080fd5b6140098b828c01613e1d565b965050606061401a8b828c01613f1e565b955050608061402b8b828c01613f1e565b94505060a061403c8b828c01613f1e565b93505060c089013567ffffffffffffffff81111561405957600080fd5b6140658b828c01613eca565b92505060e089013567ffffffffffffffff81111561408257600080fd5b61408e8b828c01613eca565b9150509295985092959890939650565b600080600080600060a086880312156140b657600080fd5b600086013567ffffffffffffffff8111156140d057600080fd5b6140dc88828901613eca565b955050602086013567ffffffffffffffff8111156140f957600080fd5b61410588828901613eca565b945050604086013567ffffffffffffffff81111561412257600080fd5b61412e88828901613eca565b935050606086013567ffffffffffffffff81111561414b57600080fd5b61415788828901613eca565b925050608086013567ffffffffffffffff81111561417457600080fd5b61418088828901613eca565b9150509295509295909350565b600080600080600080600060e0888a0312156141a857600080fd5b600088013567ffffffffffffffff8111156141c257600080fd5b6141ce8a828b01613eca565b975050602088013567ffffffffffffffff8111156141eb57600080fd5b6141f78a828b01613eca565b96505060406142088a828b01613f1e565b955050606088013567ffffffffffffffff81111561422557600080fd5b6142318a828b01613eca565b945050608088013567ffffffffffffffff81111561424e57600080fd5b61425a8a828b01613eca565b93505060a061426b8a828b01613eb5565b92505060c061427c8a828b01613eb5565b91505092959891949750929550565b60006020828403121561429d57600080fd5b60006142ab84828501613f1e565b91505092915050565b600080604083850312156142c757600080fd5b60006142d585828601613f1e565b92505060206142e685828601613ea0565b9150509250929050565b600080600080600080600080610100898b03121561430d57600080fd5b600061431b8b828c01613f1e565b985050602089013567ffffffffffffffff81111561433857600080fd5b6143448b828c01613eca565b975050604089013567ffffffffffffffff81111561436157600080fd5b61436d8b828c01613eca565b965050606089013567ffffffffffffffff81111561438a57600080fd5b6143968b828c01613e1d565b95505060806143a78b828c01613f1e565b94505060a06143b88b828c01613f1e565b93505060c089013567ffffffffffffffff8111156143d557600080fd5b6143e18b828c01613eca565b92505060e089013567ffffffffffffffff8111156143fe57600080fd5b61440a8b828c01613eca565b9150509295985092959890939650565b6000806040838503121561442d57600080fd5b600061443b85828601613f1e565b925050602061444c85828601613f1e565b9150509250929050565b6000614462838361483e565b60208301905092915050565b600061447a8383614c97565b905092915050565b600061448e8383614d37565b60608301905092915050565b60006144a68383614eb5565b905092915050565b60006144ba8383614ff1565b905092915050565b60006144ce83836150a2565b905092915050565b60006144e28383615140565b60208301905092915050565b6144f7816158bd565b82525050565b61450681615761565b614510818461581f565b925061451b826156e2565b8060005b8381101561454c5781516145338782614456565b965061453e836157c4565b92505060018101905061451f565b505050505050565b600061455f8261576c565b614569818561582a565b93508360208202850161457b856156ec565b8060005b858110156145b75784840389528151614598858261446e565b94506145a3836157d1565b925060208a0199505060018101905061457f565b50829750879550505050505092915050565b60006145d482615777565b6145de818561583b565b93506145e9836156fc565b8060005b8381101561461a5781516146018882614482565b975061460c836157de565b9250506001810190506145ed565b5085935050505092915050565b600061463282615782565b61463c818561584c565b93508360208202850161464e8561570c565b8060005b8581101561468a578484038952815161466b858261449a565b9450614676836157eb565b925060208a01995050600181019050614652565b50829750879550505050505092915050565b60006146a78261578d565b6146b1818561585d565b9350836020820285016146c38561571c565b8060005b858110156146ff57848403895281516146e085826144ae565b94506146eb836157f8565b925060208a019950506001810190506146c7565b50829750879550505050505092915050565b600061471c82615798565b614726818561586e565b9350836020820285016147388561572c565b8060005b85811015614774578484038952815161475585826144c2565b945061476083615805565b925060208a0199505060018101905061473c565b50829750879550505050505092915050565b6000614791826157a3565b61479b818561587f565b93506147a68361573c565b8060005b838110156147d75781516147be88826144d6565b97506147c983615812565b9250506001810190506147aa565b5085935050505092915050565b6147ed816158cf565b82525050565b6147fc816158cf565b82525050565b61480b816158db565b82525050565b61481a816158db565b82525050565b6148298161592c565b82525050565b6148388161592c565b82525050565b614847816158f8565b82525050565b6000614858826157b9565b61486281856158a1565b935061487281856020860161594d565b61487b81615980565b840191505092915050565b6000614891826157b9565b61489b81856158b2565b93506148ab81856020860161594d565b80840191505092915050565b60006148c2826157ae565b6148cc8185615890565b93506148dc81856020860161594d565b6148e581615980565b840191505092915050565b60006148fb826157ae565b61490581856158a1565b935061491581856020860161594d565b61491e81615980565b840191505092915050565b600081546001811660008114614946576001811461496b576149af565b607f600283041661495781876158b2565b955060ff19831686528086019350506149af565b6002820461497981876158b2565b95506149848561574c565b60005b828110156149a657815481890152600182019150602081019050614987565b82880195505050505b505092915050565b60006149c4600e836158a1565b91507f537461646520696e76616c6964650000000000000000000000000000000000006000830152602082019050919050565b6000614a046012836158a1565b91507f50726f6475697420696e6578697374616e7400000000000000000000000000006000830152602082019050919050565b6000614a446014836158a1565b91507f4e616d652063616e6e6f7420626520656d7074790000000000000000000000006000830152602082019050919050565b6000614a846026836158a1565b91507f4f6e6c7920746865206f776e65722063616e20706572666f726d20746869732060008301527f616374696f6e00000000000000000000000000000000000000000000000000006020830152604082019050919050565b6000614aea6018836158a1565b91507f50617373776f72642063616e6e6f7420626520656d70747900000000000000006000830152602082019050919050565b6000614b2a6013836158a1565b91507f496e76616c69642063617465676f7279204944000000000000000000000000006000830152602082019050919050565b6000614b6a6015836158a1565b91507f456d61696c2063616e6e6f7420626520656d70747900000000000000000000006000830152602082019050919050565b6000614baa601b836158a1565b91507f50726f64756974206f726967696e616c20696e6578697374616e7400000000006000830152602082019050919050565b6000614bea6017836158a1565b91507f496e76616c696420726177206d6174657269616c2049440000000000000000006000830152602082019050919050565b60006060830160008301518482036000860152614c3a82826148b7565b9150506020830151614c4f60208601826144fd565b508091505092915050565b60006060830160008301518482036000860152614c7782826148b7565b9150506020830151614c8c60208601826144fd565b508091505092915050565b6000606083016000830151614caf6000860182615140565b5060208301518482036020860152614cc782826148b7565b9150506040830151614cdc60408601826147e4565b508091505092915050565b6000606083016000830151614cff6000860182615140565b5060208301518482036020860152614d1782826148b7565b9150506040830151614d2c60408601826147e4565b508091505092915050565b606082016000820151614d4d6000850182615140565b506020820151614d606020850182615140565b506040820151614d736040850182614820565b50505050565b60006101a083016000830151614d926000860182615140565b5060208301518482036020860152614daa82826148b7565b91505060408301518482036040860152614dc482826148b7565b91505060608301518482036060860152614dde8282614786565b9150506080830151614df36080860182615140565b5060a083015184820360a0860152614e0b8282614c97565b91505060c0830151614e2060c0860182615140565b5060e0830151614e3360e0860182615140565b50610100830151848203610100860152614e4d82826148b7565b915050610120830151614e646101208601826147e4565b50610140830151848203610140860152614e7e82826148b7565b915050610160830151614e95610160860182615140565b50610180830151614eaa610180860182614820565b508091505092915050565b60006101a083016000830151614ece6000860182615140565b5060208301518482036020860152614ee682826148b7565b91505060408301518482036040860152614f0082826148b7565b91505060608301518482036060860152614f1a8282614786565b9150506080830151614f2f6080860182615140565b5060a083015184820360a0860152614f478282614c97565b91505060c0830151614f5c60c0860182615140565b5060e0830151614f6f60e0860182615140565b50610100830151848203610100860152614f8982826148b7565b915050610120830151614fa06101208601826147e4565b50610140830151848203610140860152614fba82826148b7565b915050610160830151614fd1610160860182615140565b50610180830151614fe6610180860182614820565b508091505092915050565b600060e0830160008301516150096000860182615140565b506020830151848203602086015261502182826148b7565b9150506040830151848203604086015261503b82826148b7565b91505060608301516150506060860182615140565b5060808301516150636080860182615140565b5060a083015184820360a086015261507b82826148b7565b91505060c083015184820360c08601526150958282614c1d565b9150508091505092915050565b600060c0830160008301516150ba6000860182615140565b50602083015184820360208601526150d282826148b7565b915050604083015184820360408601526150ec82826148b7565b91505060608301516151016060860182614802565b506080830151848203608086015261511982826148b7565b91505060a083015184820360a086015261513382826148b7565b9150508091505092915050565b61514981615922565b82525050565b61515881615922565b82525050565b600061516a8284614886565b915081905092915050565b60006151818284614929565b915081905092915050565b60006020820190506151a160008301846144ee565b92915050565b600060208201905081810360008301526151c18184614554565b905092915050565b600060208201905081810360008301526151e381846145c9565b905092915050565b600060208201905081810360008301526152058184614627565b905092915050565b60006020820190508181036000830152615227818461469c565b905092915050565b600060208201905081810360008301526152498184614711565b905092915050565b6000602082019050818103600083015261526a816149b7565b9050919050565b6000602082019050818103600083015261528a816149f7565b9050919050565b600060208201905081810360008301526152aa81614a37565b9050919050565b600060208201905081810360008301526152ca81614a77565b9050919050565b600060208201905081810360008301526152ea81614add565b9050919050565b6000602082019050818103600083015261530a81614b1d565b9050919050565b6000602082019050818103600083015261532a81614b5d565b9050919050565b6000602082019050818103600083015261534a81614b9d565b9050919050565b6000602082019050818103600083015261536a81614bdd565b9050919050565b6000602082019050818103600083015261538b8184614d79565b905092915050565b60006020820190506153a8600083018461514f565b92915050565b60006040820190506153c3600083018561514f565b6153d0602083018461482f565b9392505050565b60006040820190506153ec600083018561514f565b81810360208301526153fe818461484d565b90509392505050565b600060608201905061541c600083018661514f565b818103602083015261542e81856148f0565b905061543d60408301846147f3565b949350505050565b600060c08201905061545a600083018961514f565b818103602083015261546c81886148f0565b9050818103604083015261548081876148f0565b905061548f6060830186614811565b81810360808301526154a181856148f0565b905081810360a08301526154b581846148f0565b9050979650505050505050565b6000610180820190506154d8600083018f61514f565b81810360208301526154ea818e6148f0565b905081810360408301526154fe818d6148f0565b905061550d606083018c61514f565b818103608083015261551f818b614ce7565b905061552e60a083018a61514f565b61553b60c083018961514f565b81810360e083015261554d81886148f0565b905061555d6101008301876147f3565b81810361012083015261557081866148f0565b905061558061014083018561514f565b61558e61016083018461482f565b9d9c50505050505050505050505050565b600060e0820190506155b4600083018a61514f565b81810360208301526155c681896148f0565b905081810360408301526155da81886148f0565b90506155e9606083018761514f565b6155f6608083018661514f565b81810360a083015261560881856148f0565b905081810360c083015261561c8184614c5a565b905098975050505050505050565b600060608201905061563f600083018661514f565b61564c602083018561514f565b615659604083018461482f565b949350505050565b6000604051905081810181811067ffffffffffffffff8211171561568457600080fd5b8060405250919050565b600067ffffffffffffffff8211156156a557600080fd5b602082029050602081019050919050565b600067ffffffffffffffff8211156156cd57600080fd5b601f19601f8301169050602081019050919050565b6000819050919050565b6000819050602082019050919050565b6000819050602082019050919050565b6000819050602082019050919050565b6000819050602082019050919050565b6000819050602082019050919050565b6000819050602082019050919050565b60008190508160005260206000209050919050565b600060029050919050565b600081519050919050565b600081519050919050565b600081519050919050565b600081519050919050565b600081519050919050565b600081519050919050565b600081519050919050565b600081519050919050565b6000602082019050919050565b6000602082019050919050565b6000602082019050919050565b6000602082019050919050565b6000602082019050919050565b6000602082019050919050565b6000602082019050919050565b600081905092915050565b600082825260208201905092915050565b600082825260208201905092915050565b600082825260208201905092915050565b600082825260208201905092915050565b600082825260208201905092915050565b600082825260208201905092915050565b600082825260208201905092915050565b600082825260208201905092915050565b600081905092915050565b60006158c882615902565b9050919050565b60008115159050919050565b6000819050919050565b60008190506158f382615991565b919050565b6000819050919050565b600073ffffffffffffffffffffffffffffffffffffffff82169050919050565b6000819050919050565b6000615937826158e5565b9050919050565b82818337600083830152505050565b60005b8381101561596b578082015181840152602081019050615950565b8381111561597a576000848401525b50505050565b6000601f19601f8301169050919050565b6004811061599b57fe5b50565b600481106159ab57600080fd5b50565b6159b7816158f8565b81146159c257600080fd5b50565b6159ce81615922565b81146159d957600080fd5b5056fea365627a7a7231582028028329ca4c2649eea579a2eb53baa6766b0ee547f0b31e1eb0a898ce42abda6c6578706572696d656e74616cf564736f6c63430005100040",
  "source": "// SPDX-License-Identifier: MIT\r\npragma solidity >=0.4.22 <0.9.0;\r\npragma experimental ABIEncoderV2;\r\n\r\ncontract SupplyChain {\r\n    // Propritaire du contrat\r\n    address public Owner;\r\n\r\n    struct Address {\r\n        string text;                \r\n        int256[2] coordinate;     \r\n    }\r\n\r\n    struct Category {\r\n        uint256 id;\r\n        string title;\r\n        bool isActive;\r\n    }\r\n\r\n    constructor() public {\r\n        Owner = msg.sender;\r\n    }\r\n\r\n    modifier onlyByOwner() {\r\n        require(msg.sender == Owner, \"Only the owner can perform this action\");\r\n        _;\r\n    }\r\n\r\n    enum STAGE {\r\n        Manufacture,\r\n        Distribution,\r\n        Retail,\r\n        Sold\r\n    }\r\n\r\n    uint256 public rmsCtr = 0;\r\n    uint256 public productCtr = 0;\r\n    uint256 public userCount = 0;\r\n    uint256 public categoryCtr = 0;\r\n\r\n    struct Product {\r\n        uint256 id;\r\n        string name;\r\n        string description;\r\n        uint256[] rwIds;\r\n        uint256 price; \r\n        Category category;\r\n        uint256 manufacturerId;\r\n        uint256 distributorId;\r\n        string productAddress;  // Renomm pour viter conflit avec le type address\r\n        bool isActive;\r\n        string image;\r\n        uint256 produitOriginID;\r\n        STAGE stage;\r\n    }\r\n\r\n    struct RW {\r\n        uint256 id;\r\n        string name;\r\n        string description;\r\n        uint256 price;\r\n        uint256 userId;\r\n        string image;\r\n        Address origin; \r\n    }\r\n\r\n    struct User {\r\n        uint256 id;\r\n        string name;\r\n        string email;\r\n        bytes32 passwordHash; \r\n        string role; \r\n        string location;\r\n    }\r\n\r\n    struct ProductHistory {\r\n        uint256 timestamp;\r\n        uint256 handlerId;\r\n        STAGE stage;\r\n    }\r\n\r\n    mapping(uint256 => User) public users;\r\n    mapping(uint256 => RW) public rms;\r\n    mapping(uint256 => Product) public productStock;\r\n    mapping(uint256 => Category) public categories;\r\n    mapping(uint256 => ProductHistory[]) public productHistories;\r\n\r\n    // vnements\r\n    event RawMaterialAdded(uint256 id, string name);\r\n    event ProductAdded(uint256 id, string name);\r\n    event ProductStageUpdated(uint256 id, STAGE newStage);\r\n    event CategoryAdded(uint256 id, string title);\r\n    event RawMaterialUpdated(uint256 id, string name);\r\n    event ProductUpdated(uint256 id, string name);\r\n    event CategoryUpdated(uint256 id, string title);\r\n\r\n    // Ajouter une matire premire\r\n    function addRawMaterial(\r\n        string memory _name,\r\n        string memory _description,\r\n        uint256 _price,\r\n        string memory _image,\r\n        string memory _originText, // Texte de l'adresse\r\n        int256 _latitude,          // Latitude\r\n        int256 _longitude          // Longitude\r\n    ) public onlyByOwner {\r\n        rmsCtr++;\r\n        rms[rmsCtr] = RW({\r\n            id: rmsCtr,\r\n            name: _name,\r\n            description: _description,\r\n            price: _price,\r\n            userId: 0,\r\n            image: _image,\r\n            origin: Address({\r\n                text: _originText,\r\n                coordinate: [_latitude, _longitude] // Remplissage des coordonnes\r\n            })\r\n        });\r\n        emit RawMaterialAdded(rmsCtr, _name);\r\n    }\r\n\r\n    function addProduct(\r\n    string memory _name,\r\n    string memory _description,\r\n    uint256[] memory _rwIds,\r\n    uint256 _price,\r\n    uint256 _manufacturerId,\r\n    uint256 _categoryId,\r\n    string memory _productAddress,\r\n    string memory _image\r\n) public onlyByOwner {\r\n    // Vrification des IDs de matires premires\r\n    for (uint256 i = 0; i < _rwIds.length; i++) {\r\n        require(_rwIds[i] > 0 && _rwIds[i] <= rmsCtr, \"Invalid raw material ID\");\r\n    }\r\n\r\n    // Vrification de la validit de la catgorie\r\n    require(_categoryId > 0 && _categoryId <= categoryCtr, \"Invalid category ID\");\r\n\r\n    // Incrmentation du compteur de produits\r\n    productCtr++;\r\n\r\n    // Cration du produit\r\n    productStock[productCtr] = Product({\r\n        id: productCtr,\r\n        name: _name,\r\n        description: _description,\r\n        rwIds: _rwIds,\r\n        price: _price,\r\n        category: categories[_categoryId],\r\n        manufacturerId: _manufacturerId,\r\n        distributorId: 0,\r\n        productAddress: _productAddress,\r\n        produitOriginID: 0,\r\n        stage: STAGE.Manufacture,\r\n        isActive: true,\r\n        image: _image\r\n    });\r\n\r\n    // mettre l'vnement\r\n    emit ProductAdded(productCtr, _name);\r\n}\r\nfunction duplicateProduct(\r\n    uint256 _originalProductId,\r\n    string memory _name,\r\n    string memory _description,\r\n    uint256[] memory _rwIds,\r\n    uint256 _price,\r\n    uint256 _manufacturerId,\r\n    string memory _productAddress,\r\n    string memory _image\r\n) public onlyByOwner {\r\n    // Vrifier si le produit original existe\r\n    require(\r\n        _originalProductId > 0 && _originalProductId <= productCtr,\r\n        \"Produit original inexistant\"\r\n    );\r\n\r\n    // Rcuprer le produit original\r\n    Product memory originalProduct = productStock[_originalProductId];\r\n\r\n    // Vrification des IDs de matires premires\r\n    for (uint256 i = 0; i < _rwIds.length; i++) {\r\n        require(_rwIds[i] > 0 && _rwIds[i] <= rmsCtr, \"Invalid raw material ID\");\r\n    }\r\n\r\n    // Incrmenter le compteur de produits\r\n    productCtr++;\r\n\r\n    // Crer un nouveau produit bas sur le produit original\r\n    productStock[productCtr] = Product({\r\n        id: productCtr,\r\n        name: _name, \r\n        description: _description,\r\n        rwIds: _rwIds,\r\n        price: _price,\r\n        category: originalProduct.category,\r\n        manufacturerId: _manufacturerId,\r\n        distributorId: 0,\r\n        productAddress: _productAddress,\r\n        produitOriginID: originalProduct.id,\r\n        stage: STAGE.Manufacture,\r\n        isActive: true,\r\n        image: _image\r\n    });\r\n\r\n    // mettre un vnement pour signaler la cration du nouveau produit\r\n    emit ProductAdded(productCtr, _name);\r\n}\r\n\r\n    // Ajouter une catgorie\r\n    function addCategory(string memory _title) public onlyByOwner {\r\n        categoryCtr++;\r\n        categories[categoryCtr] = Category({\r\n            id: categoryCtr,\r\n            title: _title,\r\n            isActive: true\r\n        });\r\n        emit CategoryAdded(categoryCtr, _title);\r\n    }\r\n\r\n    // Ajouter un utilisateur\r\n    function addUser(\r\n        string memory _name,\r\n        string memory _email,\r\n        string memory _password,\r\n        string memory _role,\r\n        string memory _location\r\n    ) public {\r\n        require(bytes(_name).length > 0, \"Name cannot be empty\");\r\n        require(bytes(_email).length > 0, \"Email cannot be empty\");\r\n        require(bytes(_password).length > 0, \"Password cannot be empty\");\r\n        userCount++;\r\n        users[userCount] = User({\r\n            id: userCount,\r\n            name: _name,\r\n            email: _email,\r\n            passwordHash: keccak256(abi.encodePacked(_password)),\r\n            role: _role,\r\n            location:_location\r\n        });\r\n    }\r\n\r\n    // Obtenir un produit par ID\r\n    function getProductById(uint256 _productId) public view returns (Product memory) {\r\n        require(_productId > 0 && _productId <= productCtr, \"Produit inexistant\");\r\n        return productStock[_productId];\r\n    }\r\n\r\n    // Obtenir tous les produits\r\n    function getAllProducts() public view returns (Product[] memory) {\r\n        uint256 count = productCtr; // Nombre total de produits\r\n        Product[] memory allProducts = new Product[](count);\r\n\r\n        for (uint256 i = 1; i <= count; i++) {\r\n            allProducts[i - 1] = productStock[i];\r\n        }\r\n\r\n        return allProducts;\r\n    }\r\n\r\n    // Obtenir toutes les catgories\r\nfunction getAllCategories() public view returns (Category[] memory) {\r\n    uint256 count = categoryCtr; // Nombre total de catgories\r\n    // Crer un tableau dynamique avec le nombre total de catgories\r\n    Category[] memory allCategories = new Category[](count);\r\n\r\n    // Remplir le tableau allCategories avec les catgories\r\n    for (uint256 i = 1; i <= count; i++) {\r\n        allCategories[i - 1] = categories[i]; // Assurez-vous que 'categories' commence  1\r\n    }\r\n\r\n    return allCategories;\r\n}\r\n\r\n\r\n    // Obtenir les utilisateurs par rle\r\n    function getUsersByRole(string memory _role) public view returns (User[] memory) {\r\n        uint256 count = userCount; // Nombre total d'utilisateurs\r\n        uint256 userCountByRole = 0;\r\n\r\n        // Compter le nombre d'utilisateurs avec le rle spcifi\r\n        for (uint256 i = 1; i <= count; i++) {\r\n            if (keccak256(abi.encodePacked(users[i].role)) == keccak256(abi.encodePacked(_role))) {\r\n                userCountByRole++;\r\n            }\r\n        }\r\n\r\n        // Crer un tableau dynamique avec le nombre d'utilisateurs avec ce rle\r\n        User[] memory usersWithRole = new User[](userCountByRole);\r\n        uint256 index = 0;\r\n\r\n        // Ajouter les utilisateurs avec le rle spcifi\r\n        for (uint256 i = 1; i <= count; i++) {\r\n            if (keccak256(abi.encodePacked(users[i].role)) == keccak256(abi.encodePacked(_role))) {\r\n                usersWithRole[index] = users[i];\r\n                index++;\r\n            }\r\n        }\r\n\r\n        return usersWithRole;\r\n    }\r\n\r\n    // Mettre  jour le stade d'un produit\r\n    function updateProductStage(uint256 _productId, STAGE _newStage) public onlyByOwner {\r\n        require(_productId > 0 && _productId <= productCtr, \"Produit inexistant\");\r\n        require(\r\n            uint8(_newStage) > uint8(productStock[_productId].stage),\r\n            \"Stade invalide\"\r\n        );\r\n        productStock[_productId].stage = _newStage;\r\n\r\n        productHistories[_productId].push(\r\n            ProductHistory({\r\n                timestamp: block.timestamp,\r\n                handlerId: productStock[_productId].manufacturerId,\r\n                stage: _newStage\r\n            })\r\n        );\r\n\r\n        emit ProductStageUpdated(_productId, _newStage);\r\n    }\r\n\r\n function getAllRawMaterials() public view returns (RW[] memory) {\r\n        uint256 count = rmsCtr; // Nombre total de matires premires\r\n        // Crer un tableau dynamique avec le nombre total de matires premires\r\n        RW[] memory allRawMaterials = new RW[](count);\r\n        for (uint256 i = 1; i <= count; i++) {\r\n            allRawMaterials[i - 1] = rms[i];\r\n        }\r\n         return allRawMaterials;\r\n    }\r\n// Obtenir tous les utilisateurs\r\nfunction getAllUsers() public view returns (User[] memory) {\r\n    uint256 count = userCount; // Nombre total d'utilisateurs\r\n    User[] memory allUsers = new User[](count);\r\n\r\n    // Remplir le tableau avec tous les utilisateurs\r\n    for (uint256 i = 1; i <= count; i++) {\r\n        allUsers[i - 1] = users[i]; // Assurez-vous que 'users' commence  1\r\n    }\r\n\r\n    return allUsers;\r\n}\r\n// Obtenir l'historique complet d'un produit par son ID\r\nfunction getProductHistory(uint256 _productId) public view returns (ProductHistory[] memory) {\r\n    // Vrification que l'ID du produit est valide\r\n    require(_productId > 0 && _productId <= productCtr, \"Produit inexistant\");\r\n\r\n    // Retourne l'historique du produit\r\n    return productHistories[_productId];\r\n}\r\n\r\n\r\n}\r\n",
  "sourcePath": "C:\\Users\\J.P.M\\Desktop\\supplychain\\contracts\\SupplyChain.sol",
  "compiler": {
    "name": "solc",
    "version": "0.5.16+commit.9c3226ce.Emscripten.clang"
  },
  "schemaVersion": "3.4.16",
  "updatedAt": "2024-12-15T17:58:19.275Z",
  "networkType": "ethereum",
  "devdoc": {
    "methods": {}
  },
  "userdoc": {
    "methods": {}
  }
}