{
  "contractName": "SupplyChain",
  "abi": [
    {
      "inputs": [],
      "payable": false,
      "stateMutability": "nonpayable",
      "type": "constructor"
    },
    {
      "anonymous": false,
      "inputs": [
        {
          "indexed": false,
          "internalType": "uint256",
          "name": "id",
          "type": "uint256"
        },
        {
          "indexed": false,
          "internalType": "string",
          "name": "title",
          "type": "string"
        }
      ],
      "name": "CategoryAdded",
      "type": "event"
    },
    {
      "anonymous": false,
      "inputs": [
        {
          "indexed": false,
          "internalType": "uint256",
          "name": "id",
          "type": "uint256"
        },
        {
          "indexed": false,
          "internalType": "string",
          "name": "title",
          "type": "string"
        }
      ],
      "name": "CategoryUpdated",
      "type": "event"
    },
    {
      "anonymous": false,
      "inputs": [
        {
          "indexed": false,
          "internalType": "uint256",
          "name": "id",
          "type": "uint256"
        },
        {
          "indexed": false,
          "internalType": "string",
          "name": "name",
          "type": "string"
        }
      ],
      "name": "ProductAdded",
      "type": "event"
    },
    {
      "anonymous": false,
      "inputs": [
        {
          "indexed": false,
          "internalType": "uint256",
          "name": "id",
          "type": "uint256"
        },
        {
          "indexed": false,
          "internalType": "enum SupplyChain.STAGE",
          "name": "newStage",
          "type": "uint8"
        }
      ],
      "name": "ProductStageUpdated",
      "type": "event"
    },
    {
      "anonymous": false,
      "inputs": [
        {
          "indexed": false,
          "internalType": "uint256",
          "name": "id",
          "type": "uint256"
        },
        {
          "indexed": false,
          "internalType": "string",
          "name": "name",
          "type": "string"
        }
      ],
      "name": "ProductUpdated",
      "type": "event"
    },
    {
      "anonymous": false,
      "inputs": [
        {
          "indexed": false,
          "internalType": "uint256",
          "name": "id",
          "type": "uint256"
        },
        {
          "indexed": false,
          "internalType": "string",
          "name": "name",
          "type": "string"
        }
      ],
      "name": "RawMaterialAdded",
      "type": "event"
    },
    {
      "anonymous": false,
      "inputs": [
        {
          "indexed": false,
          "internalType": "uint256",
          "name": "id",
          "type": "uint256"
        },
        {
          "indexed": false,
          "internalType": "string",
          "name": "name",
          "type": "string"
        }
      ],
      "name": "RawMaterialUpdated",
      "type": "event"
    },
    {
      "constant": true,
      "inputs": [],
      "name": "Owner",
      "outputs": [
        {
          "internalType": "address",
          "name": "",
          "type": "address"
        }
      ],
      "payable": false,
      "stateMutability": "view",
      "type": "function"
    },
    {
      "constant": true,
      "inputs": [
        {
          "internalType": "uint256",
          "name": "",
          "type": "uint256"
        }
      ],
      "name": "categories",
      "outputs": [
        {
          "internalType": "uint256",
          "name": "id",
          "type": "uint256"
        },
        {
          "internalType": "string",
          "name": "title",
          "type": "string"
        },
        {
          "internalType": "bool",
          "name": "isActive",
          "type": "bool"
        }
      ],
      "payable": false,
      "stateMutability": "view",
      "type": "function"
    },
    {
      "constant": true,
      "inputs": [],
      "name": "categoryCtr",
      "outputs": [
        {
          "internalType": "uint256",
          "name": "",
          "type": "uint256"
        }
      ],
      "payable": false,
      "stateMutability": "view",
      "type": "function"
    },
    {
      "constant": true,
      "inputs": [],
      "name": "productCtr",
      "outputs": [
        {
          "internalType": "uint256",
          "name": "",
          "type": "uint256"
        }
      ],
      "payable": false,
      "stateMutability": "view",
      "type": "function"
    },
    {
      "constant": true,
      "inputs": [
        {
          "internalType": "uint256",
          "name": "",
          "type": "uint256"
        },
        {
          "internalType": "uint256",
          "name": "",
          "type": "uint256"
        }
      ],
      "name": "productHistories",
      "outputs": [
        {
          "internalType": "uint256",
          "name": "timestamp",
          "type": "uint256"
        },
        {
          "internalType": "uint256",
          "name": "handlerId",
          "type": "uint256"
        },
        {
          "internalType": "enum SupplyChain.STAGE",
          "name": "stage",
          "type": "uint8"
        }
      ],
      "payable": false,
      "stateMutability": "view",
      "type": "function"
    },
    {
      "constant": true,
      "inputs": [
        {
          "internalType": "uint256",
          "name": "",
          "type": "uint256"
        }
      ],
      "name": "productStock",
      "outputs": [
        {
          "internalType": "uint256",
          "name": "id",
          "type": "uint256"
        },
        {
          "internalType": "string",
          "name": "name",
          "type": "string"
        },
        {
          "internalType": "string",
          "name": "description",
          "type": "string"
        },
        {
          "internalType": "uint256",
          "name": "price",
          "type": "uint256"
        },
        {
          "components": [
            {
              "internalType": "uint256",
              "name": "id",
              "type": "uint256"
            },
            {
              "internalType": "string",
              "name": "title",
              "type": "string"
            },
            {
              "internalType": "bool",
              "name": "isActive",
              "type": "bool"
            }
          ],
          "internalType": "struct SupplyChain.Category",
          "name": "category",
          "type": "tuple"
        },
        {
          "internalType": "uint256",
          "name": "manufacturerId",
          "type": "uint256"
        },
        {
          "internalType": "uint256",
          "name": "distributorId",
          "type": "uint256"
        },
        {
          "internalType": "uint256",
          "name": "retailerId",
          "type": "uint256"
        },
        {
          "internalType": "bool",
          "name": "isActive",
          "type": "bool"
        },
        {
          "internalType": "string",
          "name": "image",
          "type": "string"
        },
        {
          "internalType": "uint256",
          "name": "currentHandlerId",
          "type": "uint256"
        },
        {
          "internalType": "enum SupplyChain.STAGE",
          "name": "stage",
          "type": "uint8"
        }
      ],
      "payable": false,
      "stateMutability": "view",
      "type": "function"
    },
    {
      "constant": true,
      "inputs": [
        {
          "internalType": "uint256",
          "name": "",
          "type": "uint256"
        }
      ],
      "name": "rms",
      "outputs": [
        {
          "internalType": "uint256",
          "name": "id",
          "type": "uint256"
        },
        {
          "internalType": "string",
          "name": "name",
          "type": "string"
        },
        {
          "internalType": "string",
          "name": "description",
          "type": "string"
        },
        {
          "internalType": "uint256",
          "name": "price",
          "type": "uint256"
        },
        {
          "internalType": "uint256",
          "name": "userId",
          "type": "uint256"
        },
        {
          "internalType": "string",
          "name": "image",
          "type": "string"
        },
        {
          "components": [
            {
              "internalType": "string",
              "name": "text",
              "type": "string"
            },
            {
              "internalType": "int256[2]",
              "name": "coordinate",
              "type": "int256[2]"
            }
          ],
          "internalType": "struct SupplyChain.Address",
          "name": "origin",
          "type": "tuple"
        }
      ],
      "payable": false,
      "stateMutability": "view",
      "type": "function"
    },
    {
      "constant": true,
      "inputs": [],
      "name": "rmsCtr",
      "outputs": [
        {
          "internalType": "uint256",
          "name": "",
          "type": "uint256"
        }
      ],
      "payable": false,
      "stateMutability": "view",
      "type": "function"
    },
    {
      "constant": true,
      "inputs": [],
      "name": "userCount",
      "outputs": [
        {
          "internalType": "uint256",
          "name": "",
          "type": "uint256"
        }
      ],
      "payable": false,
      "stateMutability": "view",
      "type": "function"
    },
    {
      "constant": true,
      "inputs": [
        {
          "internalType": "uint256",
          "name": "",
          "type": "uint256"
        }
      ],
      "name": "users",
      "outputs": [
        {
          "internalType": "uint256",
          "name": "id",
          "type": "uint256"
        },
        {
          "internalType": "string",
          "name": "name",
          "type": "string"
        },
        {
          "internalType": "string",
          "name": "email",
          "type": "string"
        },
        {
          "internalType": "bytes32",
          "name": "passwordHash",
          "type": "bytes32"
        },
        {
          "internalType": "string",
          "name": "role",
          "type": "string"
        }
      ],
      "payable": false,
      "stateMutability": "view",
      "type": "function"
    },
    {
      "constant": false,
      "inputs": [
        {
          "internalType": "string",
          "name": "_name",
          "type": "string"
        },
        {
          "internalType": "string",
          "name": "_description",
          "type": "string"
        },
        {
          "internalType": "uint256",
          "name": "_price",
          "type": "uint256"
        },
        {
          "internalType": "string",
          "name": "_image",
          "type": "string"
        },
        {
          "internalType": "string",
          "name": "_originText",
          "type": "string"
        },
        {
          "internalType": "int256",
          "name": "_latitude",
          "type": "int256"
        },
        {
          "internalType": "int256",
          "name": "_longitude",
          "type": "int256"
        }
      ],
      "name": "addRawMaterial",
      "outputs": [],
      "payable": false,
      "stateMutability": "nonpayable",
      "type": "function"
    },
    {
      "constant": false,
      "inputs": [
        {
          "internalType": "string",
          "name": "_title",
          "type": "string"
        }
      ],
      "name": "addCategory",
      "outputs": [],
      "payable": false,
      "stateMutability": "nonpayable",
      "type": "function"
    },
    {
      "constant": false,
      "inputs": [
        {
          "internalType": "string",
          "name": "_name",
          "type": "string"
        },
        {
          "internalType": "string",
          "name": "_email",
          "type": "string"
        },
        {
          "internalType": "string",
          "name": "_password",
          "type": "string"
        },
        {
          "internalType": "string",
          "name": "_role",
          "type": "string"
        }
      ],
      "name": "addUser",
      "outputs": [],
      "payable": false,
      "stateMutability": "nonpayable",
      "type": "function"
    },
    {
      "constant": false,
      "inputs": [
        {
          "internalType": "string",
          "name": "_name",
          "type": "string"
        },
        {
          "internalType": "string",
          "name": "_description",
          "type": "string"
        },
        {
          "internalType": "uint256[]",
          "name": "_rwIds",
          "type": "uint256[]"
        },
        {
          "internalType": "uint256",
          "name": "_manufacturerId",
          "type": "uint256"
        },
        {
          "internalType": "uint256",
          "name": "_categoryId",
          "type": "uint256"
        },
        {
          "internalType": "uint256",
          "name": "_price",
          "type": "uint256"
        },
        {
          "internalType": "string",
          "name": "_image",
          "type": "string"
        }
      ],
      "name": "addProduct",
      "outputs": [],
      "payable": false,
      "stateMutability": "nonpayable",
      "type": "function"
    },
    {
      "constant": true,
      "inputs": [
        {
          "internalType": "uint256",
          "name": "_productId",
          "type": "uint256"
        }
      ],
      "name": "getProductById",
      "outputs": [
        {
          "components": [
            {
              "internalType": "uint256",
              "name": "id",
              "type": "uint256"
            },
            {
              "internalType": "string",
              "name": "name",
              "type": "string"
            },
            {
              "internalType": "string",
              "name": "description",
              "type": "string"
            },
            {
              "internalType": "uint256[]",
              "name": "rwIds",
              "type": "uint256[]"
            },
            {
              "internalType": "uint256",
              "name": "price",
              "type": "uint256"
            },
            {
              "components": [
                {
                  "internalType": "uint256",
                  "name": "id",
                  "type": "uint256"
                },
                {
                  "internalType": "string",
                  "name": "title",
                  "type": "string"
                },
                {
                  "internalType": "bool",
                  "name": "isActive",
                  "type": "bool"
                }
              ],
              "internalType": "struct SupplyChain.Category",
              "name": "category",
              "type": "tuple"
            },
            {
              "internalType": "uint256",
              "name": "manufacturerId",
              "type": "uint256"
            },
            {
              "internalType": "uint256",
              "name": "distributorId",
              "type": "uint256"
            },
            {
              "internalType": "uint256",
              "name": "retailerId",
              "type": "uint256"
            },
            {
              "internalType": "bool",
              "name": "isActive",
              "type": "bool"
            },
            {
              "internalType": "string",
              "name": "image",
              "type": "string"
            },
            {
              "internalType": "uint256",
              "name": "currentHandlerId",
              "type": "uint256"
            },
            {
              "internalType": "enum SupplyChain.STAGE",
              "name": "stage",
              "type": "uint8"
            }
          ],
          "internalType": "struct SupplyChain.Product",
          "name": "",
          "type": "tuple"
        }
      ],
      "payable": false,
      "stateMutability": "view",
      "type": "function"
    },
    {
      "constant": true,
      "inputs": [],
      "name": "getAllProducts",
      "outputs": [
        {
          "components": [
            {
              "internalType": "uint256",
              "name": "id",
              "type": "uint256"
            },
            {
              "internalType": "string",
              "name": "name",
              "type": "string"
            },
            {
              "internalType": "string",
              "name": "description",
              "type": "string"
            },
            {
              "internalType": "uint256[]",
              "name": "rwIds",
              "type": "uint256[]"
            },
            {
              "internalType": "uint256",
              "name": "price",
              "type": "uint256"
            },
            {
              "components": [
                {
                  "internalType": "uint256",
                  "name": "id",
                  "type": "uint256"
                },
                {
                  "internalType": "string",
                  "name": "title",
                  "type": "string"
                },
                {
                  "internalType": "bool",
                  "name": "isActive",
                  "type": "bool"
                }
              ],
              "internalType": "struct SupplyChain.Category",
              "name": "category",
              "type": "tuple"
            },
            {
              "internalType": "uint256",
              "name": "manufacturerId",
              "type": "uint256"
            },
            {
              "internalType": "uint256",
              "name": "distributorId",
              "type": "uint256"
            },
            {
              "internalType": "uint256",
              "name": "retailerId",
              "type": "uint256"
            },
            {
              "internalType": "bool",
              "name": "isActive",
              "type": "bool"
            },
            {
              "internalType": "string",
              "name": "image",
              "type": "string"
            },
            {
              "internalType": "uint256",
              "name": "currentHandlerId",
              "type": "uint256"
            },
            {
              "internalType": "enum SupplyChain.STAGE",
              "name": "stage",
              "type": "uint8"
            }
          ],
          "internalType": "struct SupplyChain.Product[]",
          "name": "",
          "type": "tuple[]"
        }
      ],
      "payable": false,
      "stateMutability": "view",
      "type": "function"
    },
    {
      "constant": true,
      "inputs": [],
      "name": "getAllCategories",
      "outputs": [
        {
          "components": [
            {
              "internalType": "uint256",
              "name": "id",
              "type": "uint256"
            },
            {
              "internalType": "string",
              "name": "title",
              "type": "string"
            },
            {
              "internalType": "bool",
              "name": "isActive",
              "type": "bool"
            }
          ],
          "internalType": "struct SupplyChain.Category[]",
          "name": "",
          "type": "tuple[]"
        }
      ],
      "payable": false,
      "stateMutability": "view",
      "type": "function"
    },
    {
      "constant": true,
      "inputs": [
        {
          "internalType": "string",
          "name": "_role",
          "type": "string"
        }
      ],
      "name": "getUsersByRole",
      "outputs": [
        {
          "components": [
            {
              "internalType": "uint256",
              "name": "id",
              "type": "uint256"
            },
            {
              "internalType": "string",
              "name": "name",
              "type": "string"
            },
            {
              "internalType": "string",
              "name": "email",
              "type": "string"
            },
            {
              "internalType": "bytes32",
              "name": "passwordHash",
              "type": "bytes32"
            },
            {
              "internalType": "string",
              "name": "role",
              "type": "string"
            }
          ],
          "internalType": "struct SupplyChain.User[]",
          "name": "",
          "type": "tuple[]"
        }
      ],
      "payable": false,
      "stateMutability": "view",
      "type": "function"
    },
    {
      "constant": false,
      "inputs": [
        {
          "internalType": "uint256",
          "name": "_productId",
          "type": "uint256"
        },
        {
          "internalType": "enum SupplyChain.STAGE",
          "name": "_newStage",
          "type": "uint8"
        }
      ],
      "name": "updateProductStage",
      "outputs": [],
      "payable": false,
      "stateMutability": "nonpayable",
      "type": "function"
    },
    {
      "constant": true,
      "inputs": [],
      "name": "getAllRawMaterials",
      "outputs": [
        {
          "components": [
            {
              "internalType": "uint256",
              "name": "id",
              "type": "uint256"
            },
            {
              "internalType": "string",
              "name": "name",
              "type": "string"
            },
            {
              "internalType": "string",
              "name": "description",
              "type": "string"
            },
            {
              "internalType": "uint256",
              "name": "price",
              "type": "uint256"
            },
            {
              "internalType": "uint256",
              "name": "userId",
              "type": "uint256"
            },
            {
              "internalType": "string",
              "name": "image",
              "type": "string"
            },
            {
              "components": [
                {
                  "internalType": "string",
                  "name": "text",
                  "type": "string"
                },
                {
                  "internalType": "int256[2]",
                  "name": "coordinate",
                  "type": "int256[2]"
                }
              ],
              "internalType": "struct SupplyChain.Address",
              "name": "origin",
              "type": "tuple"
            }
          ],
          "internalType": "struct SupplyChain.RW[]",
          "name": "",
          "type": "tuple[]"
        }
      ],
      "payable": false,
      "stateMutability": "view",
      "type": "function"
    },
    {
      "constant": true,
      "inputs": [],
      "name": "getAllUsers",
      "outputs": [
        {
          "components": [
            {
              "internalType": "uint256",
              "name": "id",
              "type": "uint256"
            },
            {
              "internalType": "string",
              "name": "name",
              "type": "string"
            },
            {
              "internalType": "string",
              "name": "email",
              "type": "string"
            },
            {
              "internalType": "bytes32",
              "name": "passwordHash",
              "type": "bytes32"
            },
            {
              "internalType": "string",
              "name": "role",
              "type": "string"
            }
          ],
          "internalType": "struct SupplyChain.User[]",
          "name": "",
          "type": "tuple[]"
        }
      ],
      "payable": false,
      "stateMutability": "view",
      "type": "function"
    }
  ],
  "bytecode": "0x6080604052600060015560006002556000600355600060045534801561002457600080fd5b50336000806101000a81548173ffffffffffffffffffffffffffffffffffffffff021916908373ffffffffffffffffffffffffffffffffffffffff16021790555061497f806100746000396000f3fe608060405234801561001057600080fd5b50600436106101375760003560e01c806395967805116100b8578063c6cdbe5e1161007c578063c6cdbe5e14610377578063cde65721146103a9578063dadd0a57146103c7578063dd286398146103e5578063e2842d7914610403578063fac0992d1461042157610137565b806395967805146102b9578063aaea34aa146102d5578063b4a99a4e146102f3578063c08c1cec14610311578063c0efbb821461034757610137565b80633f70c2b4116100ff5780633f70c2b4146101e45780635eba8401146102145780636a13931d1461024f5780636b4291cf1461026b5780637f666acb1461028757610137565b806301cda3ac1461013c57806302ee3a521461015857806307973ccf146101765780632e0dcbf714610194578063365b98b2146101b0575b600080fd5b6101566004803603610151919081019061330b565b61043f565b005b6101606105f5565b60405161016d91906141c0565b60405180910390f35b61017e610a37565b60405161018b9190614348565b60405180910390f35b6101ae60048036036101a991908101906131cc565b610a3d565b005b6101ca60048036036101c591908101906134cc565b610b9b565b6040516101db9594939291906143fa565b60405180910390f35b6101fe60048036036101f991908101906134cc565b610d99565b60405161020b9190614326565b60405180910390f35b61022e600480360361022991908101906134cc565b6111b5565b6040516102469c9b9a99989796959493929190614462565b60405180910390f35b610269600480360361026491908101906134f5565b6114c8565b005b6102856004803603610280919081019061320d565b611757565b005b6102a1600480360361029c9190810190613531565b611bd8565b6040516102b0939291906145c3565b60405180910390f35b6102d360048036036102ce91908101906133ce565b611c29565b005b6102dd611e39565b6040516102ea9190614348565b60405180910390f35b6102fb611e3f565b6040516103089190614183565b60405180910390f35b61032b600480360361032691908101906134cc565b611e64565b60405161033e9796959493929190614538565b60405180910390f35b610361600480360361035c91908101906131cc565b61215f565b60405161036e9190614204565b60405180910390f35b610391600480360361038c91908101906134cc565b612508565b6040516103a0939291906143bc565b60405180910390f35b6103b16125d7565b6040516103be9190614348565b60405180910390f35b6103cf6125dd565b6040516103dc919061419e565b60405180910390f35b6103ed612748565b6040516103fa9190614348565b60405180910390f35b61040b61274e565b6040516104189190614204565b60405180910390f35b6104296129ec565b60405161043691906141e2565b60405180910390f35b6000845111610483576040517f08c379a000000000000000000000000000000000000000000000000000000000815260040161047a90614266565b60405180910390fd5b60008351116104c7576040517f08c379a00000000000000000000000000000000000000000000000000000000081526004016104be906142e6565b60405180910390fd5b600082511161050b576040517f08c379a0000000000000000000000000000000000000000000000000000000008152600401610502906142a6565b60405180910390fd5b6003600081548092919060010191905055506040518060a0016040528060035481526020018581526020018481526020018360405160200161054d9190614155565b604051602081830303815290604052805190602001208152602001828152506005600060035481526020019081526020016000206000820151816000015560208201518160010190805190602001906105a7929190612d8f565b5060408201518160020190805190602001906105c4929190612d8f565b506060820151816003015560808201518160040190805190602001906105eb929190612d8f565b5090505050505050565b60606000600254905060608160405190808252806020026020018201604052801561063a57816020015b610627612e0f565b81526020019060019003908161061f5790505b5090506000600190505b828111610a2e5760076000828152602001908152602001600020604051806101a001604052908160008201548152602001600182018054600181600116156101000203166002900480601f01602080910402602001604051908101604052809291908181526020018280546001816001161561010002031660029004801561070d5780601f106106e25761010080835404028352916020019161070d565b820191906000526020600020905b8154815290600101906020018083116106f057829003601f168201915b50505050508152602001600282018054600181600116156101000203166002900480601f0160208091040260200160405190810160405280929190818152602001828054600181600116156101000203166002900480156107af5780601f10610784576101008083540402835291602001916107af565b820191906000526020600020905b81548152906001019060200180831161079257829003601f168201915b505050505081526020016003820180548060200260200160405190810160405280929190818152602001828054801561080757602002820191906000526020600020905b8154815260200190600101908083116107f3575b50505050508152602001600482015481526020016005820160405180606001604052908160008201548152602001600182018054600181600116156101000203166002900480601f0160208091040260200160405190810160405280929190818152602001828054600181600116156101000203166002900480156108cd5780601f106108a2576101008083540402835291602001916108cd565b820191906000526020600020905b8154815290600101906020018083116108b057829003601f168201915b505050505081526020016002820160009054906101000a900460ff16151515158152505081526020016008820154815260200160098201548152602001600a8201548152602001600b820160009054906101000a900460ff16151515158152602001600c82018054600181600116156101000203166002900480601f0160208091040260200160405190810160405280929190818152602001828054600181600116156101000203166002900480156109c75780601f1061099c576101008083540402835291602001916109c7565b820191906000526020600020905b8154815290600101906020018083116109aa57829003601f168201915b50505050508152602001600d8201548152602001600e820160009054906101000a900460ff1660038111156109f857fe5b6003811115610a0357fe5b81525050826001830381518110610a1657fe5b60200260200101819052508080600101915050610644565b50809250505090565b60035481565b6000809054906101000a900473ffffffffffffffffffffffffffffffffffffffff1673ffffffffffffffffffffffffffffffffffffffff163373ffffffffffffffffffffffffffffffffffffffff1614610acc576040517f08c379a0000000000000000000000000000000000000000000000000000000008152600401610ac390614286565b60405180910390fd5b6004600081548092919060010191905055506040518060600160405280600454815260200182815260200160011515815250600860006004548152602001908152602001600020600082015181600001556020820151816001019080519060200190610b39929190612d8f565b5060408201518160020160006101000a81548160ff0219169083151502179055509050507f5bae3f75753ef0a1c0ea0f6c51d7b43a4b8d116572b8b7b5cb771f9ad32d4ae560045482604051610b9092919061438c565b60405180910390a150565b6005602052806000526040600020600091509050806000015490806001018054600181600116156101000203166002900480601f016020809104026020016040519081016040528092919081815260200182805460018160011615610100020316600290048015610c4d5780601f10610c2257610100808354040283529160200191610c4d565b820191906000526020600020905b815481529060010190602001808311610c3057829003601f168201915b505050505090806002018054600181600116156101000203166002900480601f016020809104026020016040519081016040528092919081815260200182805460018160011615610100020316600290048015610ceb5780601f10610cc057610100808354040283529160200191610ceb565b820191906000526020600020905b815481529060010190602001808311610cce57829003601f168201915b505050505090806003015490806004018054600181600116156101000203166002900480601f016020809104026020016040519081016040528092919081815260200182805460018160011615610100020316600290048015610d8f5780601f10610d6457610100808354040283529160200191610d8f565b820191906000526020600020905b815481529060010190602001808311610d7257829003601f168201915b5050505050905085565b610da1612e8a565b600082118015610db357506002548211155b610df2576040517f08c379a0000000000000000000000000000000000000000000000000000000008152600401610de990614246565b60405180910390fd5b60076000838152602001908152602001600020604051806101a001604052908160008201548152602001600182018054600181600116156101000203166002900480601f016020809104026020016040519081016040528092919081815260200182805460018160011615610100020316600290048015610eb45780601f10610e8957610100808354040283529160200191610eb4565b820191906000526020600020905b815481529060010190602001808311610e9757829003601f168201915b50505050508152602001600282018054600181600116156101000203166002900480601f016020809104026020016040519081016040528092919081815260200182805460018160011615610100020316600290048015610f565780601f10610f2b57610100808354040283529160200191610f56565b820191906000526020600020905b815481529060010190602001808311610f3957829003601f168201915b5050505050815260200160038201805480602002602001604051908101604052809291908181526020018280548015610fae57602002820191906000526020600020905b815481526020019060010190808311610f9a575b50505050508152602001600482015481526020016005820160405180606001604052908160008201548152602001600182018054600181600116156101000203166002900480601f0160208091040260200160405190810160405280929190818152602001828054600181600116156101000203166002900480156110745780601f1061104957610100808354040283529160200191611074565b820191906000526020600020905b81548152906001019060200180831161105757829003601f168201915b505050505081526020016002820160009054906101000a900460ff16151515158152505081526020016008820154815260200160098201548152602001600a8201548152602001600b820160009054906101000a900460ff16151515158152602001600c82018054600181600116156101000203166002900480601f01602080910402602001604051908101604052809291908181526020018280546001816001161561010002031660029004801561116e5780601f106111435761010080835404028352916020019161116e565b820191906000526020600020905b81548152906001019060200180831161115157829003601f168201915b50505050508152602001600d8201548152602001600e820160009054906101000a900460ff16600381111561119f57fe5b60038111156111aa57fe5b815250509050919050565b6007602052806000526040600020600091509050806000015490806001018054600181600116156101000203166002900480601f0160208091040260200160405190810160405280929190818152602001828054600181600116156101000203166002900480156112675780601f1061123c57610100808354040283529160200191611267565b820191906000526020600020905b81548152906001019060200180831161124a57829003601f168201915b505050505090806002018054600181600116156101000203166002900480601f0160208091040260200160405190810160405280929190818152602001828054600181600116156101000203166002900480156113055780601f106112da57610100808354040283529160200191611305565b820191906000526020600020905b8154815290600101906020018083116112e857829003601f168201915b5050505050908060040154908060050160405180606001604052908160008201548152602001600182018054600181600116156101000203166002900480601f0160208091040260200160405190810160405280929190818152602001828054600181600116156101000203166002900480156113c35780601f10611398576101008083540402835291602001916113c3565b820191906000526020600020905b8154815290600101906020018083116113a657829003601f168201915b505050505081526020016002820160009054906101000a900460ff1615151515815250509080600801549080600901549080600a01549080600b0160009054906101000a900460ff169080600c018054600181600116156101000203166002900480601f0160208091040260200160405190810160405280929190818152602001828054600181600116156101000203166002900480156114a55780601f1061147a576101008083540402835291602001916114a5565b820191906000526020600020905b81548152906001019060200180831161148857829003601f168201915b50505050509080600d01549080600e0160009054906101000a900460ff1690508c565b6000809054906101000a900473ffffffffffffffffffffffffffffffffffffffff1673ffffffffffffffffffffffffffffffffffffffff163373ffffffffffffffffffffffffffffffffffffffff1614611557576040517f08c379a000000000000000000000000000000000000000000000000000000000815260040161154e90614286565b60405180910390fd5b60008211801561156957506002548211155b6115a8576040517f08c379a000000000000000000000000000000000000000000000000000000000815260040161159f90614246565b60405180910390fd5b60076000838152602001908152602001600020600e0160009054906101000a900460ff1660038111156115d757fe5b60ff168160038111156115e657fe5b60ff1611611629576040517f08c379a000000000000000000000000000000000000000000000000000000000815260040161162090614226565b60405180910390fd5b8060076000848152602001908152602001600020600e0160006101000a81548160ff0219169083600381111561165b57fe5b021790555060096000838152602001908152602001600020604051806060016040528042815260200160076000868152602001908152602001600020600d015481526020018360038111156116ac57fe5b81525090806001815401808255809150509060018203906000526020600020906003020160009091929091909150600082015181600001556020820151816001015560408201518160020160006101000a81548160ff0219169083600381111561171257fe5b02179055505050507fdb1adf3543039f5d54bb67ebf175b8ef7ba88285d54355d6c564b2478877a442828260405161174b929190614363565b60405180910390a15050565b6000809054906101000a900473ffffffffffffffffffffffffffffffffffffffff1673ffffffffffffffffffffffffffffffffffffffff163373ffffffffffffffffffffffffffffffffffffffff16146117e6576040517f08c379a00000000000000000000000000000000000000000000000000000000081526004016117dd90614286565b60405180910390fd5b60008090505b855181101561187957600086828151811061180357fe5b602002602001015111801561182d575060015486828151811061182257fe5b602002602001015111155b61186c576040517f08c379a000000000000000000000000000000000000000000000000000000000815260040161186390614306565b60405180910390fd5b80806001019150506117ec565b5060008311801561188c57506004548311155b6118cb576040517f08c379a00000000000000000000000000000000000000000000000000000000081526004016118c2906142c6565b60405180910390fd5b600260008154809291906001019190505550604051806101a0016040528060025481526020018881526020018781526020018681526020018381526020016008600086815260200190815260200160002060405180606001604052908160008201548152602001600182018054600181600116156101000203166002900480601f0160208091040260200160405190810160405280929190818152602001828054600181600116156101000203166002900480156119ca5780601f1061199f576101008083540402835291602001916119ca565b820191906000526020600020905b8154815290600101906020018083116119ad57829003601f168201915b505050505081526020016002820160009054906101000a900460ff1615151515815250508152602001858152602001600081526020016000815260200160011515815260200182815260200185815260200160006003811115611a2957fe5b815250600760006002548152602001908152602001600020600082015181600001556020820151816001019080519060200190611a67929190612d8f565b506040820151816002019080519060200190611a84929190612d8f565b506060820151816003019080519060200190611aa1929190612f05565b506080820151816004015560a082015181600501600082015181600001556020820151816001019080519060200190611adb929190612d8f565b5060408201518160020160006101000a81548160ff021916908315150217905550505060c0820151816008015560e0820151816009015561010082015181600a015561012082015181600b0160006101000a81548160ff02191690831515021790555061014082015181600c019080519060200190611b5b929190612d8f565b5061016082015181600d015561018082015181600e0160006101000a81548160ff02191690836003811115611b8c57fe5b02179055509050507f259101de1f87b04b9ee0332ce5e3cc508014004bf283424aead6cd8692f5cf9860025488604051611bc792919061438c565b60405180910390a150505050505050565b60096020528160005260406000208181548110611bf157fe5b9060005260206000209060030201600091509150508060000154908060010154908060020160009054906101000a900460ff16905083565b6000809054906101000a900473ffffffffffffffffffffffffffffffffffffffff1673ffffffffffffffffffffffffffffffffffffffff163373ffffffffffffffffffffffffffffffffffffffff1614611cb8576040517f08c379a0000000000000000000000000000000000000000000000000000000008152600401611caf90614286565b60405180910390fd5b6001600081548092919060010191905055506040518060e001604052806001548152602001888152602001878152602001868152602001600081526020018581526020016040518060400160405280868152602001604051806040016040528087815260200186815250815250815250600660006001548152602001908152602001600020600082015181600001556020820151816001019080519060200190611d63929190612d8f565b506040820151816002019080519060200190611d80929190612d8f565b50606082015181600301556080820151816004015560a0820151816005019080519060200190611db1929190612d8f565b5060c0820151816006016000820151816000019080519060200190611dd7929190612d8f565b50602082015181600101906002611def929190612f52565b5050509050507f397bf151e41293935c43045d8da74b84bd4801db62720fc9b2e2e18f02ea4b5960015488604051611e2892919061438c565b60405180910390a150505050505050565b60025481565b6000809054906101000a900473ffffffffffffffffffffffffffffffffffffffff1681565b6006602052806000526040600020600091509050806000015490806001018054600181600116156101000203166002900480601f016020809104026020016040519081016040528092919081815260200182805460018160011615610100020316600290048015611f165780601f10611eeb57610100808354040283529160200191611f16565b820191906000526020600020905b815481529060010190602001808311611ef957829003601f168201915b505050505090806002018054600181600116156101000203166002900480601f016020809104026020016040519081016040528092919081815260200182805460018160011615610100020316600290048015611fb45780601f10611f8957610100808354040283529160200191611fb4565b820191906000526020600020905b815481529060010190602001808311611f9757829003601f168201915b505050505090806003015490806004015490806005018054600181600116156101000203166002900480601f01602080910402602001604051908101604052809291908181526020018280546001816001161561010002031660029004801561205e5780601f106120335761010080835404028352916020019161205e565b820191906000526020600020905b81548152906001019060200180831161204157829003601f168201915b50505050509080600601604051806040016040529081600082018054600181600116156101000203166002900480601f01602080910402602001604051908101604052809291908181526020018280546001816001161561010002031660029004801561210c5780601f106120e15761010080835404028352916020019161210c565b820191906000526020600020905b8154815290600101906020018083116120ef57829003601f168201915b5050505050815260200160018201600280602002604051908101604052809291908260028015612151576020028201915b81548152602001906001019080831161213d575b505050505081525050905087565b60606000600354905060008090506000600190505b8281116121fa578460405160200161218c9190614155565b60405160208183030381529060405280519060200120600560008381526020019081526020016000206004016040516020016121c8919061416c565b6040516020818303038152906040528051906020012014156121ed5781806001019250505b8080600101915050612174565b5060608160405190808252806020026020018201604052801561223757816020015b612224612f92565b81526020019060019003908161221c5790505b50905060008090506000600190505b8481116124fb578660405160200161225e9190614155565b604051602081830303815290604052805190602001206005600083815260200190815260200160002060040160405160200161229a919061416c565b6040516020818303038152906040528051906020012014156124ee57600560008281526020019081526020016000206040518060a001604052908160008201548152602001600182018054600181600116156101000203166002900480601f0160208091040260200160405190810160405280929190818152602001828054600181600116156101000203166002900480156123775780601f1061234c57610100808354040283529160200191612377565b820191906000526020600020905b81548152906001019060200180831161235a57829003601f168201915b50505050508152602001600282018054600181600116156101000203166002900480601f0160208091040260200160405190810160405280929190818152602001828054600181600116156101000203166002900480156124195780601f106123ee57610100808354040283529160200191612419565b820191906000526020600020905b8154815290600101906020018083116123fc57829003601f168201915b5050505050815260200160038201548152602001600482018054600181600116156101000203166002900480601f0160208091040260200160405190810160405280929190818152602001828054600181600116156101000203166002900480156124c55780601f1061249a576101008083540402835291602001916124c5565b820191906000526020600020905b8154815290600101906020018083116124a857829003601f168201915b5050505050815250508383815181106124da57fe5b602002602001018190525081806001019250505b8080600101915050612246565b5081945050505050919050565b6008602052806000526040600020600091509050806000015490806001018054600181600116156101000203166002900480601f0160208091040260200160405190810160405280929190818152602001828054600181600116156101000203166002900480156125ba5780601f1061258f576101008083540402835291602001916125ba565b820191906000526020600020905b81548152906001019060200180831161259d57829003601f168201915b5050505050908060020160009054906101000a900460ff16905083565b60045481565b60606000600454905060608160405190808252806020026020018201604052801561262257816020015b61260f612fc4565b8152602001906001900390816126075790505b5090506000600190505b82811161273f576008600082815260200190815260200160002060405180606001604052908160008201548152602001600182018054600181600116156101000203166002900480601f0160208091040260200160405190810160405280929190818152602001828054600181600116156101000203166002900480156126f45780601f106126c9576101008083540402835291602001916126f4565b820191906000526020600020905b8154815290600101906020018083116126d757829003601f168201915b505050505081526020016002820160009054906101000a900460ff16151515158152505082600183038151811061272757fe5b6020026020010181905250808060010191505061262c565b50809250505090565b60015481565b60606000600354905060608160405190808252806020026020018201604052801561279357816020015b612780612f92565b8152602001906001900390816127785790505b5090506000600190505b8281116129e357600560008281526020019081526020016000206040518060a001604052908160008201548152602001600182018054600181600116156101000203166002900480601f0160208091040260200160405190810160405280929190818152602001828054600181600116156101000203166002900480156128655780601f1061283a57610100808354040283529160200191612865565b820191906000526020600020905b81548152906001019060200180831161284857829003601f168201915b50505050508152602001600282018054600181600116156101000203166002900480601f0160208091040260200160405190810160405280929190818152602001828054600181600116156101000203166002900480156129075780601f106128dc57610100808354040283529160200191612907565b820191906000526020600020905b8154815290600101906020018083116128ea57829003601f168201915b5050505050815260200160038201548152602001600482018054600181600116156101000203166002900480601f0160208091040260200160405190810160405280929190818152602001828054600181600116156101000203166002900480156129b35780601f10612988576101008083540402835291602001916129b3565b820191906000526020600020905b81548152906001019060200180831161299657829003601f168201915b5050505050815250508260018303815181106129cb57fe5b6020026020010181905250808060010191505061279d565b50809250505090565b606060006001549050606081604051908082528060200260200182016040528015612a3157816020015b612a1e612fe7565b815260200190600190039081612a165790505b5090506000600190505b828111612d8657600660008281526020019081526020016000206040518060e001604052908160008201548152602001600182018054600181600116156101000203166002900480601f016020809104026020016040519081016040528092919081815260200182805460018160011615610100020316600290048015612b035780601f10612ad857610100808354040283529160200191612b03565b820191906000526020600020905b815481529060010190602001808311612ae657829003601f168201915b50505050508152602001600282018054600181600116156101000203166002900480601f016020809104026020016040519081016040528092919081815260200182805460018160011615610100020316600290048015612ba55780601f10612b7a57610100808354040283529160200191612ba5565b820191906000526020600020905b815481529060010190602001808311612b8857829003601f168201915b505050505081526020016003820154815260200160048201548152602001600582018054600181600116156101000203166002900480601f016020809104026020016040519081016040528092919081815260200182805460018160011615610100020316600290048015612c5b5780601f10612c3057610100808354040283529160200191612c5b565b820191906000526020600020905b815481529060010190602001808311612c3e57829003601f168201915b5050505050815260200160068201604051806040016040529081600082018054600181600116156101000203166002900480601f016020809104026020016040519081016040528092919081815260200182805460018160011615610100020316600290048015612d0d5780601f10612ce257610100808354040283529160200191612d0d565b820191906000526020600020905b815481529060010190602001808311612cf057829003601f168201915b5050505050815260200160018201600280602002604051908101604052809291908260028015612d52576020028201915b815481526020019060010190808311612d3e575b50505050508152505081525050826001830381518110612d6e57fe5b60200260200101819052508080600101915050612a3b565b50809250505090565b828054600181600116156101000203166002900490600052602060002090601f016020900481019282601f10612dd057805160ff1916838001178555612dfe565b82800160010185558215612dfe579182015b82811115612dfd578251825591602001919060010190612de2565b5b509050612e0b919061302a565b5090565b604051806101a001604052806000815260200160608152602001606081526020016060815260200160008152602001612e46612fc4565b8152602001600081526020016000815260200160008152602001600015158152602001606081526020016000815260200160006003811115612e8457fe5b81525090565b604051806101a001604052806000815260200160608152602001606081526020016060815260200160008152602001612ec1612fc4565b8152602001600081526020016000815260200160008152602001600015158152602001606081526020016000815260200160006003811115612eff57fe5b81525090565b828054828255906000526020600020908101928215612f41579160200282015b82811115612f40578251825591602001919060010190612f25565b5b509050612f4e919061302a565b5090565b8260028101928215612f81579160200282015b82811115612f80578251825591602001919060010190612f65565b5b509050612f8e919061304f565b5090565b6040518060a0016040528060008152602001606081526020016060815260200160008019168152602001606081525090565b604051806060016040528060008152602001606081526020016000151581525090565b6040518060e00160405280600081526020016060815260200160608152602001600081526020016000815260200160608152602001613024613074565b81525090565b61304c91905b80821115613048576000816000905550600101613030565b5090565b90565b61307191905b8082111561306d576000816000905550600101613055565b5090565b90565b60405180604001604052806060815260200161308e613094565b81525090565b6040518060400160405280600290602082028038833980820191505090505090565b600082601f8301126130c757600080fd5b81356130da6130d582614627565b6145fa565b915081818352602084019350602081019050838560208402820111156130ff57600080fd5b60005b8381101561312f578161311588826131b7565b845260208401935060208301925050600181019050613102565b5050505092915050565b600081359050613148816148fe565b92915050565b60008135905061315d8161490e565b92915050565b600082601f83011261317457600080fd5b81356131876131828261464f565b6145fa565b915080825260208301602083018583830111156131a357600080fd5b6131ae83828461489e565b50505092915050565b6000813590506131c681614925565b92915050565b6000602082840312156131de57600080fd5b600082013567ffffffffffffffff8111156131f857600080fd5b61320484828501613163565b91505092915050565b600080600080600080600060e0888a03121561322857600080fd5b600088013567ffffffffffffffff81111561324257600080fd5b61324e8a828b01613163565b975050602088013567ffffffffffffffff81111561326b57600080fd5b6132778a828b01613163565b965050604088013567ffffffffffffffff81111561329457600080fd5b6132a08a828b016130b6565b95505060606132b18a828b016131b7565b94505060806132c28a828b016131b7565b93505060a06132d38a828b016131b7565b92505060c088013567ffffffffffffffff8111156132f057600080fd5b6132fc8a828b01613163565b91505092959891949750929550565b6000806000806080858703121561332157600080fd5b600085013567ffffffffffffffff81111561333b57600080fd5b61334787828801613163565b945050602085013567ffffffffffffffff81111561336457600080fd5b61337087828801613163565b935050604085013567ffffffffffffffff81111561338d57600080fd5b61339987828801613163565b925050606085013567ffffffffffffffff8111156133b657600080fd5b6133c287828801613163565b91505092959194509250565b600080600080600080600060e0888a0312156133e957600080fd5b600088013567ffffffffffffffff81111561340357600080fd5b61340f8a828b01613163565b975050602088013567ffffffffffffffff81111561342c57600080fd5b6134388a828b01613163565b96505060406134498a828b016131b7565b955050606088013567ffffffffffffffff81111561346657600080fd5b6134728a828b01613163565b945050608088013567ffffffffffffffff81111561348f57600080fd5b61349b8a828b01613163565b93505060a06134ac8a828b0161314e565b92505060c06134bd8a828b0161314e565b91505092959891949750929550565b6000602082840312156134de57600080fd5b60006134ec848285016131b7565b91505092915050565b6000806040838503121561350857600080fd5b6000613516858286016131b7565b925050602061352785828601613139565b9150509250929050565b6000806040838503121561354457600080fd5b6000613552858286016131b7565b9250506020613563858286016131b7565b9150509250929050565b600061357983836138df565b60208301905092915050565b60006135918383613cf8565b905092915050565b60006135a58383613ecd565b905092915050565b60006135b98383614002565b905092915050565b60006135cd83836140b3565b905092915050565b60006135e18383614137565b60208301905092915050565b6135f68161481d565b82525050565b613605816146ea565b61360f8184614790565b925061361a8261467b565b8060005b8381101561364b578151613632878261356d565b965061363d83614742565b92505060018101905061361e565b505050505050565b600061365e826146f5565b613668818561479b565b93508360208202850161367a85614685565b8060005b858110156136b657848403895281516136978582613585565b94506136a28361474f565b925060208a0199505060018101905061367e565b50829750879550505050505092915050565b60006136d382614700565b6136dd81856147ac565b9350836020820285016136ef85614695565b8060005b8581101561372b578484038952815161370c8582613599565b94506137178361475c565b925060208a019950506001810190506136f3565b50829750879550505050505092915050565b60006137488261470b565b61375281856147bd565b935083602082028501613764856146a5565b8060005b858110156137a0578484038952815161378185826135ad565b945061378c83614769565b925060208a01995050600181019050613768565b50829750879550505050505092915050565b60006137bd82614716565b6137c781856147ce565b9350836020820285016137d9856146b5565b8060005b8581101561381557848403895281516137f685826135c1565b945061380183614776565b925060208a019950506001810190506137dd565b50829750879550505050505092915050565b600061383282614721565b61383c81856147df565b9350613847836146c5565b8060005b8381101561387857815161385f88826135d5565b975061386a83614783565b92505060018101905061384b565b5085935050505092915050565b61388e8161482f565b82525050565b61389d8161482f565b82525050565b6138ac8161483b565b82525050565b6138bb8161483b565b82525050565b6138ca8161488c565b82525050565b6138d98161488c565b82525050565b6138e881614858565b82525050565b60006138f982614737565b6139038185614801565b93506139138185602086016148ad565b61391c816148e0565b840191505092915050565b600061393282614737565b61393c8185614812565b935061394c8185602086016148ad565b80840191505092915050565b60006139638261472c565b61396d81856147f0565b935061397d8185602086016148ad565b613986816148e0565b840191505092915050565b600061399c8261472c565b6139a68185614801565b93506139b68185602086016148ad565b6139bf816148e0565b840191505092915050565b6000815460018116600081146139e75760018114613a0c57613a50565b607f60028304166139f88187614812565b955060ff1983168652808601935050613a50565b60028204613a1a8187614812565b9550613a25856146d5565b60005b82811015613a4757815481890152600182019150602081019050613a28565b82880195505050505b505092915050565b6000613a65600e83614801565b91507f537461646520696e76616c6964650000000000000000000000000000000000006000830152602082019050919050565b6000613aa5601283614801565b91507f50726f6475697420696e6578697374616e7400000000000000000000000000006000830152602082019050919050565b6000613ae5601483614801565b91507f4e616d652063616e6e6f7420626520656d7074790000000000000000000000006000830152602082019050919050565b6000613b25602683614801565b91507f4f6e6c7920746865206f776e65722063616e20706572666f726d20746869732060008301527f616374696f6e00000000000000000000000000000000000000000000000000006020830152604082019050919050565b6000613b8b601883614801565b91507f50617373776f72642063616e6e6f7420626520656d70747900000000000000006000830152602082019050919050565b6000613bcb601383614801565b91507f496e76616c69642063617465676f7279204944000000000000000000000000006000830152602082019050919050565b6000613c0b601583614801565b91507f456d61696c2063616e6e6f7420626520656d70747900000000000000000000006000830152602082019050919050565b6000613c4b601783614801565b91507f496e76616c696420726177206d6174657269616c2049440000000000000000006000830152602082019050919050565b60006060830160008301518482036000860152613c9b8282613958565b9150506020830151613cb060208601826135fc565b508091505092915050565b60006060830160008301518482036000860152613cd88282613958565b9150506020830151613ced60208601826135fc565b508091505092915050565b6000606083016000830151613d106000860182614137565b5060208301518482036020860152613d288282613958565b9150506040830151613d3d6040860182613885565b508091505092915050565b6000606083016000830151613d606000860182614137565b5060208301518482036020860152613d788282613958565b9150506040830151613d8d6040860182613885565b508091505092915050565b60006101a083016000830151613db16000860182614137565b5060208301518482036020860152613dc98282613958565b91505060408301518482036040860152613de38282613958565b91505060608301518482036060860152613dfd8282613827565b9150506080830151613e126080860182614137565b5060a083015184820360a0860152613e2a8282613cf8565b91505060c0830151613e3f60c0860182614137565b5060e0830151613e5260e0860182614137565b50610100830151613e67610100860182614137565b50610120830151613e7c610120860182613885565b50610140830151848203610140860152613e968282613958565b915050610160830151613ead610160860182614137565b50610180830151613ec26101808601826138c1565b508091505092915050565b60006101a083016000830151613ee66000860182614137565b5060208301518482036020860152613efe8282613958565b91505060408301518482036040860152613f188282613958565b91505060608301518482036060860152613f328282613827565b9150506080830151613f476080860182614137565b5060a083015184820360a0860152613f5f8282613cf8565b91505060c0830151613f7460c0860182614137565b5060e0830151613f8760e0860182614137565b50610100830151613f9c610100860182614137565b50610120830151613fb1610120860182613885565b50610140830151848203610140860152613fcb8282613958565b915050610160830151613fe2610160860182614137565b50610180830151613ff76101808601826138c1565b508091505092915050565b600060e08301600083015161401a6000860182614137565b50602083015184820360208601526140328282613958565b9150506040830151848203604086015261404c8282613958565b91505060608301516140616060860182614137565b5060808301516140746080860182614137565b5060a083015184820360a086015261408c8282613958565b91505060c083015184820360c08601526140a68282613c7e565b9150508091505092915050565b600060a0830160008301516140cb6000860182614137565b50602083015184820360208601526140e38282613958565b915050604083015184820360408601526140fd8282613958565b915050606083015161411260608601826138a3565b506080830151848203608086015261412a8282613958565b9150508091505092915050565b61414081614882565b82525050565b61414f81614882565b82525050565b60006141618284613927565b915081905092915050565b600061417882846139ca565b915081905092915050565b600060208201905061419860008301846135ed565b92915050565b600060208201905081810360008301526141b88184613653565b905092915050565b600060208201905081810360008301526141da81846136c8565b905092915050565b600060208201905081810360008301526141fc818461373d565b905092915050565b6000602082019050818103600083015261421e81846137b2565b905092915050565b6000602082019050818103600083015261423f81613a58565b9050919050565b6000602082019050818103600083015261425f81613a98565b9050919050565b6000602082019050818103600083015261427f81613ad8565b9050919050565b6000602082019050818103600083015261429f81613b18565b9050919050565b600060208201905081810360008301526142bf81613b7e565b9050919050565b600060208201905081810360008301526142df81613bbe565b9050919050565b600060208201905081810360008301526142ff81613bfe565b9050919050565b6000602082019050818103600083015261431f81613c3e565b9050919050565b600060208201905081810360008301526143408184613d98565b905092915050565b600060208201905061435d6000830184614146565b92915050565b60006040820190506143786000830185614146565b61438560208301846138d0565b9392505050565b60006040820190506143a16000830185614146565b81810360208301526143b381846138ee565b90509392505050565b60006060820190506143d16000830186614146565b81810360208301526143e38185613991565b90506143f26040830184613894565b949350505050565b600060a08201905061440f6000830188614146565b81810360208301526144218187613991565b905081810360408301526144358186613991565b905061444460608301856138b2565b81810360808301526144568184613991565b90509695505050505050565b600061018082019050614478600083018f614146565b818103602083015261448a818e613991565b9050818103604083015261449e818d613991565b90506144ad606083018c614146565b81810360808301526144bf818b613d48565b90506144ce60a083018a614146565b6144db60c0830189614146565b6144e860e0830188614146565b6144f6610100830187613894565b8181036101208301526145098186613991565b9050614519610140830185614146565b6145276101608301846138d0565b9d9c50505050505050505050505050565b600060e08201905061454d600083018a614146565b818103602083015261455f8189613991565b905081810360408301526145738188613991565b90506145826060830187614146565b61458f6080830186614146565b81810360a08301526145a18185613991565b905081810360c08301526145b58184613cbb565b905098975050505050505050565b60006060820190506145d86000830186614146565b6145e56020830185614146565b6145f260408301846138d0565b949350505050565b6000604051905081810181811067ffffffffffffffff8211171561461d57600080fd5b8060405250919050565b600067ffffffffffffffff82111561463e57600080fd5b602082029050602081019050919050565b600067ffffffffffffffff82111561466657600080fd5b601f19601f8301169050602081019050919050565b6000819050919050565b6000819050602082019050919050565b6000819050602082019050919050565b6000819050602082019050919050565b6000819050602082019050919050565b6000819050602082019050919050565b60008190508160005260206000209050919050565b600060029050919050565b600081519050919050565b600081519050919050565b600081519050919050565b600081519050919050565b600081519050919050565b600081519050919050565b600081519050919050565b6000602082019050919050565b6000602082019050919050565b6000602082019050919050565b6000602082019050919050565b6000602082019050919050565b6000602082019050919050565b600081905092915050565b600082825260208201905092915050565b600082825260208201905092915050565b600082825260208201905092915050565b600082825260208201905092915050565b600082825260208201905092915050565b600082825260208201905092915050565b600082825260208201905092915050565b600081905092915050565b600061482882614862565b9050919050565b60008115159050919050565b6000819050919050565b6000819050614853826148f1565b919050565b6000819050919050565b600073ffffffffffffffffffffffffffffffffffffffff82169050919050565b6000819050919050565b600061489782614845565b9050919050565b82818337600083830152505050565b60005b838110156148cb5780820151818401526020810190506148b0565b838111156148da576000848401525b50505050565b6000601f19601f8301169050919050565b600481106148fb57fe5b50565b6004811061490b57600080fd5b50565b61491781614858565b811461492257600080fd5b50565b61492e81614882565b811461493957600080fd5b5056fea365627a7a72315820b7a1bd9c3d7bbb9de997d52ff05eeabb83785ead3fc51e2f93ee497fc9d04a496c6578706572696d656e74616cf564736f6c63430005100040",
  "source": "// SPDX-License-Identifier: MIT\r\npragma solidity >=0.4.22 <0.9.0;\r\npragma experimental ABIEncoderV2;\r\n\r\ncontract SupplyChain {\r\n    // Propritaire du contrat\r\n    address public Owner;\r\n\r\n    struct Address {\r\n        string text;                // Adresse sous forme de texte\r\n        int256[2] coordinate;      // Tableau de coordonnes [latitude, longitude]\r\n    }\r\n\r\n    struct Category {\r\n        uint256 id;\r\n        string title;\r\n        bool isActive;\r\n    }\r\n\r\n    constructor() public {\r\n        Owner = msg.sender;\r\n    }\r\n\r\n    modifier onlyByOwner() {\r\n        require(msg.sender == Owner, \"Only the owner can perform this action\");\r\n        _;\r\n    }\r\n\r\n    enum STAGE {\r\n        Manufacture,\r\n        Distribution,\r\n        Retail,\r\n        Sold\r\n    }\r\n\r\n    uint256 public rmsCtr = 0;\r\n    uint256 public productCtr = 0;\r\n    uint256 public userCount = 0;\r\n    uint256 public categoryCtr = 0;\r\n\r\n    struct Product {\r\n        uint256 id;\r\n        string name;\r\n        string description;\r\n        uint256[] rwIds;\r\n        uint256 price; // Ajout du prix\r\n        Category category;\r\n        uint256 manufacturerId;\r\n        uint256 distributorId;\r\n        uint256 retailerId;\r\n        bool isActive;\r\n        string image;\r\n        uint256 currentHandlerId;\r\n        STAGE stage;\r\n    }\r\n\r\n    struct RW {\r\n        uint256 id;\r\n        string name;\r\n        string description;\r\n        uint256 price;\r\n        uint256 userId;\r\n        string image;\r\n        Address origin; // Utilisation de la structure Address\r\n    }\r\n\r\n    struct User {\r\n        uint256 id;\r\n        string name;\r\n        string email;\r\n        bytes32 passwordHash; // Stockage scuris avec un hash\r\n        string role; // Role de l'utilisateur comme une chane de caractres\r\n    }\r\n\r\n    struct ProductHistory {\r\n        uint256 timestamp;\r\n        uint256 handlerId;\r\n        STAGE stage;\r\n    }\r\n\r\n    mapping(uint256 => User) public users;\r\n    mapping(uint256 => RW) public rms;\r\n    mapping(uint256 => Product) public productStock;\r\n    mapping(uint256 => Category) public categories;\r\n    mapping(uint256 => ProductHistory[]) public productHistories;\r\n\r\n    // vnements\r\n    event RawMaterialAdded(uint256 id, string name);\r\n    event ProductAdded(uint256 id, string name);\r\n    event ProductStageUpdated(uint256 id, STAGE newStage);\r\n    event CategoryAdded(uint256 id, string title);\r\n    event RawMaterialUpdated(uint256 id, string name);\r\n    event ProductUpdated(uint256 id, string name);\r\n    event CategoryUpdated(uint256 id, string title);\r\n\r\n    // Ajouter une matire premire\r\n    function addRawMaterial(\r\n        string memory _name,\r\n        string memory _description,\r\n        uint256 _price,\r\n        string memory _image,\r\n        string memory _originText, // Texte de l'adresse\r\n        int256 _latitude,          // Latitude\r\n        int256 _longitude          // Longitude\r\n    ) public onlyByOwner {\r\n        rmsCtr++;\r\n        rms[rmsCtr] = RW({\r\n            id: rmsCtr,\r\n            name: _name,\r\n            description: _description,\r\n            price: _price,\r\n            userId: 0,\r\n            image: _image,\r\n            origin: Address({\r\n                text: _originText,\r\n                coordinate: [_latitude, _longitude] // Remplissage des coordonnes\r\n            })\r\n        });\r\n        emit RawMaterialAdded(rmsCtr, _name);\r\n    }\r\n\r\n    // Ajouter une catgorie\r\n    function addCategory(string memory _title) public onlyByOwner {\r\n        categoryCtr++;\r\n        categories[categoryCtr] = Category({\r\n            id: categoryCtr,\r\n            title: _title,\r\n            isActive: true\r\n        });\r\n        emit CategoryAdded(categoryCtr, _title);\r\n    }\r\n\r\n    // Ajouter un utilisateur\r\n    function addUser(\r\n        string memory _name,\r\n        string memory _email,\r\n        string memory _password,\r\n        string memory _role\r\n    ) public {\r\n        require(bytes(_name).length > 0, \"Name cannot be empty\");\r\n        require(bytes(_email).length > 0, \"Email cannot be empty\");\r\n        require(bytes(_password).length > 0, \"Password cannot be empty\");\r\n        userCount++;\r\n        users[userCount] = User({\r\n            id: userCount,\r\n            name: _name,\r\n            email: _email,\r\n            passwordHash: keccak256(abi.encodePacked(_password)),\r\n            role: _role\r\n        });\r\n    }\r\n\r\n    // Ajouter un produit\r\n    function addProduct(\r\n        string memory _name,\r\n        string memory _description,\r\n        uint256[] memory _rwIds,\r\n        uint256 _manufacturerId,\r\n        uint256 _categoryId,\r\n        uint256 _price,  // Ajouter le prix comme paramtre\r\n        string memory _image\r\n    ) public onlyByOwner {\r\n        // Vrification des IDs de matires premires\r\n        for (uint256 i = 0; i < _rwIds.length; i++) {\r\n            require(_rwIds[i] > 0 && _rwIds[i] <= rmsCtr, \"Invalid raw material ID\");\r\n        }\r\n\r\n        // Vrification de la validit de la catgorie\r\n        require(_categoryId > 0 && _categoryId <= categoryCtr, \"Invalid category ID\");\r\n\r\n        // Incrmentation du compteur de produits\r\n        productCtr++;\r\n\r\n        // Cration du produit\r\n        productStock[productCtr] = Product({\r\n            id: productCtr,\r\n            name: _name,\r\n            description: _description,\r\n            rwIds: _rwIds,\r\n            price: _price,  // Assignation du prix\r\n            category: categories[_categoryId],\r\n            manufacturerId: _manufacturerId,\r\n            distributorId: 0,\r\n            retailerId: 0,\r\n            currentHandlerId: _manufacturerId,\r\n            stage: STAGE.Manufacture,  // Le stade initial est la fabrication\r\n            isActive: true,\r\n            image: _image\r\n        });\r\n\r\n        // mettre l'vnement\r\n        emit ProductAdded(productCtr, _name);\r\n    }\r\n\r\n    // Obtenir un produit par ID\r\n    function getProductById(uint256 _productId) public view returns (Product memory) {\r\n        require(_productId > 0 && _productId <= productCtr, \"Produit inexistant\");\r\n        return productStock[_productId];\r\n    }\r\n\r\n    // Obtenir tous les produits\r\n    function getAllProducts() public view returns (Product[] memory) {\r\n        uint256 count = productCtr; // Nombre total de produits\r\n        Product[] memory allProducts = new Product[](count);\r\n\r\n        for (uint256 i = 1; i <= count; i++) {\r\n            allProducts[i - 1] = productStock[i];\r\n        }\r\n\r\n        return allProducts;\r\n    }\r\n\r\n    // Obtenir toutes les catgories\r\nfunction getAllCategories() public view returns (Category[] memory) {\r\n    uint256 count = categoryCtr; // Nombre total de catgories\r\n    // Crer un tableau dynamique avec le nombre total de catgories\r\n    Category[] memory allCategories = new Category[](count);\r\n\r\n    // Remplir le tableau allCategories avec les catgories\r\n    for (uint256 i = 1; i <= count; i++) {\r\n        allCategories[i - 1] = categories[i]; // Assurez-vous que 'categories' commence  1\r\n    }\r\n\r\n    return allCategories;\r\n}\r\n\r\n\r\n    // Obtenir les utilisateurs par rle\r\n    function getUsersByRole(string memory _role) public view returns (User[] memory) {\r\n        uint256 count = userCount; // Nombre total d'utilisateurs\r\n        uint256 userCountByRole = 0;\r\n\r\n        // Compter le nombre d'utilisateurs avec le rle spcifi\r\n        for (uint256 i = 1; i <= count; i++) {\r\n            if (keccak256(abi.encodePacked(users[i].role)) == keccak256(abi.encodePacked(_role))) {\r\n                userCountByRole++;\r\n            }\r\n        }\r\n\r\n        // Crer un tableau dynamique avec le nombre d'utilisateurs avec ce rle\r\n        User[] memory usersWithRole = new User[](userCountByRole);\r\n        uint256 index = 0;\r\n\r\n        // Ajouter les utilisateurs avec le rle spcifi\r\n        for (uint256 i = 1; i <= count; i++) {\r\n            if (keccak256(abi.encodePacked(users[i].role)) == keccak256(abi.encodePacked(_role))) {\r\n                usersWithRole[index] = users[i];\r\n                index++;\r\n            }\r\n        }\r\n\r\n        return usersWithRole;\r\n    }\r\n\r\n    // Mettre  jour le stade d'un produit\r\n    function updateProductStage(uint256 _productId, STAGE _newStage) public onlyByOwner {\r\n        require(_productId > 0 && _productId <= productCtr, \"Produit inexistant\");\r\n        require(\r\n            uint8(_newStage) > uint8(productStock[_productId].stage),\r\n            \"Stade invalide\"\r\n        );\r\n        productStock[_productId].stage = _newStage;\r\n\r\n        productHistories[_productId].push(\r\n            ProductHistory({\r\n                timestamp: block.timestamp,\r\n                handlerId: productStock[_productId].currentHandlerId,\r\n                stage: _newStage\r\n            })\r\n        );\r\n\r\n        emit ProductStageUpdated(_productId, _newStage);\r\n    }\r\n\r\n function getAllRawMaterials() public view returns (RW[] memory) {\r\n        uint256 count = rmsCtr; // Nombre total de matires premires\r\n        // Crer un tableau dynamique avec le nombre total de matires premires\r\n        RW[] memory allRawMaterials = new RW[](count);\r\n        for (uint256 i = 1; i <= count; i++) {\r\n            allRawMaterials[i - 1] = rms[i];\r\n        }\r\n         return allRawMaterials;\r\n    }\r\n// Obtenir tous les utilisateurs\r\nfunction getAllUsers() public view returns (User[] memory) {\r\n    uint256 count = userCount; // Nombre total d'utilisateurs\r\n    User[] memory allUsers = new User[](count);\r\n\r\n    // Remplir le tableau avec tous les utilisateurs\r\n    for (uint256 i = 1; i <= count; i++) {\r\n        allUsers[i - 1] = users[i]; // Assurez-vous que 'users' commence  1\r\n    }\r\n\r\n    return allUsers;\r\n}\r\n\r\n}\r\n",
  "sourcePath": "C:\\Users\\J.P.M\\Desktop\\supplychain\\contracts\\SupplyChain.sol",
  "compiler": {
    "name": "solc",
    "version": "0.5.16+commit.9c3226ce.Emscripten.clang"
  },
  "schemaVersion": "3.4.16",
  "updatedAt": "2024-12-07T21:44:41.818Z",
  "networkType": "ethereum",
  "devdoc": {
    "methods": {}
  },
  "userdoc": {
    "methods": {}
  }
}