{
  "contractName": "SupplyChain",
  "abi": [
    {
      "inputs": [],
      "payable": false,
      "stateMutability": "nonpayable",
      "type": "constructor"
    },
    {
      "anonymous": false,
      "inputs": [
        {
          "indexed": false,
          "internalType": "uint256",
          "name": "id",
          "type": "uint256"
        },
        {
          "indexed": false,
          "internalType": "string",
          "name": "name",
          "type": "string"
        }
      ],
      "name": "ProductAdded",
      "type": "event"
    },
    {
      "anonymous": false,
      "inputs": [
        {
          "indexed": false,
          "internalType": "uint256",
          "name": "id",
          "type": "uint256"
        },
        {
          "indexed": false,
          "internalType": "enum SupplyChain.STAGE",
          "name": "newStage",
          "type": "uint8"
        }
      ],
      "name": "ProductStageUpdated",
      "type": "event"
    },
    {
      "anonymous": false,
      "inputs": [
        {
          "indexed": false,
          "internalType": "uint256",
          "name": "id",
          "type": "uint256"
        },
        {
          "indexed": false,
          "internalType": "string",
          "name": "name",
          "type": "string"
        }
      ],
      "name": "RawMaterialAdded",
      "type": "event"
    },
    {
      "constant": true,
      "inputs": [],
      "name": "Owner",
      "outputs": [
        {
          "internalType": "address",
          "name": "",
          "type": "address"
        }
      ],
      "payable": false,
      "stateMutability": "view",
      "type": "function"
    },
    {
      "constant": true,
      "inputs": [],
      "name": "productCtr",
      "outputs": [
        {
          "internalType": "uint256",
          "name": "",
          "type": "uint256"
        }
      ],
      "payable": false,
      "stateMutability": "view",
      "type": "function"
    },
    {
      "constant": true,
      "inputs": [
        {
          "internalType": "uint256",
          "name": "",
          "type": "uint256"
        },
        {
          "internalType": "uint256",
          "name": "",
          "type": "uint256"
        }
      ],
      "name": "productHistories",
      "outputs": [
        {
          "internalType": "uint256",
          "name": "timestamp",
          "type": "uint256"
        },
        {
          "internalType": "uint256",
          "name": "handlerId",
          "type": "uint256"
        },
        {
          "internalType": "enum SupplyChain.STAGE",
          "name": "stage",
          "type": "uint8"
        }
      ],
      "payable": false,
      "stateMutability": "view",
      "type": "function"
    },
    {
      "constant": true,
      "inputs": [
        {
          "internalType": "uint256",
          "name": "",
          "type": "uint256"
        }
      ],
      "name": "productStock",
      "outputs": [
        {
          "internalType": "uint256",
          "name": "id",
          "type": "uint256"
        },
        {
          "internalType": "string",
          "name": "name",
          "type": "string"
        },
        {
          "internalType": "string",
          "name": "description",
          "type": "string"
        },
        {
          "internalType": "uint256",
          "name": "manufacturerId",
          "type": "uint256"
        },
        {
          "internalType": "uint256",
          "name": "distributorId",
          "type": "uint256"
        },
        {
          "internalType": "uint256",
          "name": "retailerId",
          "type": "uint256"
        },
        {
          "internalType": "uint256",
          "name": "currentHandlerId",
          "type": "uint256"
        },
        {
          "internalType": "enum SupplyChain.STAGE",
          "name": "stage",
          "type": "uint8"
        }
      ],
      "payable": false,
      "stateMutability": "view",
      "type": "function"
    },
    {
      "constant": true,
      "inputs": [
        {
          "internalType": "uint256",
          "name": "",
          "type": "uint256"
        }
      ],
      "name": "rms",
      "outputs": [
        {
          "internalType": "uint256",
          "name": "id",
          "type": "uint256"
        },
        {
          "internalType": "string",
          "name": "name",
          "type": "string"
        },
        {
          "internalType": "string",
          "name": "description",
          "type": "string"
        },
        {
          "internalType": "uint256",
          "name": "price",
          "type": "uint256"
        },
        {
          "internalType": "uint256",
          "name": "userId",
          "type": "uint256"
        },
        {
          "internalType": "string",
          "name": "image",
          "type": "string"
        },
        {
          "internalType": "string",
          "name": "origin",
          "type": "string"
        }
      ],
      "payable": false,
      "stateMutability": "view",
      "type": "function"
    },
    {
      "constant": true,
      "inputs": [],
      "name": "rmsCtr",
      "outputs": [
        {
          "internalType": "uint256",
          "name": "",
          "type": "uint256"
        }
      ],
      "payable": false,
      "stateMutability": "view",
      "type": "function"
    },
    {
      "constant": true,
      "inputs": [],
      "name": "userCount",
      "outputs": [
        {
          "internalType": "uint256",
          "name": "",
          "type": "uint256"
        }
      ],
      "payable": false,
      "stateMutability": "view",
      "type": "function"
    },
    {
      "constant": true,
      "inputs": [
        {
          "internalType": "uint256",
          "name": "",
          "type": "uint256"
        }
      ],
      "name": "users",
      "outputs": [
        {
          "internalType": "uint256",
          "name": "id",
          "type": "uint256"
        },
        {
          "internalType": "string",
          "name": "name",
          "type": "string"
        },
        {
          "internalType": "string",
          "name": "email",
          "type": "string"
        },
        {
          "internalType": "bytes32",
          "name": "passwordHash",
          "type": "bytes32"
        },
        {
          "internalType": "string",
          "name": "role",
          "type": "string"
        }
      ],
      "payable": false,
      "stateMutability": "view",
      "type": "function"
    },
    {
      "constant": false,
      "inputs": [
        {
          "internalType": "string",
          "name": "_name",
          "type": "string"
        },
        {
          "internalType": "string",
          "name": "_description",
          "type": "string"
        },
        {
          "internalType": "uint256",
          "name": "_price",
          "type": "uint256"
        },
        {
          "internalType": "string",
          "name": "_image",
          "type": "string"
        },
        {
          "internalType": "string",
          "name": "_origin",
          "type": "string"
        }
      ],
      "name": "addRawMaterial",
      "outputs": [],
      "payable": false,
      "stateMutability": "nonpayable",
      "type": "function"
    },
    {
      "constant": false,
      "inputs": [
        {
          "internalType": "string",
          "name": "_name",
          "type": "string"
        },
        {
          "internalType": "string",
          "name": "_email",
          "type": "string"
        },
        {
          "internalType": "string",
          "name": "_password",
          "type": "string"
        },
        {
          "internalType": "string",
          "name": "_role",
          "type": "string"
        }
      ],
      "name": "addUser",
      "outputs": [],
      "payable": false,
      "stateMutability": "nonpayable",
      "type": "function"
    },
    {
      "constant": true,
      "inputs": [
        {
          "internalType": "string",
          "name": "_role",
          "type": "string"
        }
      ],
      "name": "getUsersByRole",
      "outputs": [
        {
          "components": [
            {
              "internalType": "uint256",
              "name": "id",
              "type": "uint256"
            },
            {
              "internalType": "string",
              "name": "name",
              "type": "string"
            },
            {
              "internalType": "string",
              "name": "email",
              "type": "string"
            },
            {
              "internalType": "bytes32",
              "name": "passwordHash",
              "type": "bytes32"
            },
            {
              "internalType": "string",
              "name": "role",
              "type": "string"
            }
          ],
          "internalType": "struct SupplyChain.User[]",
          "name": "",
          "type": "tuple[]"
        }
      ],
      "payable": false,
      "stateMutability": "view",
      "type": "function"
    },
    {
      "constant": false,
      "inputs": [
        {
          "internalType": "string",
          "name": "_name",
          "type": "string"
        },
        {
          "internalType": "string",
          "name": "_description",
          "type": "string"
        },
        {
          "internalType": "uint256[]",
          "name": "_rwIds",
          "type": "uint256[]"
        },
        {
          "internalType": "uint256",
          "name": "_manufacturerId",
          "type": "uint256"
        }
      ],
      "name": "addProduct",
      "outputs": [],
      "payable": false,
      "stateMutability": "nonpayable",
      "type": "function"
    },
    {
      "constant": false,
      "inputs": [
        {
          "internalType": "uint256",
          "name": "_productId",
          "type": "uint256"
        },
        {
          "internalType": "enum SupplyChain.STAGE",
          "name": "_newStage",
          "type": "uint8"
        }
      ],
      "name": "updateProductStage",
      "outputs": [],
      "payable": false,
      "stateMutability": "nonpayable",
      "type": "function"
    },
    {
      "constant": true,
      "inputs": [
        {
          "internalType": "uint256",
          "name": "_productId",
          "type": "uint256"
        }
      ],
      "name": "getProductHistory",
      "outputs": [
        {
          "components": [
            {
              "internalType": "uint256",
              "name": "timestamp",
              "type": "uint256"
            },
            {
              "internalType": "uint256",
              "name": "handlerId",
              "type": "uint256"
            },
            {
              "internalType": "enum SupplyChain.STAGE",
              "name": "stage",
              "type": "uint8"
            }
          ],
          "internalType": "struct SupplyChain.ProductHistory[]",
          "name": "",
          "type": "tuple[]"
        }
      ],
      "payable": false,
      "stateMutability": "view",
      "type": "function"
    },
    {
      "constant": true,
      "inputs": [],
      "name": "getAllRawMaterials",
      "outputs": [
        {
          "components": [
            {
              "internalType": "uint256",
              "name": "id",
              "type": "uint256"
            },
            {
              "internalType": "string",
              "name": "name",
              "type": "string"
            },
            {
              "internalType": "string",
              "name": "description",
              "type": "string"
            },
            {
              "internalType": "uint256",
              "name": "price",
              "type": "uint256"
            },
            {
              "internalType": "uint256",
              "name": "userId",
              "type": "uint256"
            },
            {
              "internalType": "string",
              "name": "image",
              "type": "string"
            },
            {
              "internalType": "string",
              "name": "origin",
              "type": "string"
            }
          ],
          "internalType": "struct SupplyChain.RW[]",
          "name": "",
          "type": "tuple[]"
        }
      ],
      "payable": false,
      "stateMutability": "view",
      "type": "function"
    }
  ],
  "bytecode": "0x608060405260006001556000600255600060035534801561001f57600080fd5b50336000806101000a81548173ffffffffffffffffffffffffffffffffffffffff021916908373ffffffffffffffffffffffffffffffffffffffff160217905550612bf98061006f6000396000f3fe608060405234801561001057600080fd5b50600436106100f55760003560e01c80637f666acb11610097578063c08c1cec11610066578063c08c1cec14610291578063c0efbb82146102c7578063dd286398146102f7578063fac0992d14610315576100f5565b80637f666acb146102075780638bd0115d14610239578063aaea34aa14610255578063b4a99a4e14610273576100f5565b8063564f2cd3116100d3578063564f2cd31461016857806357a096a1146101845780635eba8401146101b45780636a13931d146101eb576100f5565b806301cda3ac146100fa57806307973ccf14610116578063365b98b214610134575b600080fd5b610114600480360361010f9190810190611d1a565b610333565b005b61011e6104e9565b60405161012b9190612716565b60405180910390f35b61014e60048036036101499190810190611eb4565b6104ef565b60405161015f95949392919061278a565b60405180910390f35b610182600480360361017d9190810190611c6f565b6106ed565b005b61019e60048036036101999190810190611eb4565b610948565b6040516101ab91906125f0565b60405180910390f35b6101ce60048036036101c99190810190611eb4565b610a4c565b6040516101e298979695949392919061287d565b60405180910390f35b61020560048036036102009190810190611edd565b610bd1565b005b610221600480360361021c9190810190611f19565b610e2a565b60405161023093929190612909565b60405180910390f35b610253600480360361024e9190810190611ddd565b610e7b565b005b61025d611008565b60405161026a9190612716565b60405180910390f35b61027b61100e565b60405161028891906125d5565b60405180910390f35b6102ab60048036036102a69190810190611eb4565b611033565b6040516102be97969594939291906127f2565b60405180910390f35b6102e160048036036102dc9190810190611c2e565b6112d5565b6040516102ee9190612634565b60405180910390f35b6102ff61167a565b60405161030c9190612716565b60405180910390f35b61031d611680565b60405161032a9190612612565b60405180910390f35b6000845111610377576040517f08c379a000000000000000000000000000000000000000000000000000000000815260040161036e90612696565b60405180910390fd5b60008351116103bb576040517f08c379a00000000000000000000000000000000000000000000000000000000081526004016103b2906126d6565b60405180910390fd5b60008251116103ff576040517f08c379a00000000000000000000000000000000000000000000000000000000081526004016103f6906126b6565b60405180910390fd5b6003600081548092919060010191905055506040518060a0016040528060035481526020018581526020018481526020018360405160200161044191906125a7565b6040516020818303038152906040528051906020012081526020018281525060046000600354815260200190815260200160002060008201518160000155602082015181600101908051906020019061049b9291906119cc565b5060408201518160020190805190602001906104b89291906119cc565b506060820151816003015560808201518160040190805190602001906104df9291906119cc565b5090505050505050565b60035481565b6004602052806000526040600020600091509050806000015490806001018054600181600116156101000203166002900480601f0160208091040260200160405190810160405280929190818152602001828054600181600116156101000203166002900480156105a15780601f10610576576101008083540402835291602001916105a1565b820191906000526020600020905b81548152906001019060200180831161058457829003601f168201915b505050505090806002018054600181600116156101000203166002900480601f01602080910402602001604051908101604052809291908181526020018280546001816001161561010002031660029004801561063f5780601f106106145761010080835404028352916020019161063f565b820191906000526020600020905b81548152906001019060200180831161062257829003601f168201915b505050505090806003015490806004018054600181600116156101000203166002900480601f0160208091040260200160405190810160405280929190818152602001828054600181600116156101000203166002900480156106e35780601f106106b8576101008083540402835291602001916106e3565b820191906000526020600020905b8154815290600101906020018083116106c657829003601f168201915b5050505050905085565b6000809054906101000a900473ffffffffffffffffffffffffffffffffffffffff1673ffffffffffffffffffffffffffffffffffffffff163373ffffffffffffffffffffffffffffffffffffffff161461074657600080fd5b60008090505b82518110156107d957600083828151811061076357fe5b602002602001015111801561078d575060015483828151811061078257fe5b602002602001015111155b6107cc576040517f08c379a00000000000000000000000000000000000000000000000000000000081526004016107c3906126f6565b60405180910390fd5b808060010191505061074c565b50600260008154809291906001019190505550604051806101200160405280600254815260200185815260200184815260200183815260200182815260200160008152602001600081526020018281526020016000600381111561083957fe5b8152506006600060025481526020019081526020016000206000820151816000015560208201518160010190805190602001906108779291906119cc565b5060408201518160020190805190602001906108949291906119cc565b5060608201518160030190805190602001906108b1929190611a4c565b506080820151816004015560a0820151816005015560c0820151816006015560e082015181600701556101008201518160080160006101000a81548160ff021916908360038111156108ff57fe5b02179055509050507f259101de1f87b04b9ee0332ce5e3cc508014004bf283424aead6cd8692f5cf986002548560405161093a92919061275a565b60405180910390a150505050565b606060008211801561095c57506002548211155b61099b576040517f08c379a000000000000000000000000000000000000000000000000000000000815260040161099290612676565b60405180910390fd5b60076000838152602001908152602001600020805480602002602001604051908101604052809291908181526020016000905b82821015610a41578382906000526020600020906003020160405180606001604052908160008201548152602001600182015481526020016002820160009054906101000a900460ff166003811115610a2357fe5b6003811115610a2e57fe5b81525050815260200190600101906109ce565b505050509050919050565b6006602052806000526040600020600091509050806000015490806001018054600181600116156101000203166002900480601f016020809104026020016040519081016040528092919081815260200182805460018160011615610100020316600290048015610afe5780601f10610ad357610100808354040283529160200191610afe565b820191906000526020600020905b815481529060010190602001808311610ae157829003601f168201915b505050505090806002018054600181600116156101000203166002900480601f016020809104026020016040519081016040528092919081815260200182805460018160011615610100020316600290048015610b9c5780601f10610b7157610100808354040283529160200191610b9c565b820191906000526020600020905b815481529060010190602001808311610b7f57829003601f168201915b5050505050908060040154908060050154908060060154908060070154908060080160009054906101000a900460ff16905088565b6000809054906101000a900473ffffffffffffffffffffffffffffffffffffffff1673ffffffffffffffffffffffffffffffffffffffff163373ffffffffffffffffffffffffffffffffffffffff1614610c2a57600080fd5b600082118015610c3c57506002548211155b610c7b576040517f08c379a0000000000000000000000000000000000000000000000000000000008152600401610c7290612676565b60405180910390fd5b6006600083815260200190815260200160002060080160009054906101000a900460ff166003811115610caa57fe5b60ff16816003811115610cb957fe5b60ff1611610cfc576040517f08c379a0000000000000000000000000000000000000000000000000000000008152600401610cf390612656565b60405180910390fd5b806006600084815260200190815260200160002060080160006101000a81548160ff02191690836003811115610d2e57fe5b021790555060076000838152602001908152602001600020604051806060016040528042815260200160066000868152602001908152602001600020600701548152602001836003811115610d7f57fe5b81525090806001815401808255809150509060018203906000526020600020906003020160009091929091909150600082015181600001556020820151816001015560408201518160020160006101000a81548160ff02191690836003811115610de557fe5b02179055505050507fdb1adf3543039f5d54bb67ebf175b8ef7ba88285d54355d6c564b2478877a4428282604051610e1e929190612731565b60405180910390a15050565b60076020528160005260406000208181548110610e4357fe5b9060005260206000209060030201600091509150508060000154908060010154908060020160009054906101000a900460ff16905083565b6000809054906101000a900473ffffffffffffffffffffffffffffffffffffffff1673ffffffffffffffffffffffffffffffffffffffff163373ffffffffffffffffffffffffffffffffffffffff1614610ed457600080fd5b6001600081548092919060010191905055506040518060e0016040528060015481526020018681526020018581526020018481526020016000815260200183815260200182815250600560006001548152602001908152602001600020600082015181600001556020820151816001019080519060200190610f579291906119cc565b506040820151816002019080519060200190610f749291906119cc565b50606082015181600301556080820151816004015560a0820151816005019080519060200190610fa59291906119cc565b5060c0820151816006019080519060200190610fc29291906119cc565b509050507f397bf151e41293935c43045d8da74b84bd4801db62720fc9b2e2e18f02ea4b5960015486604051610ff992919061275a565b60405180910390a15050505050565b60025481565b6000809054906101000a900473ffffffffffffffffffffffffffffffffffffffff1681565b6005602052806000526040600020600091509050806000015490806001018054600181600116156101000203166002900480601f0160208091040260200160405190810160405280929190818152602001828054600181600116156101000203166002900480156110e55780601f106110ba576101008083540402835291602001916110e5565b820191906000526020600020905b8154815290600101906020018083116110c857829003601f168201915b505050505090806002018054600181600116156101000203166002900480601f0160208091040260200160405190810160405280929190818152602001828054600181600116156101000203166002900480156111835780601f1061115857610100808354040283529160200191611183565b820191906000526020600020905b81548152906001019060200180831161116657829003601f168201915b505050505090806003015490806004015490806005018054600181600116156101000203166002900480601f01602080910402602001604051908101604052809291908181526020018280546001816001161561010002031660029004801561122d5780601f106112025761010080835404028352916020019161122d565b820191906000526020600020905b81548152906001019060200180831161121057829003601f168201915b505050505090806006018054600181600116156101000203166002900480601f0160208091040260200160405190810160405280929190818152602001828054600181600116156101000203166002900480156112cb5780601f106112a0576101008083540402835291602001916112cb565b820191906000526020600020905b8154815290600101906020018083116112ae57829003601f168201915b5050505050905087565b606060008090506000600190505b600354811161136b57836040516020016112fd91906125a7565b604051602081830303815290604052805190602001206004600083815260200190815260200160002060040160405160200161133991906125be565b60405160208183030381529060405280519060200120141561135e5781806001019250505b80806001019150506112e3565b506060816040519080825280602002602001820160405280156113a857816020015b611395611a99565b81526020019060019003908161138d5790505b50905060008090506000600190505b600354811161166e57856040516020016113d191906125a7565b604051602081830303815290604052805190602001206004600083815260200190815260200160002060040160405160200161140d91906125be565b60405160208183030381529060405280519060200120141561166157600460008281526020019081526020016000206040518060a001604052908160008201548152602001600182018054600181600116156101000203166002900480601f0160208091040260200160405190810160405280929190818152602001828054600181600116156101000203166002900480156114ea5780601f106114bf576101008083540402835291602001916114ea565b820191906000526020600020905b8154815290600101906020018083116114cd57829003601f168201915b50505050508152602001600282018054600181600116156101000203166002900480601f01602080910402602001604051908101604052809291908181526020018280546001816001161561010002031660029004801561158c5780601f106115615761010080835404028352916020019161158c565b820191906000526020600020905b81548152906001019060200180831161156f57829003601f168201915b5050505050815260200160038201548152602001600482018054600181600116156101000203166002900480601f0160208091040260200160405190810160405280929190818152602001828054600181600116156101000203166002900480156116385780601f1061160d57610100808354040283529160200191611638565b820191906000526020600020905b81548152906001019060200180831161161b57829003601f168201915b50505050508152505083838151811061164d57fe5b602002602001018190525081806001019250505b80806001019150506113b7565b50819350505050919050565b60015481565b6060600060015490506060816040519080825280602002602001820160405280156116c557816020015b6116b2611acb565b8152602001906001900390816116aa5790505b5090506000600190505b60015481116119c357600560008281526020019081526020016000206040518060e001604052908160008201548152602001600182018054600181600116156101000203166002900480601f0160208091040260200160405190810160405280929190818152602001828054600181600116156101000203166002900480156117995780601f1061176e57610100808354040283529160200191611799565b820191906000526020600020905b81548152906001019060200180831161177c57829003601f168201915b50505050508152602001600282018054600181600116156101000203166002900480601f01602080910402602001604051908101604052809291908181526020018280546001816001161561010002031660029004801561183b5780601f106118105761010080835404028352916020019161183b565b820191906000526020600020905b81548152906001019060200180831161181e57829003601f168201915b505050505081526020016003820154815260200160048201548152602001600582018054600181600116156101000203166002900480601f0160208091040260200160405190810160405280929190818152602001828054600181600116156101000203166002900480156118f15780601f106118c6576101008083540402835291602001916118f1565b820191906000526020600020905b8154815290600101906020018083116118d457829003601f168201915b50505050508152602001600682018054600181600116156101000203166002900480601f0160208091040260200160405190810160405280929190818152602001828054600181600116156101000203166002900480156119935780601f1061196857610100808354040283529160200191611993565b820191906000526020600020905b81548152906001019060200180831161197657829003601f168201915b5050505050815250508260018303815181106119ab57fe5b602002602001018190525080806001019150506116cf565b50809250505090565b828054600181600116156101000203166002900490600052602060002090601f016020900481019282601f10611a0d57805160ff1916838001178555611a3b565b82800160010185558215611a3b579182015b82811115611a3a578251825591602001919060010190611a1f565b5b509050611a489190611b08565b5090565b828054828255906000526020600020908101928215611a88579160200282015b82811115611a87578251825591602001919060010190611a6c565b5b509050611a959190611b08565b5090565b6040518060a0016040528060008152602001606081526020016060815260200160008019168152602001606081525090565b6040518060e00160405280600081526020016060815260200160608152602001600081526020016000815260200160608152602001606081525090565b611b2a91905b80821115611b26576000816000905550600101611b0e565b5090565b90565b600082601f830112611b3e57600080fd5b8135611b51611b4c8261296d565b612940565b91508181835260208401935060208101905083856020840282011115611b7657600080fd5b60005b83811015611ba65781611b8c8882611c19565b845260208401935060208301925050600181019050611b79565b5050505092915050565b600081359050611bbf81612b8f565b92915050565b600082601f830112611bd657600080fd5b8135611be9611be482612995565b612940565b91508082526020830160208301858383011115611c0557600080fd5b611c10838284612b2f565b50505092915050565b600081359050611c2881612b9f565b92915050565b600060208284031215611c4057600080fd5b600082013567ffffffffffffffff811115611c5a57600080fd5b611c6684828501611bc5565b91505092915050565b60008060008060808587031215611c8557600080fd5b600085013567ffffffffffffffff811115611c9f57600080fd5b611cab87828801611bc5565b945050602085013567ffffffffffffffff811115611cc857600080fd5b611cd487828801611bc5565b935050604085013567ffffffffffffffff811115611cf157600080fd5b611cfd87828801611b2d565b9250506060611d0e87828801611c19565b91505092959194509250565b60008060008060808587031215611d3057600080fd5b600085013567ffffffffffffffff811115611d4a57600080fd5b611d5687828801611bc5565b945050602085013567ffffffffffffffff811115611d7357600080fd5b611d7f87828801611bc5565b935050604085013567ffffffffffffffff811115611d9c57600080fd5b611da887828801611bc5565b925050606085013567ffffffffffffffff811115611dc557600080fd5b611dd187828801611bc5565b91505092959194509250565b600080600080600060a08688031215611df557600080fd5b600086013567ffffffffffffffff811115611e0f57600080fd5b611e1b88828901611bc5565b955050602086013567ffffffffffffffff811115611e3857600080fd5b611e4488828901611bc5565b9450506040611e5588828901611c19565b935050606086013567ffffffffffffffff811115611e7257600080fd5b611e7e88828901611bc5565b925050608086013567ffffffffffffffff811115611e9b57600080fd5b611ea788828901611bc5565b9150509295509295909350565b600060208284031215611ec657600080fd5b6000611ed484828501611c19565b91505092915050565b60008060408385031215611ef057600080fd5b6000611efe85828601611c19565b9250506020611f0f85828601611bb0565b9150509250929050565b60008060408385031215611f2c57600080fd5b6000611f3a85828601611c19565b9250506020611f4b85828601611c19565b9150509250929050565b6000611f618383612412565b60608301905092915050565b6000611f798383612454565b905092915050565b6000611f8d8383612505565b905092915050565b611f9e81612ac4565b82525050565b6000611faf82612a06565b611fb98185612a64565b9350611fc4836129c1565b8060005b83811015611ff5578151611fdc8882611f55565b9750611fe783612a3d565b925050600181019050611fc8565b5085935050505092915050565b600061200d82612a11565b6120178185612a75565b935083602082028501612029856129d1565b8060005b8581101561206557848403895281516120468582611f6d565b945061205183612a4a565b925060208a0199505060018101905061202d565b50829750879550505050505092915050565b600061208282612a1c565b61208c8185612a86565b93508360208202850161209e856129e1565b8060005b858110156120da57848403895281516120bb8582611f81565b94506120c683612a57565b925060208a019950506001810190506120a2565b50829750879550505050505092915050565b6120f581612ad6565b82525050565b61210481612ad6565b82525050565b61211381612b1d565b82525050565b61212281612b1d565b82525050565b600061213382612a32565b61213d8185612aa8565b935061214d818560208601612b3e565b61215681612b71565b840191505092915050565b600061216c82612a32565b6121768185612ab9565b9350612186818560208601612b3e565b80840191505092915050565b600061219d82612a27565b6121a78185612a97565b93506121b7818560208601612b3e565b6121c081612b71565b840191505092915050565b60006121d682612a27565b6121e08185612aa8565b93506121f0818560208601612b3e565b6121f981612b71565b840191505092915050565b60008154600181166000811461222157600181146122465761228a565b607f60028304166122328187612ab9565b955060ff198316865280860193505061228a565b600282046122548187612ab9565b955061225f856129f1565b60005b8281101561228157815481890152600182019150602081019050612262565b82880195505050505b505092915050565b600061229f600e83612aa8565b91507f537461646520696e76616c6964650000000000000000000000000000000000006000830152602082019050919050565b60006122df601283612aa8565b91507f50726f6475697420696e6578697374616e7400000000000000000000000000006000830152602082019050919050565b600061231f601483612aa8565b91507f4e616d652063616e6e6f7420626520656d7074790000000000000000000000006000830152602082019050919050565b600061235f601883612aa8565b91507f50617373776f72642063616e6e6f7420626520656d70747900000000000000006000830152602082019050919050565b600061239f601583612aa8565b91507f456d61696c2063616e6e6f7420626520656d70747900000000000000000000006000830152602082019050919050565b60006123df601783612aa8565b91507f496e76616c696420726177206d6174657269616c2049440000000000000000006000830152602082019050919050565b6060820160008201516124286000850182612589565b50602082015161243b6020850182612589565b50604082015161244e604085018261210a565b50505050565b600060e08301600083015161246c6000860182612589565b50602083015184820360208601526124848282612192565b9150506040830151848203604086015261249e8282612192565b91505060608301516124b36060860182612589565b5060808301516124c66080860182612589565b5060a083015184820360a08601526124de8282612192565b91505060c083015184820360c08601526124f88282612192565b9150508091505092915050565b600060a08301600083015161251d6000860182612589565b50602083015184820360208601526125358282612192565b9150506040830151848203604086015261254f8282612192565b915050606083015161256460608601826120ec565b506080830151848203608086015261257c8282612192565b9150508091505092915050565b61259281612b13565b82525050565b6125a181612b13565b82525050565b60006125b38284612161565b915081905092915050565b60006125ca8284612204565b915081905092915050565b60006020820190506125ea6000830184611f95565b92915050565b6000602082019050818103600083015261260a8184611fa4565b905092915050565b6000602082019050818103600083015261262c8184612002565b905092915050565b6000602082019050818103600083015261264e8184612077565b905092915050565b6000602082019050818103600083015261266f81612292565b9050919050565b6000602082019050818103600083015261268f816122d2565b9050919050565b600060208201905081810360008301526126af81612312565b9050919050565b600060208201905081810360008301526126cf81612352565b9050919050565b600060208201905081810360008301526126ef81612392565b9050919050565b6000602082019050818103600083015261270f816123d2565b9050919050565b600060208201905061272b6000830184612598565b92915050565b60006040820190506127466000830185612598565b6127536020830184612119565b9392505050565b600060408201905061276f6000830185612598565b81810360208301526127818184612128565b90509392505050565b600060a08201905061279f6000830188612598565b81810360208301526127b181876121cb565b905081810360408301526127c581866121cb565b90506127d460608301856120fb565b81810360808301526127e681846121cb565b90509695505050505050565b600060e082019050612807600083018a612598565b818103602083015261281981896121cb565b9050818103604083015261282d81886121cb565b905061283c6060830187612598565b6128496080830186612598565b81810360a083015261285b81856121cb565b905081810360c083015261286f81846121cb565b905098975050505050505050565b600061010082019050612893600083018b612598565b81810360208301526128a5818a6121cb565b905081810360408301526128b981896121cb565b90506128c86060830188612598565b6128d56080830187612598565b6128e260a0830186612598565b6128ef60c0830185612598565b6128fc60e0830184612119565b9998505050505050505050565b600060608201905061291e6000830186612598565b61292b6020830185612598565b6129386040830184612119565b949350505050565b6000604051905081810181811067ffffffffffffffff8211171561296357600080fd5b8060405250919050565b600067ffffffffffffffff82111561298457600080fd5b602082029050602081019050919050565b600067ffffffffffffffff8211156129ac57600080fd5b601f19601f8301169050602081019050919050565b6000819050602082019050919050565b6000819050602082019050919050565b6000819050602082019050919050565b60008190508160005260206000209050919050565b600081519050919050565b600081519050919050565b600081519050919050565b600081519050919050565b600081519050919050565b6000602082019050919050565b6000602082019050919050565b6000602082019050919050565b600082825260208201905092915050565b600082825260208201905092915050565b600082825260208201905092915050565b600082825260208201905092915050565b600082825260208201905092915050565b600081905092915050565b6000612acf82612af3565b9050919050565b6000819050919050565b6000819050612aee82612b82565b919050565b600073ffffffffffffffffffffffffffffffffffffffff82169050919050565b6000819050919050565b6000612b2882612ae0565b9050919050565b82818337600083830152505050565b60005b83811015612b5c578082015181840152602081019050612b41565b83811115612b6b576000848401525b50505050565b6000601f19601f8301169050919050565b60048110612b8c57fe5b50565b60048110612b9c57600080fd5b50565b612ba881612b13565b8114612bb357600080fd5b5056fea365627a7a7231582078ab35e4763c4778b50ac9bb0c7993816fdc825db11e24a694ce11d6f9b1368b6c6578706572696d656e74616cf564736f6c63430005100040",
  "source": "// SPDX-License-Identifier: MIT\r\npragma solidity >=0.4.22 <0.9.0;\r\npragma experimental ABIEncoderV2;\r\n\r\ncontract SupplyChain {\r\n    // Propritaire du contrat\r\n    address public Owner;\r\n\r\n    constructor() public {\r\n        Owner = msg.sender;\r\n    }\r\n\r\n    modifier onlyByOwner() {\r\n        require(msg.sender == Owner);\r\n        _;\r\n    }\r\n\r\n    enum STAGE {\r\n        Manufacture,\r\n        Distribution,\r\n        Retail,\r\n        Sold\r\n    }\r\n\r\n    uint256 public rmsCtr = 0;\r\n    uint256 public productCtr = 0;\r\n    uint256 public userCount = 0;\r\n\r\n    struct RW {\r\n        uint256 id;\r\n        string name;\r\n        string description;\r\n        uint256 price;\r\n        uint256 userId;\r\n        string image;\r\n        string origin;\r\n    }\r\n\r\n    struct Product {\r\n        uint256 id;\r\n        string name;\r\n        string description;\r\n        uint256[] rwIds;\r\n        uint256 manufacturerId;\r\n        uint256 distributorId;\r\n        uint256 retailerId;\r\n        uint256 currentHandlerId;\r\n        STAGE stage;\r\n    }\r\n\r\n    struct User {\r\n        uint256 id;\r\n        string name;\r\n        string email;\r\n        bytes32 passwordHash; // Stockage scuris avec un hash\r\n        string role; // Role de l'utilisateur comme une chane de caractres\r\n    }\r\n\r\n    struct ProductHistory {\r\n        uint256 timestamp;\r\n        uint256 handlerId;\r\n        STAGE stage;\r\n    }\r\n\r\n    mapping(uint256 => User) public users;\r\n    mapping(uint256 => RW) public rms;\r\n    mapping(uint256 => Product) public productStock;\r\n    mapping(uint256 => ProductHistory[]) public productHistories;\r\n\r\n    // vnements\r\n    event RawMaterialAdded(uint256 id, string name);\r\n    event ProductAdded(uint256 id, string name);\r\n    event ProductStageUpdated(uint256 id, STAGE newStage);\r\n\r\n    // Ajouter une matire premire\r\n    function addRawMaterial(\r\n    string memory _name,\r\n    string memory _description,\r\n    uint256 _price,\r\n    string memory _image,\r\n    string memory _origin\r\n) public onlyByOwner {\r\n    rmsCtr++;\r\n    rms[rmsCtr] = RW({\r\n        id: rmsCtr,\r\n        name: _name,\r\n        description: _description,\r\n        price: _price,\r\n        userId: 0,\r\n        image: _image,\r\n        origin: _origin\r\n    });\r\n    emit RawMaterialAdded(rmsCtr, _name);\r\n}\r\n\r\n\r\n    // Ajouter un utilisateur\r\n    function addUser(\r\n        string memory _name,\r\n        string memory _email,\r\n        string memory _password,\r\n        string memory _role\r\n    ) public {\r\n        require(bytes(_name).length > 0, \"Name cannot be empty\");\r\n        require(bytes(_email).length > 0, \"Email cannot be empty\");\r\n        require(bytes(_password).length > 0, \"Password cannot be empty\");\r\n\r\n        userCount++;\r\n        users[userCount] = User({\r\n            id: userCount,\r\n            name: _name,\r\n            email: _email,\r\n            passwordHash: keccak256(abi.encodePacked(_password)),\r\n            role: _role\r\n        });\r\n    }\r\n\r\n    // Obtenir les utilisateurs par rle\r\n    function getUsersByRole(string memory _role) public view returns (User[] memory) {\r\n        uint256 count = 0;\r\n        for (uint256 i = 1; i <= userCount; i++) {\r\n            if (\r\n                keccak256(abi.encodePacked(users[i].role)) == keccak256(abi.encodePacked(_role))\r\n            ) {\r\n                count++;\r\n            }\r\n        }\r\n\r\n        User[] memory filteredUsers = new User[](count);\r\n        uint256 index = 0;\r\n        for (uint256 i = 1; i <= userCount; i++) {\r\n            if (\r\n                keccak256(abi.encodePacked(users[i].role)) == keccak256(abi.encodePacked(_role))\r\n            ) {\r\n                filteredUsers[index] = users[i];\r\n                index++;\r\n            }\r\n        }\r\n        return filteredUsers;\r\n    }\r\n\r\n    // Ajouter un produit\r\n    function addProduct(\r\n        string memory _name,\r\n        string memory _description,\r\n        uint256[] memory _rwIds,\r\n        uint256 _manufacturerId\r\n    ) public onlyByOwner {\r\n        for (uint256 i = 0; i < _rwIds.length; i++) {\r\n            require(_rwIds[i] > 0 && _rwIds[i] <= rmsCtr, \"Invalid raw material ID\");\r\n        }\r\n\r\n        productCtr++;\r\n        productStock[productCtr] = Product({\r\n            id: productCtr,\r\n            name: _name,\r\n            description: _description,\r\n            rwIds: _rwIds,\r\n            manufacturerId: _manufacturerId,\r\n            distributorId: 0,\r\n            retailerId: 0,\r\n            currentHandlerId: _manufacturerId,\r\n            stage: STAGE.Manufacture\r\n        });\r\n\r\n        emit ProductAdded(productCtr, _name);\r\n    }\r\n\r\n    // Mettre  jour le stade d'un produit\r\n    function updateProductStage(uint256 _productId, STAGE _newStage) public onlyByOwner {\r\n        require(_productId > 0 && _productId <= productCtr, \"Produit inexistant\");\r\n        require(\r\n            uint8(_newStage) > uint8(productStock[_productId].stage),\r\n            \"Stade invalide\"\r\n        );\r\n        productStock[_productId].stage = _newStage;\r\n\r\n        productHistories[_productId].push(\r\n            ProductHistory({\r\n                timestamp: block.timestamp,\r\n                handlerId: productStock[_productId].currentHandlerId,\r\n                stage: _newStage\r\n            })\r\n        );\r\n\r\n        emit ProductStageUpdated(_productId, _newStage);\r\n    }\r\n\r\n    // Obtenir l'historique d'un produit\r\n    function getProductHistory(uint256 _productId) public view returns (ProductHistory[] memory) {\r\n        require(_productId > 0 && _productId <= productCtr, \"Produit inexistant\");\r\n        return productHistories[_productId];\r\n    }\r\n   // Fonction pour obtenir toutes les matires premires\r\nfunction getAllRawMaterials() public view returns (RW[] memory) {\r\n    uint256 count = rmsCtr; // Nombre total de matires premires\r\n\r\n    // Crer un tableau dynamique avec le nombre total de matires premires\r\n    RW[] memory allRawMaterials = new RW[](count);\r\n\r\n    // Remplir le tableau avec toutes les matires premires\r\n    for (uint256 i = 1; i <= rmsCtr; i++) {\r\n        allRawMaterials[i - 1] = rms[i];\r\n    }\r\n\r\n    return allRawMaterials;\r\n}\r\n\r\n\r\n\r\n}\r\n",
  "sourcePath": "C:\\Users\\J.P.M\\Desktop\\supplychain\\contracts\\SupplyChain.sol",
  "compiler": {
    "name": "solc",
    "version": "0.5.16+commit.9c3226ce.Emscripten.clang"
  },
  "schemaVersion": "3.4.16",
  "updatedAt": "2024-12-04T23:43:51.048Z",
  "networkType": "ethereum",
  "devdoc": {
    "methods": {}
  },
  "userdoc": {
    "methods": {}
  }
}